{
  "_format": "hh-sol-artifact-1",
  "contractName": "AggLayerGateway",
  "sourceName": "contracts/v2/AggLayerGateway.sol",
  "abi": [
    {
      "inputs": [],
      "stateMutability": "nonpayable",
      "type": "constructor"
    },
    {
      "inputs": [],
      "name": "AccessControlBadConfirmation",
      "type": "error"
    },
    {
      "inputs": [
        {
          "internalType": "address",
          "name": "account",
          "type": "address"
        },
        {
          "internalType": "bytes32",
          "name": "neededRole",
          "type": "bytes32"
        }
      ],
      "name": "AccessControlUnauthorizedAccount",
      "type": "error"
    },
    {
      "inputs": [],
      "name": "AggchainVKeyAlreadyExists",
      "type": "error"
    },
    {
      "inputs": [],
      "name": "AggchainVKeyNotFound",
      "type": "error"
    },
    {
      "inputs": [],
      "name": "OnlyAggLayerAdmin",
      "type": "error"
    },
    {
      "inputs": [],
      "name": "OnlyPendingAggLayerAdmin",
      "type": "error"
    },
    {
      "inputs": [
        {
          "internalType": "address",
          "name": "verifier",
          "type": "address"
        }
      ],
      "name": "RouteAlreadyExists",
      "type": "error"
    },
    {
      "inputs": [
        {
          "internalType": "bytes4",
          "name": "selector",
          "type": "bytes4"
        }
      ],
      "name": "RouteIsFrozen",
      "type": "error"
    },
    {
      "inputs": [
        {
          "internalType": "bytes4",
          "name": "selector",
          "type": "bytes4"
        }
      ],
      "name": "RouteNotFound",
      "type": "error"
    },
    {
      "inputs": [],
      "name": "SelectorCannotBeZero",
      "type": "error"
    },
    {
      "anonymous": false,
      "inputs": [
        {
          "indexed": false,
          "internalType": "address",
          "name": "newAggLayerAdmin",
          "type": "address"
        }
      ],
      "name": "AcceptAggLayerAdminRole",
      "type": "event"
    },
    {
      "anonymous": false,
      "inputs": [
        {
          "indexed": false,
          "internalType": "bytes4",
          "name": "selector",
          "type": "bytes4"
        },
        {
          "indexed": false,
          "internalType": "bytes32",
          "name": "newVKey",
          "type": "bytes32"
        }
      ],
      "name": "AddDefaultAggchainVKey",
      "type": "event"
    },
    {
      "anonymous": false,
      "inputs": [
        {
          "indexed": false,
          "internalType": "uint8",
          "name": "version",
          "type": "uint8"
        }
      ],
      "name": "Initialized",
      "type": "event"
    },
    {
      "anonymous": false,
      "inputs": [
        {
          "indexed": true,
          "internalType": "bytes32",
          "name": "role",
          "type": "bytes32"
        },
        {
          "indexed": true,
          "internalType": "bytes32",
          "name": "previousAdminRole",
          "type": "bytes32"
        },
        {
          "indexed": true,
          "internalType": "bytes32",
          "name": "newAdminRole",
          "type": "bytes32"
        }
      ],
      "name": "RoleAdminChanged",
      "type": "event"
    },
    {
      "anonymous": false,
      "inputs": [
        {
          "indexed": true,
          "internalType": "bytes32",
          "name": "role",
          "type": "bytes32"
        },
        {
          "indexed": true,
          "internalType": "address",
          "name": "account",
          "type": "address"
        },
        {
          "indexed": true,
          "internalType": "address",
          "name": "sender",
          "type": "address"
        }
      ],
      "name": "RoleGranted",
      "type": "event"
    },
    {
      "anonymous": false,
      "inputs": [
        {
          "indexed": true,
          "internalType": "bytes32",
          "name": "role",
          "type": "bytes32"
        },
        {
          "indexed": true,
          "internalType": "address",
          "name": "account",
          "type": "address"
        },
        {
          "indexed": true,
          "internalType": "address",
          "name": "sender",
          "type": "address"
        }
      ],
      "name": "RoleRevoked",
      "type": "event"
    },
    {
      "anonymous": false,
      "inputs": [
        {
          "indexed": false,
          "internalType": "bytes4",
          "name": "selector",
          "type": "bytes4"
        },
        {
          "indexed": false,
          "internalType": "address",
          "name": "verifier",
          "type": "address"
        },
        {
          "indexed": false,
          "internalType": "bytes32",
          "name": "pessimisticVKey",
          "type": "bytes32"
        }
      ],
      "name": "RouteAdded",
      "type": "event"
    },
    {
      "anonymous": false,
      "inputs": [
        {
          "indexed": false,
          "internalType": "bytes4",
          "name": "selector",
          "type": "bytes4"
        },
        {
          "indexed": false,
          "internalType": "address",
          "name": "verifier",
          "type": "address"
        }
      ],
      "name": "RouteFrozen",
      "type": "event"
    },
    {
      "anonymous": false,
      "inputs": [
        {
          "indexed": false,
          "internalType": "address",
          "name": "newPendingAggLayerAdmin",
          "type": "address"
        }
      ],
      "name": "TransferAggLayerAdminRole",
      "type": "event"
    },
    {
      "anonymous": false,
      "inputs": [
        {
          "indexed": false,
          "internalType": "bytes4",
          "name": "selector",
          "type": "bytes4"
        },
        {
          "indexed": false,
          "internalType": "bytes32",
          "name": "newVKey",
          "type": "bytes32"
        }
      ],
      "name": "UpdateDefaultAggchainVKey",
      "type": "event"
    },
    {
      "anonymous": false,
      "inputs": [
        {
          "indexed": false,
          "internalType": "bytes4",
          "name": "selector",
          "type": "bytes4"
        },
        {
          "indexed": false,
          "internalType": "address",
          "name": "verifier",
          "type": "address"
        },
        {
          "indexed": false,
          "internalType": "bytes32",
          "name": "newPessimisticVKey",
          "type": "bytes32"
        }
      ],
      "name": "UpdatePessimisticVKey",
      "type": "event"
    },
    {
      "inputs": [],
      "name": "DEFAULT_ADMIN_ROLE",
      "outputs": [
        {
          "internalType": "bytes32",
          "name": "",
          "type": "bytes32"
        }
      ],
      "stateMutability": "view",
      "type": "function"
    },
    {
      "inputs": [
        {
          "internalType": "bytes4",
          "name": "defaultAggchainSelector",
          "type": "bytes4"
        },
        {
          "internalType": "bytes32",
          "name": "newAggchainVKey",
          "type": "bytes32"
        }
      ],
      "name": "addDefaultAggchainVKey",
      "outputs": [],
      "stateMutability": "nonpayable",
      "type": "function"
    },
    {
      "inputs": [
        {
          "internalType": "bytes4",
          "name": "pessimisticVKeySelector",
          "type": "bytes4"
        },
        {
          "internalType": "address",
          "name": "verifier",
          "type": "address"
        },
        {
          "internalType": "bytes32",
          "name": "pessimisticVKey",
          "type": "bytes32"
        }
      ],
      "name": "addPessimisticVKeyRoute",
      "outputs": [],
      "stateMutability": "nonpayable",
      "type": "function"
    },
    {
      "inputs": [
        {
          "internalType": "bytes4",
          "name": "defaultAggchainSelector",
          "type": "bytes4"
        }
      ],
      "name": "defaultAggchainVKeys",
      "outputs": [
        {
          "internalType": "bytes32",
          "name": "defaultAggchainVKey",
          "type": "bytes32"
        }
      ],
      "stateMutability": "view",
      "type": "function"
    },
    {
      "inputs": [
        {
          "internalType": "bytes4",
          "name": "pessimisticVKeySelector",
          "type": "bytes4"
        }
      ],
      "name": "freezePessimisticVKeyRoute",
      "outputs": [],
      "stateMutability": "nonpayable",
      "type": "function"
    },
    {
      "inputs": [
        {
          "internalType": "bytes4",
          "name": "defaultAggchainSelector",
          "type": "bytes4"
        }
      ],
      "name": "getDefaultAggchainVKey",
      "outputs": [
        {
          "internalType": "bytes32",
          "name": "",
          "type": "bytes32"
        }
      ],
      "stateMutability": "view",
      "type": "function"
    },
    {
      "inputs": [
        {
          "internalType": "bytes32",
          "name": "role",
          "type": "bytes32"
        }
      ],
      "name": "getRoleAdmin",
      "outputs": [
        {
          "internalType": "bytes32",
          "name": "",
          "type": "bytes32"
        }
      ],
      "stateMutability": "view",
      "type": "function"
    },
    {
      "inputs": [
        {
          "internalType": "bytes32",
          "name": "role",
          "type": "bytes32"
        },
        {
          "internalType": "address",
          "name": "account",
          "type": "address"
        }
      ],
      "name": "grantRole",
      "outputs": [],
      "stateMutability": "nonpayable",
      "type": "function"
    },
    {
      "inputs": [
        {
          "internalType": "bytes32",
          "name": "role",
          "type": "bytes32"
        },
        {
          "internalType": "address",
          "name": "account",
          "type": "address"
        }
      ],
      "name": "hasRole",
      "outputs": [
        {
          "internalType": "bool",
          "name": "",
          "type": "bool"
        }
      ],
      "stateMutability": "view",
      "type": "function"
    },
    {
      "inputs": [
        {
          "internalType": "address",
          "name": "defaultAdmin",
          "type": "address"
        },
        {
          "internalType": "address",
          "name": "aggchainDefaultVKeyRole",
          "type": "address"
        },
        {
          "internalType": "address",
          "name": "addRouteRole",
          "type": "address"
        },
        {
          "internalType": "address",
          "name": "freezeRouteRole",
          "type": "address"
        }
      ],
      "name": "initialize",
      "outputs": [],
      "stateMutability": "nonpayable",
      "type": "function"
    },
    {
      "inputs": [
        {
          "internalType": "bytes4",
          "name": "pessimisticVKeySelector",
          "type": "bytes4"
        }
      ],
      "name": "pessimisticVKeyRoutes",
      "outputs": [
        {
          "internalType": "address",
          "name": "verifier",
          "type": "address"
        },
        {
          "internalType": "bytes32",
          "name": "pessimisticVKey",
          "type": "bytes32"
        },
        {
          "internalType": "bool",
          "name": "frozen",
          "type": "bool"
        }
      ],
      "stateMutability": "view",
      "type": "function"
    },
    {
      "inputs": [
        {
          "internalType": "bytes32",
          "name": "role",
          "type": "bytes32"
        },
        {
          "internalType": "address",
          "name": "callerConfirmation",
          "type": "address"
        }
      ],
      "name": "renounceRole",
      "outputs": [],
      "stateMutability": "nonpayable",
      "type": "function"
    },
    {
      "inputs": [
        {
          "internalType": "bytes32",
          "name": "role",
          "type": "bytes32"
        },
        {
          "internalType": "address",
          "name": "account",
          "type": "address"
        }
      ],
      "name": "revokeRole",
      "outputs": [],
      "stateMutability": "nonpayable",
      "type": "function"
    },
    {
      "inputs": [
        {
          "internalType": "bytes4",
          "name": "interfaceId",
          "type": "bytes4"
        }
      ],
      "name": "supportsInterface",
      "outputs": [
        {
          "internalType": "bool",
          "name": "",
          "type": "bool"
        }
      ],
      "stateMutability": "view",
      "type": "function"
    },
    {
      "inputs": [
        {
          "internalType": "bytes4",
          "name": "defaultAggchainSelector",
          "type": "bytes4"
        },
        {
          "internalType": "bytes32",
          "name": "newDefaultAggchainVKey",
          "type": "bytes32"
        }
      ],
      "name": "updateDefaultAggchainVKey",
      "outputs": [],
      "stateMutability": "nonpayable",
      "type": "function"
    },
    {
      "inputs": [
        {
          "internalType": "bytes",
          "name": "publicValues",
          "type": "bytes"
        },
        {
          "internalType": "bytes",
          "name": "proofBytes",
          "type": "bytes"
        }
      ],
      "name": "verifyPessimisticProof",
      "outputs": [],
      "stateMutability": "view",
      "type": "function"
    }
  ],
  "bytecode": "0x6080604052348015600e575f5ffd5b5060156019565b60d4565b5f54610100900460ff161560835760405162461bcd60e51b815260206004820152602760248201527f496e697469616c697a61626c653a20636f6e747261637420697320696e697469604482015266616c697a696e6760c81b606482015260840160405180910390fd5b5f5460ff908116101560d2575f805460ff191660ff9081179091556040519081527f7f26b83ff96e1f2b6a682f133852f6798a09c465da95921460cefb38474024989060200160405180910390a15b565b6113dc806100e15f395ff3fe608060405234801561000f575f5ffd5b50600436106100fb575f3560e01c806391d1485411610093578063a48fd37711610063578063a48fd377146102b3578063d547741f146102c6578063f4c44681146102d9578063f8c8765e146102ec575f5ffd5b806391d14854146102415780639584a5161461028657806395d2a39114610299578063a217fddf146102ac575f5ffd5b80636cabfdab116100ce5780636cabfdab14610180578063716be07514610193578063818c8c211461020f57806382bfaea114610222575f5ffd5b806301ffc9a7146100ff578063248a9ca3146101275780632f2ff15d1461015857806336568abe1461016d575b5f5ffd5b61011261010d3660046110b2565b6102ff565b60405190151581526020015b60405180910390f35b61014a6101353660046110d2565b5f908152600160208190526040909120015490565b60405190815260200161011e565b61016b61016636600461110c565b610397565b005b61016b61017b36600461110c565b6103c2565b61014a61018e3660046110b2565b610420565b6101db6101a13660046110b2565b60036020525f908152604090208054600182015460029092015473ffffffffffffffffffffffffffffffffffffffff909116919060ff1683565b6040805173ffffffffffffffffffffffffffffffffffffffff9094168452602084019290925215159082015260600161011e565b61016b61021d366004611136565b6104bb565b61014a6102303660046110b2565b60026020525f908152604090205481565b61011261024f36600461110c565b5f91825260016020908152604080842073ffffffffffffffffffffffffffffffffffffffff93909316845291905290205460ff1690565b61016b61029436600461115e565b6105bf565b61016b6102a73660046110b2565b610793565b61014a5f81565b61016b6102c13660046111dd565b61095f565b61016b6102d436600461110c565b610b32565b61016b6102e7366004611136565b610b57565b61016b6102fa366004611249565b610c51565b5f7fffffffff0000000000000000000000000000000000000000000000000000000082167f7965db0b00000000000000000000000000000000000000000000000000000000148061039157507f01ffc9a7000000000000000000000000000000000000000000000000000000007fffffffff000000000000000000000000000000000000000000000000000000008316145b92915050565b5f82815260016020819052604090912001546103b281610e61565b6103bc8383610e6e565b50505050565b73ffffffffffffffffffffffffffffffffffffffff81163314610411576040517f6697b23200000000000000000000000000000000000000000000000000000000815260040160405180910390fd5b61041b8282610f36565b505050565b7fffffffff0000000000000000000000000000000000000000000000000000000081165f90815260026020526040812054610487576040517f925e5a3a00000000000000000000000000000000000000000000000000000000815260040160405180910390fd5b507fffffffff00000000000000000000000000000000000000000000000000000000165f9081526002602052604090205490565b7f131410eab1236cee2db19035b0e825c94e5ab705dffe23321dd53856da5316176104e581610e61565b7fffffffff0000000000000000000000000000000000000000000000000000000083165f908152600260205260409020541561054d576040517f22a1bdc400000000000000000000000000000000000000000000000000000000815260040160405180910390fd5b7fffffffff0000000000000000000000000000000000000000000000000000000083165f81815260026020908152604091829020859055815192835282018490527f64b3528974574a41ddc830adc96440dccb99e64ede6b863194b951bfbd17e1bc91015b60405180910390a1505050565b7fbfd0f3f7fdd4ef1102d2a9fc8ebd968f499bdadd596153e0225ac272f24fec8a6105e981610e61565b7fffffffff000000000000000000000000000000000000000000000000000000008416610642576040517f20acd28b00000000000000000000000000000000000000000000000000000000815260040160405180910390fd5b7fffffffff0000000000000000000000000000000000000000000000000000000084165f908152600360205260409020805473ffffffffffffffffffffffffffffffffffffffff16156106e15780546040517f2b87e79700000000000000000000000000000000000000000000000000000000815273ffffffffffffffffffffffffffffffffffffffff90911660048201526024015b60405180910390fd5b80547fffffffffffffffffffffffff00000000000000000000000000000000000000001673ffffffffffffffffffffffffffffffffffffffff8516908117825560018201849055604080517fffffffff0000000000000000000000000000000000000000000000000000000088168152602081019290925281018490527f4c4455a30528c319643ae6fc35f3a0fcabde6c015f2a1a5270382c4a190b0fa3906060015b60405180910390a15050505050565b7fc6f8fe0d577fc34e0dcc0d9ef79aeaa2d166af890aa5273e1697043a055c63166107bd81610e61565b7fffffffff0000000000000000000000000000000000000000000000000000000082165f908152600360205260409020805473ffffffffffffffffffffffffffffffffffffffff1661085f576040517ff208777e0000000000000000000000000000000000000000000000000000000081527fffffffff00000000000000000000000000000000000000000000000000000000841660048201526024016106d8565b600281015460ff16156108c2576040517febf108230000000000000000000000000000000000000000000000000000000081527fffffffff00000000000000000000000000000000000000000000000000000000841660048201526024016106d8565b6002810180547fffffffffffffffffffffffffffffffffffffffffffffffffffffffffffffff001660011790558054604080517fffffffff000000000000000000000000000000000000000000000000000000008616815273ffffffffffffffffffffffffffffffffffffffff90921660208301527f63ad2363b183cb8bb562b9590c5b4428e2a566260df053db156576d3d171438d91016105b2565b5f61096d600482848661129a565b610976916112c1565b7fffffffff0000000000000000000000000000000000000000000000000000000081165f908152600360209081526040918290208251606081018452815473ffffffffffffffffffffffffffffffffffffffff1680825260018301549382019390935260029091015460ff1615159281019290925291925090610a49576040517ff208777e0000000000000000000000000000000000000000000000000000000081527fffffffff00000000000000000000000000000000000000000000000000000000831660048201526024016106d8565b806040015115610aa9576040517febf108230000000000000000000000000000000000000000000000000000000081527fffffffff00000000000000000000000000000000000000000000000000000000831660048201526024016106d8565b8051602082015173ffffffffffffffffffffffffffffffffffffffff909116906341493c60908888610ade886004818c61129a565b6040518663ffffffff1660e01b8152600401610afe95949392919061136e565b5f6040518083038186803b158015610b14575f5ffd5b505afa158015610b26573d5f5f3e3d5ffd5b50505050505050505050565b5f8281526001602081905260409091200154610b4d81610e61565b6103bc8383610f36565b7f131410eab1236cee2db19035b0e825c94e5ab705dffe23321dd53856da531617610b8181610e61565b7fffffffff0000000000000000000000000000000000000000000000000000000083165f90815260026020526040902054610be8576040517f925e5a3a00000000000000000000000000000000000000000000000000000000815260040160405180910390fd5b7fffffffff0000000000000000000000000000000000000000000000000000000083165f81815260026020908152604091829020859055815192835282018490527f3d81518c9943e29af3aa7c037594823b2dee8d8a8136d0eb25721ced48eb74e691016105b2565b5f54610100900460ff1615808015610c6f57505f54600160ff909116105b80610c885750303b158015610c8857505f5460ff166001145b610d14576040517f08c379a000000000000000000000000000000000000000000000000000000000815260206004820152602e60248201527f496e697469616c697a61626c653a20636f6e747261637420697320616c72656160448201527f647920696e697469616c697a656400000000000000000000000000000000000060648201526084016106d8565b5f80547fffffffffffffffffffffffffffffffffffffffffffffffffffffffffffffff001660011790558015610d70575f80547fffffffffffffffffffffffffffffffffffffffffffffffffffffffffffff00ff166101001790555b610d7a5f86610e6e565b50610da57f131410eab1236cee2db19035b0e825c94e5ab705dffe23321dd53856da53161785610e6e565b50610dd07fbfd0f3f7fdd4ef1102d2a9fc8ebd968f499bdadd596153e0225ac272f24fec8a84610e6e565b50610dfb7fc6f8fe0d577fc34e0dcc0d9ef79aeaa2d166af890aa5273e1697043a055c631683610e6e565b508015610e5a575f80547fffffffffffffffffffffffffffffffffffffffffffffffffffffffffffff00ff169055604051600181527f7f26b83ff96e1f2b6a682f133852f6798a09c465da95921460cefb384740249890602001610784565b5050505050565b610e6b8133610ff3565b50565b5f82815260016020908152604080832073ffffffffffffffffffffffffffffffffffffffff8516845290915281205460ff16610f2f575f83815260016020818152604080842073ffffffffffffffffffffffffffffffffffffffff8716808652925280842080547fffffffffffffffffffffffffffffffffffffffffffffffffffffffffffffff00169093179092559051339286917f2f8788117e7eff1d82e926ec794901d17c78024a50270940304540a733656f0d9190a4506001610391565b505f610391565b5f82815260016020908152604080832073ffffffffffffffffffffffffffffffffffffffff8516845290915281205460ff1615610f2f575f83815260016020908152604080832073ffffffffffffffffffffffffffffffffffffffff8616808552925280832080547fffffffffffffffffffffffffffffffffffffffffffffffffffffffffffffff0016905551339286917ff6391f5c32d9c69d2a47ea670b442974b53935d1edc7fd64eb21e047a839171b9190a4506001610391565b5f82815260016020908152604080832073ffffffffffffffffffffffffffffffffffffffff8516845290915290205460ff1661107a576040517fe2517d3f00000000000000000000000000000000000000000000000000000000815273ffffffffffffffffffffffffffffffffffffffff82166004820152602481018390526044016106d8565b5050565b80357fffffffff00000000000000000000000000000000000000000000000000000000811681146110ad575f5ffd5b919050565b5f602082840312156110c2575f5ffd5b6110cb8261107e565b9392505050565b5f602082840312156110e2575f5ffd5b5035919050565b803573ffffffffffffffffffffffffffffffffffffffff811681146110ad575f5ffd5b5f5f6040838503121561111d575f5ffd5b8235915061112d602084016110e9565b90509250929050565b5f5f60408385031215611147575f5ffd5b6111508361107e565b946020939093013593505050565b5f5f5f60608486031215611170575f5ffd5b6111798461107e565b9250611187602085016110e9565b929592945050506040919091013590565b5f5f83601f8401126111a8575f5ffd5b50813567ffffffffffffffff8111156111bf575f5ffd5b6020830191508360208285010111156111d6575f5ffd5b9250929050565b5f5f5f5f604085870312156111f0575f5ffd5b843567ffffffffffffffff811115611206575f5ffd5b61121287828801611198565b909550935050602085013567ffffffffffffffff811115611231575f5ffd5b61123d87828801611198565b95989497509550505050565b5f5f5f5f6080858703121561125c575f5ffd5b611265856110e9565b9350611273602086016110e9565b9250611281604086016110e9565b915061128f606086016110e9565b905092959194509250565b5f5f858511156112a8575f5ffd5b838611156112b4575f5ffd5b5050820193919092039150565b80357fffffffff000000000000000000000000000000000000000000000000000000008116906004841015611320577fffffffff00000000000000000000000000000000000000000000000000000000808560040360031b1b82161691505b5092915050565b81835281816020850137505f602082840101525f60207fffffffffffffffffffffffffffffffffffffffffffffffffffffffffffffffe0601f840116840101905092915050565b858152606060208201525f611387606083018688611327565b828103604084015261139a818587611327565b9897505050505050505056fea26469706673582212209ca560a43cc6b741ea64d3d99a7845510d4cc7bea22b33bf0ced7f15ff72365a64736f6c634300081c0033",
  "linkReferences": {},
  "deployedLinkReferences": {}
}