{
  "_format": "hh-sol-artifact-1",
  "contractName": "AggLayerGateway",
  "sourceName": "contracts/v2/AggLayerGateway.sol",
  "abi": [
    {
      "inputs": [],
      "stateMutability": "nonpayable",
      "type": "constructor"
    },
    {
      "inputs": [],
      "name": "AccessControlBadConfirmation",
      "type": "error"
    },
    {
      "inputs": [
        {
          "internalType": "address",
          "name": "account",
          "type": "address"
        },
        {
          "internalType": "bytes32",
          "name": "neededRole",
          "type": "bytes32"
        }
      ],
      "name": "AccessControlUnauthorizedAccount",
      "type": "error"
    },
    {
      "inputs": [],
      "name": "AggchainSignersHashNotInitialized",
      "type": "error"
    },
    {
      "inputs": [],
      "name": "AggchainSignersTooHigh",
      "type": "error"
    },
    {
      "inputs": [],
      "name": "AggchainVKeyAlreadyExists",
      "type": "error"
    },
    {
      "inputs": [],
      "name": "AggchainVKeyNotFound",
      "type": "error"
    },
    {
      "inputs": [],
      "name": "IndicesNotInDescendingOrder",
      "type": "error"
    },
    {
      "inputs": [],
      "name": "InvalidInitialization",
      "type": "error"
    },
    {
      "inputs": [],
      "name": "InvalidInitializer",
      "type": "error"
    },
    {
      "inputs": [],
      "name": "InvalidProofBytesLength",
      "type": "error"
    },
    {
      "inputs": [],
      "name": "InvalidThreshold",
      "type": "error"
    },
    {
      "inputs": [],
      "name": "InvalidZeroAddress",
      "type": "error"
    },
    {
      "inputs": [],
      "name": "NotInitializing",
      "type": "error"
    },
    {
      "inputs": [],
      "name": "OnlyAggLayerAdmin",
      "type": "error"
    },
    {
      "inputs": [],
      "name": "OnlyPendingAggLayerAdmin",
      "type": "error"
    },
    {
      "inputs": [],
      "name": "PPSelectorCannotBeZero",
      "type": "error"
    },
    {
      "inputs": [
        {
          "internalType": "bytes4",
          "name": "selector",
          "type": "bytes4"
        },
        {
          "internalType": "address",
          "name": "verifier",
          "type": "address"
        }
      ],
      "name": "RouteAlreadyExists",
      "type": "error"
    },
    {
      "inputs": [
        {
          "internalType": "bytes4",
          "name": "selector",
          "type": "bytes4"
        }
      ],
      "name": "RouteIsAlreadyFrozen",
      "type": "error"
    },
    {
      "inputs": [
        {
          "internalType": "bytes4",
          "name": "selector",
          "type": "bytes4"
        }
      ],
      "name": "RouteIsFrozen",
      "type": "error"
    },
    {
      "inputs": [
        {
          "internalType": "bytes4",
          "name": "selector",
          "type": "bytes4"
        }
      ],
      "name": "RouteNotFound",
      "type": "error"
    },
    {
      "inputs": [],
      "name": "SignerAlreadyExists",
      "type": "error"
    },
    {
      "inputs": [],
      "name": "SignerCannotBeZero",
      "type": "error"
    },
    {
      "inputs": [],
      "name": "SignerDoesNotExist",
      "type": "error"
    },
    {
      "inputs": [],
      "name": "SignerURLCannotBeEmpty",
      "type": "error"
    },
    {
      "inputs": [],
      "name": "VKeyCannotBeZero",
      "type": "error"
    },
    {
      "anonymous": false,
      "inputs": [
        {
          "indexed": false,
          "internalType": "bytes4",
          "name": "selector",
          "type": "bytes4"
        },
        {
          "indexed": false,
          "internalType": "bytes32",
          "name": "newVKey",
          "type": "bytes32"
        }
      ],
      "name": "AddDefaultAggchainVKey",
      "type": "event"
    },
    {
      "anonymous": false,
      "inputs": [
        {
          "indexed": false,
          "internalType": "uint64",
          "name": "version",
          "type": "uint64"
        }
      ],
      "name": "Initialized",
      "type": "event"
    },
    {
      "anonymous": false,
      "inputs": [
        {
          "indexed": true,
          "internalType": "bytes32",
          "name": "role",
          "type": "bytes32"
        },
        {
          "indexed": true,
          "internalType": "bytes32",
          "name": "previousAdminRole",
          "type": "bytes32"
        },
        {
          "indexed": true,
          "internalType": "bytes32",
          "name": "newAdminRole",
          "type": "bytes32"
        }
      ],
      "name": "RoleAdminChanged",
      "type": "event"
    },
    {
      "anonymous": false,
      "inputs": [
        {
          "indexed": true,
          "internalType": "bytes32",
          "name": "role",
          "type": "bytes32"
        },
        {
          "indexed": true,
          "internalType": "address",
          "name": "account",
          "type": "address"
        },
        {
          "indexed": true,
          "internalType": "address",
          "name": "sender",
          "type": "address"
        }
      ],
      "name": "RoleGranted",
      "type": "event"
    },
    {
      "anonymous": false,
      "inputs": [
        {
          "indexed": true,
          "internalType": "bytes32",
          "name": "role",
          "type": "bytes32"
        },
        {
          "indexed": true,
          "internalType": "address",
          "name": "account",
          "type": "address"
        },
        {
          "indexed": true,
          "internalType": "address",
          "name": "sender",
          "type": "address"
        }
      ],
      "name": "RoleRevoked",
      "type": "event"
    },
    {
      "anonymous": false,
      "inputs": [
        {
          "indexed": false,
          "internalType": "bytes4",
          "name": "selector",
          "type": "bytes4"
        },
        {
          "indexed": false,
          "internalType": "address",
          "name": "verifier",
          "type": "address"
        },
        {
          "indexed": false,
          "internalType": "bytes32",
          "name": "pessimisticVKey",
          "type": "bytes32"
        }
      ],
      "name": "RouteAdded",
      "type": "event"
    },
    {
      "anonymous": false,
      "inputs": [
        {
          "indexed": false,
          "internalType": "bytes4",
          "name": "selector",
          "type": "bytes4"
        },
        {
          "indexed": false,
          "internalType": "address",
          "name": "verifier",
          "type": "address"
        },
        {
          "indexed": false,
          "internalType": "bytes32",
          "name": "pessimisticVKey",
          "type": "bytes32"
        }
      ],
      "name": "RouteFrozen",
      "type": "event"
    },
    {
      "anonymous": false,
      "inputs": [
        {
          "indexed": false,
          "internalType": "address[]",
          "name": "aggchainSigners",
          "type": "address[]"
        },
        {
          "indexed": false,
          "internalType": "uint256",
          "name": "newThreshold",
          "type": "uint256"
        },
        {
          "indexed": false,
          "internalType": "bytes32",
          "name": "newAggchainMultisigHash",
          "type": "bytes32"
        }
      ],
      "name": "SignersAndThresholdUpdated",
      "type": "event"
    },
    {
      "anonymous": false,
      "inputs": [
        {
          "indexed": false,
          "internalType": "bytes4",
          "name": "selector",
          "type": "bytes4"
        }
      ],
      "name": "UnsetDefaultAggchainVKey",
      "type": "event"
    },
    {
      "anonymous": false,
      "inputs": [
        {
          "indexed": false,
          "internalType": "bytes4",
          "name": "selector",
          "type": "bytes4"
        },
        {
          "indexed": false,
          "internalType": "bytes32",
          "name": "previousVKey",
          "type": "bytes32"
        },
        {
          "indexed": false,
          "internalType": "bytes32",
          "name": "newVKey",
          "type": "bytes32"
        }
      ],
      "name": "UpdateDefaultAggchainVKey",
      "type": "event"
    },
    {
      "inputs": [],
      "name": "AGGLAYER_GATEWAY_VERSION",
      "outputs": [
        {
          "internalType": "string",
          "name": "",
          "type": "string"
        }
      ],
      "stateMutability": "view",
      "type": "function"
    },
    {
      "inputs": [],
      "name": "DEFAULT_ADMIN_ROLE",
      "outputs": [
        {
          "internalType": "bytes32",
          "name": "",
          "type": "bytes32"
        }
      ],
      "stateMutability": "view",
      "type": "function"
    },
    {
      "inputs": [],
      "name": "MAX_AGGCHAIN_SIGNERS",
      "outputs": [
        {
          "internalType": "uint256",
          "name": "",
          "type": "uint256"
        }
      ],
      "stateMutability": "view",
      "type": "function"
    },
    {
      "inputs": [
        {
          "internalType": "bytes4",
          "name": "defaultAggchainSelector",
          "type": "bytes4"
        },
        {
          "internalType": "bytes32",
          "name": "newAggchainVKey",
          "type": "bytes32"
        }
      ],
      "name": "addDefaultAggchainVKey",
      "outputs": [],
      "stateMutability": "nonpayable",
      "type": "function"
    },
    {
      "inputs": [
        {
          "internalType": "bytes4",
          "name": "pessimisticVKeySelector",
          "type": "bytes4"
        },
        {
          "internalType": "address",
          "name": "verifier",
          "type": "address"
        },
        {
          "internalType": "bytes32",
          "name": "pessimisticVKey",
          "type": "bytes32"
        }
      ],
      "name": "addPessimisticVKeyRoute",
      "outputs": [],
      "stateMutability": "nonpayable",
      "type": "function"
    },
    {
      "inputs": [],
      "name": "aggchainMultisigHash",
      "outputs": [
        {
          "internalType": "bytes32",
          "name": "",
          "type": "bytes32"
        }
      ],
      "stateMutability": "view",
      "type": "function"
    },
    {
      "inputs": [
        {
          "internalType": "uint256",
          "name": "",
          "type": "uint256"
        }
      ],
      "name": "aggchainSigners",
      "outputs": [
        {
          "internalType": "address",
          "name": "",
          "type": "address"
        }
      ],
      "stateMutability": "view",
      "type": "function"
    },
    {
      "inputs": [
        {
          "internalType": "bytes4",
          "name": "defaultAggchainSelector",
          "type": "bytes4"
        }
      ],
      "name": "defaultAggchainVKeys",
      "outputs": [
        {
          "internalType": "bytes32",
          "name": "defaultAggchainVKey",
          "type": "bytes32"
        }
      ],
      "stateMutability": "view",
      "type": "function"
    },
    {
      "inputs": [
        {
          "internalType": "bytes4",
          "name": "pessimisticVKeySelector",
          "type": "bytes4"
        }
      ],
      "name": "freezePessimisticVKeyRoute",
      "outputs": [],
      "stateMutability": "nonpayable",
      "type": "function"
    },
    {
      "inputs": [],
      "name": "getAggchainMultisigHash",
      "outputs": [
        {
          "internalType": "bytes32",
          "name": "",
          "type": "bytes32"
        }
      ],
      "stateMutability": "view",
      "type": "function"
    },
    {
      "inputs": [],
      "name": "getAggchainSignerInfos",
      "outputs": [
        {
          "components": [
            {
              "internalType": "address",
              "name": "addr",
              "type": "address"
            },
            {
              "internalType": "string",
              "name": "url",
              "type": "string"
            }
          ],
          "internalType": "struct IAggchainSigners.SignerInfo[]",
          "name": "",
          "type": "tuple[]"
        }
      ],
      "stateMutability": "view",
      "type": "function"
    },
    {
      "inputs": [],
      "name": "getAggchainSigners",
      "outputs": [
        {
          "internalType": "address[]",
          "name": "",
          "type": "address[]"
        }
      ],
      "stateMutability": "view",
      "type": "function"
    },
    {
      "inputs": [],
      "name": "getAggchainSignersCount",
      "outputs": [
        {
          "internalType": "uint256",
          "name": "",
          "type": "uint256"
        }
      ],
      "stateMutability": "view",
      "type": "function"
    },
    {
      "inputs": [
        {
          "internalType": "bytes4",
          "name": "defaultAggchainSelector",
          "type": "bytes4"
        }
      ],
      "name": "getDefaultAggchainVKey",
      "outputs": [
        {
          "internalType": "bytes32",
          "name": "",
          "type": "bytes32"
        }
      ],
      "stateMutability": "view",
      "type": "function"
    },
    {
      "inputs": [
        {
          "internalType": "bytes32",
          "name": "role",
          "type": "bytes32"
        }
      ],
      "name": "getRoleAdmin",
      "outputs": [
        {
          "internalType": "bytes32",
          "name": "",
          "type": "bytes32"
        }
      ],
      "stateMutability": "view",
      "type": "function"
    },
    {
      "inputs": [],
      "name": "getThreshold",
      "outputs": [
        {
          "internalType": "uint256",
          "name": "",
          "type": "uint256"
        }
      ],
      "stateMutability": "view",
      "type": "function"
    },
    {
      "inputs": [
        {
          "internalType": "bytes32",
          "name": "role",
          "type": "bytes32"
        },
        {
          "internalType": "address",
          "name": "account",
          "type": "address"
        }
      ],
      "name": "grantRole",
      "outputs": [],
      "stateMutability": "nonpayable",
      "type": "function"
    },
    {
      "inputs": [
        {
          "internalType": "bytes32",
          "name": "role",
          "type": "bytes32"
        },
        {
          "internalType": "address",
          "name": "account",
          "type": "address"
        }
      ],
      "name": "hasRole",
      "outputs": [
        {
          "internalType": "bool",
          "name": "",
          "type": "bool"
        }
      ],
      "stateMutability": "view",
      "type": "function"
    },
    {
      "inputs": [
        {
          "internalType": "address",
          "name": "multisigRole",
          "type": "address"
        },
        {
          "components": [
            {
              "internalType": "address",
              "name": "addr",
              "type": "address"
            },
            {
              "internalType": "string",
              "name": "url",
              "type": "string"
            }
          ],
          "internalType": "struct IAggchainSigners.SignerInfo[]",
          "name": "signersToAdd",
          "type": "tuple[]"
        },
        {
          "internalType": "uint256",
          "name": "newThreshold",
          "type": "uint256"
        }
      ],
      "name": "initialize",
      "outputs": [],
      "stateMutability": "nonpayable",
      "type": "function"
    },
    {
      "inputs": [
        {
          "internalType": "address",
          "name": "defaultAdmin",
          "type": "address"
        },
        {
          "internalType": "address",
          "name": "aggchainDefaultVKeyRole",
          "type": "address"
        },
        {
          "internalType": "address",
          "name": "addRouteRole",
          "type": "address"
        },
        {
          "internalType": "address",
          "name": "freezeRouteRole",
          "type": "address"
        },
        {
          "internalType": "bytes4",
          "name": "pessimisticVKeySelector",
          "type": "bytes4"
        },
        {
          "internalType": "address",
          "name": "verifier",
          "type": "address"
        },
        {
          "internalType": "bytes32",
          "name": "pessimisticVKey",
          "type": "bytes32"
        },
        {
          "internalType": "address",
          "name": "multisigRole",
          "type": "address"
        },
        {
          "components": [
            {
              "internalType": "address",
              "name": "addr",
              "type": "address"
            },
            {
              "internalType": "string",
              "name": "url",
              "type": "string"
            }
          ],
          "internalType": "struct IAggchainSigners.SignerInfo[]",
          "name": "signersToAdd",
          "type": "tuple[]"
        },
        {
          "internalType": "uint256",
          "name": "newThreshold",
          "type": "uint256"
        }
      ],
      "name": "initialize",
      "outputs": [],
      "stateMutability": "nonpayable",
      "type": "function"
    },
    {
      "inputs": [
        {
          "internalType": "address",
          "name": "_signer",
          "type": "address"
        }
      ],
      "name": "isSigner",
      "outputs": [
        {
          "internalType": "bool",
          "name": "",
          "type": "bool"
        }
      ],
      "stateMutability": "view",
      "type": "function"
    },
    {
      "inputs": [
        {
          "internalType": "bytes4",
          "name": "pessimisticVKeySelector",
          "type": "bytes4"
        }
      ],
      "name": "pessimisticVKeyRoutes",
      "outputs": [
        {
          "internalType": "address",
          "name": "verifier",
          "type": "address"
        },
        {
          "internalType": "bytes32",
          "name": "pessimisticVKey",
          "type": "bytes32"
        },
        {
          "internalType": "bool",
          "name": "frozen",
          "type": "bool"
        }
      ],
      "stateMutability": "view",
      "type": "function"
    },
    {
      "inputs": [
        {
          "internalType": "bytes32",
          "name": "role",
          "type": "bytes32"
        },
        {
          "internalType": "address",
          "name": "callerConfirmation",
          "type": "address"
        }
      ],
      "name": "renounceRole",
      "outputs": [],
      "stateMutability": "nonpayable",
      "type": "function"
    },
    {
      "inputs": [
        {
          "internalType": "bytes32",
          "name": "role",
          "type": "bytes32"
        },
        {
          "internalType": "address",
          "name": "account",
          "type": "address"
        }
      ],
      "name": "revokeRole",
      "outputs": [],
      "stateMutability": "nonpayable",
      "type": "function"
    },
    {
      "inputs": [
        {
          "internalType": "address",
          "name": "",
          "type": "address"
        }
      ],
      "name": "signerToURLs",
      "outputs": [
        {
          "internalType": "string",
          "name": "",
          "type": "string"
        }
      ],
      "stateMutability": "view",
      "type": "function"
    },
    {
      "inputs": [
        {
          "internalType": "bytes4",
          "name": "interfaceId",
          "type": "bytes4"
        }
      ],
      "name": "supportsInterface",
      "outputs": [
        {
          "internalType": "bool",
          "name": "",
          "type": "bool"
        }
      ],
      "stateMutability": "view",
      "type": "function"
    },
    {
      "inputs": [],
      "name": "threshold",
      "outputs": [
        {
          "internalType": "uint256",
          "name": "",
          "type": "uint256"
        }
      ],
      "stateMutability": "view",
      "type": "function"
    },
    {
      "inputs": [
        {
          "internalType": "bytes4",
          "name": "defaultAggchainSelector",
          "type": "bytes4"
        }
      ],
      "name": "unsetDefaultAggchainVKey",
      "outputs": [],
      "stateMutability": "nonpayable",
      "type": "function"
    },
    {
      "inputs": [
        {
          "internalType": "bytes4",
          "name": "defaultAggchainSelector",
          "type": "bytes4"
        },
        {
          "internalType": "bytes32",
          "name": "newDefaultAggchainVKey",
          "type": "bytes32"
        }
      ],
      "name": "updateDefaultAggchainVKey",
      "outputs": [],
      "stateMutability": "nonpayable",
      "type": "function"
    },
    {
      "inputs": [
        {
          "components": [
            {
              "internalType": "address",
              "name": "addr",
              "type": "address"
            },
            {
              "internalType": "uint256",
              "name": "index",
              "type": "uint256"
            }
          ],
          "internalType": "struct IAggchainSigners.RemoveSignerInfo[]",
          "name": "_signersToRemove",
          "type": "tuple[]"
        },
        {
          "components": [
            {
              "internalType": "address",
              "name": "addr",
              "type": "address"
            },
            {
              "internalType": "string",
              "name": "url",
              "type": "string"
            }
          ],
          "internalType": "struct IAggchainSigners.SignerInfo[]",
          "name": "_signersToAdd",
          "type": "tuple[]"
        },
        {
          "internalType": "uint256",
          "name": "_newThreshold",
          "type": "uint256"
        }
      ],
      "name": "updateSignersAndThreshold",
      "outputs": [],
      "stateMutability": "nonpayable",
      "type": "function"
    },
    {
      "inputs": [
        {
          "internalType": "bytes",
          "name": "publicValues",
          "type": "bytes"
        },
        {
          "internalType": "bytes",
          "name": "proofBytes",
          "type": "bytes"
        }
      ],
      "name": "verifyPessimisticProof",
      "outputs": [],
      "stateMutability": "view",
      "type": "function"
    },
    {
      "inputs": [],
      "name": "version",
      "outputs": [
        {
          "internalType": "string",
          "name": "",
          "type": "string"
        }
      ],
      "stateMutability": "pure",
      "type": "function"
    }
  ],
  "bytecode": "0x6080604052348015600e575f5ffd5b5060156019565b60c9565b7ff0c57e16840df040f15088dc2f81fe391c3923bec73e23a9662efc9c229c6a00805468010000000000000000900460ff161560685760405163f92ee8a960e01b815260040160405180910390fd5b80546001600160401b039081161460c65780546001600160401b0319166001600160401b0390811782556040519081527fc7f505b2f371ae2175ee4913f4499e1f2633a7b5936321eed1cdaeb6115181d29060200160405180910390a15b50565b612fdd806100d65f395ff3fe608060405234801561000f575f5ffd5b50600436106101e7575f3560e01c80637df73e2711610109578063c49196ec1161009e578063d547741f1161006e578063d547741f1461055d578063e75235b814610570578063f4c4468114610578578063f51f563a1461058b575f5ffd5b8063c49196ec146104fe578063ca69e7dc1461053a578063cce7d0df14610542578063d356e5771461054a575f5ffd5b80639584a516116100d95780639584a516146104be57806395d2a391146104d1578063a217fddf146104e4578063a48fd377146104eb575f5ffd5b80637df73e2714610415578063818c8c211461042857806382bfaea11461043b57806391d148541461045a575f5ffd5b80633e1e01211161017f57806354fd4d501161014f57806354fd4d50146103445780636cabfdab1461037d578063716be07514610390578063750a6e721461040d575f5ffd5b80633e1e01211461030a57806342cde4e81461031f57806347c63d36146103285780634a5db0c11461033b575f5ffd5b8063349d4046116101ba578063349d40461461028a57806335acd6c21461029f57806336568abe146102d757806336cd6b5b146102ea575f5ffd5b806301ffc9a7146101eb5780630c7dd8b314610213578063248a9ca3146102285780632f2ff15d14610277575b5f5ffd5b6101fe6101f9366004612448565b61059e565b60405190151581526020015b60405180910390f35b6102266102213660046126cb565b610636565b005b61026961023636600461271f565b5f9081527f02dd7bc7dec4dceedda775e58dd541e08a116c6c53815c0bd028192f7b626800602052604090206001015490565b60405190815260200161020a565b610226610285366004612736565b6108c1565b61029261090a565b60405161020a91906127ac565b6102b26102ad36600461271f565b610ada565b60405173ffffffffffffffffffffffffffffffffffffffff909116815260200161020a565b6102266102e5366004612736565b610b0f565b6102fd6102f836600461285a565b610b6d565b60405161020a9190612873565b610312610c04565b60405161020a9190612885565b61026960045481565b610226610336366004612448565b610c71565b61026960055481565b60408051808201909152600681527f76312e312e30000000000000000000000000000000000000000000000000000060208201526102fd565b61026961038b366004612448565b610d6b565b6103d961039e366004612448565b600160208190525f918252604090912080549181015460029091015473ffffffffffffffffffffffffffffffffffffffff9092169160ff1683565b6040805173ffffffffffffffffffffffffffffffffffffffff9094168452602084019290925215159082015260600161020a565b61026960ff81565b6101fe61042336600461285a565b610e06565b6102266104363660046128dd565b610e42565b610269610449366004612448565b5f6020819052908152604090205481565b6101fe610468366004612736565b5f9182527f02dd7bc7dec4dceedda775e58dd541e08a116c6c53815c0bd028192f7b6268006020908152604080842073ffffffffffffffffffffffffffffffffffffffff93909316845291905290205460ff1690565b6102266104cc366004612905565b610f7b565b6102266104df366004612448565b610fb0565b6102695f81565b6102266104f9366004612984565b61118d565b6102fd6040518060400160405280600681526020017f76312e312e30000000000000000000000000000000000000000000000000000081525081565b600254610269565b610269611398565b6102266105583660046129f0565b6113da565b61022661056b366004612736565b611751565b600454610269565b6102266105863660046128dd565b611794565b610226610599366004612ab5565b6118da565b5f7fffffffff0000000000000000000000000000000000000000000000000000000082167f7965db0b00000000000000000000000000000000000000000000000000000000148061063057507f01ffc9a7000000000000000000000000000000000000000000000000000000007fffffffff000000000000000000000000000000000000000000000000000000008316145b92915050565b7ff0c57e16840df040f15088dc2f81fe391c3923bec73e23a9662efc9c229c6a005467ffffffffffffffff165f805c7fffffffffffffffffffffffffffffffffffffffffffffffff00000000000000001667ffffffffffffffff831617905d507ff0c57e16840df040f15088dc2f81fe391c3923bec73e23a9662efc9c229c6a0080546002919068010000000000000000900460ff16806106e55750805467ffffffffffffffff808416911610155b1561071c576040517ff92ee8a900000000000000000000000000000000000000000000000000000000815260040160405180910390fd5b80547fffffffffffffffffffffffffffffffffffffffffffffff0000000000000000001667ffffffffffffffff80841691909117680100000000000000001782555f5c16600114610799576040517fadc06ae700000000000000000000000000000000000000000000000000000000815260040160405180910390fd5b73ffffffffffffffffffffffffffffffffffffffff85166107e6576040517ff6b2911f00000000000000000000000000000000000000000000000000000000815260040160405180910390fd5b6108107f0c3038a1ecdf82843b70709289ff1703351ad391e3e27df7f6fa7d913601e15e8661190f565b50604080515f808252602082019092526108579161084f565b604080518082019091525f80825260208201528152602001906001900390816108295790505b508585611a34565b80547fffffffffffffffffffffffffffffffffffffffffffffff00ffffffffffffffff16815560405167ffffffffffffffff831681527fc7f505b2f371ae2175ee4913f4499e1f2633a7b5936321eed1cdaeb6115181d29060200160405180910390a15050505050565b5f8281527f02dd7bc7dec4dceedda775e58dd541e08a116c6c53815c0bd028192f7b62680060205260409020600101546108fa81611c25565b610904838361190f565b50505050565b6002546060905f9067ffffffffffffffff81111561092a5761092a61248b565b60405190808252806020026020018201604052801561096f57816020015b604080518082019091525f8152606060208201528152602001906001900390816109485790505b5090505f5b600254811015610ad45760405180604001604052806002838154811061099c5761099c612b88565b905f5260205f20015f9054906101000a900473ffffffffffffffffffffffffffffffffffffffff1673ffffffffffffffffffffffffffffffffffffffff16815260200160035f600285815481106109f5576109f5612b88565b5f91825260208083209091015473ffffffffffffffffffffffffffffffffffffffff16835282019290925260400190208054610a3090612bb5565b80601f0160208091040260200160405190810160405280929190818152602001828054610a5c90612bb5565b8015610aa75780601f10610a7e57610100808354040283529160200191610aa7565b820191905f5260205f20905b815481529060010190602001808311610a8a57829003601f168201915b5050505050815250828281518110610ac157610ac1612b88565b6020908102919091010152600101610974565b50919050565b60028181548110610ae9575f80fd5b5f9182526020909120015473ffffffffffffffffffffffffffffffffffffffff16905081565b73ffffffffffffffffffffffffffffffffffffffff81163314610b5e576040517f6697b23200000000000000000000000000000000000000000000000000000000815260040160405180910390fd5b610b688282611c32565b505050565b60036020525f908152604090208054610b8590612bb5565b80601f0160208091040260200160405190810160405280929190818152602001828054610bb190612bb5565b8015610bfc5780601f10610bd357610100808354040283529160200191610bfc565b820191905f5260205f20905b815481529060010190602001808311610bdf57829003601f168201915b505050505081565b60606002805480602002602001604051908101604052809291908181526020018280548015610c6757602002820191905f5260205f20905b815473ffffffffffffffffffffffffffffffffffffffff168152600190910190602001808311610c3c575b5050505050905090565b7f131410eab1236cee2db19035b0e825c94e5ab705dffe23321dd53856da531617610c9b81611c25565b7fffffffff0000000000000000000000000000000000000000000000000000000082165f90815260208190526040902054610d02576040517f925e5a3a00000000000000000000000000000000000000000000000000000000815260040160405180910390fd5b7fffffffff0000000000000000000000000000000000000000000000000000000082165f818152602081815260408083209290925590519182527f43b46d79ee2fbaa8a981b5fd78aaf6fb9e38b18d02e1af17564ce37c67078cab910160405180910390a15050565b7fffffffff0000000000000000000000000000000000000000000000000000000081165f90815260208190526040812054610dd2576040517f925e5a3a00000000000000000000000000000000000000000000000000000000815260040160405180910390fd5b507fffffffff00000000000000000000000000000000000000000000000000000000165f9081526020819052604090205490565b73ffffffffffffffffffffffffffffffffffffffff81165f9081526003602052604081208054829190610e3890612bb5565b9050119050919050565b7f131410eab1236cee2db19035b0e825c94e5ab705dffe23321dd53856da531617610e6c81611c25565b7fffffffff0000000000000000000000000000000000000000000000000000000083165f9081526020819052604090205415610ed4576040517f22a1bdc400000000000000000000000000000000000000000000000000000000815260040160405180910390fd5b81610f0b576040517f6745305e00000000000000000000000000000000000000000000000000000000815260040160405180910390fd5b7fffffffff0000000000000000000000000000000000000000000000000000000083165f8181526020818152604091829020859055815192835282018490527f64b3528974574a41ddc830adc96440dccb99e64ede6b863194b951bfbd17e1bc91015b60405180910390a1505050565b7f0fdc2a718b96bc741c7544001e3dd7c26730802c54781668fa78a120e622629b610fa581611c25565b610904848484611d0e565b7fca75ae4228cde6195f9fa3dbde8dc352fb30aa63780717a378ccfc50274355dd610fda81611c25565b7fffffffff0000000000000000000000000000000000000000000000000000000082165f908152600160205260409020805473ffffffffffffffffffffffffffffffffffffffff16611081576040517ff208777e0000000000000000000000000000000000000000000000000000000081527fffffffff00000000000000000000000000000000000000000000000000000000841660048201526024015b60405180910390fd5b600281015460ff16156110e4576040517fc7b4a1f20000000000000000000000000000000000000000000000000000000081527fffffffff0000000000000000000000000000000000000000000000000000000084166004820152602401611078565b6002810180547fffffffffffffffffffffffffffffffffffffffffffffffffffffffffffffff00166001908117909155815490820154604080517fffffffff000000000000000000000000000000000000000000000000000000008716815273ffffffffffffffffffffffffffffffffffffffff90931660208401528201527f6efcfd4090b998a9d58c7f753bdda3291e9d781c02226b9f480b18ef07e0012b90606001610f6e565b60048110156111c8576040517fae80851c00000000000000000000000000000000000000000000000000000000815260040160405180910390fd5b5f6111d66004828486612c00565b6111df91612c27565b7fffffffff0000000000000000000000000000000000000000000000000000000081165f908152600160208181526040928390208351606081018552815473ffffffffffffffffffffffffffffffffffffffff1680825293820154928101929092526002015460ff16151592810192909252919250906112af576040517ff208777e0000000000000000000000000000000000000000000000000000000081527fffffffff0000000000000000000000000000000000000000000000000000000083166004820152602401611078565b80604001511561130f576040517febf108230000000000000000000000000000000000000000000000000000000081527fffffffff0000000000000000000000000000000000000000000000000000000083166004820152602401611078565b8051602082015173ffffffffffffffffffffffffffffffffffffffff909116906341493c60908888611344886004818c612c00565b6040518663ffffffff1660e01b8152600401611364959493929190612cd3565b5f6040518083038186803b15801561137a575f5ffd5b505afa15801561138c573d5f5f3e3d5ffd5b50505050505050505050565b6005545f906113d3576040517fdd41f1ef00000000000000000000000000000000000000000000000000000000815260040160405180910390fd5b5060055490565b7ff0c57e16840df040f15088dc2f81fe391c3923bec73e23a9662efc9c229c6a005467ffffffffffffffff165f805c7fffffffffffffffffffffffffffffffffffffffffffffffff00000000000000001667ffffffffffffffff831617905d507ff0c57e16840df040f15088dc2f81fe391c3923bec73e23a9662efc9c229c6a0080546002919068010000000000000000900460ff16806114895750805467ffffffffffffffff808416911610155b156114c0576040517ff92ee8a900000000000000000000000000000000000000000000000000000000815260040160405180910390fd5b80547fffffffffffffffffffffffffffffffffffffffffffffff0000000000000000001667ffffffffffffffff80841691909117680100000000000000001782555f5c161561153b576040517fadc06ae700000000000000000000000000000000000000000000000000000000815260040160405180910390fd5b73ffffffffffffffffffffffffffffffffffffffff85161580611572575073ffffffffffffffffffffffffffffffffffffffff8c16155b80611591575073ffffffffffffffffffffffffffffffffffffffff8b16155b806115b0575073ffffffffffffffffffffffffffffffffffffffff8a16155b806115cf575073ffffffffffffffffffffffffffffffffffffffff8916155b15611606576040517ff6b2911f00000000000000000000000000000000000000000000000000000000815260040160405180910390fd5b6116105f8d61190f565b5061163b7f131410eab1236cee2db19035b0e825c94e5ab705dffe23321dd53856da5316178c61190f565b506116667f0fdc2a718b96bc741c7544001e3dd7c26730802c54781668fa78a120e622629b8b61190f565b506116917fca75ae4228cde6195f9fa3dbde8dc352fb30aa63780717a378ccfc50274355dd8a61190f565b506116bc7f0c3038a1ecdf82843b70709289ff1703351ad391e3e27df7f6fa7d913601e15e8661190f565b506116c8888888611d0e565b604080515f808252602082019092526116e09161084f565b80547fffffffffffffffffffffffffffffffffffffffffffffff00ffffffffffffffff16815560405167ffffffffffffffff831681527fc7f505b2f371ae2175ee4913f4499e1f2633a7b5936321eed1cdaeb6115181d29060200160405180910390a1505050505050505050505050565b5f8281527f02dd7bc7dec4dceedda775e58dd541e08a116c6c53815c0bd028192f7b626800602052604090206001015461178a81611c25565b6109048383611c32565b7f131410eab1236cee2db19035b0e825c94e5ab705dffe23321dd53856da5316176117be81611c25565b7fffffffff0000000000000000000000000000000000000000000000000000000083165f90815260208190526040902054611825576040517f925e5a3a00000000000000000000000000000000000000000000000000000000815260040160405180910390fd5b8161185c576040517f6745305e00000000000000000000000000000000000000000000000000000000815260040160405180910390fd5b7fffffffff0000000000000000000000000000000000000000000000000000000083165f81815260208181526040918290208054908690558251938452908301819052908201849052907f477ac863279848383fdb5d6bb8957cc8f6f10c0200379e075df3f789d14248e6906060015b60405180910390a150505050565b7f0c3038a1ecdf82843b70709289ff1703351ad391e3e27df7f6fa7d913601e15e61190481611c25565b610904848484611a34565b5f8281527f02dd7bc7dec4dceedda775e58dd541e08a116c6c53815c0bd028192f7b6268006020818152604080842073ffffffffffffffffffffffffffffffffffffffff8616855290915282205460ff16611a24575f8481526020828152604080832073ffffffffffffffffffffffffffffffffffffffff87168452909152902080547fffffffffffffffffffffffffffffffffffffffffffffffffffffffffffffff001660011790556119c03390565b73ffffffffffffffffffffffffffffffffffffffff168373ffffffffffffffffffffffffffffffffffffffff16857f2f8788117e7eff1d82e926ec794901d17c78024a50270940304540a733656f0d60405160405180910390a46001915050610630565b5f915050610630565b5092915050565b600183511115611adc575f5b60018451611a4e9190612d38565b811015611ada5783611a61826001612d4b565b81518110611a7157611a71612b88565b602002602001015160200151848281518110611a8f57611a8f612b88565b60200260200101516020015111611ad2576040517fb9a11d3100000000000000000000000000000000000000000000000000000000815260040160405180910390fd5b600101611a40565b505b5f5b8351811015611b3257611b2a848281518110611afc57611afc612b88565b60200260200101515f0151858381518110611b1957611b19612b88565b602002602001015160200151611f54565b600101611ade565b505f5b8251811015611b8957611b81838281518110611b5357611b53612b88565b60200260200101515f0151848381518110611b7057611b70612b88565b602002602001015160200151612146565b600101611b35565b5060025460ff1015611bc7576040517f5a7f382c00000000000000000000000000000000000000000000000000000000815260040160405180910390fd5b600254811180611be1575060025415801590611be1575080155b15611c18576040517faabd5a0900000000000000000000000000000000000000000000000000000000815260040160405180910390fd5b6004819055610b68612292565b611c2f8133612320565b50565b5f8281527f02dd7bc7dec4dceedda775e58dd541e08a116c6c53815c0bd028192f7b6268006020818152604080842073ffffffffffffffffffffffffffffffffffffffff8616855290915282205460ff1615611a24575f8481526020828152604080832073ffffffffffffffffffffffffffffffffffffffff8716808552925280832080547fffffffffffffffffffffffffffffffffffffffffffffffffffffffffffffff0016905551339287917ff6391f5c32d9c69d2a47ea670b442974b53935d1edc7fd64eb21e047a839171b9190a46001915050610630565b73ffffffffffffffffffffffffffffffffffffffff8216611d5b576040517ff6b2911f00000000000000000000000000000000000000000000000000000000815260040160405180910390fd5b7fffffffff000000000000000000000000000000000000000000000000000000008316611db4576040517f7500f20900000000000000000000000000000000000000000000000000000000815260040160405180910390fd5b80611deb576040517f6745305e00000000000000000000000000000000000000000000000000000000815260040160405180910390fd5b7fffffffff0000000000000000000000000000000000000000000000000000000083165f908152600160205260409020805473ffffffffffffffffffffffffffffffffffffffff1615611ead5780546040517f4bc7c2780000000000000000000000000000000000000000000000000000000081527fffffffff000000000000000000000000000000000000000000000000000000008616600482015273ffffffffffffffffffffffffffffffffffffffff9091166024820152604401611078565b80547fffffffffffffffffffffffff00000000000000000000000000000000000000001673ffffffffffffffffffffffffffffffffffffffff8416908117825560018201839055604080517fffffffff0000000000000000000000000000000000000000000000000000000087168152602081019290925281018390527f4c4455a30528c319643ae6fc35f3a0fcabde6c015f2a1a5270382c4a190b0fa3906060016118cc565b600254808210611f90576040517fd244b30700000000000000000000000000000000000000000000000000000000815260040160405180910390fd5b8273ffffffffffffffffffffffffffffffffffffffff1660028381548110611fba57611fba612b88565b5f9182526020909120015473ffffffffffffffffffffffffffffffffffffffff1614612012576040517fd244b30700000000000000000000000000000000000000000000000000000000815260040160405180910390fd5b73ffffffffffffffffffffffffffffffffffffffff83165f90815260036020526040812061203f916123ca565b600261204c600183612d38565b8154811061205c5761205c612b88565b5f918252602090912001546002805473ffffffffffffffffffffffffffffffffffffffff909216918490811061209457612094612b88565b905f5260205f20015f6101000a81548173ffffffffffffffffffffffffffffffffffffffff021916908373ffffffffffffffffffffffffffffffffffffffff16021790555060028054806120ea576120ea612d5e565b5f8281526020902081017fffffffffffffffffffffffffffffffffffffffffffffffffffffffffffffffff90810180547fffffffffffffffffffffffff0000000000000000000000000000000000000000169055019055505050565b73ffffffffffffffffffffffffffffffffffffffff8216612193576040517f7b3a0df600000000000000000000000000000000000000000000000000000000815260040160405180910390fd5b80515f036121cd576040517f8715f5fb00000000000000000000000000000000000000000000000000000000815260040160405180910390fd5b6121d682610e06565b1561220d576040517f38615ecc00000000000000000000000000000000000000000000000000000000815260040160405180910390fd5b60028054600181019091557f405787fa12a823e0f2b7631cc41b3ba8828b3321ca811111fa75cd3aa3bb5ace0180547fffffffffffffffffffffffff00000000000000000000000000000000000000001673ffffffffffffffffffffffffffffffffffffffff84169081179091555f908152600360205260409020610b688282612dd6565b60045460026040516020016122a8929190612eed565b604080517fffffffffffffffffffffffffffffffffffffffffffffffffffffffffffffffe081840301815290829052805160209091012060058190556004547f66d7b0647fdd512b69cbf4f8e1ce8068bfe0b236168e2704ba13b07425eaa743926123169260029291612f40565b60405180910390a1565b5f8281527f02dd7bc7dec4dceedda775e58dd541e08a116c6c53815c0bd028192f7b6268006020908152604080832073ffffffffffffffffffffffffffffffffffffffff8516845290915290205460ff166123c6576040517fe2517d3f00000000000000000000000000000000000000000000000000000000815273ffffffffffffffffffffffffffffffffffffffff8216600482015260248101839052604401611078565b5050565b5080546123d690612bb5565b5f825580601f106123e5575050565b601f0160209004905f5260205f2090810190611c2f91905b80821115612410575f81556001016123fd565b5090565b80357fffffffff0000000000000000000000000000000000000000000000000000000081168114612443575f5ffd5b919050565b5f60208284031215612458575f5ffd5b61246182612414565b9392505050565b803573ffffffffffffffffffffffffffffffffffffffff81168114612443575f5ffd5b7f4e487b71000000000000000000000000000000000000000000000000000000005f52604160045260245ffd5b6040805190810167ffffffffffffffff811182821017156124db576124db61248b565b60405290565b604051601f82017fffffffffffffffffffffffffffffffffffffffffffffffffffffffffffffffe016810167ffffffffffffffff811182821017156125285761252861248b565b604052919050565b5f67ffffffffffffffff8211156125495761254961248b565b5060051b60200190565b5f82601f830112612562575f5ffd5b813561257561257082612530565b6124e1565b8082825260208201915060208360051b860101925085831115612596575f5ffd5b602085015b838110156126c157803567ffffffffffffffff8111156125b9575f5ffd5b860160408189037fffffffffffffffffffffffffffffffffffffffffffffffffffffffffffffffe00112156125ec575f5ffd5b6125f46124b8565b61260060208301612468565b8152604082013567ffffffffffffffff81111561261b575f5ffd5b60208184010192505088601f830112612632575f5ffd5b813567ffffffffffffffff81111561264c5761264c61248b565b61267d60207fffffffffffffffffffffffffffffffffffffffffffffffffffffffffffffffe0601f840116016124e1565b8181528a6020838601011115612691575f5ffd5b816020850160208301375f602083830101528060208401525050808552505060208301925060208101905061259b565b5095945050505050565b5f5f5f606084860312156126dd575f5ffd5b6126e684612468565b9250602084013567ffffffffffffffff811115612701575f5ffd5b61270d86828701612553565b93969395505050506040919091013590565b5f6020828403121561272f575f5ffd5b5035919050565b5f5f60408385031215612747575f5ffd5b8235915061275760208401612468565b90509250929050565b5f81518084528060208401602086015e5f6020828601015260207fffffffffffffffffffffffffffffffffffffffffffffffffffffffffffffffe0601f83011685010191505092915050565b5f602082016020835280845180835260408501915060408160051b8601019250602086015f5b8281101561284e577fffffffffffffffffffffffffffffffffffffffffffffffffffffffffffffffc0878603018452815173ffffffffffffffffffffffffffffffffffffffff815116865260208101519050604060208701526128386040870182612760565b95505060209384019391909101906001016127d2565b50929695505050505050565b5f6020828403121561286a575f5ffd5b61246182612468565b602081525f6124616020830184612760565b602080825282518282018190525f918401906040840190835b818110156128d257835173ffffffffffffffffffffffffffffffffffffffff1683526020938401939092019160010161289e565b509095945050505050565b5f5f604083850312156128ee575f5ffd5b6128f783612414565b946020939093013593505050565b5f5f5f60608486031215612917575f5ffd5b61292084612414565b925061292e60208501612468565b929592945050506040919091013590565b5f5f83601f84011261294f575f5ffd5b50813567ffffffffffffffff811115612966575f5ffd5b60208301915083602082850101111561297d575f5ffd5b9250929050565b5f5f5f5f60408587031215612997575f5ffd5b843567ffffffffffffffff8111156129ad575f5ffd5b6129b98782880161293f565b909550935050602085013567ffffffffffffffff8111156129d8575f5ffd5b6129e48782880161293f565b95989497509550505050565b5f5f5f5f5f5f5f5f5f5f6101408b8d031215612a0a575f5ffd5b612a138b612468565b9950612a2160208c01612468565b9850612a2f60408c01612468565b9750612a3d60608c01612468565b9650612a4b60808c01612414565b9550612a5960a08c01612468565b945060c08b01359350612a6e60e08c01612468565b92506101008b013567ffffffffffffffff811115612a8a575f5ffd5b612a968d828e01612553565b9250505f6101208c01359050809150509295989b9194979a5092959850565b5f5f5f60608486031215612ac7575f5ffd5b833567ffffffffffffffff811115612add575f5ffd5b8401601f81018613612aed575f5ffd5b8035612afb61257082612530565b8082825260208201915060208360061b850101925088831115612b1c575f5ffd5b6020840193505b82841015612b6a576040848a031215612b3a575f5ffd5b612b426124b8565b612b4b85612468565b8152602085810135818301529083526040909401939190910190612b23565b9550505050602084013567ffffffffffffffff811115612701575f5ffd5b7f4e487b71000000000000000000000000000000000000000000000000000000005f52603260045260245ffd5b600181811c90821680612bc957607f821691505b602082108103610ad4577f4e487b71000000000000000000000000000000000000000000000000000000005f52602260045260245ffd5b5f5f85851115612c0e575f5ffd5b83861115612c1a575f5ffd5b5050820193919092039150565b80357fffffffff000000000000000000000000000000000000000000000000000000008116906004841015611a2d577fffffffff00000000000000000000000000000000000000000000000000000000808560040360031b1b82161691505092915050565b81835281816020850137505f602082840101525f60207fffffffffffffffffffffffffffffffffffffffffffffffffffffffffffffffe0601f840116840101905092915050565b858152606060208201525f612cec606083018688612c8c565b8281036040840152612cff818587612c8c565b98975050505050505050565b7f4e487b71000000000000000000000000000000000000000000000000000000005f52601160045260245ffd5b8181038181111561063057610630612d0b565b8082018082111561063057610630612d0b565b7f4e487b71000000000000000000000000000000000000000000000000000000005f52603160045260245ffd5b601f821115610b6857805f5260205f20601f840160051c81016020851015612db05750805b601f840160051c820191505b81811015612dcf575f8155600101612dbc565b5050505050565b815167ffffffffffffffff811115612df057612df061248b565b612e0481612dfe8454612bb5565b84612d8b565b6020601f821160018114612e55575f8315612e1f5750848201515b7fffffffffffffffffffffffffffffffffffffffffffffffffffffffffffffffff600385901b1c1916600184901b178455612dcf565b5f848152602081207fffffffffffffffffffffffffffffffffffffffffffffffffffffffffffffffe08516915b82811015612ea25787850151825560209485019460019092019101612e82565b5084821015612ede57868401517fffffffffffffffffffffffffffffffffffffffffffffffffffffffffffffffff600387901b60f8161c191681555b50505050600190811b01905550565b8281525f602082018354845f5260205f205f5b82811015612f3457815473ffffffffffffffffffffffffffffffffffffffff16845260209093019260019182019101612f00565b50919695505050505050565b606080825284549082018190525f8581526020812090916080840190835b81811015612f9257835473ffffffffffffffffffffffffffffffffffffffff16835260019384019360209093019201612f5e565b5050602084019590955250506040015291905056fea2646970667358221220a2702e2fc7b68c3848d56195d51e5584f79421bc5cd8b7ac4d56858a06bba44964736f6c634300081c0033",
  "linkReferences": {},
  "deployedLinkReferences": {}
}