{
  "_format": "hh-sol-artifact-1",
  "contractName": "PolygonRollupManager",
  "sourceName": "contracts/v2/PolygonRollupManager.sol",
  "abi": [
    {
      "inputs": [
        {
          "internalType": "contract IPolygonZkEVMGlobalExitRootV2",
          "name": "_globalExitRootManager",
          "type": "address"
        },
        {
          "internalType": "contract IERC20Upgradeable",
          "name": "_pol",
          "type": "address"
        },
        {
          "internalType": "contract IPolygonZkEVMBridge",
          "name": "_bridgeAddress",
          "type": "address"
        },
        {
          "internalType": "contract AggLayerGateway",
          "name": "_aggLayerGateway",
          "type": "address"
        }
      ],
      "stateMutability": "nonpayable",
      "type": "constructor"
    },
    {
      "inputs": [],
      "name": "AccessControlOnlyCanRenounceRolesForSelf",
      "type": "error"
    },
    {
      "inputs": [],
      "name": "AddressDoNotHaveRequiredRole",
      "type": "error"
    },
    {
      "inputs": [],
      "name": "AllBatchesMustBeVerified",
      "type": "error"
    },
    {
      "inputs": [],
      "name": "AllSequencedMustBeVerified",
      "type": "error"
    },
    {
      "inputs": [],
      "name": "AllzkEVMSequencedBatchesMustBeVerified",
      "type": "error"
    },
    {
      "inputs": [],
      "name": "BatchFeeOutOfRange",
      "type": "error"
    },
    {
      "inputs": [],
      "name": "CannotUpdateWithUnconsolidatedPendingState",
      "type": "error"
    },
    {
      "inputs": [],
      "name": "ChainIDAlreadyExist",
      "type": "error"
    },
    {
      "inputs": [],
      "name": "ChainIDOutOfRange",
      "type": "error"
    },
    {
      "inputs": [],
      "name": "EmptyVerifySequencesData",
      "type": "error"
    },
    {
      "inputs": [],
      "name": "ExceedMaxVerifyBatches",
      "type": "error"
    },
    {
      "inputs": [],
      "name": "FinalNumBatchBelowLastVerifiedBatch",
      "type": "error"
    },
    {
      "inputs": [],
      "name": "FinalNumBatchDoesNotMatchPendingState",
      "type": "error"
    },
    {
      "inputs": [],
      "name": "FinalNumSequenceBelowLastVerifiedSequence",
      "type": "error"
    },
    {
      "inputs": [],
      "name": "FinalNumSequenceDoesNotMatchPendingState",
      "type": "error"
    },
    {
      "inputs": [],
      "name": "FinalPendingStateNumInvalid",
      "type": "error"
    },
    {
      "inputs": [],
      "name": "HaltTimeoutNotExpired",
      "type": "error"
    },
    {
      "inputs": [],
      "name": "InitBatchMustMatchCurrentForkID",
      "type": "error"
    },
    {
      "inputs": [],
      "name": "InitNumBatchAboveLastVerifiedBatch",
      "type": "error"
    },
    {
      "inputs": [],
      "name": "InitNumBatchDoesNotMatchPendingState",
      "type": "error"
    },
    {
      "inputs": [],
      "name": "InitSequenceMustMatchCurrentForkID",
      "type": "error"
    },
    {
      "inputs": [],
      "name": "InitSequenceNumDoesNotMatchPendingState",
      "type": "error"
    },
    {
      "inputs": [],
      "name": "InvalidPessimisticProof",
      "type": "error"
    },
    {
      "inputs": [],
      "name": "InvalidProof",
      "type": "error"
    },
    {
      "inputs": [],
      "name": "InvalidRangeBatchTimeTarget",
      "type": "error"
    },
    {
      "inputs": [],
      "name": "InvalidRangeMultiplierBatchFee",
      "type": "error"
    },
    {
      "inputs": [],
      "name": "InvalidRangeMultiplierZkGasPrice",
      "type": "error"
    },
    {
      "inputs": [],
      "name": "InvalidRangeSequenceTimeTarget",
      "type": "error"
    },
    {
      "inputs": [],
      "name": "InvalidRollup",
      "type": "error"
    },
    {
      "inputs": [],
      "name": "InvalidRollupType",
      "type": "error"
    },
    {
      "inputs": [],
      "name": "InvalidVerifierType",
      "type": "error"
    },
    {
      "inputs": [],
      "name": "L1InfoTreeLeafCountInvalid",
      "type": "error"
    },
    {
      "inputs": [],
      "name": "MustSequenceSomeBatch",
      "type": "error"
    },
    {
      "inputs": [],
      "name": "MustSequenceSomeBlob",
      "type": "error"
    },
    {
      "inputs": [],
      "name": "NewAccInputHashDoesNotExist",
      "type": "error"
    },
    {
      "inputs": [],
      "name": "NewPendingStateTimeoutMustBeLower",
      "type": "error"
    },
    {
      "inputs": [],
      "name": "NewStateRootNotInsidePrime",
      "type": "error"
    },
    {
      "inputs": [],
      "name": "NewTrustedAggregatorTimeoutMustBeLower",
      "type": "error"
    },
    {
      "inputs": [],
      "name": "NotAllowedAddress",
      "type": "error"
    },
    {
      "inputs": [],
      "name": "OldAccInputHashDoesNotExist",
      "type": "error"
    },
    {
      "inputs": [],
      "name": "OldStateRootDoesNotExist",
      "type": "error"
    },
    {
      "inputs": [],
      "name": "OnlyEmergencyState",
      "type": "error"
    },
    {
      "inputs": [],
      "name": "OnlyNotEmergencyState",
      "type": "error"
    },
    {
      "inputs": [],
      "name": "OnlyRollupAdmin",
      "type": "error"
    },
    {
      "inputs": [],
      "name": "OnlyStateTransitionChains",
      "type": "error"
    },
    {
      "inputs": [],
      "name": "PendingStateDoesNotExist",
      "type": "error"
    },
    {
      "inputs": [],
      "name": "PendingStateInvalid",
      "type": "error"
    },
    {
      "inputs": [],
      "name": "PendingStateNotConsolidable",
      "type": "error"
    },
    {
      "inputs": [],
      "name": "PendingStateNumExist",
      "type": "error"
    },
    {
      "inputs": [],
      "name": "ReentrancyGuardReentrantCall",
      "type": "error"
    },
    {
      "inputs": [],
      "name": "RollbackBatchIsNotEndOfSequence",
      "type": "error"
    },
    {
      "inputs": [],
      "name": "RollbackBatchIsNotValid",
      "type": "error"
    },
    {
      "inputs": [],
      "name": "RollupAddressAlreadyExist",
      "type": "error"
    },
    {
      "inputs": [],
      "name": "RollupIDNotAscendingOrder",
      "type": "error"
    },
    {
      "inputs": [],
      "name": "RollupMustExist",
      "type": "error"
    },
    {
      "inputs": [],
      "name": "RollupTypeDoesNotExist",
      "type": "error"
    },
    {
      "inputs": [],
      "name": "RollupTypeObsolete",
      "type": "error"
    },
    {
      "inputs": [],
      "name": "SenderMustBeRollup",
      "type": "error"
    },
    {
      "inputs": [],
      "name": "StateTransitionChainsNotAllowed",
      "type": "error"
    },
    {
      "inputs": [],
      "name": "StoredRootMustBeDifferentThanNewRoot",
      "type": "error"
    },
    {
      "inputs": [],
      "name": "TrustedAggregatorTimeoutNotExpired",
      "type": "error"
    },
    {
      "inputs": [],
      "name": "UpdateNotCompatible",
      "type": "error"
    },
    {
      "inputs": [],
      "name": "UpdateToOldRollupTypeID",
      "type": "error"
    },
    {
      "inputs": [],
      "name": "UpdateToSameRollupTypeID",
      "type": "error"
    },
    {
      "inputs": [],
      "name": "zkGasPriceOfRange",
      "type": "error"
    },
    {
      "anonymous": false,
      "inputs": [
        {
          "indexed": true,
          "internalType": "uint32",
          "name": "rollupID",
          "type": "uint32"
        },
        {
          "indexed": false,
          "internalType": "uint64",
          "name": "forkID",
          "type": "uint64"
        },
        {
          "indexed": false,
          "internalType": "address",
          "name": "rollupAddress",
          "type": "address"
        },
        {
          "indexed": false,
          "internalType": "uint64",
          "name": "chainID",
          "type": "uint64"
        },
        {
          "indexed": false,
          "internalType": "enum IPolygonRollupManager.VerifierType",
          "name": "rollupVerifierType",
          "type": "uint8"
        },
        {
          "indexed": false,
          "internalType": "uint64",
          "name": "lastVerifiedBatchBeforeUpgrade",
          "type": "uint64"
        },
        {
          "indexed": false,
          "internalType": "bytes32",
          "name": "programVKey",
          "type": "bytes32"
        },
        {
          "indexed": false,
          "internalType": "bytes32",
          "name": "initPessimisticRoot",
          "type": "bytes32"
        }
      ],
      "name": "AddExistingRollup",
      "type": "event"
    },
    {
      "anonymous": false,
      "inputs": [
        {
          "indexed": true,
          "internalType": "uint32",
          "name": "rollupTypeID",
          "type": "uint32"
        },
        {
          "indexed": false,
          "internalType": "address",
          "name": "consensusImplementation",
          "type": "address"
        },
        {
          "indexed": false,
          "internalType": "address",
          "name": "verifier",
          "type": "address"
        },
        {
          "indexed": false,
          "internalType": "uint64",
          "name": "forkID",
          "type": "uint64"
        },
        {
          "indexed": false,
          "internalType": "enum IPolygonRollupManager.VerifierType",
          "name": "rollupVerifierType",
          "type": "uint8"
        },
        {
          "indexed": false,
          "internalType": "bytes32",
          "name": "genesis",
          "type": "bytes32"
        },
        {
          "indexed": false,
          "internalType": "string",
          "name": "description",
          "type": "string"
        },
        {
          "indexed": false,
          "internalType": "bytes32",
          "name": "programVKey",
          "type": "bytes32"
        }
      ],
      "name": "AddNewRollupType",
      "type": "event"
    },
    {
      "anonymous": false,
      "inputs": [
        {
          "indexed": true,
          "internalType": "uint32",
          "name": "rollupID",
          "type": "uint32"
        },
        {
          "indexed": false,
          "internalType": "uint32",
          "name": "rollupTypeID",
          "type": "uint32"
        },
        {
          "indexed": false,
          "internalType": "address",
          "name": "rollupAddress",
          "type": "address"
        },
        {
          "indexed": false,
          "internalType": "uint64",
          "name": "chainID",
          "type": "uint64"
        },
        {
          "indexed": false,
          "internalType": "address",
          "name": "gasTokenAddress",
          "type": "address"
        }
      ],
      "name": "CreateNewRollup",
      "type": "event"
    },
    {
      "anonymous": false,
      "inputs": [],
      "name": "EmergencyStateActivated",
      "type": "event"
    },
    {
      "anonymous": false,
      "inputs": [],
      "name": "EmergencyStateDeactivated",
      "type": "event"
    },
    {
      "anonymous": false,
      "inputs": [
        {
          "indexed": false,
          "internalType": "uint8",
          "name": "version",
          "type": "uint8"
        }
      ],
      "name": "Initialized",
      "type": "event"
    },
    {
      "anonymous": false,
      "inputs": [
        {
          "indexed": true,
          "internalType": "uint32",
          "name": "rollupTypeID",
          "type": "uint32"
        }
      ],
      "name": "ObsoleteRollupType",
      "type": "event"
    },
    {
      "anonymous": false,
      "inputs": [
        {
          "indexed": true,
          "internalType": "uint32",
          "name": "rollupID",
          "type": "uint32"
        },
        {
          "indexed": false,
          "internalType": "uint64",
          "name": "lastBatchSequenced",
          "type": "uint64"
        }
      ],
      "name": "OnSequenceBatches",
      "type": "event"
    },
    {
      "anonymous": false,
      "inputs": [
        {
          "indexed": true,
          "internalType": "bytes32",
          "name": "role",
          "type": "bytes32"
        },
        {
          "indexed": true,
          "internalType": "bytes32",
          "name": "previousAdminRole",
          "type": "bytes32"
        },
        {
          "indexed": true,
          "internalType": "bytes32",
          "name": "newAdminRole",
          "type": "bytes32"
        }
      ],
      "name": "RoleAdminChanged",
      "type": "event"
    },
    {
      "anonymous": false,
      "inputs": [
        {
          "indexed": true,
          "internalType": "bytes32",
          "name": "role",
          "type": "bytes32"
        },
        {
          "indexed": true,
          "internalType": "address",
          "name": "account",
          "type": "address"
        },
        {
          "indexed": true,
          "internalType": "address",
          "name": "sender",
          "type": "address"
        }
      ],
      "name": "RoleGranted",
      "type": "event"
    },
    {
      "anonymous": false,
      "inputs": [
        {
          "indexed": true,
          "internalType": "bytes32",
          "name": "role",
          "type": "bytes32"
        },
        {
          "indexed": true,
          "internalType": "address",
          "name": "account",
          "type": "address"
        },
        {
          "indexed": true,
          "internalType": "address",
          "name": "sender",
          "type": "address"
        }
      ],
      "name": "RoleRevoked",
      "type": "event"
    },
    {
      "anonymous": false,
      "inputs": [
        {
          "indexed": true,
          "internalType": "uint32",
          "name": "rollupID",
          "type": "uint32"
        },
        {
          "indexed": true,
          "internalType": "uint64",
          "name": "targetBatch",
          "type": "uint64"
        },
        {
          "indexed": false,
          "internalType": "bytes32",
          "name": "accInputHashToRollback",
          "type": "bytes32"
        }
      ],
      "name": "RollbackBatches",
      "type": "event"
    },
    {
      "anonymous": false,
      "inputs": [
        {
          "indexed": false,
          "internalType": "uint256",
          "name": "newBatchFee",
          "type": "uint256"
        }
      ],
      "name": "SetBatchFee",
      "type": "event"
    },
    {
      "anonymous": false,
      "inputs": [
        {
          "indexed": false,
          "internalType": "address",
          "name": "newTrustedAggregator",
          "type": "address"
        }
      ],
      "name": "SetTrustedAggregator",
      "type": "event"
    },
    {
      "anonymous": false,
      "inputs": [
        {
          "indexed": true,
          "internalType": "uint32",
          "name": "rollupID",
          "type": "uint32"
        },
        {
          "indexed": false,
          "internalType": "uint32",
          "name": "newRollupTypeID",
          "type": "uint32"
        },
        {
          "indexed": false,
          "internalType": "uint64",
          "name": "lastVerifiedBatchBeforeUpgrade",
          "type": "uint64"
        }
      ],
      "name": "UpdateRollup",
      "type": "event"
    },
    {
      "anonymous": false,
      "inputs": [
        {
          "indexed": false,
          "internalType": "string",
          "name": "rollupManagerVersion",
          "type": "string"
        }
      ],
      "name": "UpdateRollupManagerVersion",
      "type": "event"
    },
    {
      "anonymous": false,
      "inputs": [
        {
          "indexed": true,
          "internalType": "uint32",
          "name": "rollupID",
          "type": "uint32"
        },
        {
          "indexed": false,
          "internalType": "uint64",
          "name": "numBatch",
          "type": "uint64"
        },
        {
          "indexed": false,
          "internalType": "bytes32",
          "name": "stateRoot",
          "type": "bytes32"
        },
        {
          "indexed": false,
          "internalType": "bytes32",
          "name": "exitRoot",
          "type": "bytes32"
        },
        {
          "indexed": true,
          "internalType": "address",
          "name": "aggregator",
          "type": "address"
        }
      ],
      "name": "VerifyBatchesTrustedAggregator",
      "type": "event"
    },
    {
      "inputs": [],
      "name": "DEFAULT_ADMIN_ROLE",
      "outputs": [
        {
          "internalType": "bytes32",
          "name": "",
          "type": "bytes32"
        }
      ],
      "stateMutability": "view",
      "type": "function"
    },
    {
      "inputs": [],
      "name": "ROLLUP_MANAGER_VERSION",
      "outputs": [
        {
          "internalType": "string",
          "name": "",
          "type": "string"
        }
      ],
      "stateMutability": "view",
      "type": "function"
    },
    {
      "inputs": [],
      "name": "activateEmergencyState",
      "outputs": [],
      "stateMutability": "nonpayable",
      "type": "function"
    },
    {
      "inputs": [
        {
          "internalType": "address",
          "name": "rollupAddress",
          "type": "address"
        },
        {
          "internalType": "address",
          "name": "verifier",
          "type": "address"
        },
        {
          "internalType": "uint64",
          "name": "forkID",
          "type": "uint64"
        },
        {
          "internalType": "uint64",
          "name": "chainID",
          "type": "uint64"
        },
        {
          "internalType": "bytes32",
          "name": "initRoot",
          "type": "bytes32"
        },
        {
          "internalType": "enum IPolygonRollupManager.VerifierType",
          "name": "rollupVerifierType",
          "type": "uint8"
        },
        {
          "internalType": "bytes32",
          "name": "programVKey",
          "type": "bytes32"
        },
        {
          "internalType": "bytes32",
          "name": "initPessimisticRoot",
          "type": "bytes32"
        }
      ],
      "name": "addExistingRollup",
      "outputs": [],
      "stateMutability": "nonpayable",
      "type": "function"
    },
    {
      "inputs": [
        {
          "internalType": "address",
          "name": "consensusImplementation",
          "type": "address"
        },
        {
          "internalType": "address",
          "name": "verifier",
          "type": "address"
        },
        {
          "internalType": "uint64",
          "name": "forkID",
          "type": "uint64"
        },
        {
          "internalType": "enum IPolygonRollupManager.VerifierType",
          "name": "rollupVerifierType",
          "type": "uint8"
        },
        {
          "internalType": "bytes32",
          "name": "genesis",
          "type": "bytes32"
        },
        {
          "internalType": "string",
          "name": "description",
          "type": "string"
        },
        {
          "internalType": "bytes32",
          "name": "programVKey",
          "type": "bytes32"
        }
      ],
      "name": "addNewRollupType",
      "outputs": [],
      "stateMutability": "nonpayable",
      "type": "function"
    },
    {
      "inputs": [],
      "name": "aggLayerGateway",
      "outputs": [
        {
          "internalType": "contract AggLayerGateway",
          "name": "",
          "type": "address"
        }
      ],
      "stateMutability": "view",
      "type": "function"
    },
    {
      "inputs": [],
      "name": "bridgeAddress",
      "outputs": [
        {
          "internalType": "contract IPolygonZkEVMBridge",
          "name": "",
          "type": "address"
        }
      ],
      "stateMutability": "view",
      "type": "function"
    },
    {
      "inputs": [],
      "name": "calculateRewardPerBatch",
      "outputs": [
        {
          "internalType": "uint256",
          "name": "",
          "type": "uint256"
        }
      ],
      "stateMutability": "view",
      "type": "function"
    },
    {
      "inputs": [
        {
          "internalType": "uint64",
          "name": "chainID",
          "type": "uint64"
        }
      ],
      "name": "chainIDToRollupID",
      "outputs": [
        {
          "internalType": "uint32",
          "name": "rollupID",
          "type": "uint32"
        }
      ],
      "stateMutability": "view",
      "type": "function"
    },
    {
      "inputs": [
        {
          "internalType": "uint32",
          "name": "rollupTypeID",
          "type": "uint32"
        },
        {
          "internalType": "uint64",
          "name": "chainID",
          "type": "uint64"
        },
        {
          "internalType": "address",
          "name": "admin",
          "type": "address"
        },
        {
          "internalType": "address",
          "name": "sequencer",
          "type": "address"
        },
        {
          "internalType": "address",
          "name": "gasTokenAddress",
          "type": "address"
        },
        {
          "internalType": "string",
          "name": "sequencerURL",
          "type": "string"
        },
        {
          "internalType": "string",
          "name": "networkName",
          "type": "string"
        },
        {
          "internalType": "bytes",
          "name": "initializeBytesCustomChain",
          "type": "bytes"
        }
      ],
      "name": "createNewRollup",
      "outputs": [],
      "stateMutability": "nonpayable",
      "type": "function"
    },
    {
      "inputs": [],
      "name": "deactivateEmergencyState",
      "outputs": [],
      "stateMutability": "nonpayable",
      "type": "function"
    },
    {
      "inputs": [],
      "name": "getBatchFee",
      "outputs": [
        {
          "internalType": "uint256",
          "name": "",
          "type": "uint256"
        }
      ],
      "stateMutability": "view",
      "type": "function"
    },
    {
      "inputs": [],
      "name": "getForcedBatchFee",
      "outputs": [
        {
          "internalType": "uint256",
          "name": "",
          "type": "uint256"
        }
      ],
      "stateMutability": "view",
      "type": "function"
    },
    {
      "inputs": [
        {
          "internalType": "uint32",
          "name": "rollupID",
          "type": "uint32"
        },
        {
          "internalType": "bytes32",
          "name": "l1InfoTreeRoot",
          "type": "bytes32"
        },
        {
          "internalType": "bytes32",
          "name": "newLocalExitRoot",
          "type": "bytes32"
        },
        {
          "internalType": "bytes32",
          "name": "newPessimisticRoot",
          "type": "bytes32"
        },
        {
          "internalType": "bytes",
          "name": "customChainData",
          "type": "bytes"
        }
      ],
      "name": "getInputPessimisticBytes",
      "outputs": [
        {
          "internalType": "bytes",
          "name": "",
          "type": "bytes"
        }
      ],
      "stateMutability": "view",
      "type": "function"
    },
    {
      "inputs": [
        {
          "internalType": "uint32",
          "name": "rollupID",
          "type": "uint32"
        },
        {
          "internalType": "uint64",
          "name": "initNumBatch",
          "type": "uint64"
        },
        {
          "internalType": "uint64",
          "name": "finalNewBatch",
          "type": "uint64"
        },
        {
          "internalType": "bytes32",
          "name": "newLocalExitRoot",
          "type": "bytes32"
        },
        {
          "internalType": "bytes32",
          "name": "oldStateRoot",
          "type": "bytes32"
        },
        {
          "internalType": "bytes32",
          "name": "newStateRoot",
          "type": "bytes32"
        }
      ],
      "name": "getInputSnarkBytes",
      "outputs": [
        {
          "internalType": "bytes",
          "name": "",
          "type": "bytes"
        }
      ],
      "stateMutability": "view",
      "type": "function"
    },
    {
      "inputs": [
        {
          "internalType": "uint32",
          "name": "rollupID",
          "type": "uint32"
        }
      ],
      "name": "getLastVerifiedBatch",
      "outputs": [
        {
          "internalType": "uint64",
          "name": "",
          "type": "uint64"
        }
      ],
      "stateMutability": "view",
      "type": "function"
    },
    {
      "inputs": [
        {
          "internalType": "bytes32",
          "name": "role",
          "type": "bytes32"
        }
      ],
      "name": "getRoleAdmin",
      "outputs": [
        {
          "internalType": "bytes32",
          "name": "",
          "type": "bytes32"
        }
      ],
      "stateMutability": "view",
      "type": "function"
    },
    {
      "inputs": [
        {
          "internalType": "uint32",
          "name": "rollupID",
          "type": "uint32"
        },
        {
          "internalType": "uint64",
          "name": "batchNum",
          "type": "uint64"
        }
      ],
      "name": "getRollupBatchNumToStateRoot",
      "outputs": [
        {
          "internalType": "bytes32",
          "name": "",
          "type": "bytes32"
        }
      ],
      "stateMutability": "view",
      "type": "function"
    },
    {
      "inputs": [],
      "name": "getRollupExitRoot",
      "outputs": [
        {
          "internalType": "bytes32",
          "name": "",
          "type": "bytes32"
        }
      ],
      "stateMutability": "view",
      "type": "function"
    },
    {
      "inputs": [
        {
          "internalType": "uint32",
          "name": "rollupID",
          "type": "uint32"
        },
        {
          "internalType": "uint64",
          "name": "batchNum",
          "type": "uint64"
        }
      ],
      "name": "getRollupSequencedBatches",
      "outputs": [
        {
          "components": [
            {
              "internalType": "bytes32",
              "name": "accInputHash",
              "type": "bytes32"
            },
            {
              "internalType": "uint64",
              "name": "sequencedTimestamp",
              "type": "uint64"
            },
            {
              "internalType": "uint64",
              "name": "previousLastBatchSequenced",
              "type": "uint64"
            }
          ],
          "internalType": "struct LegacyZKEVMStateVariables.SequencedBatchData",
          "name": "",
          "type": "tuple"
        }
      ],
      "stateMutability": "view",
      "type": "function"
    },
    {
      "inputs": [],
      "name": "globalExitRootManager",
      "outputs": [
        {
          "internalType": "contract IPolygonZkEVMGlobalExitRootV2",
          "name": "",
          "type": "address"
        }
      ],
      "stateMutability": "view",
      "type": "function"
    },
    {
      "inputs": [
        {
          "internalType": "bytes32",
          "name": "role",
          "type": "bytes32"
        },
        {
          "internalType": "address",
          "name": "account",
          "type": "address"
        }
      ],
      "name": "grantRole",
      "outputs": [],
      "stateMutability": "nonpayable",
      "type": "function"
    },
    {
      "inputs": [
        {
          "internalType": "bytes32",
          "name": "role",
          "type": "bytes32"
        },
        {
          "internalType": "address",
          "name": "account",
          "type": "address"
        }
      ],
      "name": "hasRole",
      "outputs": [
        {
          "internalType": "bool",
          "name": "",
          "type": "bool"
        }
      ],
      "stateMutability": "view",
      "type": "function"
    },
    {
      "inputs": [],
      "name": "initialize",
      "outputs": [],
      "stateMutability": "nonpayable",
      "type": "function"
    },
    {
      "inputs": [],
      "name": "isEmergencyState",
      "outputs": [
        {
          "internalType": "bool",
          "name": "",
          "type": "bool"
        }
      ],
      "stateMutability": "view",
      "type": "function"
    },
    {
      "inputs": [],
      "name": "lastAggregationTimestamp",
      "outputs": [
        {
          "internalType": "uint64",
          "name": "",
          "type": "uint64"
        }
      ],
      "stateMutability": "view",
      "type": "function"
    },
    {
      "inputs": [],
      "name": "lastDeactivatedEmergencyStateTimestamp",
      "outputs": [
        {
          "internalType": "uint64",
          "name": "",
          "type": "uint64"
        }
      ],
      "stateMutability": "view",
      "type": "function"
    },
    {
      "inputs": [
        {
          "internalType": "uint32",
          "name": "rollupTypeID",
          "type": "uint32"
        }
      ],
      "name": "obsoleteRollupType",
      "outputs": [],
      "stateMutability": "nonpayable",
      "type": "function"
    },
    {
      "inputs": [
        {
          "internalType": "uint64",
          "name": "newSequencedBatches",
          "type": "uint64"
        },
        {
          "internalType": "bytes32",
          "name": "newAccInputHash",
          "type": "bytes32"
        }
      ],
      "name": "onSequenceBatches",
      "outputs": [
        {
          "internalType": "uint64",
          "name": "",
          "type": "uint64"
        }
      ],
      "stateMutability": "nonpayable",
      "type": "function"
    },
    {
      "inputs": [],
      "name": "pol",
      "outputs": [
        {
          "internalType": "contract IERC20Upgradeable",
          "name": "",
          "type": "address"
        }
      ],
      "stateMutability": "view",
      "type": "function"
    },
    {
      "inputs": [
        {
          "internalType": "bytes32",
          "name": "role",
          "type": "bytes32"
        },
        {
          "internalType": "address",
          "name": "account",
          "type": "address"
        }
      ],
      "name": "renounceRole",
      "outputs": [],
      "stateMutability": "nonpayable",
      "type": "function"
    },
    {
      "inputs": [
        {
          "internalType": "bytes32",
          "name": "role",
          "type": "bytes32"
        },
        {
          "internalType": "address",
          "name": "account",
          "type": "address"
        }
      ],
      "name": "revokeRole",
      "outputs": [],
      "stateMutability": "nonpayable",
      "type": "function"
    },
    {
      "inputs": [
        {
          "internalType": "contract IPolygonRollupBase",
          "name": "rollupContract",
          "type": "address"
        },
        {
          "internalType": "uint64",
          "name": "targetBatch",
          "type": "uint64"
        }
      ],
      "name": "rollbackBatches",
      "outputs": [],
      "stateMutability": "nonpayable",
      "type": "function"
    },
    {
      "inputs": [
        {
          "internalType": "address",
          "name": "rollupAddress",
          "type": "address"
        }
      ],
      "name": "rollupAddressToID",
      "outputs": [
        {
          "internalType": "uint32",
          "name": "rollupID",
          "type": "uint32"
        }
      ],
      "stateMutability": "view",
      "type": "function"
    },
    {
      "inputs": [],
      "name": "rollupCount",
      "outputs": [
        {
          "internalType": "uint32",
          "name": "",
          "type": "uint32"
        }
      ],
      "stateMutability": "view",
      "type": "function"
    },
    {
      "inputs": [
        {
          "internalType": "uint32",
          "name": "rollupID",
          "type": "uint32"
        }
      ],
      "name": "rollupIDToRollupData",
      "outputs": [
        {
          "components": [
            {
              "internalType": "address",
              "name": "rollupContract",
              "type": "address"
            },
            {
              "internalType": "uint64",
              "name": "chainID",
              "type": "uint64"
            },
            {
              "internalType": "address",
              "name": "verifier",
              "type": "address"
            },
            {
              "internalType": "uint64",
              "name": "forkID",
              "type": "uint64"
            },
            {
              "internalType": "bytes32",
              "name": "lastLocalExitRoot",
              "type": "bytes32"
            },
            {
              "internalType": "uint64",
              "name": "lastBatchSequenced",
              "type": "uint64"
            },
            {
              "internalType": "uint64",
              "name": "lastVerifiedBatch",
              "type": "uint64"
            },
            {
              "internalType": "uint64",
              "name": "_legacyLastPendingState",
              "type": "uint64"
            },
            {
              "internalType": "uint64",
              "name": "_legacyLastPendingStateConsolidated",
              "type": "uint64"
            },
            {
              "internalType": "uint64",
              "name": "lastVerifiedBatchBeforeUpgrade",
              "type": "uint64"
            },
            {
              "internalType": "uint64",
              "name": "rollupTypeID",
              "type": "uint64"
            },
            {
              "internalType": "enum IPolygonRollupManager.VerifierType",
              "name": "rollupVerifierType",
              "type": "uint8"
            }
          ],
          "internalType": "struct PolygonRollupManager.RollupDataReturn",
          "name": "rollupData",
          "type": "tuple"
        }
      ],
      "stateMutability": "view",
      "type": "function"
    },
    {
      "inputs": [
        {
          "internalType": "uint32",
          "name": "rollupID",
          "type": "uint32"
        }
      ],
      "name": "rollupIDToRollupDataDeserialized",
      "outputs": [
        {
          "internalType": "address",
          "name": "rollupContract",
          "type": "address"
        },
        {
          "internalType": "uint64",
          "name": "chainID",
          "type": "uint64"
        },
        {
          "internalType": "address",
          "name": "verifier",
          "type": "address"
        },
        {
          "internalType": "uint64",
          "name": "forkID",
          "type": "uint64"
        },
        {
          "internalType": "bytes32",
          "name": "lastLocalExitRoot",
          "type": "bytes32"
        },
        {
          "internalType": "uint64",
          "name": "lastBatchSequenced",
          "type": "uint64"
        },
        {
          "internalType": "uint64",
          "name": "lastVerifiedBatch",
          "type": "uint64"
        },
        {
          "internalType": "uint64",
          "name": "lastVerifiedBatchBeforeUpgrade",
          "type": "uint64"
        },
        {
          "internalType": "uint64",
          "name": "rollupTypeID",
          "type": "uint64"
        },
        {
          "internalType": "enum IPolygonRollupManager.VerifierType",
          "name": "rollupVerifierType",
          "type": "uint8"
        },
        {
          "internalType": "bytes32",
          "name": "lastPessimisticRoot",
          "type": "bytes32"
        },
        {
          "internalType": "bytes32",
          "name": "programVKey",
          "type": "bytes32"
        }
      ],
      "stateMutability": "view",
      "type": "function"
    },
    {
      "inputs": [
        {
          "internalType": "uint32",
          "name": "rollupID",
          "type": "uint32"
        }
      ],
      "name": "rollupIDToRollupDataV2",
      "outputs": [
        {
          "components": [
            {
              "internalType": "address",
              "name": "rollupContract",
              "type": "address"
            },
            {
              "internalType": "uint64",
              "name": "chainID",
              "type": "uint64"
            },
            {
              "internalType": "address",
              "name": "verifier",
              "type": "address"
            },
            {
              "internalType": "uint64",
              "name": "forkID",
              "type": "uint64"
            },
            {
              "internalType": "bytes32",
              "name": "lastLocalExitRoot",
              "type": "bytes32"
            },
            {
              "internalType": "uint64",
              "name": "lastBatchSequenced",
              "type": "uint64"
            },
            {
              "internalType": "uint64",
              "name": "lastVerifiedBatch",
              "type": "uint64"
            },
            {
              "internalType": "uint64",
              "name": "lastVerifiedBatchBeforeUpgrade",
              "type": "uint64"
            },
            {
              "internalType": "uint64",
              "name": "rollupTypeID",
              "type": "uint64"
            },
            {
              "internalType": "enum IPolygonRollupManager.VerifierType",
              "name": "rollupVerifierType",
              "type": "uint8"
            },
            {
              "internalType": "bytes32",
              "name": "lastPessimisticRoot",
              "type": "bytes32"
            },
            {
              "internalType": "bytes32",
              "name": "programVKey",
              "type": "bytes32"
            }
          ],
          "internalType": "struct PolygonRollupManager.RollupDataReturnV2",
          "name": "rollupData",
          "type": "tuple"
        }
      ],
      "stateMutability": "view",
      "type": "function"
    },
    {
      "inputs": [],
      "name": "rollupTypeCount",
      "outputs": [
        {
          "internalType": "uint32",
          "name": "",
          "type": "uint32"
        }
      ],
      "stateMutability": "view",
      "type": "function"
    },
    {
      "inputs": [
        {
          "internalType": "uint32",
          "name": "rollupTypeID",
          "type": "uint32"
        }
      ],
      "name": "rollupTypeMap",
      "outputs": [
        {
          "internalType": "address",
          "name": "consensusImplementation",
          "type": "address"
        },
        {
          "internalType": "address",
          "name": "verifier",
          "type": "address"
        },
        {
          "internalType": "uint64",
          "name": "forkID",
          "type": "uint64"
        },
        {
          "internalType": "enum IPolygonRollupManager.VerifierType",
          "name": "rollupVerifierType",
          "type": "uint8"
        },
        {
          "internalType": "bool",
          "name": "obsolete",
          "type": "bool"
        },
        {
          "internalType": "bytes32",
          "name": "genesis",
          "type": "bytes32"
        },
        {
          "internalType": "bytes32",
          "name": "programVKey",
          "type": "bytes32"
        }
      ],
      "stateMutability": "view",
      "type": "function"
    },
    {
      "inputs": [
        {
          "internalType": "uint256",
          "name": "newBatchFee",
          "type": "uint256"
        }
      ],
      "name": "setBatchFee",
      "outputs": [],
      "stateMutability": "nonpayable",
      "type": "function"
    },
    {
      "inputs": [],
      "name": "totalSequencedBatches",
      "outputs": [
        {
          "internalType": "uint64",
          "name": "",
          "type": "uint64"
        }
      ],
      "stateMutability": "view",
      "type": "function"
    },
    {
      "inputs": [],
      "name": "totalVerifiedBatches",
      "outputs": [
        {
          "internalType": "uint64",
          "name": "",
          "type": "uint64"
        }
      ],
      "stateMutability": "view",
      "type": "function"
    },
    {
      "inputs": [
        {
          "internalType": "contract ITransparentUpgradeableProxy",
          "name": "rollupContract",
          "type": "address"
        },
        {
          "internalType": "uint32",
          "name": "newRollupTypeID",
          "type": "uint32"
        },
        {
          "internalType": "bytes",
          "name": "upgradeData",
          "type": "bytes"
        }
      ],
      "name": "updateRollup",
      "outputs": [],
      "stateMutability": "nonpayable",
      "type": "function"
    },
    {
      "inputs": [
        {
          "internalType": "contract ITransparentUpgradeableProxy",
          "name": "rollupContract",
          "type": "address"
        },
        {
          "internalType": "uint32",
          "name": "newRollupTypeID",
          "type": "uint32"
        }
      ],
      "name": "updateRollupByRollupAdmin",
      "outputs": [],
      "stateMutability": "nonpayable",
      "type": "function"
    },
    {
      "inputs": [
        {
          "internalType": "uint32",
          "name": "rollupID",
          "type": "uint32"
        },
        {
          "internalType": "uint64",
          "name": "pendingStateNum",
          "type": "uint64"
        },
        {
          "internalType": "uint64",
          "name": "initNumBatch",
          "type": "uint64"
        },
        {
          "internalType": "uint64",
          "name": "finalNewBatch",
          "type": "uint64"
        },
        {
          "internalType": "bytes32",
          "name": "newLocalExitRoot",
          "type": "bytes32"
        },
        {
          "internalType": "bytes32",
          "name": "newStateRoot",
          "type": "bytes32"
        },
        {
          "internalType": "address",
          "name": "beneficiary",
          "type": "address"
        },
        {
          "internalType": "bytes32[24]",
          "name": "proof",
          "type": "bytes32[24]"
        }
      ],
      "name": "verifyBatchesTrustedAggregator",
      "outputs": [],
      "stateMutability": "nonpayable",
      "type": "function"
    },
    {
      "inputs": [
        {
          "internalType": "uint32",
          "name": "rollupID",
          "type": "uint32"
        },
        {
          "internalType": "uint32",
          "name": "l1InfoTreeLeafCount",
          "type": "uint32"
        },
        {
          "internalType": "bytes32",
          "name": "newLocalExitRoot",
          "type": "bytes32"
        },
        {
          "internalType": "bytes32",
          "name": "newPessimisticRoot",
          "type": "bytes32"
        },
        {
          "internalType": "bytes",
          "name": "proof",
          "type": "bytes"
        },
        {
          "internalType": "bytes",
          "name": "customChainData",
          "type": "bytes"
        }
      ],
      "name": "verifyPessimisticTrustedAggregator",
      "outputs": [],
      "stateMutability": "nonpayable",
      "type": "function"
    }
  ],
  "bytecode": "0x610100604052348015610010575f5ffd5b5060405161585e38038061585e83398101604081905261002f91610133565b6001600160a01b0380851660805283811660c05282811660a052811660e05261005661005f565b5050505061018f565b5f54610100900460ff16156100ca5760405162461bcd60e51b815260206004820152602760248201527f496e697469616c697a61626c653a20636f6e747261637420697320696e697469604482015266616c697a696e6760c81b606482015260840160405180910390fd5b5f5460ff908116101561011a575f805460ff191660ff9081179091556040519081527f7f26b83ff96e1f2b6a682f133852f6798a09c465da95921460cefb38474024989060200160405180910390a15b565b6001600160a01b0381168114610130575f5ffd5b50565b5f5f5f5f60808587031215610146575f5ffd5b84516101518161011c565b60208601519094506101628161011c565b60408601519093506101738161011c565b60608601519092506101848161011c565b939692955090935050565b60805160a05160c05160e0516156646101fa5f395f81816106cb0152610e1401525f8181610827015281816117d801526130f501525f818161068c0152818161275001526131f301525f818161076a01528181610a6a01528181610d330152610f1b01526156645ff3fe608060405234801561000f575f5ffd5b50600436106102f5575f3560e01c806399f5634e1161019d578063d5073f6f116100e8578063dfdb8c5e11610093578063e80e50301161006e578063e80e5030146108f7578063f4e926751461090a578063f9c4c2ae1461091a575f5ffd5b8063dfdb8c5e1461080f578063e46761c414610822578063e4f3d8f914610849575f5ffd5b8063dbc16976116100c3578063dbc16976146107da578063dd0464b9146107e2578063dde0ff77146107f5575f5ffd5b8063d5073f6f1461078c578063d547741f1461079f578063d8905812146107b2575f5ffd5b8063abcb519811610148578063c5b4fdb611610123578063c5b4fdb61461072d578063ceee281d14610740578063d02103ca14610765575f5ffd5b8063abcb5198146106ed578063c1acbc3414610700578063c4c928c21461071a575f5ffd5b8063a2967d9911610178578063a2967d991461067f578063a3c573eb14610687578063ab0475cf146106c6575f5ffd5b806399f5634e1461065d5780639a908e7314610665578063a217fddf14610678575f5ffd5b8063477fa2701161025d57806374d9c244116102085780638129fc1c116101e35780638129fc1c1461060a5780638fd88cc21461061257806391d1485414610625575f5ffd5b806374d9c244146105a55780637975fcfe146105c55780637fb6e76a146105e5575f5ffd5b806365c0504d1161023857806365c0504d146105045780636c7668771461057f5780637222020f14610592575f5ffd5b8063477fa270146104b457806355a71ee0146104bc57806360469169146104fc575f5ffd5b80632072f6c5116102bd5780632f2ff15d116102985780632f2ff15d1461047b57806330c27dde1461048e57806336568abe146104a1575f5ffd5b80632072f6c514610393578063248a9ca31461039b57806325280169146103cb575f5ffd5b8063066ec012146102f957806311f6b287146103295780631489ed101461033c57806315064c96146103515780631796a1ae1461036e575b5f5ffd5b60845461030c906001600160401b031681565b6040516001600160401b0390911681526020015b60405180910390f35b61030c610337366004613ec0565b61093a565b61034f61034a366004613f15565b610969565b005b606f5461035e9060ff1681565b6040519015158152602001610320565b607e5461037e9063ffffffff1681565b60405163ffffffff9091168152602001610320565b61034f610b4a565b6103bd6103a9366004613fa3565b5f9081526034602052604090206001015490565b604051908152602001610320565b6104486103d9366004613fba565b60408051606080820183525f808352602080840182905292840181905263ffffffff959095168552608182528285206001600160401b03948516865260030182529382902082519485018352805485526001015480841691850191909152600160401b90049091169082015290565b60408051825181526020808401516001600160401b03908116918301919091529282015190921690820152606001610320565b61034f610489366004613feb565b610c1c565b60875461030c906001600160401b031681565b61034f6104af366004613feb565b610c45565b6086546103bd565b6103bd6104ca366004613fba565b63ffffffff82165f9081526081602090815260408083206001600160401b038516845260020190915290205492915050565b6103bd610c7c565b61056c610512366004613ec0565b607f6020525f908152604090208054600182015460028301546003909301546001600160a01b0392831693928216926001600160401b03600160a01b8404169260ff600160e01b8204811693600160e81b90920416919087565b604051610320979695949392919061404d565b61034f61058d3660046140e3565b610c91565b61034f6105a0366004613ec0565b611081565b6105b86105b3366004613ec0565b611172565b6040516103209190614183565b6105d86105d3366004614291565b6112c1565b604051610320919061431a565b61037e6105f336600461432c565b60836020525f908152604090205463ffffffff1681565b61034f6112f1565b61034f610620366004614345565b611432565b61035e610633366004613feb565b5f9182526034602090815260408084206001600160a01b0393909316845291905290205460ff1690565b6103bd6117b7565b61030c610673366004614361565b611890565b6103bd5f81565b6103bd611a86565b6106ae7f000000000000000000000000000000000000000000000000000000000000000081565b6040516001600160a01b039091168152602001610320565b6106ae7f000000000000000000000000000000000000000000000000000000000000000081565b61034f6106fb36600461443a565b611dec565b60845461030c90600160801b90046001600160401b031681565b61034f6107283660046144cd565b6120e4565b61034f61073b366004614528565b61211f565b61037e61074e366004614605565b60826020525f908152604090205463ffffffff1681565b6106ae7f000000000000000000000000000000000000000000000000000000000000000081565b61034f61079a366004613fa3565b612636565b61034f6107ad366004613feb565b6126d4565b6105d8604051806040016040528060098152602001680616c2d76302e332e360bc1b81525081565b61034f6126f8565b6105d86107f0366004614620565b6127be565b60845461030c90600160401b90046001600160401b031681565b61034f61081d36600461468b565b6127e5565b6106ae7f000000000000000000000000000000000000000000000000000000000000000081565b6108df610857366004613ec0565b63ffffffff165f9081526081602052604090208054600182015460058301546006840154600785015460088601546009909601546001600160a01b0380871698600160a01b978890046001600160401b03908116999288169890970487169680861695600160401b908190048216958281169591810490921693600160801b90920460ff1692565b6040516103209c9b9a999897969594939291906146b5565b61034f610905366004614746565b612a0d565b60805461037e9063ffffffff1681565b61092d610928366004613ec0565b612d43565b60405161032091906147c7565b63ffffffff81165f90815260816020526040812060060154600160401b90046001600160401b03165b92915050565b7f084e94f375e9d647f87f5b2ceffba1e062c70f6009fdbcf80291e803b5c9edd461099381612e99565b6001600160401b038816156109bb5760405163306dfc5760e11b815260040160405180910390fd5b63ffffffff89165f908152608160205260408120906007820154600160801b900460ff1660028111156109f0576109f0614019565b14610a0e576040516390db0d0760e01b815260040160405180910390fd5b610a1d81898989898989612ea3565b6006810180546fffffffffffffffff00000000000000001916600160401b6001600160401b038a16908102919091179091555f9081526002820160205260409020859055600581018690557f00000000000000000000000000000000000000000000000000000000000000006001600160a01b03166333d6247d610a9f611a86565b6040518263ffffffff1660e01b8152600401610abd91815260200190565b5f604051808303815f87803b158015610ad4575f5ffd5b505af1158015610ae6573d5f5f3e3d5ffd5b5050604080516001600160401b038b1681526020810189905290810189905233925063ffffffff8d1691507fd1ec3a1216f08b6eff72e169ceb548b782db18a6614852618d86bb19f3f9b0d39060600160405180910390a350505050505050505050565b335f9081527f8875b94af5657a2903def9906d67a3f42d8a836d24b5602c00f00fc855339fcd602052604090205460ff16610c1257608454600160801b90046001600160401b03161580610bc757506084544290610bbc9062093a8090600160801b90046001600160401b031661490b565b6001600160401b0316115b80610bf457506087544290610be99062093a80906001600160401b031661490b565b6001600160401b0316115b15610c125760405163692baaad60e11b815260040160405180910390fd5b610c1a6131f1565b565b5f82815260346020526040902060010154610c3681612e99565b610c408383613267565b505050565b6001600160a01b0381163314610c6e57604051630b4ad1cd60e31b815260040160405180910390fd5b610c7882826132ea565b5050565b5f6086546064610c8c919061492a565b905090565b7f084e94f375e9d647f87f5b2ceffba1e062c70f6009fdbcf80291e803b5c9edd4610cbb81612e99565b610cc361336b565b63ffffffff89165f908152608160205260408120906007820154600160801b900460ff166002811115610cf857610cf8614019565b03610d1657604051635b6602b760e01b815260040160405180910390fd5b60405163ef4eeb3560e01b815263ffffffff8a1660048201525f907f00000000000000000000000000000000000000000000000000000000000000006001600160a01b03169063ef4eeb3590602401602060405180830381865afa158015610d80573d5f5f3e3d5ffd5b505050506040513d601f19601f82011682018060405250810190610da49190614941565b905080610dc45760405163a60721e160e01b815260040160405180910390fd5b5f610dd48c84848d8d8b8b6133d8565b905060026007840154600160801b900460ff166002811115610df857610df8614019565b03610e7e5760405163a48fd37760e01b81526001600160a01b037f0000000000000000000000000000000000000000000000000000000000000000169063a48fd37790610e4d9084908c908c90600401614980565b5f6040518083038186803b158015610e63575f5ffd5b505afa158015610e75573d5f5f3e3d5ffd5b50505050610ee6565b6001830154600984015460405163020a49e360e51b81526001600160a01b03909216916341493c6091610eb99185908d908d906004016149af565b5f6040518083038186803b158015610ecf575f5ffd5b505afa158015610ee1573d5f5f3e3d5ffd5b505050505b6084805467ffffffffffffffff60801b1916600160801b426001600160401b031602179055600583018a9055600883018990557f00000000000000000000000000000000000000000000000000000000000000006001600160a01b03166333d6247d610f50611a86565b6040518263ffffffff1660e01b8152600401610f6e91815260200190565b5f604051808303815f87803b158015610f85575f5ffd5b505af1158015610f97573d5f5f3e3d5ffd5b5050604080515f80825260208201529081018d905233925063ffffffff8f1691507fd1ec3a1216f08b6eff72e169ceb548b782db18a6614852618d86bb19f3f9b0d39060600160405180910390a360026007840154600160801b900460ff16600281111561100757611007614019565b0361106b578254604051639ee4afa360e01b81526001600160a01b0390911690639ee4afa39061103d90899089906004016149da565b5f604051808303815f87803b158015611054575f5ffd5b505af1158015611066573d5f5f3e3d5ffd5b505050505b5050506110766135ad565b505050505050505050565b7fab66e11c4f712cd06ab11bf9339b48bef39e12d4a22eeef71d2860a0c90482bd6110ab81612e99565b63ffffffff821615806110c95750607e5463ffffffff908116908316115b156110e757604051637512e5cb60e01b815260040160405180910390fd5b63ffffffff82165f908152607f602052604090206001810154600160e81b900460ff161561112857604051633b8d3d9960e01b815260040160405180910390fd5b60018101805460ff60e81b1916600160e81b17905560405163ffffffff8416907f4710d2ee567ef1ed6eb2f651dde4589524bcf7cebc62147a99b281cc836e7e44905f90a2505050565b6111d560408051610180810182525f80825260208201819052918101829052606081018290526080810182905260a0810182905260c0810182905260e0810182905261010081018290529061012082019081526020015f81526020015f81525090565b63ffffffff82165f9081526081602090815260409182902080546001600160a01b0380821686526001600160401b03600160a01b928390048116948701949094526001830154908116948601949094529092048116606084015260058201546080840152600682015480821660a0850152600160401b90819004821660c0850152600783015480831660e086015290810490911661010084015261012083019060ff600160801b90910416600281111561129157611291614019565b908160028111156112a4576112a4614019565b905250600881015461014083015260090154610160820152919050565b63ffffffff86165f9081526081602052604090206060906112e69087878787876135d7565b979650505050505050565b5f54600490610100900460ff1615801561131157505f5460ff8083169116105b6113885760405162461bcd60e51b815260206004820152602e60248201527f496e697469616c697a61626c653a20636f6e747261637420697320616c72656160448201527f647920696e697469616c697a656400000000000000000000000000000000000060648201526084015b60405180910390fd5b5f805461ffff191660ff83161761010017905560408051808201825260098152680616c2d76302e332e360bc1b602082015290517f50cadc0c001f05dd4b81db1e92b98d77e718fd2f103fb7b77293e867d329a4c2916113e79161431a565b60405180910390a15f805461ff001916905560405160ff821681527f7f26b83ff96e1f2b6a682f133852f6798a09c465da95921460cefb38474024989060200160405180910390a150565b335f9081527ff14f5a8ad59d90593602e905b358229bff5ceea677d5bf0f5a1701793550a9a6602052604090205460ff161580156114e15750336001600160a01b0316826001600160a01b031663f851a4406040518163ffffffff1660e01b8152600401602060405180830381865afa1580156114b1573d5f5f3e3d5ffd5b505050506040513d601f19601f820116820180604052508101906114d591906149ed565b6001600160a01b031614155b156114ff57604051630d03687f60e11b815260040160405180910390fd5b6001600160a01b0382165f9081526082602052604081205463ffffffff169081900361153e576040516374a086a360e01b815260040160405180910390fd5b63ffffffff81165f908152608160205260408120906007820154600160801b900460ff16600281111561157357611573614019565b14611591576040516390db0d0760e01b815260040160405180910390fd5b60068101546001600160401b03908116908416811115806115c9575060068201546001600160401b03600160401b9091048116908516105b156115e75760405163cb23ebdf60e01b815260040160405180910390fd5b805b846001600160401b0316816001600160401b031614611688576001600160401b038082165f908152600385016020526040902060010154600160401b9004811690861681101561164c57604051639753965f60e01b815260040160405180910390fd5b6001600160401b039091165f908152600384016020526040812090815560010180546fffffffffffffffffffffffffffffffff191690556115e9565b60068301805467ffffffffffffffff19166001600160401b0387161790556116b08583614a08565b608480545f906116ca9084906001600160401b0316614a08565b82546101009290920a6001600160401b0381810219909316918316021790915586165f8181526003860160205260409081902054905163334d6f6760e11b8152600481019290925260248201526001600160a01b038816915063669adece906044015f604051808303815f87803b158015611743575f5ffd5b505af1158015611755573d5f5f3e3d5ffd5b505050506001600160401b0385165f81815260038501602090815260409182902054915191825263ffffffff8716917f80a6d395a55aed8126079cb8247f0a6848b1440ca2cdca3b4386f250c3529402910160405180910390a3505050505050565b6040516370a0823160e01b81523060048201525f9081906001600160a01b037f000000000000000000000000000000000000000000000000000000000000000016906370a0823190602401602060405180830381865afa15801561181d573d5f5f3e3d5ffd5b505050506040513d601f19601f820116820180604052508101906118419190614941565b6084549091505f90611865906001600160401b03600160401b820481169116614a08565b6001600160401b03169050805f0361187f575f9250505090565b6118898183614a3b565b9250505090565b606f545f9060ff16156118b657604051630bc011ff60e21b815260040160405180910390fd5b335f9081526082602052604081205463ffffffff16908190036118ec576040516371653c1560e01b815260040160405180910390fd5b836001600160401b03165f0361191557604051632590ccf960e01b815260040160405180910390fd5b63ffffffff81165f908152608160205260408120906007820154600160801b900460ff16600281111561194a5761194a614019565b14611968576040516390db0d0760e01b815260040160405180910390fd5b608480548691905f906119859084906001600160401b031661490b565b82546101009290920a6001600160401b0381810219909316918316021790915560068301541690505f6119b8878361490b565b6006840180546001600160401b0383811667ffffffffffffffff199092168217909255604080516060810182528a815242841660208083019182528886168385019081525f86815260038c018352859020935184559151600193909301805492518716600160401b026fffffffffffffffffffffffffffffffff199093169390961692909217179093555190815291925063ffffffff8616917f1d9f30260051d51d70339da239ea7b080021adcaabfa71c9b0ea339a20cf9a25910160405180910390a29695505050505050565b6080545f9063ffffffff16808203611a9f57505f919050565b5f816001600160401b03811115611ab857611ab8614397565b604051908082528060200260200182016040528015611ae1578160200160208202803683370190505b5090505f5b82811015611b3e5760815f611afc836001614a4e565b63ffffffff1663ffffffff1681526020019081526020015f2060050154828281518110611b2b57611b2b614a61565b6020908102919091010152600101611ae6565b505f60205b83600114611d59575f611b57600286614a75565b611b62600287614a3b565b611b6c9190614a4e565b90505f816001600160401b03811115611b8757611b87614397565b604051908082528060200260200182016040528015611bb0578160200160208202803683370190505b5090505f5b82811015611d0957611bc8600184614a88565b81148015611be05750611bdc600288614a75565b6001145b15611c5d5785611bf182600261492a565b81518110611c0157611c01614a61565b602002602001015185604051602001611c24929190918252602082015260400190565b60405160208183030381529060405280519060200120828281518110611c4c57611c4c614a61565b602002602001018181525050611d01565b85611c6982600261492a565b81518110611c7957611c79614a61565b602002602001015186826002611c8f919061492a565b611c9a906001614a4e565b81518110611caa57611caa614a61565b6020026020010151604051602001611ccc929190918252602082015260400190565b60405160208183030381529060405280519060200120828281518110611cf457611cf4614a61565b6020026020010181815250505b600101611bb5565b508094508195508384604051602001611d2c929190918252602082015260400190565b6040516020818303038152906040528051906020012093508280611d4f90614a9b565b9350505050611b43565b5f835f81518110611d6c57611d6c614a61565b602002602001015190505f5f90505b82811015611de257604080516020810184905290810185905260600160408051601f198184030181528282528051602091820120908301879052908201869052925060600160408051601f1981840301815291905280516020909101209350600101611d7b565b5095945050505050565b7fac75d24dbb35ea80e25fab167da4dea46c1915260426570db84f184891f5f590611e1681612e99565b607e80545f91908290611e2e9063ffffffff16614ab0565b91906101000a81548163ffffffff021916908363ffffffff1602179055905060016002811115611e6057611e60614019565b866002811115611e7257611e72614019565b03611e9b578415611e96576040516363d722e760e01b815260040160405180910390fd5b611f55565b6002866002811115611eaf57611eaf614019565b03611f05576001600160a01b038816151580611ed357506001600160401b03871615155b80611edd57508415155b80611ee757508215155b15611e96576040516363d722e760e01b815260040160405180910390fd5b5f866002811115611f1857611f18614019565b03611f3c578215611e96576040516363d722e760e01b815260040160405180910390fd5b6040516363d722e760e01b815260040160405180910390fd5b6040518060e001604052808a6001600160a01b03168152602001896001600160a01b03168152602001886001600160401b03168152602001876002811115611f9f57611f9f614019565b81525f602080830182905260408084018a9052606093840188905263ffffffff86168352607f825291829020845181546001600160a01b0391821673ffffffffffffffffffffffffffffffffffffffff1990911617825591850151600182018054948701516001600160401b0316600160a01b026001600160e01b031990951691909316179290921780825592840151919260ff60e01b1916600160e01b83600281111561204f5761204f614019565b02179055506080820151600182018054911515600160e81b0260ff60e81b1990921691909117905560a0820151600282015560c09091015160039091015560405163ffffffff8216907f9eaf2ecbddb14889c9e141a63175c55ac25e0cd7cdea312cdfbd0397976b383a906120d1908c908c908c908c908c908c908c90614ad4565b60405180910390a2505050505050505050565b7f66156603fe29d13f97c6f3e3dff4ef71919f9aa61c555be0182d954e94221aac61210e81612e99565b6121198484846136da565b50505050565b7fa0fab074aba36a6fa69f1a83ee86e5abfb8433966eb57efb13dc2fc2f24ddd0861214981612e99565b63ffffffff891615806121675750607e5463ffffffff908116908a16115b1561218557604051637512e5cb60e01b815260040160405180910390fd5b63ffffffff89165f908152607f602052604090206001810154600160e81b900460ff16156121c657604051633b8d3d9960e01b815260040160405180910390fd5b63ffffffff6001600160401b038a1611156121f457604051634c753f5760e01b815260040160405180910390fd5b6001600160401b0389165f9081526083602052604090205463ffffffff1615612230576040516337c8fe0960e11b815260040160405180910390fd5b608080545f919082906122489063ffffffff16614ab0565b825463ffffffff8281166101009490940a93840293021916919091179091558254604080515f80825260208201928390529394506001600160a01b0390921691309161229390613ea0565b61229f93929190614b3a565b604051809103905ff0801580156122b8573d5f5f3e3d5ffd5b5090508160835f8d6001600160401b03166001600160401b031681526020019081526020015f205f6101000a81548163ffffffff021916908363ffffffff1602179055508160825f836001600160a01b03166001600160a01b031681526020019081526020015f205f6101000a81548163ffffffff021916908363ffffffff1602179055505f60815f8463ffffffff1663ffffffff1681526020019081526020015f20905081815f015f6101000a8154816001600160a01b0302191690836001600160a01b031602179055508360010160149054906101000a90046001600160401b03168160010160146101000a8154816001600160401b0302191690836001600160401b03160217905550836001015f9054906101000a90046001600160a01b0316816001015f6101000a8154816001600160a01b0302191690836001600160a01b031602179055508b815f0160146101000a8154816001600160401b0302191690836001600160401b031602179055508360020154816002015f5f6001600160401b031681526020019081526020015f20819055508c63ffffffff168160070160086101000a8154816001600160401b0302191690836001600160401b0316021790555083600101601c9054906101000a900460ff168160070160106101000a81548160ff021916908360028111156124b5576124b5614019565b0217905550836003015481600901819055508263ffffffff167f194c983456df6701c6a50830b90fe80e72b823411d0d524970c9590dc277a6418e848f8d604051612536949392919063ffffffff9490941684526001600160a01b0392831660208501526001600160401b0391909116604084015216606082015260800190565b60405180910390a260026001850154600160e01b900460ff16600281111561256057612560614019565b036125c35760405163439fab9160e01b81526001600160a01b0383169063439fab919061259190899060040161431a565b5f604051808303815f87803b1580156125a8575f5ffd5b505af11580156125ba573d5f5f3e3d5ffd5b50505050612627565b604051633892b81160e11b81526001600160a01b038316906371257022906125f9908e908e9088908f908f908f90600401614b73565b5f604051808303815f87803b158015612610575f5ffd5b505af1158015612622573d5f5f3e3d5ffd5b505050505b50505050505050505050505050565b7f8cf807f6970720f8e2c208c7c5037595982c7bd9ed93c380d09df743d0dcc3fb61266081612e99565b683635c9adc5dea0000082118061267a5750633b9aca0082105b1561269857604051638586952560e01b815260040160405180910390fd5b60868290556040518281527ffb383653f53ee079978d0c9aff7aeff04a10166ce244cca9c9f9d8d96bed45b29060200160405180910390a15050565b5f828152603460205260409020600101546126ee81612e99565b610c4083836132ea565b7f62ba6ba2ffed8cfe316b583325ea41ac6e7ba9e5864d2bc6fabba7ac26d2f0f461272281612e99565b6087805467ffffffffffffffff1916426001600160401b031617905560408051636de0b4bb60e11b815290517f00000000000000000000000000000000000000000000000000000000000000006001600160a01b03169163dbc16976916004808301925f92919082900301818387803b15801561279d575f5ffd5b505af11580156127af573d5f5f3e3d5ffd5b505050506127bb613a6e565b50565b63ffffffff86165f9081526081602052604090206060906112e690889088888888886133d8565b336001600160a01b0316826001600160a01b031663f851a4406040518163ffffffff1660e01b8152600401602060405180830381865afa15801561282b573d5f5f3e3d5ffd5b505050506040513d601f19601f8201168201806040525081019061284f91906149ed565b6001600160a01b0316146128765760405163696072e960e01b815260040160405180910390fd5b6001600160a01b0382165f9081526082602090815260408083205463ffffffff1683526081909152902060068101546001600160401b03808216600160401b90920416146128d75760405163664316a560e11b815260040160405180910390fd5b600263ffffffff83165f908152607f6020526040902060010154600160e01b900460ff16600281111561290c5761290c614019565b141580156129355750600781015463ffffffff8316600160401b9091046001600160401b031610155b1561295357604051633e37e23360e01b815260040160405180910390fd5b6001600160a01b0383165f9081526082602090815260408083205463ffffffff8681168552607f909352922060010154911690600160e01b900460ff1660028111156129a1576129a1614019565b63ffffffff82165f908152607f6020526040902060010154600160e01b900460ff1660028111156129d4576129d4614019565b146129f257604051635aa0d5f160e11b815260040160405180910390fd5b604080515f81526020810190915261211990859085906136da565b7f3dfe277d2a2c04b75fb2eb3743fa00005ae3678a20c299e65fdf4df76517f68e612a3781612e99565b6001600160401b0386165f9081526083602052604090205463ffffffff1615612a73576040516337c8fe0960e11b815260040160405180910390fd5b63ffffffff6001600160401b0387161115612aa157604051634c753f5760e01b815260040160405180910390fd5b6001600160a01b0389165f9081526082602052604090205463ffffffff1615612add57604051630d409b9360e41b815260040160405180910390fd5b608080545f91908290612af59063ffffffff16614ab0565b91906101000a81548163ffffffff021916908363ffffffff160217905590508060835f896001600160401b03166001600160401b031681526020019081526020015f205f6101000a81548163ffffffff021916908363ffffffff1602179055508060825f8c6001600160a01b03166001600160a01b031681526020019081526020015f205f6101000a81548163ffffffff021916908363ffffffff1602179055505f60815f8363ffffffff1663ffffffff1681526020019081526020015f2090508a815f015f6101000a8154816001600160a01b0302191690836001600160a01b03160217905550888160010160146101000a8154816001600160401b0302191690836001600160401b0316021790555089816001015f6101000a8154816001600160a01b0302191690836001600160a01b0316021790555087815f0160146101000a8154816001600160401b0302191690836001600160401b03160217905550858160070160106101000a81548160ff02191690836002811115612c7c57612c7c614019565b02179055506001866002811115612c9557612c95614019565b03612cad576009810185905560058101879055612cec565b6002866002811115612cc157612cc1614019565b03612cd9576008810184905560058101879055612cec565b5f80805260028201602052604090208790555b8163ffffffff167f4da47f6e9bbd9ef91887183a576aaebcf1b9bb7d2a567b33b075044c6d36082e8a8d8b8a5f8b8b604051612d2e9796959493929190614bdd565b60405180910390a25050505050505050505050565b612da760408051610180810182525f80825260208201819052918101829052606081018290526080810182905260a0810182905260c0810182905260e081018290526101008101829052610120810182905261014081018290529061016082015290565b63ffffffff82165f9081526081602090815260409182902080546001600160a01b038082168652600160a01b918290046001600160401b03908116948701949094526001830154908116948601949094529092048116606084015260058201546080840152600682015480821660a0850152600160401b808204831660c0860152600160801b808304841660e0870152600160c01b909204831661010086015260078401548084166101208701529081049092166101408501526101608401910460ff166002811115612e7c57612e7c614019565b90816002811115612e8f57612e8f614019565b8152505050919050565b6127bb8133613ac5565b5f5f612ec189600601546001600160401b03600160401b9091041690565b60078a01549091506001600160401b039081169089161015612ef65760405163ead1340b60e01b815260040160405180910390fd5b6001600160401b0388165f90815260028a016020526040902054915081612f30576040516324cbdcc360e11b815260040160405180910390fd5b806001600160401b0316886001600160401b03161115612f6357604051630f2b74f160e11b815260040160405180910390fd5b806001600160401b0316876001600160401b031611612f955760405163b9b18f5760e01b815260040160405180910390fd5b5f612fa48a8a8a8a878b6135d7565b90505f7f30644e72e131a029b85045b68181585d2833e84879b9709143e1f593f0000001600283604051612fd89190614c38565b602060405180830381855afa158015612ff3573d5f5f3e3d5ffd5b5050506040513d601f19601f820116820180604052508101906130169190614941565b6130209190614a75565b60018c0154604080516020810182528381529051634890ed4560e11b81529293506001600160a01b0390911691639121da8a9161306291899190600401614c4e565b602060405180830381865afa15801561307d573d5f5f3e3d5ffd5b505050506040513d601f19601f820116820180604052508101906130a19190614c8a565b6130be576040516309bde33960e01b815260040160405180910390fd5b5f6130c9848b614a08565b905061311c87826001600160401b03166130e16117b7565b6130eb919061492a565b6001600160a01b037f0000000000000000000000000000000000000000000000000000000000000000169190613b07565b80608460088282829054906101000a90046001600160401b0316613140919061490b565b82546101009290920a6001600160401b038181021990931691831602179091556084805467ffffffffffffffff60801b1916600160801b428416021790558d546040516332c2d15360e01b8152918d166004830152602482018b90523360448301526001600160a01b031691506332c2d153906064015f604051808303815f87803b1580156131cd575f5ffd5b505af11580156131df573d5f5f3e3d5ffd5b50505050505050505050505050505050565b7f00000000000000000000000000000000000000000000000000000000000000006001600160a01b0316632072f6c56040518163ffffffff1660e01b81526004015f604051808303815f87803b158015613249575f5ffd5b505af115801561325b573d5f5f3e3d5ffd5b50505050610c1a613b6e565b5f8281526034602090815260408083206001600160a01b038516845290915290205460ff16610c78575f8281526034602090815260408083206001600160a01b0385168085529252808320805460ff1916600117905551339285917f2f8788117e7eff1d82e926ec794901d17c78024a50270940304540a733656f0d9190a45050565b5f8281526034602090815260408083206001600160a01b038516845290915290205460ff1615610c78575f8281526034602090815260408083206001600160a01b0385168085529252808320805460ff1916905551339285917ff6391f5c32d9c69d2a47ea670b442974b53935d1edc7fd64eb21e047a839171b9190a45050565b7f9b779b17422d0df92223018b32b4d1fa46e071723d6817e2486d003becc55f005c156133ab57604051633ee5aeb560e01b815260040160405180910390fd5b610c1a60017f9b779b17422d0df92223018b32b4d1fa46e071723d6817e2486d003becc55f005b90613bc9565b606060026007880154600160801b900460ff1660028111156133fc576133fc614019565b036134d7578654604051631a957d9b60e21b81525f916001600160a01b031690636a55f66c9061343290879087906004016149da565b602060405180830381865afa15801561344d573d5f5f3e3d5ffd5b505050506040513d601f19601f820116820180604052508101906134719190614941565b600589015460088a0154604080516020810193909352820152606081018990526001600160e01b031960e08c901b1660808201526084810182905260a4810188905260c4810187905290915060e4016040516020818303038152906040529150506112e6565b865460408051632b47b7cd60e21b815290515f926001600160a01b03169163ad1edf349160048083019260209291908290030181865afa15801561351d573d5f5f3e3d5ffd5b505050506040513d601f19601f820116820180604052508101906135419190614941565b600589015460088a0154604080516020810193909352820152606081018990526001600160e01b031960e08c901b1660808201526084810182905260a4810188905260c4810187905290915060e401604051602081830303815290604052915050979650505050505050565b610c1a5f7f9b779b17422d0df92223018b32b4d1fa46e071723d6817e2486d003becc55f006133d2565b6001600160401b038086165f818152600389016020526040808220549388168252902054606092911580159061360b575081155b156136295760405163340c614f60e11b815260040160405180910390fd5b80613647576040516366385b5160e01b815260040160405180910390fd5b61365084613bd0565b61366d576040516305dae44f60e21b815260040160405180910390fd5b3385838a8c5f0160149054906101000a90046001600160401b03168d60010160149054906101000a90046001600160401b031689878d8f6040516020016136bd9a99989796959493929190614ca9565b604051602081830303815290604052925050509695505050505050565b63ffffffff821615806136f85750607e5463ffffffff908116908316115b1561371657604051637512e5cb60e01b815260040160405180910390fd5b6001600160a01b0383165f9081526082602052604081205463ffffffff1690819003613755576040516374a086a360e01b815260040160405180910390fd5b63ffffffff8181165f908152608160205260409020600781015490918516600160401b9091046001600160401b0316036137a257604051634f61d51960e01b815260040160405180910390fd5b63ffffffff84165f908152607f602052604090206001810154600160e81b900460ff16156137e357604051633b8d3d9960e01b815260040160405180910390fd5b60026001820154600160e01b900460ff16600281111561380557613805614019565b146138a85760026007830154600160801b900460ff16600281111561382c5761382c614019565b0361384a57604051635aa0d5f160e11b815260040160405180910390fd5b6001810154600160e01b900460ff16600281111561386a5761386a614019565b6007830154600160801b900460ff16600281111561388a5761388a614019565b146138a857604051635aa0d5f160e11b815260040160405180910390fd5b60018082018054918401805473ffffffffffffffffffffffffffffffffffffffff1981166001600160a01b03909416938417825582546001600160401b03600160a01b9182900416026001600160e01b03199091169093179290921790915560038201546009840155600783018054600160401b63ffffffff8916026fffffffffffffffff000000000000000019821681178355925460ff600160e01b909104169270ff00000000000000000000000000000000191670ffffffffffffffffff00000000000000001990911617600160801b83600281111561398c5761398c614019565b02179055505f61399b8461093a565b60078401805467ffffffffffffffff19166001600160401b038316179055825460405163278f794360e11b81529192506001600160a01b0389811692634f1ef286926139ed9216908990600401614d5d565b5f604051808303815f87803b158015613a04575f5ffd5b505af1158015613a16573d5f5f3e3d5ffd5b50506040805163ffffffff8a811682526001600160401b0386166020830152881693507ff585e04c05d396901170247783d3e5f0ee9c1df23072985b50af089f5e48b19d92500160405180910390a250505050505050565b606f5460ff16613a9157604051635386698160e01b815260040160405180910390fd5b606f805460ff191690556040517f1e5e34eea33501aecf2ebec9fe0e884a40804275ea7fe10b2ba084c8374308b3905f90a1565b5f8281526034602090815260408083206001600160a01b038516845290915290205460ff16610c7857604051637615be1f60e11b815260040160405180910390fd5b604080516001600160a01b038416602482015260448082018490528251808303909101815260649091019091526020810180517bffffffffffffffffffffffffffffffffffffffffffffffffffffffff1663a9059cbb60e01b179052610c40908490613c55565b606f5460ff1615613b9257604051630bc011ff60e21b815260040160405180910390fd5b606f805460ff191660011790556040517f2261efe5aef6fedc1fd1550b25facc9181745623049c7901287030b9ad1a5497905f90a1565b80825d5050565b5f67ffffffff000000016001600160401b038316108015613c05575067ffffffff00000001604083901c6001600160401b0316105b8015613c25575067ffffffff00000001608083901c6001600160401b0316105b8015613c3c575067ffffffff0000000160c083901c105b15613c4957506001919050565b505f919050565b919050565b5f613ca9826040518060400160405280602081526020017f5361666545524332303a206c6f772d6c6576656c2063616c6c206661696c6564815250856001600160a01b0316613d269092919063ffffffff16565b805190915015610c405780806020019051810190613cc79190614c8a565b610c405760405162461bcd60e51b815260206004820152602a60248201527f5361666545524332303a204552433230206f7065726174696f6e20646964206e6044820152691bdd081cdd58d8d9595960b21b606482015260840161137f565b6060613d3484845f85613d3c565b949350505050565b606082471015613d9d5760405162461bcd60e51b815260206004820152602660248201527f416464726573733a20696e73756666696369656e742062616c616e636520666f6044820152651c8818d85b1b60d21b606482015260840161137f565b5f5f866001600160a01b03168587604051613db89190614c38565b5f6040518083038185875af1925050503d805f8114613df2576040519150601f19603f3d011682016040523d82523d5f602084013e613df7565b606091505b50915091506112e68783838760608315613e715782515f03613e6a576001600160a01b0385163b613e6a5760405162461bcd60e51b815260206004820152601d60248201527f416464726573733a2063616c6c20746f206e6f6e2d636f6e7472616374000000604482015260640161137f565b5081613d34565b613d348383815115613e865781518083602001fd5b8060405162461bcd60e51b815260040161137f919061431a565b6108b080614d7f83390190565b803563ffffffff81168114613c50575f5ffd5b5f60208284031215613ed0575f5ffd5b613ed982613ead565b9392505050565b80356001600160401b0381168114613c50575f5ffd5b6001600160a01b03811681146127bb575f5ffd5b8035613c5081613ef6565b5f5f5f5f5f5f5f5f6103e0898b031215613f2d575f5ffd5b613f3689613ead565b9750613f4460208a01613ee0565b9650613f5260408a01613ee0565b9550613f6060608a01613ee0565b94506080890135935060a0890135925060c0890135613f7e81613ef6565b91506103e089018a1015613f90575f5ffd5b60e0890190509295985092959890939650565b5f60208284031215613fb3575f5ffd5b5035919050565b5f5f60408385031215613fcb575f5ffd5b613fd483613ead565b9150613fe260208401613ee0565b90509250929050565b5f5f60408385031215613ffc575f5ffd5b82359150602083013561400e81613ef6565b809150509250929050565b634e487b7160e01b5f52602160045260245ffd5b6003811061404957634e487b7160e01b5f52602160045260245ffd5b9052565b6001600160a01b038881168252871660208201526001600160401b038616604082015260e08101614081606083018761402d565b931515608082015260a081019290925260c090910152949350505050565b5f5f83601f8401126140af575f5ffd5b5081356001600160401b038111156140c5575f5ffd5b6020830191508360208285010111156140dc575f5ffd5b9250929050565b5f5f5f5f5f5f5f5f60c0898b0312156140fa575f5ffd5b61410389613ead565b975061411160208a01613ead565b9650604089013595506060890135945060808901356001600160401b03811115614139575f5ffd5b6141458b828c0161409f565b90955093505060a08901356001600160401b03811115614163575f5ffd5b61416f8b828c0161409f565b999c989b5096995094979396929594505050565b81516001600160a01b03168152610180810160208301516141af60208401826001600160401b03169052565b5060408301516141ca60408401826001600160a01b03169052565b5060608301516141e560608401826001600160401b03169052565b506080830151608083015260a083015161420a60a08401826001600160401b03169052565b5060c083015161422560c08401826001600160401b03169052565b5060e083015161424060e08401826001600160401b03169052565b5061010083015161425d6101008401826001600160401b03169052565b5061012083015161427261012084018261402d565b5061014083015161014083015261016083015161016083015292915050565b5f5f5f5f5f5f60c087890312156142a6575f5ffd5b6142af87613ead565b95506142bd60208801613ee0565b94506142cb60408801613ee0565b959894975094956060810135955060808101359460a0909101359350915050565b5f81518084528060208401602086015e5f602082860101526020601f19601f83011685010191505092915050565b602081525f613ed960208301846142ec565b5f6020828403121561433c575f5ffd5b613ed982613ee0565b5f5f60408385031215614356575f5ffd5b8235613fd481613ef6565b5f5f60408385031215614372575f5ffd5b61437b83613ee0565b946020939093013593505050565b803560038110613c50575f5ffd5b634e487b7160e01b5f52604160045260245ffd5b5f82601f8301126143ba575f5ffd5b8135602083015f5f6001600160401b038411156143d9576143d9614397565b50604051601f19601f85018116603f011681018181106001600160401b038211171561440757614407614397565b60405283815290508082840187101561441e575f5ffd5b838360208301375f602085830101528094505050505092915050565b5f5f5f5f5f5f5f60e0888a031215614450575f5ffd5b873561445b81613ef6565b9650602088013561446b81613ef6565b955061447960408901613ee0565b945061448760608901614389565b93506080880135925060a08801356001600160401b038111156144a8575f5ffd5b6144b48a828b016143ab565b979a969950949793969295929450505060c09091013590565b5f5f5f606084860312156144df575f5ffd5b83356144ea81613ef6565b92506144f860208501613ead565b915060408401356001600160401b03811115614512575f5ffd5b61451e868287016143ab565b9150509250925092565b5f5f5f5f5f5f5f5f610100898b031215614540575f5ffd5b61454989613ead565b975061455760208a01613ee0565b965061456560408a01613f0a565b955061457360608a01613f0a565b945061458160808a01613f0a565b935060a08901356001600160401b0381111561459b575f5ffd5b6145a78b828c016143ab565b93505060c08901356001600160401b038111156145c2575f5ffd5b6145ce8b828c016143ab565b92505060e08901356001600160401b038111156145e9575f5ffd5b6145f58b828c016143ab565b9150509295985092959890939650565b5f60208284031215614615575f5ffd5b8135613ed981613ef6565b5f5f5f5f5f5f60a08789031215614635575f5ffd5b61463e87613ead565b955060208701359450604087013593506060870135925060808701356001600160401b0381111561466d575f5ffd5b61467989828a0161409f565b979a9699509497509295939492505050565b5f5f6040838503121561469c575f5ffd5b82356146a781613ef6565b9150613fe260208401613ead565b6001600160a01b038d811682526001600160401b038d81166020840152908c1660408301528a81166060830152608082018a905288811660a0830152871660c082015261018081016001600160401b03871660e08301526001600160401b03861661010083015261472a61012083018661402d565b61014082019390935261016001529a9950505050505050505050565b5f5f5f5f5f5f5f5f610100898b03121561475e575f5ffd5b883561476981613ef6565b9750602089013561477981613ef6565b965061478760408a01613ee0565b955061479560608a01613ee0565b9450608089013593506147aa60a08a01614389565b979a969950949793969295929450505060c08201359160e0013590565b81516001600160a01b03168152610180810160208301516147f360208401826001600160401b03169052565b50604083015161480e60408401826001600160a01b03169052565b50606083015161482960608401826001600160401b03169052565b506080830151608083015260a083015161484e60a08401826001600160401b03169052565b5060c083015161486960c08401826001600160401b03169052565b5060e083015161488460e08401826001600160401b03169052565b506101008301516148a16101008401826001600160401b03169052565b506101208301516148be6101208401826001600160401b03169052565b506101408301516148db6101408401826001600160401b03169052565b506101608301516148f061016084018261402d565b5092915050565b634e487b7160e01b5f52601160045260245ffd5b6001600160401b038181168382160190811115610963576109636148f7565b8082028115828204841417610963576109636148f7565b5f60208284031215614951575f5ffd5b5051919050565b81835281816020850137505f828201602090810191909152601f909101601f19169091010190565b604081525f61499260408301866142ec565b82810360208401526149a5818587614958565b9695505050505050565b848152606060208201525f6149c760608301866142ec565b82810360408401526112e6818587614958565b602081525f613d34602083018486614958565b5f602082840312156149fd575f5ffd5b8151613ed981613ef6565b6001600160401b038281168282160390811115610963576109636148f7565b634e487b7160e01b5f52601260045260245ffd5b5f82614a4957614a49614a27565b500490565b80820180821115610963576109636148f7565b634e487b7160e01b5f52603260045260245ffd5b5f82614a8357614a83614a27565b500690565b81810381811115610963576109636148f7565b5f81614aa957614aa96148f7565b505f190190565b5f63ffffffff821663ffffffff8103614acb57614acb6148f7565b60010192915050565b6001600160a01b03881681526001600160a01b03871660208201526001600160401b0386166040820152614b0b606082018661402d565b83608082015260e060a08201525f614b2660e08301856142ec565b90508260c083015298975050505050505050565b6001600160a01b03841681526001600160a01b0383166020820152606060408201525f614b6a60608301846142ec565b95945050505050565b6001600160a01b03871681526001600160a01b038616602082015263ffffffff851660408201526001600160a01b038416606082015260c060808201525f614bbe60c08301856142ec565b82810360a0840152614bd081856142ec565b9998505050505050505050565b6001600160401b0388811682526001600160a01b03881660208301528616604082015260e08101614c11606083018761402d565b6001600160401b03851660808301528360a08301528260c083015298975050505050505050565b5f82518060208501845e5f920191825250919050565b61032081016103008483376103008201835f5b6001811015614c80578151835260209283019290910190600101614c61565b5050509392505050565b5f60208284031215614c9a575f5ffd5b81518015158114613ed9575f5ffd5b6bffffffffffffffffffffffff198b60601b1681528960148201528860348201526001600160401b0360c01b8860c01b1660548201526001600160401b0360c01b8760c01b16605c8201526001600160401b0360c01b8660c01b16606482015284606c82015283608c8201528260ac820152614d4c60cc82018360c01b7fffffffffffffffff000000000000000000000000000000000000000000000000169052565b60d4019a9950505050505050505050565b6001600160a01b0383168152604060208201525f613d3460408301846142ec56fe60a06040526040516108b03803806108b083398101604081905261002291610327565b828161002e8282610056565b50506001600160a01b03821660805261004e61004960805190565b6100b4565b50505061040e565b61005f82610121565b6040516001600160a01b038316907fbc7cd75a20ee27fd9adebab32041f755214dbc6bffa90cc0225b39da2e5c2d3b905f90a28051156100a8576100a3828261019f565b505050565b6100b0610212565b5050565b7f7e644d79422f17c01e4894b5f4f588d331ebfa28653d42ae832dc59e38c9798f6100f35f5160206108905f395f51905f52546001600160a01b031690565b604080516001600160a01b03928316815291841660208301520160405180910390a161011e81610233565b50565b806001600160a01b03163b5f0361015b57604051634c9c8ce360e01b81526001600160a01b03821660048201526024015b60405180910390fd5b807f360894a13ba1a3210667c828492db98dca3e2076cc3735a920a3ca505d382bbc5b80546001600160a01b0319166001600160a01b039290921691909117905550565b60605f5f846001600160a01b0316846040516101bb91906103f8565b5f60405180830381855af49150503d805f81146101f3576040519150601f19603f3d011682016040523d82523d5f602084013e6101f8565b606091505b509092509050610209858383610270565b95945050505050565b34156102315760405163b398979f60e01b815260040160405180910390fd5b565b6001600160a01b03811661025c57604051633173bdd160e11b81525f6004820152602401610152565b805f5160206108905f395f51905f5261017e565b60608261028557610280826102cf565b6102c8565b815115801561029c57506001600160a01b0384163b155b156102c557604051639996b31560e01b81526001600160a01b0385166004820152602401610152565b50805b9392505050565b8051156102df5780518082602001fd5b604051630a12f52160e11b815260040160405180910390fd5b80516001600160a01b038116811461030e575f5ffd5b919050565b634e487b7160e01b5f52604160045260245ffd5b5f5f5f60608486031215610339575f5ffd5b610342846102f8565b9250610350602085016102f8565b60408501519092506001600160401b0381111561036b575f5ffd5b8401601f8101861361037b575f5ffd5b80516001600160401b0381111561039457610394610313565b604051601f8201601f19908116603f011681016001600160401b03811182821017156103c2576103c2610313565b6040528181528282016020018810156103d9575f5ffd5b8160208401602083015e5f602083830101528093505050509250925092565b5f82518060208501845e5f920191825250919050565b60805161046b6104255f395f6010015261046b5ff3fe608060405261000c61000e565b005b7f00000000000000000000000000000000000000000000000000000000000000006001600160a01b03163303610081575f357fffffffff000000000000000000000000000000000000000000000000000000001663278f794360e11b1461007957610077610085565b565b610077610095565b6100775b6100776100906100c3565b6100fa565b5f806100a43660048184610313565b8101906100b1919061034e565b915091506100bf8282610118565b5050565b5f6100f57f360894a13ba1a3210667c828492db98dca3e2076cc3735a920a3ca505d382bbc546001600160a01b031690565b905090565b365f5f375f5f365f845af43d5f5f3e808015610114573d5ff35b3d5ffd5b61012182610172565b6040516001600160a01b038316907fbc7cd75a20ee27fd9adebab32041f755214dbc6bffa90cc0225b39da2e5c2d3b905f90a280511561016a5761016582826101fa565b505050565b6100bf61026c565b806001600160a01b03163b5f036101ac57604051634c9c8ce360e01b81526001600160a01b03821660048201526024015b60405180910390fd5b7f360894a13ba1a3210667c828492db98dca3e2076cc3735a920a3ca505d382bbc805473ffffffffffffffffffffffffffffffffffffffff19166001600160a01b0392909216919091179055565b60605f5f846001600160a01b031684604051610216919061041f565b5f60405180830381855af49150503d805f811461024e576040519150601f19603f3d011682016040523d82523d5f602084013e610253565b606091505b509150915061026385838361028b565b95945050505050565b34156100775760405163b398979f60e01b815260040160405180910390fd5b6060826102a05761029b826102ea565b6102e3565b81511580156102b757506001600160a01b0384163b155b156102e057604051639996b31560e01b81526001600160a01b03851660048201526024016101a3565b50805b9392505050565b8051156102fa5780518082602001fd5b604051630a12f52160e11b815260040160405180910390fd5b5f5f85851115610321575f5ffd5b8386111561032d575f5ffd5b5050820193919092039150565b634e487b7160e01b5f52604160045260245ffd5b5f5f6040838503121561035f575f5ffd5b82356001600160a01b0381168114610375575f5ffd5b9150602083013567ffffffffffffffff811115610390575f5ffd5b8301601f810185136103a0575f5ffd5b803567ffffffffffffffff8111156103ba576103ba61033a565b604051601f8201601f19908116603f0116810167ffffffffffffffff811182821017156103e9576103e961033a565b604052818152828201602001871015610400575f5ffd5b816020840160208301375f602083830101528093505050509250929050565b5f82518060208501845e5f92019182525091905056fea2646970667358221220f0c40b8d0bc55a45013a71ee3fd7264ce873fcc561d04a41ba1f24adbcef958c64736f6c634300081c0033b53127684a568b3173ae13b9f8a6016e243e63b6e8ee1178d6a717850b5d6103a26469706673582212203a3c88f208edab75cb7577e66ab98dc612d1c8038cb4bdfda5cc5cf947a1d89164736f6c634300081c0033",
  "linkReferences": {},
  "deployedLinkReferences": {}
}