{
  "_format": "hh-sol-artifact-1",
  "contractName": "PolygonRollupManager",
  "sourceName": "contracts/v2/PolygonRollupManager.sol",
  "abi": [
    {
      "inputs": [
        {
          "internalType": "contract IPolygonZkEVMGlobalExitRootV2",
          "name": "_globalExitRootManager",
          "type": "address"
        },
        {
          "internalType": "contract IERC20Upgradeable",
          "name": "_pol",
          "type": "address"
        },
        {
          "internalType": "contract IPolygonZkEVMBridge",
          "name": "_bridgeAddress",
          "type": "address"
        },
        {
          "internalType": "contract IAggLayerGateway",
          "name": "_aggLayerGateway",
          "type": "address"
        }
      ],
      "stateMutability": "nonpayable",
      "type": "constructor"
    },
    {
      "inputs": [],
      "name": "AccessControlOnlyCanRenounceRolesForSelf",
      "type": "error"
    },
    {
      "inputs": [],
      "name": "AddressDoNotHaveRequiredRole",
      "type": "error"
    },
    {
      "inputs": [],
      "name": "AggchainDataMustBeZeroForPessimisticVerifierType",
      "type": "error"
    },
    {
      "inputs": [],
      "name": "AllBatchesMustBeVerified",
      "type": "error"
    },
    {
      "inputs": [],
      "name": "AllSequencedMustBeVerified",
      "type": "error"
    },
    {
      "inputs": [],
      "name": "AllzkEVMSequencedBatchesMustBeVerified",
      "type": "error"
    },
    {
      "inputs": [],
      "name": "BatchFeeOutOfRange",
      "type": "error"
    },
    {
      "inputs": [],
      "name": "CannotUpdateWithUnconsolidatedPendingState",
      "type": "error"
    },
    {
      "inputs": [],
      "name": "ChainIDAlreadyExist",
      "type": "error"
    },
    {
      "inputs": [],
      "name": "ChainIDOutOfRange",
      "type": "error"
    },
    {
      "inputs": [],
      "name": "EmptyVerifySequencesData",
      "type": "error"
    },
    {
      "inputs": [],
      "name": "ExceedMaxVerifyBatches",
      "type": "error"
    },
    {
      "inputs": [],
      "name": "FinalNumBatchBelowLastVerifiedBatch",
      "type": "error"
    },
    {
      "inputs": [],
      "name": "FinalNumBatchDoesNotMatchPendingState",
      "type": "error"
    },
    {
      "inputs": [],
      "name": "FinalNumSequenceBelowLastVerifiedSequence",
      "type": "error"
    },
    {
      "inputs": [],
      "name": "FinalNumSequenceDoesNotMatchPendingState",
      "type": "error"
    },
    {
      "inputs": [],
      "name": "FinalPendingStateNumInvalid",
      "type": "error"
    },
    {
      "inputs": [],
      "name": "HaltTimeoutNotExpired",
      "type": "error"
    },
    {
      "inputs": [],
      "name": "InitBatchMustMatchCurrentForkID",
      "type": "error"
    },
    {
      "inputs": [],
      "name": "InitNumBatchAboveLastVerifiedBatch",
      "type": "error"
    },
    {
      "inputs": [],
      "name": "InitNumBatchDoesNotMatchPendingState",
      "type": "error"
    },
    {
      "inputs": [],
      "name": "InitSequenceMustMatchCurrentForkID",
      "type": "error"
    },
    {
      "inputs": [],
      "name": "InitSequenceNumDoesNotMatchPendingState",
      "type": "error"
    },
    {
      "inputs": [],
      "name": "InvalidConstructorInputs",
      "type": "error"
    },
    {
      "inputs": [],
      "name": "InvalidImplementationAddress",
      "type": "error"
    },
    {
      "inputs": [],
      "name": "InvalidInputsForRollupType",
      "type": "error"
    },
    {
      "inputs": [],
      "name": "InvalidPessimisticProof",
      "type": "error"
    },
    {
      "inputs": [],
      "name": "InvalidProof",
      "type": "error"
    },
    {
      "inputs": [],
      "name": "InvalidRangeBatchTimeTarget",
      "type": "error"
    },
    {
      "inputs": [],
      "name": "InvalidRangeMultiplierBatchFee",
      "type": "error"
    },
    {
      "inputs": [],
      "name": "InvalidRangeMultiplierZkGasPrice",
      "type": "error"
    },
    {
      "inputs": [],
      "name": "InvalidRangeSequenceTimeTarget",
      "type": "error"
    },
    {
      "inputs": [],
      "name": "InvalidRollup",
      "type": "error"
    },
    {
      "inputs": [],
      "name": "InvalidRollupType",
      "type": "error"
    },
    {
      "inputs": [],
      "name": "InvalidVerifierAddress",
      "type": "error"
    },
    {
      "inputs": [],
      "name": "InvalidVerifierType",
      "type": "error"
    },
    {
      "inputs": [],
      "name": "L1InfoTreeLeafCountInvalid",
      "type": "error"
    },
    {
      "inputs": [],
      "name": "MustSequenceSomeBatch",
      "type": "error"
    },
    {
      "inputs": [],
      "name": "MustSequenceSomeBlob",
      "type": "error"
    },
    {
      "inputs": [],
      "name": "NewAccInputHashDoesNotExist",
      "type": "error"
    },
    {
      "inputs": [],
      "name": "NewPendingStateTimeoutMustBeLower",
      "type": "error"
    },
    {
      "inputs": [],
      "name": "NewStateRootNotInsidePrime",
      "type": "error"
    },
    {
      "inputs": [],
      "name": "NewTrustedAggregatorTimeoutMustBeLower",
      "type": "error"
    },
    {
      "inputs": [],
      "name": "NotAllowedAddress",
      "type": "error"
    },
    {
      "inputs": [],
      "name": "OldAccInputHashDoesNotExist",
      "type": "error"
    },
    {
      "inputs": [],
      "name": "OldStateRootDoesNotExist",
      "type": "error"
    },
    {
      "inputs": [],
      "name": "OnlyEmergencyState",
      "type": "error"
    },
    {
      "inputs": [],
      "name": "OnlyNotEmergencyState",
      "type": "error"
    },
    {
      "inputs": [],
      "name": "OnlyRollupAdmin",
      "type": "error"
    },
    {
      "inputs": [],
      "name": "OnlyStateTransitionChains",
      "type": "error"
    },
    {
      "inputs": [],
      "name": "PendingStateDoesNotExist",
      "type": "error"
    },
    {
      "inputs": [],
      "name": "PendingStateInvalid",
      "type": "error"
    },
    {
      "inputs": [],
      "name": "PendingStateNotConsolidable",
      "type": "error"
    },
    {
      "inputs": [],
      "name": "PendingStateNumExist",
      "type": "error"
    },
    {
      "inputs": [],
      "name": "ReentrancyGuardReentrantCall",
      "type": "error"
    },
    {
      "inputs": [],
      "name": "RollbackBatchIsNotEndOfSequence",
      "type": "error"
    },
    {
      "inputs": [],
      "name": "RollbackBatchIsNotValid",
      "type": "error"
    },
    {
      "inputs": [],
      "name": "RollupAddressAlreadyExist",
      "type": "error"
    },
    {
      "inputs": [],
      "name": "RollupIDNotAscendingOrder",
      "type": "error"
    },
    {
      "inputs": [],
      "name": "RollupMustExist",
      "type": "error"
    },
    {
      "inputs": [],
      "name": "RollupTypeDoesNotExist",
      "type": "error"
    },
    {
      "inputs": [],
      "name": "RollupTypeObsolete",
      "type": "error"
    },
    {
      "inputs": [],
      "name": "SenderMustBeRollup",
      "type": "error"
    },
    {
      "inputs": [],
      "name": "StateTransitionChainsNotAllowed",
      "type": "error"
    },
    {
      "inputs": [],
      "name": "StoredRootMustBeDifferentThanNewRoot",
      "type": "error"
    },
    {
      "inputs": [],
      "name": "TrustedAggregatorTimeoutNotExpired",
      "type": "error"
    },
    {
      "inputs": [],
      "name": "UpdateNotCompatible",
      "type": "error"
    },
    {
      "inputs": [],
      "name": "UpdateToOldRollupTypeID",
      "type": "error"
    },
    {
      "inputs": [],
      "name": "UpdateToSameRollupTypeID",
      "type": "error"
    },
    {
      "inputs": [],
      "name": "zkGasPriceOfRange",
      "type": "error"
    },
    {
      "anonymous": false,
      "inputs": [
        {
          "indexed": true,
          "internalType": "uint32",
          "name": "rollupID",
          "type": "uint32"
        },
        {
          "indexed": false,
          "internalType": "uint64",
          "name": "forkID",
          "type": "uint64"
        },
        {
          "indexed": false,
          "internalType": "address",
          "name": "rollupAddress",
          "type": "address"
        },
        {
          "indexed": false,
          "internalType": "uint64",
          "name": "chainID",
          "type": "uint64"
        },
        {
          "indexed": false,
          "internalType": "enum IPolygonRollupManager.VerifierType",
          "name": "rollupVerifierType",
          "type": "uint8"
        },
        {
          "indexed": false,
          "internalType": "uint64",
          "name": "lastVerifiedBatchBeforeUpgrade",
          "type": "uint64"
        },
        {
          "indexed": false,
          "internalType": "bytes32",
          "name": "programVKey",
          "type": "bytes32"
        },
        {
          "indexed": false,
          "internalType": "bytes32",
          "name": "initPessimisticRoot",
          "type": "bytes32"
        }
      ],
      "name": "AddExistingRollup",
      "type": "event"
    },
    {
      "anonymous": false,
      "inputs": [
        {
          "indexed": true,
          "internalType": "uint32",
          "name": "rollupTypeID",
          "type": "uint32"
        },
        {
          "indexed": false,
          "internalType": "address",
          "name": "consensusImplementation",
          "type": "address"
        },
        {
          "indexed": false,
          "internalType": "address",
          "name": "verifier",
          "type": "address"
        },
        {
          "indexed": false,
          "internalType": "uint64",
          "name": "forkID",
          "type": "uint64"
        },
        {
          "indexed": false,
          "internalType": "enum IPolygonRollupManager.VerifierType",
          "name": "rollupVerifierType",
          "type": "uint8"
        },
        {
          "indexed": false,
          "internalType": "bytes32",
          "name": "genesis",
          "type": "bytes32"
        },
        {
          "indexed": false,
          "internalType": "string",
          "name": "description",
          "type": "string"
        },
        {
          "indexed": false,
          "internalType": "bytes32",
          "name": "programVKey",
          "type": "bytes32"
        }
      ],
      "name": "AddNewRollupType",
      "type": "event"
    },
    {
      "anonymous": false,
      "inputs": [
        {
          "indexed": true,
          "internalType": "uint32",
          "name": "rollupID",
          "type": "uint32"
        },
        {
          "indexed": false,
          "internalType": "uint32",
          "name": "rollupTypeID",
          "type": "uint32"
        },
        {
          "indexed": false,
          "internalType": "address",
          "name": "rollupAddress",
          "type": "address"
        },
        {
          "indexed": false,
          "internalType": "uint64",
          "name": "chainID",
          "type": "uint64"
        },
        {
          "indexed": false,
          "internalType": "uint8",
          "name": "rollupVerifierType",
          "type": "uint8"
        },
        {
          "indexed": false,
          "internalType": "bytes",
          "name": "initializeBytesAggchain",
          "type": "bytes"
        }
      ],
      "name": "CreateNewAggchain",
      "type": "event"
    },
    {
      "anonymous": false,
      "inputs": [
        {
          "indexed": true,
          "internalType": "uint32",
          "name": "rollupID",
          "type": "uint32"
        },
        {
          "indexed": false,
          "internalType": "uint32",
          "name": "rollupTypeID",
          "type": "uint32"
        },
        {
          "indexed": false,
          "internalType": "address",
          "name": "rollupAddress",
          "type": "address"
        },
        {
          "indexed": false,
          "internalType": "uint64",
          "name": "chainID",
          "type": "uint64"
        },
        {
          "indexed": false,
          "internalType": "address",
          "name": "gasTokenAddress",
          "type": "address"
        }
      ],
      "name": "CreateNewRollup",
      "type": "event"
    },
    {
      "anonymous": false,
      "inputs": [],
      "name": "EmergencyStateActivated",
      "type": "event"
    },
    {
      "anonymous": false,
      "inputs": [],
      "name": "EmergencyStateDeactivated",
      "type": "event"
    },
    {
      "anonymous": false,
      "inputs": [
        {
          "indexed": false,
          "internalType": "uint8",
          "name": "version",
          "type": "uint8"
        }
      ],
      "name": "Initialized",
      "type": "event"
    },
    {
      "anonymous": false,
      "inputs": [
        {
          "indexed": true,
          "internalType": "uint32",
          "name": "rollupTypeID",
          "type": "uint32"
        }
      ],
      "name": "ObsoleteRollupType",
      "type": "event"
    },
    {
      "anonymous": false,
      "inputs": [
        {
          "indexed": true,
          "internalType": "uint32",
          "name": "rollupID",
          "type": "uint32"
        },
        {
          "indexed": false,
          "internalType": "uint64",
          "name": "lastBatchSequenced",
          "type": "uint64"
        }
      ],
      "name": "OnSequenceBatches",
      "type": "event"
    },
    {
      "anonymous": false,
      "inputs": [
        {
          "indexed": true,
          "internalType": "bytes32",
          "name": "role",
          "type": "bytes32"
        },
        {
          "indexed": true,
          "internalType": "bytes32",
          "name": "previousAdminRole",
          "type": "bytes32"
        },
        {
          "indexed": true,
          "internalType": "bytes32",
          "name": "newAdminRole",
          "type": "bytes32"
        }
      ],
      "name": "RoleAdminChanged",
      "type": "event"
    },
    {
      "anonymous": false,
      "inputs": [
        {
          "indexed": true,
          "internalType": "bytes32",
          "name": "role",
          "type": "bytes32"
        },
        {
          "indexed": true,
          "internalType": "address",
          "name": "account",
          "type": "address"
        },
        {
          "indexed": true,
          "internalType": "address",
          "name": "sender",
          "type": "address"
        }
      ],
      "name": "RoleGranted",
      "type": "event"
    },
    {
      "anonymous": false,
      "inputs": [
        {
          "indexed": true,
          "internalType": "bytes32",
          "name": "role",
          "type": "bytes32"
        },
        {
          "indexed": true,
          "internalType": "address",
          "name": "account",
          "type": "address"
        },
        {
          "indexed": true,
          "internalType": "address",
          "name": "sender",
          "type": "address"
        }
      ],
      "name": "RoleRevoked",
      "type": "event"
    },
    {
      "anonymous": false,
      "inputs": [
        {
          "indexed": true,
          "internalType": "uint32",
          "name": "rollupID",
          "type": "uint32"
        },
        {
          "indexed": true,
          "internalType": "uint64",
          "name": "targetBatch",
          "type": "uint64"
        },
        {
          "indexed": false,
          "internalType": "bytes32",
          "name": "accInputHashToRollback",
          "type": "bytes32"
        }
      ],
      "name": "RollbackBatches",
      "type": "event"
    },
    {
      "anonymous": false,
      "inputs": [
        {
          "indexed": false,
          "internalType": "uint256",
          "name": "newBatchFee",
          "type": "uint256"
        }
      ],
      "name": "SetBatchFee",
      "type": "event"
    },
    {
      "anonymous": false,
      "inputs": [
        {
          "indexed": false,
          "internalType": "address",
          "name": "newTrustedAggregator",
          "type": "address"
        }
      ],
      "name": "SetTrustedAggregator",
      "type": "event"
    },
    {
      "anonymous": false,
      "inputs": [
        {
          "indexed": true,
          "internalType": "uint32",
          "name": "rollupID",
          "type": "uint32"
        },
        {
          "indexed": false,
          "internalType": "uint32",
          "name": "newRollupTypeID",
          "type": "uint32"
        },
        {
          "indexed": false,
          "internalType": "uint64",
          "name": "lastVerifiedBatchBeforeUpgrade",
          "type": "uint64"
        }
      ],
      "name": "UpdateRollup",
      "type": "event"
    },
    {
      "anonymous": false,
      "inputs": [
        {
          "indexed": false,
          "internalType": "string",
          "name": "rollupManagerVersion",
          "type": "string"
        }
      ],
      "name": "UpdateRollupManagerVersion",
      "type": "event"
    },
    {
      "anonymous": false,
      "inputs": [
        {
          "indexed": true,
          "internalType": "uint32",
          "name": "rollupID",
          "type": "uint32"
        },
        {
          "indexed": false,
          "internalType": "uint64",
          "name": "numBatch",
          "type": "uint64"
        },
        {
          "indexed": false,
          "internalType": "bytes32",
          "name": "stateRoot",
          "type": "bytes32"
        },
        {
          "indexed": false,
          "internalType": "bytes32",
          "name": "exitRoot",
          "type": "bytes32"
        },
        {
          "indexed": true,
          "internalType": "address",
          "name": "aggregator",
          "type": "address"
        }
      ],
      "name": "VerifyBatchesTrustedAggregator",
      "type": "event"
    },
    {
      "anonymous": false,
      "inputs": [
        {
          "indexed": true,
          "internalType": "uint32",
          "name": "rollupID",
          "type": "uint32"
        },
        {
          "indexed": false,
          "internalType": "bytes32",
          "name": "prevPessimisticRoot",
          "type": "bytes32"
        },
        {
          "indexed": false,
          "internalType": "bytes32",
          "name": "newPessimisticRoot",
          "type": "bytes32"
        },
        {
          "indexed": false,
          "internalType": "bytes32",
          "name": "prevLocalExitRoot",
          "type": "bytes32"
        },
        {
          "indexed": false,
          "internalType": "bytes32",
          "name": "newLocalExitRoot",
          "type": "bytes32"
        },
        {
          "indexed": false,
          "internalType": "bytes32",
          "name": "l1InfoRoot",
          "type": "bytes32"
        },
        {
          "indexed": true,
          "internalType": "address",
          "name": "trustedAggregator",
          "type": "address"
        }
      ],
      "name": "VerifyPessimisticStateTransition",
      "type": "event"
    },
    {
      "inputs": [],
      "name": "DEFAULT_ADMIN_ROLE",
      "outputs": [
        {
          "internalType": "bytes32",
          "name": "",
          "type": "bytes32"
        }
      ],
      "stateMutability": "view",
      "type": "function"
    },
    {
      "inputs": [],
      "name": "ROLLUP_MANAGER_VERSION",
      "outputs": [
        {
          "internalType": "string",
          "name": "",
          "type": "string"
        }
      ],
      "stateMutability": "view",
      "type": "function"
    },
    {
      "inputs": [],
      "name": "activateEmergencyState",
      "outputs": [],
      "stateMutability": "nonpayable",
      "type": "function"
    },
    {
      "inputs": [
        {
          "internalType": "address",
          "name": "rollupAddress",
          "type": "address"
        },
        {
          "internalType": "address",
          "name": "verifier",
          "type": "address"
        },
        {
          "internalType": "uint64",
          "name": "forkID",
          "type": "uint64"
        },
        {
          "internalType": "uint64",
          "name": "chainID",
          "type": "uint64"
        },
        {
          "internalType": "bytes32",
          "name": "initRoot",
          "type": "bytes32"
        },
        {
          "internalType": "enum IPolygonRollupManager.VerifierType",
          "name": "rollupVerifierType",
          "type": "uint8"
        },
        {
          "internalType": "bytes32",
          "name": "programVKey",
          "type": "bytes32"
        },
        {
          "internalType": "bytes32",
          "name": "initPessimisticRoot",
          "type": "bytes32"
        }
      ],
      "name": "addExistingRollup",
      "outputs": [],
      "stateMutability": "nonpayable",
      "type": "function"
    },
    {
      "inputs": [
        {
          "internalType": "address",
          "name": "consensusImplementation",
          "type": "address"
        },
        {
          "internalType": "address",
          "name": "verifier",
          "type": "address"
        },
        {
          "internalType": "uint64",
          "name": "forkID",
          "type": "uint64"
        },
        {
          "internalType": "enum IPolygonRollupManager.VerifierType",
          "name": "rollupVerifierType",
          "type": "uint8"
        },
        {
          "internalType": "bytes32",
          "name": "genesis",
          "type": "bytes32"
        },
        {
          "internalType": "string",
          "name": "description",
          "type": "string"
        },
        {
          "internalType": "bytes32",
          "name": "programVKey",
          "type": "bytes32"
        }
      ],
      "name": "addNewRollupType",
      "outputs": [],
      "stateMutability": "nonpayable",
      "type": "function"
    },
    {
      "inputs": [],
      "name": "aggLayerGateway",
      "outputs": [
        {
          "internalType": "contract IAggLayerGateway",
          "name": "",
          "type": "address"
        }
      ],
      "stateMutability": "view",
      "type": "function"
    },
    {
      "inputs": [
        {
          "internalType": "uint32",
          "name": "rollupTypeID",
          "type": "uint32"
        },
        {
          "internalType": "uint64",
          "name": "chainID",
          "type": "uint64"
        },
        {
          "internalType": "bytes",
          "name": "initializeBytesAggchain",
          "type": "bytes"
        }
      ],
      "name": "attachAggchainToAL",
      "outputs": [],
      "stateMutability": "nonpayable",
      "type": "function"
    },
    {
      "inputs": [],
      "name": "bridgeAddress",
      "outputs": [
        {
          "internalType": "contract IPolygonZkEVMBridge",
          "name": "",
          "type": "address"
        }
      ],
      "stateMutability": "view",
      "type": "function"
    },
    {
      "inputs": [],
      "name": "calculateRewardPerBatch",
      "outputs": [
        {
          "internalType": "uint256",
          "name": "",
          "type": "uint256"
        }
      ],
      "stateMutability": "view",
      "type": "function"
    },
    {
      "inputs": [
        {
          "internalType": "uint64",
          "name": "chainID",
          "type": "uint64"
        }
      ],
      "name": "chainIDToRollupID",
      "outputs": [
        {
          "internalType": "uint32",
          "name": "rollupID",
          "type": "uint32"
        }
      ],
      "stateMutability": "view",
      "type": "function"
    },
    {
      "inputs": [],
      "name": "deactivateEmergencyState",
      "outputs": [],
      "stateMutability": "nonpayable",
      "type": "function"
    },
    {
      "inputs": [],
      "name": "getBatchFee",
      "outputs": [
        {
          "internalType": "uint256",
          "name": "",
          "type": "uint256"
        }
      ],
      "stateMutability": "view",
      "type": "function"
    },
    {
      "inputs": [],
      "name": "getForcedBatchFee",
      "outputs": [
        {
          "internalType": "uint256",
          "name": "",
          "type": "uint256"
        }
      ],
      "stateMutability": "view",
      "type": "function"
    },
    {
      "inputs": [
        {
          "internalType": "uint32",
          "name": "rollupID",
          "type": "uint32"
        },
        {
          "internalType": "bytes32",
          "name": "l1InfoTreeRoot",
          "type": "bytes32"
        },
        {
          "internalType": "bytes32",
          "name": "newLocalExitRoot",
          "type": "bytes32"
        },
        {
          "internalType": "bytes32",
          "name": "newPessimisticRoot",
          "type": "bytes32"
        },
        {
          "internalType": "bytes",
          "name": "aggchainData",
          "type": "bytes"
        }
      ],
      "name": "getInputPessimisticBytes",
      "outputs": [
        {
          "internalType": "bytes",
          "name": "",
          "type": "bytes"
        }
      ],
      "stateMutability": "view",
      "type": "function"
    },
    {
      "inputs": [
        {
          "internalType": "uint32",
          "name": "rollupID",
          "type": "uint32"
        },
        {
          "internalType": "uint64",
          "name": "initNumBatch",
          "type": "uint64"
        },
        {
          "internalType": "uint64",
          "name": "finalNewBatch",
          "type": "uint64"
        },
        {
          "internalType": "bytes32",
          "name": "newLocalExitRoot",
          "type": "bytes32"
        },
        {
          "internalType": "bytes32",
          "name": "oldStateRoot",
          "type": "bytes32"
        },
        {
          "internalType": "bytes32",
          "name": "newStateRoot",
          "type": "bytes32"
        }
      ],
      "name": "getInputSnarkBytes",
      "outputs": [
        {
          "internalType": "bytes",
          "name": "",
          "type": "bytes"
        }
      ],
      "stateMutability": "view",
      "type": "function"
    },
    {
      "inputs": [
        {
          "internalType": "uint32",
          "name": "rollupID",
          "type": "uint32"
        }
      ],
      "name": "getLastVerifiedBatch",
      "outputs": [
        {
          "internalType": "uint64",
          "name": "",
          "type": "uint64"
        }
      ],
      "stateMutability": "view",
      "type": "function"
    },
    {
      "inputs": [
        {
          "internalType": "bytes32",
          "name": "role",
          "type": "bytes32"
        }
      ],
      "name": "getRoleAdmin",
      "outputs": [
        {
          "internalType": "bytes32",
          "name": "",
          "type": "bytes32"
        }
      ],
      "stateMutability": "view",
      "type": "function"
    },
    {
      "inputs": [
        {
          "internalType": "uint32",
          "name": "rollupID",
          "type": "uint32"
        },
        {
          "internalType": "uint64",
          "name": "batchNum",
          "type": "uint64"
        }
      ],
      "name": "getRollupBatchNumToStateRoot",
      "outputs": [
        {
          "internalType": "bytes32",
          "name": "",
          "type": "bytes32"
        }
      ],
      "stateMutability": "view",
      "type": "function"
    },
    {
      "inputs": [],
      "name": "getRollupExitRoot",
      "outputs": [
        {
          "internalType": "bytes32",
          "name": "",
          "type": "bytes32"
        }
      ],
      "stateMutability": "view",
      "type": "function"
    },
    {
      "inputs": [
        {
          "internalType": "uint32",
          "name": "rollupID",
          "type": "uint32"
        },
        {
          "internalType": "uint64",
          "name": "batchNum",
          "type": "uint64"
        }
      ],
      "name": "getRollupSequencedBatches",
      "outputs": [
        {
          "components": [
            {
              "internalType": "bytes32",
              "name": "accInputHash",
              "type": "bytes32"
            },
            {
              "internalType": "uint64",
              "name": "sequencedTimestamp",
              "type": "uint64"
            },
            {
              "internalType": "uint64",
              "name": "previousLastBatchSequenced",
              "type": "uint64"
            }
          ],
          "internalType": "struct LegacyZKEVMStateVariables.SequencedBatchData",
          "name": "",
          "type": "tuple"
        }
      ],
      "stateMutability": "view",
      "type": "function"
    },
    {
      "inputs": [],
      "name": "globalExitRootManager",
      "outputs": [
        {
          "internalType": "contract IPolygonZkEVMGlobalExitRootV2",
          "name": "",
          "type": "address"
        }
      ],
      "stateMutability": "view",
      "type": "function"
    },
    {
      "inputs": [
        {
          "internalType": "bytes32",
          "name": "role",
          "type": "bytes32"
        },
        {
          "internalType": "address",
          "name": "account",
          "type": "address"
        }
      ],
      "name": "grantRole",
      "outputs": [],
      "stateMutability": "nonpayable",
      "type": "function"
    },
    {
      "inputs": [
        {
          "internalType": "bytes32",
          "name": "role",
          "type": "bytes32"
        },
        {
          "internalType": "address",
          "name": "account",
          "type": "address"
        }
      ],
      "name": "hasRole",
      "outputs": [
        {
          "internalType": "bool",
          "name": "",
          "type": "bool"
        }
      ],
      "stateMutability": "view",
      "type": "function"
    },
    {
      "inputs": [],
      "name": "initialize",
      "outputs": [],
      "stateMutability": "nonpayable",
      "type": "function"
    },
    {
      "inputs": [],
      "name": "isEmergencyState",
      "outputs": [
        {
          "internalType": "bool",
          "name": "",
          "type": "bool"
        }
      ],
      "stateMutability": "view",
      "type": "function"
    },
    {
      "inputs": [],
      "name": "lastAggregationTimestamp",
      "outputs": [
        {
          "internalType": "uint64",
          "name": "",
          "type": "uint64"
        }
      ],
      "stateMutability": "view",
      "type": "function"
    },
    {
      "inputs": [],
      "name": "lastDeactivatedEmergencyStateTimestamp",
      "outputs": [
        {
          "internalType": "uint64",
          "name": "",
          "type": "uint64"
        }
      ],
      "stateMutability": "view",
      "type": "function"
    },
    {
      "inputs": [
        {
          "internalType": "uint32",
          "name": "rollupTypeID",
          "type": "uint32"
        }
      ],
      "name": "obsoleteRollupType",
      "outputs": [],
      "stateMutability": "nonpayable",
      "type": "function"
    },
    {
      "inputs": [
        {
          "internalType": "uint64",
          "name": "newSequencedBatches",
          "type": "uint64"
        },
        {
          "internalType": "bytes32",
          "name": "newAccInputHash",
          "type": "bytes32"
        }
      ],
      "name": "onSequenceBatches",
      "outputs": [
        {
          "internalType": "uint64",
          "name": "",
          "type": "uint64"
        }
      ],
      "stateMutability": "nonpayable",
      "type": "function"
    },
    {
      "inputs": [],
      "name": "pol",
      "outputs": [
        {
          "internalType": "contract IERC20Upgradeable",
          "name": "",
          "type": "address"
        }
      ],
      "stateMutability": "view",
      "type": "function"
    },
    {
      "inputs": [
        {
          "internalType": "bytes32",
          "name": "role",
          "type": "bytes32"
        },
        {
          "internalType": "address",
          "name": "account",
          "type": "address"
        }
      ],
      "name": "renounceRole",
      "outputs": [],
      "stateMutability": "nonpayable",
      "type": "function"
    },
    {
      "inputs": [
        {
          "internalType": "bytes32",
          "name": "role",
          "type": "bytes32"
        },
        {
          "internalType": "address",
          "name": "account",
          "type": "address"
        }
      ],
      "name": "revokeRole",
      "outputs": [],
      "stateMutability": "nonpayable",
      "type": "function"
    },
    {
      "inputs": [
        {
          "internalType": "contract IPolygonRollupBase",
          "name": "rollupContract",
          "type": "address"
        },
        {
          "internalType": "uint64",
          "name": "targetBatch",
          "type": "uint64"
        }
      ],
      "name": "rollbackBatches",
      "outputs": [],
      "stateMutability": "nonpayable",
      "type": "function"
    },
    {
      "inputs": [
        {
          "internalType": "address",
          "name": "rollupAddress",
          "type": "address"
        }
      ],
      "name": "rollupAddressToID",
      "outputs": [
        {
          "internalType": "uint32",
          "name": "rollupID",
          "type": "uint32"
        }
      ],
      "stateMutability": "view",
      "type": "function"
    },
    {
      "inputs": [],
      "name": "rollupCount",
      "outputs": [
        {
          "internalType": "uint32",
          "name": "",
          "type": "uint32"
        }
      ],
      "stateMutability": "view",
      "type": "function"
    },
    {
      "inputs": [
        {
          "internalType": "uint32",
          "name": "rollupID",
          "type": "uint32"
        }
      ],
      "name": "rollupIDToRollupData",
      "outputs": [
        {
          "components": [
            {
              "internalType": "address",
              "name": "rollupContract",
              "type": "address"
            },
            {
              "internalType": "uint64",
              "name": "chainID",
              "type": "uint64"
            },
            {
              "internalType": "address",
              "name": "verifier",
              "type": "address"
            },
            {
              "internalType": "uint64",
              "name": "forkID",
              "type": "uint64"
            },
            {
              "internalType": "bytes32",
              "name": "lastLocalExitRoot",
              "type": "bytes32"
            },
            {
              "internalType": "uint64",
              "name": "lastBatchSequenced",
              "type": "uint64"
            },
            {
              "internalType": "uint64",
              "name": "lastVerifiedBatch",
              "type": "uint64"
            },
            {
              "internalType": "uint64",
              "name": "_legacyLastPendingState",
              "type": "uint64"
            },
            {
              "internalType": "uint64",
              "name": "_legacyLastPendingStateConsolidated",
              "type": "uint64"
            },
            {
              "internalType": "uint64",
              "name": "lastVerifiedBatchBeforeUpgrade",
              "type": "uint64"
            },
            {
              "internalType": "uint64",
              "name": "rollupTypeID",
              "type": "uint64"
            },
            {
              "internalType": "enum IPolygonRollupManager.VerifierType",
              "name": "rollupVerifierType",
              "type": "uint8"
            }
          ],
          "internalType": "struct PolygonRollupManager.RollupDataReturn",
          "name": "rollupData",
          "type": "tuple"
        }
      ],
      "stateMutability": "view",
      "type": "function"
    },
    {
      "inputs": [
        {
          "internalType": "uint32",
          "name": "rollupID",
          "type": "uint32"
        }
      ],
      "name": "rollupIDToRollupDataDeserialized",
      "outputs": [
        {
          "internalType": "address",
          "name": "rollupContract",
          "type": "address"
        },
        {
          "internalType": "uint64",
          "name": "chainID",
          "type": "uint64"
        },
        {
          "internalType": "address",
          "name": "verifier",
          "type": "address"
        },
        {
          "internalType": "uint64",
          "name": "forkID",
          "type": "uint64"
        },
        {
          "internalType": "bytes32",
          "name": "lastLocalExitRoot",
          "type": "bytes32"
        },
        {
          "internalType": "uint64",
          "name": "lastBatchSequenced",
          "type": "uint64"
        },
        {
          "internalType": "uint64",
          "name": "lastVerifiedBatch",
          "type": "uint64"
        },
        {
          "internalType": "uint64",
          "name": "_legacyLastPendingState",
          "type": "uint64"
        },
        {
          "internalType": "uint64",
          "name": "_legacyLastPendingStateConsolidated",
          "type": "uint64"
        },
        {
          "internalType": "uint64",
          "name": "lastVerifiedBatchBeforeUpgrade",
          "type": "uint64"
        },
        {
          "internalType": "uint64",
          "name": "rollupTypeID",
          "type": "uint64"
        },
        {
          "internalType": "enum IPolygonRollupManager.VerifierType",
          "name": "rollupVerifierType",
          "type": "uint8"
        }
      ],
      "stateMutability": "view",
      "type": "function"
    },
    {
      "inputs": [
        {
          "internalType": "uint32",
          "name": "rollupID",
          "type": "uint32"
        }
      ],
      "name": "rollupIDToRollupDataV2",
      "outputs": [
        {
          "components": [
            {
              "internalType": "address",
              "name": "rollupContract",
              "type": "address"
            },
            {
              "internalType": "uint64",
              "name": "chainID",
              "type": "uint64"
            },
            {
              "internalType": "address",
              "name": "verifier",
              "type": "address"
            },
            {
              "internalType": "uint64",
              "name": "forkID",
              "type": "uint64"
            },
            {
              "internalType": "bytes32",
              "name": "lastLocalExitRoot",
              "type": "bytes32"
            },
            {
              "internalType": "uint64",
              "name": "lastBatchSequenced",
              "type": "uint64"
            },
            {
              "internalType": "uint64",
              "name": "lastVerifiedBatch",
              "type": "uint64"
            },
            {
              "internalType": "uint64",
              "name": "lastVerifiedBatchBeforeUpgrade",
              "type": "uint64"
            },
            {
              "internalType": "uint64",
              "name": "rollupTypeID",
              "type": "uint64"
            },
            {
              "internalType": "enum IPolygonRollupManager.VerifierType",
              "name": "rollupVerifierType",
              "type": "uint8"
            },
            {
              "internalType": "bytes32",
              "name": "lastPessimisticRoot",
              "type": "bytes32"
            },
            {
              "internalType": "bytes32",
              "name": "programVKey",
              "type": "bytes32"
            }
          ],
          "internalType": "struct PolygonRollupManager.RollupDataReturnV2",
          "name": "rollupData",
          "type": "tuple"
        }
      ],
      "stateMutability": "view",
      "type": "function"
    },
    {
      "inputs": [
        {
          "internalType": "uint32",
          "name": "rollupID",
          "type": "uint32"
        }
      ],
      "name": "rollupIDToRollupDataV2Deserialized",
      "outputs": [
        {
          "internalType": "address",
          "name": "rollupContract",
          "type": "address"
        },
        {
          "internalType": "uint64",
          "name": "chainID",
          "type": "uint64"
        },
        {
          "internalType": "address",
          "name": "verifier",
          "type": "address"
        },
        {
          "internalType": "uint64",
          "name": "forkID",
          "type": "uint64"
        },
        {
          "internalType": "bytes32",
          "name": "lastLocalExitRoot",
          "type": "bytes32"
        },
        {
          "internalType": "uint64",
          "name": "lastBatchSequenced",
          "type": "uint64"
        },
        {
          "internalType": "uint64",
          "name": "lastVerifiedBatch",
          "type": "uint64"
        },
        {
          "internalType": "uint64",
          "name": "lastVerifiedBatchBeforeUpgrade",
          "type": "uint64"
        },
        {
          "internalType": "uint64",
          "name": "rollupTypeID",
          "type": "uint64"
        },
        {
          "internalType": "enum IPolygonRollupManager.VerifierType",
          "name": "rollupVerifierType",
          "type": "uint8"
        },
        {
          "internalType": "bytes32",
          "name": "lastPessimisticRoot",
          "type": "bytes32"
        },
        {
          "internalType": "bytes32",
          "name": "programVKey",
          "type": "bytes32"
        }
      ],
      "stateMutability": "view",
      "type": "function"
    },
    {
      "inputs": [],
      "name": "rollupTypeCount",
      "outputs": [
        {
          "internalType": "uint32",
          "name": "",
          "type": "uint32"
        }
      ],
      "stateMutability": "view",
      "type": "function"
    },
    {
      "inputs": [
        {
          "internalType": "uint32",
          "name": "rollupTypeID",
          "type": "uint32"
        }
      ],
      "name": "rollupTypeMap",
      "outputs": [
        {
          "internalType": "address",
          "name": "consensusImplementation",
          "type": "address"
        },
        {
          "internalType": "address",
          "name": "verifier",
          "type": "address"
        },
        {
          "internalType": "uint64",
          "name": "forkID",
          "type": "uint64"
        },
        {
          "internalType": "enum IPolygonRollupManager.VerifierType",
          "name": "rollupVerifierType",
          "type": "uint8"
        },
        {
          "internalType": "bool",
          "name": "obsolete",
          "type": "bool"
        },
        {
          "internalType": "bytes32",
          "name": "genesis",
          "type": "bytes32"
        },
        {
          "internalType": "bytes32",
          "name": "programVKey",
          "type": "bytes32"
        }
      ],
      "stateMutability": "view",
      "type": "function"
    },
    {
      "inputs": [
        {
          "internalType": "uint256",
          "name": "newBatchFee",
          "type": "uint256"
        }
      ],
      "name": "setBatchFee",
      "outputs": [],
      "stateMutability": "nonpayable",
      "type": "function"
    },
    {
      "inputs": [],
      "name": "totalSequencedBatches",
      "outputs": [
        {
          "internalType": "uint64",
          "name": "",
          "type": "uint64"
        }
      ],
      "stateMutability": "view",
      "type": "function"
    },
    {
      "inputs": [],
      "name": "totalVerifiedBatches",
      "outputs": [
        {
          "internalType": "uint64",
          "name": "",
          "type": "uint64"
        }
      ],
      "stateMutability": "view",
      "type": "function"
    },
    {
      "inputs": [
        {
          "internalType": "contract ITransparentUpgradeableProxy",
          "name": "rollupContract",
          "type": "address"
        },
        {
          "internalType": "uint32",
          "name": "newRollupTypeID",
          "type": "uint32"
        },
        {
          "internalType": "bytes",
          "name": "upgradeData",
          "type": "bytes"
        }
      ],
      "name": "updateRollup",
      "outputs": [],
      "stateMutability": "nonpayable",
      "type": "function"
    },
    {
      "inputs": [
        {
          "internalType": "contract ITransparentUpgradeableProxy",
          "name": "rollupContract",
          "type": "address"
        },
        {
          "internalType": "uint32",
          "name": "newRollupTypeID",
          "type": "uint32"
        }
      ],
      "name": "updateRollupByRollupAdmin",
      "outputs": [],
      "stateMutability": "nonpayable",
      "type": "function"
    },
    {
      "inputs": [
        {
          "internalType": "uint32",
          "name": "rollupID",
          "type": "uint32"
        },
        {
          "internalType": "uint64",
          "name": "pendingStateNum",
          "type": "uint64"
        },
        {
          "internalType": "uint64",
          "name": "initNumBatch",
          "type": "uint64"
        },
        {
          "internalType": "uint64",
          "name": "finalNewBatch",
          "type": "uint64"
        },
        {
          "internalType": "bytes32",
          "name": "newLocalExitRoot",
          "type": "bytes32"
        },
        {
          "internalType": "bytes32",
          "name": "newStateRoot",
          "type": "bytes32"
        },
        {
          "internalType": "address",
          "name": "beneficiary",
          "type": "address"
        },
        {
          "internalType": "bytes32[24]",
          "name": "proof",
          "type": "bytes32[24]"
        }
      ],
      "name": "verifyBatchesTrustedAggregator",
      "outputs": [],
      "stateMutability": "nonpayable",
      "type": "function"
    },
    {
      "inputs": [
        {
          "internalType": "uint32",
          "name": "rollupID",
          "type": "uint32"
        },
        {
          "internalType": "uint32",
          "name": "l1InfoTreeLeafCount",
          "type": "uint32"
        },
        {
          "internalType": "bytes32",
          "name": "newLocalExitRoot",
          "type": "bytes32"
        },
        {
          "internalType": "bytes32",
          "name": "newPessimisticRoot",
          "type": "bytes32"
        },
        {
          "internalType": "bytes",
          "name": "proof",
          "type": "bytes"
        },
        {
          "internalType": "bytes",
          "name": "aggchainData",
          "type": "bytes"
        }
      ],
      "name": "verifyPessimisticTrustedAggregator",
      "outputs": [],
      "stateMutability": "nonpayable",
      "type": "function"
    }
  ],
  "bytecode": "0x610100604052348015610010575f5ffd5b50604051615c05380380615c0583398101604081905261002f91610192565b6001600160a01b038416158061004c57506001600160a01b038316155b8061005e57506001600160a01b038216155b8061007057506001600160a01b038116155b1561008e576040516342eda64b60e11b815260040160405180910390fd5b6001600160a01b0380851660805283811660c05282811660a052811660e0526100b56100be565b505050506101ee565b5f54610100900460ff16156101295760405162461bcd60e51b815260206004820152602760248201527f496e697469616c697a61626c653a20636f6e747261637420697320696e697469604482015266616c697a696e6760c81b606482015260840160405180910390fd5b5f5460ff9081161015610179575f805460ff191660ff9081179091556040519081527f7f26b83ff96e1f2b6a682f133852f6798a09c465da95921460cefb38474024989060200160405180910390a15b565b6001600160a01b038116811461018f575f5ffd5b50565b5f5f5f5f608085870312156101a5575f5ffd5b84516101b08161017b565b60208601519094506101c18161017b565b60408601519093506101d28161017b565b60608601519092506101e38161017b565b939692955090935050565b60805160a05160c05160e0516159ac6102595f395f81816107a60152610f2a01525f81816108ef01528181611f2c015261334801525f818161076701528181612909015261344601525f818161083201528181610b3401528181610e49015261103701526159ac5ff3fe608060405234801561000f575f5ffd5b506004361061030f575f3560e01c806397d289a31161019d578063d5073f6f116100e8578063dfdb8c5e11610093578063e80e50301161006e578063e80e5030146109c1578063f4e92675146109d4578063f9c4c2ae146109e4575f5ffd5b8063dfdb8c5e146108d7578063e46761c4146108ea578063e4f3d8f914610911575f5ffd5b8063dbc16976116100c3578063dbc16976146108a2578063dd0464b9146108aa578063dde0ff77146108bd575f5ffd5b8063d5073f6f14610854578063d547741f14610867578063d89058121461087a575f5ffd5b8063ab0475cf11610148578063c4c928c211610123578063c4c928c2146107f5578063ceee281d14610808578063d02103ca1461082d575f5ffd5b8063ab0475cf146107a1578063abcb5198146107c8578063c1acbc34146107db575f5ffd5b8063a217fddf11610178578063a217fddf14610753578063a2967d991461075a578063a3c573eb14610762575f5ffd5b806397d289a31461072557806399f5634e146107385780639a908e7314610740575f5ffd5b806355a71ee01161025d57806374d9c244116102085780638129fc1c116101e35780638129fc1c146106d25780638fd88cc2146106da57806391d14854146106ed575f5ffd5b806374d9c2441461066d5780637975fcfe1461068d5780637fb6e76a146106ad575f5ffd5b80636c766877116102385780636c7668771461059957806370603909146105ac5780637222020f1461065a575f5ffd5b806355a71ee0146104d6578063604691691461051657806365c0504d1461051e575f5ffd5b8063248a9ca3116102bd57806330c27dde1161029857806330c27dde146104a857806336568abe146104bb578063477fa270146104ce575f5ffd5b8063248a9ca3146103b557806325280169146103e55780632f2ff15d14610495575f5ffd5b806315064c96116102ed57806315064c961461036b5780631796a1ae146103885780632072f6c5146103ad575f5ffd5b8063066ec0121461031357806311f6b287146103435780631489ed1014610356575b5f5ffd5b608454610326906001600160401b031681565b6040516001600160401b0390911681526020015b60405180910390f35b6103266103513660046140c0565b610a04565b61036961036436600461410a565b610a33565b005b606f546103789060ff1681565b604051901515815260200161033a565b607e546103989063ffffffff1681565b60405163ffffffff909116815260200161033a565b610369610c14565b6103d76103c3366004614198565b5f9081526034602052604090206001015490565b60405190815260200161033a565b6104626103f33660046141af565b60408051606080820183525f808352602080840182905292840181905263ffffffff959095168552608182528285206001600160401b03948516865260030182529382902082519485018352805485526001015480841691850191909152600160401b90049091169082015290565b60408051825181526020808401516001600160401b0390811691830191909152928201519092169082015260600161033a565b6103696104a33660046141e0565b610ce6565b608754610326906001600160401b031681565b6103696104c93660046141e0565b610d0f565b6086546103d7565b6103d76104e43660046141af565b63ffffffff82165f9081526081602090815260408083206001600160401b038516845260020190915290205492915050565b6103d7610d46565b61058661052c3660046140c0565b607f6020525f908152604090208054600182015460028301546003909301546001600160a01b0392831693928216926001600160401b03600160a01b8404169260ff600160e01b8204811693600160e81b90920416919087565b60405161033a9796959493929190614242565b6103696105a73660046142d8565b610d5b565b6106426105ba3660046140c0565b63ffffffff165f9081526081602052604090208054600182015460058301546006840154600785015460088601546009909601546001600160a01b0380871698600160a01b978890046001600160401b03908116999288169890970487169680861695600160401b908190048216958281169591810490921693600160801b90920460ff1692565b60405161033a9c9b9a99989796959493929190614378565b6103696106683660046140c0565b611232565b61068061067b3660046140c0565b611323565b60405161033a9190614409565b6106a061069b366004614517565b611472565b60405161033a91906145a0565b6103986106bb3660046145b2565b60836020525f908152604090205463ffffffff1681565b6103696114a2565b6103696106e83660046145cb565b6115e3565b6103786106fb3660046141e0565b5f9182526034602090815260408084206001600160a01b0393909316845291905290205460ff1690565b6103696107333660046146aa565b611974565b6103d7611f0b565b61032661074e366004614703565b611fe4565b6103d75f81565b6103d76121da565b6107897f000000000000000000000000000000000000000000000000000000000000000081565b6040516001600160a01b03909116815260200161033a565b6107897f000000000000000000000000000000000000000000000000000000000000000081565b6103696107d6366004614739565b6124a0565b60845461032690600160801b90046001600160401b031681565b6103696108033660046147df565b6127b4565b61039861081636600461480a565b60826020525f908152604090205463ffffffff1681565b6107897f000000000000000000000000000000000000000000000000000000000000000081565b610369610862366004614198565b6127ef565b6103696108753660046141e0565b61288d565b6106a0604051806040016040528060098152602001680616c2d76302e332e360bc1b81525081565b6103696128b1565b6106a06108b8366004614825565b612977565b60845461032690600160401b90046001600160401b031681565b6103696108e5366004614890565b61299e565b6107897f000000000000000000000000000000000000000000000000000000000000000081565b6109a961091f3660046140c0565b63ffffffff165f90815260816020526040902080546001820154600583015460068401546007909401546001600160a01b0380851696600160a01b958690046001600160401b03908116979286169690950485169480831693600160401b808504831694600160801b808204851695600160c01b9092048516948085169493840416920460ff1690565b60405161033a9c9b9a999897969594939291906148ba565b6103696109cf366004614960565b612b57565b6080546103989063ffffffff1681565b6109f76109f23660046140c0565b612f96565b60405161033a91906149e1565b63ffffffff81165f90815260816020526040812060060154600160401b90046001600160401b03165b92915050565b7f084e94f375e9d647f87f5b2ceffba1e062c70f6009fdbcf80291e803b5c9edd4610a5d816130ec565b6001600160401b03881615610a855760405163306dfc5760e11b815260040160405180910390fd5b63ffffffff89165f908152608160205260408120906007820154600160801b900460ff166002811115610aba57610aba61420e565b14610ad8576040516390db0d0760e01b815260040160405180910390fd5b610ae7818989898989896130f6565b6006810180546fffffffffffffffff00000000000000001916600160401b6001600160401b038a16908102919091179091555f9081526002820160205260409020859055600581018690557f00000000000000000000000000000000000000000000000000000000000000006001600160a01b03166333d6247d610b696121da565b6040518263ffffffff1660e01b8152600401610b8791815260200190565b5f604051808303815f87803b158015610b9e575f5ffd5b505af1158015610bb0573d5f5f3e3d5ffd5b5050604080516001600160401b038b1681526020810189905290810189905233925063ffffffff8d1691507fd1ec3a1216f08b6eff72e169ceb548b782db18a6614852618d86bb19f3f9b0d39060600160405180910390a350505050505050505050565b335f9081527f8875b94af5657a2903def9906d67a3f42d8a836d24b5602c00f00fc855339fcd602052604090205460ff16610cdc57608454600160801b90046001600160401b03161580610c9157506084544290610c869062093a8090600160801b90046001600160401b0316614b25565b6001600160401b0316115b80610cbe57506087544290610cb39062093a80906001600160401b0316614b25565b6001600160401b0316115b15610cdc5760405163692baaad60e11b815260040160405180910390fd5b610ce4613444565b565b5f82815260346020526040902060010154610d00816130ec565b610d0a83836134ba565b505050565b6001600160a01b0381163314610d3857604051630b4ad1cd60e31b815260040160405180910390fd5b610d42828261353d565b5050565b5f6086546064610d569190614b44565b905090565b7f084e94f375e9d647f87f5b2ceffba1e062c70f6009fdbcf80291e803b5c9edd4610d85816130ec565b610d8d6135be565b63ffffffff89165f908152608160205260408120906007820154600160801b900460ff166002811115610dc257610dc261420e565b03610de057604051635b6602b760e01b815260040160405180910390fd5b60016007820154600160801b900460ff166002811115610e0257610e0261420e565b148015610e0e57508215155b15610e2c57604051630ded782d60e01b815260040160405180910390fd5b60405163ef4eeb3560e01b815263ffffffff8a1660048201525f907f00000000000000000000000000000000000000000000000000000000000000006001600160a01b03169063ef4eeb3590602401602060405180830381865afa158015610e96573d5f5f3e3d5ffd5b505050506040513d601f19601f82011682018060405250810190610eba9190614b5b565b905080610eda5760405163a60721e160e01b815260040160405180910390fd5b5f610eea8c84848d8d8b8b61362b565b905060026007840154600160801b900460ff166002811115610f0e57610f0e61420e565b03610f945760405163a48fd37760e01b81526001600160a01b037f0000000000000000000000000000000000000000000000000000000000000000169063a48fd37790610f639084908c908c90600401614b9a565b5f6040518083038186803b158015610f79575f5ffd5b505afa158015610f8b573d5f5f3e3d5ffd5b50505050610ffc565b6001830154600984015460405163020a49e360e51b81526001600160a01b03909216916341493c6091610fcf9185908d908d90600401614bc9565b5f6040518083038186803b158015610fe5575f5ffd5b505afa158015610ff7573d5f5f3e3d5ffd5b505050505b6084805467ffffffffffffffff60801b1916600160801b426001600160401b031602179055600583018054908b9055600884018054908b90557f00000000000000000000000000000000000000000000000000000000000000006001600160a01b03166333d6247d61106c6121da565b6040518263ffffffff1660e01b815260040161108a91815260200190565b5f604051808303815f87803b1580156110a1575f5ffd5b505af11580156110b3573d5f5f3e3d5ffd5b505050505f8c9050336001600160a01b03168f63ffffffff167fd1ec3a1216f08b6eff72e169ceb548b782db18a6614852618d86bb19f3f9b0d35f5f5f1b8560405161111d939291906001600160401b039390931683526020830191909152604082015260600190565b60405180910390a3336001600160a01b03168f63ffffffff167fdf47e7dbf79874ec576f516c40bc1483f7c8ddf4b45bfd4baff4650f1229a711848f87868b60405161118b959493929190948552602085019390935260408401919091526060830152608082015260a00190565b60405180910390a360026007870154600160801b900460ff1660028111156111b5576111b561420e565b03611219578554604051639ee4afa360e01b81526001600160a01b0390911690639ee4afa3906111eb908c908c90600401614bf4565b5f604051808303815f87803b158015611202575f5ffd5b505af1158015611214573d5f5f3e3d5ffd5b505050505b505050505050611227613800565b505050505050505050565b7fab66e11c4f712cd06ab11bf9339b48bef39e12d4a22eeef71d2860a0c90482bd61125c816130ec565b63ffffffff8216158061127a5750607e5463ffffffff908116908316115b1561129857604051637512e5cb60e01b815260040160405180910390fd5b63ffffffff82165f908152607f602052604090206001810154600160e81b900460ff16156112d957604051633b8d3d9960e01b815260040160405180910390fd5b60018101805460ff60e81b1916600160e81b17905560405163ffffffff8416907f4710d2ee567ef1ed6eb2f651dde4589524bcf7cebc62147a99b281cc836e7e44905f90a2505050565b61138660408051610180810182525f80825260208201819052918101829052606081018290526080810182905260a0810182905260c0810182905260e0810182905261010081018290529061012082019081526020015f81526020015f81525090565b63ffffffff82165f9081526081602090815260409182902080546001600160a01b0380821686526001600160401b03600160a01b928390048116948701949094526001830154908116948601949094529092048116606084015260058201546080840152600682015480821660a0850152600160401b90819004821660c0850152600783015480831660e086015290810490911661010084015261012083019060ff600160801b9091041660028111156114425761144261420e565b908160028111156114555761145561420e565b905250600881015461014083015260090154610160820152919050565b63ffffffff86165f90815260816020526040902060609061149790878787878761382a565b979650505050505050565b5f54600490610100900460ff161580156114c257505f5460ff8083169116105b6115395760405162461bcd60e51b815260206004820152602e60248201527f496e697469616c697a61626c653a20636f6e747261637420697320616c72656160448201527f647920696e697469616c697a656400000000000000000000000000000000000060648201526084015b60405180910390fd5b5f805461ffff191660ff83161761010017905560408051808201825260098152680616c2d76302e332e360bc1b602082015290517f50cadc0c001f05dd4b81db1e92b98d77e718fd2f103fb7b77293e867d329a4c291611598916145a0565b60405180910390a15f805461ff001916905560405160ff821681527f7f26b83ff96e1f2b6a682f133852f6798a09c465da95921460cefb38474024989060200160405180910390a150565b6115eb6135be565b335f9081527ff14f5a8ad59d90593602e905b358229bff5ceea677d5bf0f5a1701793550a9a6602052604090205460ff1615801561169a5750336001600160a01b0316826001600160a01b031663f851a4406040518163ffffffff1660e01b8152600401602060405180830381865afa15801561166a573d5f5f3e3d5ffd5b505050506040513d601f19601f8201168201806040525081019061168e9190614c07565b6001600160a01b031614155b156116b857604051630d03687f60e11b815260040160405180910390fd5b6001600160a01b0382165f9081526082602052604081205463ffffffff16908190036116f7576040516374a086a360e01b815260040160405180910390fd5b63ffffffff81165f908152608160205260408120906007820154600160801b900460ff16600281111561172c5761172c61420e565b1461174a576040516390db0d0760e01b815260040160405180910390fd5b60068101546001600160401b0390811690841681111580611782575060068201546001600160401b03600160401b9091048116908516105b156117a05760405163cb23ebdf60e01b815260040160405180910390fd5b805b846001600160401b0316816001600160401b031614611841576001600160401b038082165f908152600385016020526040902060010154600160401b9004811690861681101561180557604051639753965f60e01b815260040160405180910390fd5b6001600160401b039091165f908152600384016020526040812090815560010180546fffffffffffffffffffffffffffffffff191690556117a2565b60068301805467ffffffffffffffff19166001600160401b0387161790556118698583614c22565b608480545f906118839084906001600160401b0316614c22565b82546101009290920a6001600160401b0381810219909316918316021790915586165f8181526003860160205260409081902054905163334d6f6760e11b8152600481019290925260248201526001600160a01b038816915063669adece906044015f604051808303815f87803b1580156118fc575f5ffd5b505af115801561190e573d5f5f3e3d5ffd5b505050506001600160401b0385165f81815260038501602090815260409182902054915191825263ffffffff8716917f80a6d395a55aed8126079cb8247f0a6848b1440ca2cdca3b4386f250c3529402910160405180910390a350505050610d42613800565b7fa0fab074aba36a6fa69f1a83ee86e5abfb8433966eb57efb13dc2fc2f24ddd0861199e816130ec565b63ffffffff841615806119bc5750607e5463ffffffff908116908516115b156119da57604051637512e5cb60e01b815260040160405180910390fd5b63ffffffff84165f908152607f602052604090206001810154600160e81b900460ff1615611a1b57604051633b8d3d9960e01b815260040160405180910390fd5b63ffffffff6001600160401b0385161115611a4957604051634c753f5760e01b815260040160405180910390fd5b6001600160401b0384165f9081526083602052604090205463ffffffff1615611a85576040516337c8fe0960e11b815260040160405180910390fd5b608080545f91908290611a9d9063ffffffff16614c41565b825463ffffffff8281166101009490940a93840293021916919091179091558254604080515f80825260208201928390529394506001600160a01b03909216913091611ae8906140a0565b611af493929190614c65565b604051809103905ff080158015611b0d573d5f5f3e3d5ffd5b506001600160401b0387165f818152608360209081526040808320805463ffffffff1990811663ffffffff8a81169182179093556001600160a01b038816808752608286528487208054909316821790925585526081909352922080546001600160e01b031916909117600160a01b9093029290921782556007820180546fffffffffffffffff0000000000000000198116928c16600160401b02928317825560018801549495509293600160e01b900460ff1692909170ffffffffffffffffff00000000000000001990911660ff60801b1990911617600160801b836002811115611bfb57611bfb61420e565b021790555060026001850154600160e01b900460ff166002811115611c2257611c2261420e565b03611d65578263ffffffff167f144e3f9b5c63682a3bb7e9ad31e99c043890d3d540cd79dcebc3b5bdfba94c9b89848a88600101601c9054906101000a900460ff166002811115611c7557611c7561420e565b8b604051611c87959493929190614c9e565b60405180910390a26040805163ffffffff8a811682526001600160a01b0385811660208401526001600160401b038b168385015260608301529151918516917f194c983456df6701c6a50830b90fe80e72b823411d0d524970c9590dc277a6419181900360800190a25f86806020019051810190611d059190614c07565b60405163b3a326f760e01b81526001600160a01b0380831660048301529192509084169063b3a326f7906024015f604051808303815f87803b158015611d49575f5ffd5b505af1158015611d5b573d5f5f3e3d5ffd5b5050505050611f01565b6001848101805491830180547fffffffff0000000000000000ffffffffffffffffffffffffffffffffffffffff8116600160a01b948590046001600160401b0316909402938417825591546001600160a01b03166001600160e01b03199092166001600160a01b0319909316929092171790556002808501545f808052918301602090815260408320919091556003860154600984015587518291829182918291611e1791908d018101908d01614d30565b945094509450945094508763ffffffff167f194c983456df6701c6a50830b90fe80e72b823411d0d524970c9590dc277a6418e898f87604051611e90949392919063ffffffff9490941684526001600160a01b0392831660208501526001600160401b0391909116604084015216606082015260800190565b60405180910390a2604051633892b81160e11b81526001600160a01b03881690637125702290611ece90889088908d90899089908990600401614dcc565b5f604051808303815f87803b158015611ee5575f5ffd5b505af1158015611ef7573d5f5f3e3d5ffd5b5050505050505050505b5050505050505050565b6040516370a0823160e01b81523060048201525f9081906001600160a01b037f000000000000000000000000000000000000000000000000000000000000000016906370a0823190602401602060405180830381865afa158015611f71573d5f5f3e3d5ffd5b505050506040513d601f19601f82011682018060405250810190611f959190614b5b565b6084549091505f90611fb9906001600160401b03600160401b820481169116614c22565b6001600160401b03169050805f03611fd3575f9250505090565b611fdd8183614e4a565b9250505090565b606f545f9060ff161561200a57604051630bc011ff60e21b815260040160405180910390fd5b335f9081526082602052604081205463ffffffff1690819003612040576040516371653c1560e01b815260040160405180910390fd5b836001600160401b03165f0361206957604051632590ccf960e01b815260040160405180910390fd5b63ffffffff81165f908152608160205260408120906007820154600160801b900460ff16600281111561209e5761209e61420e565b146120bc576040516390db0d0760e01b815260040160405180910390fd5b608480548691905f906120d99084906001600160401b0316614b25565b82546101009290920a6001600160401b0381810219909316918316021790915560068301541690505f61210c8783614b25565b6006840180546001600160401b0383811667ffffffffffffffff199092168217909255604080516060810182528a815242841660208083019182528886168385019081525f86815260038c018352859020935184559151600193909301805492518716600160401b026fffffffffffffffffffffffffffffffff199093169390961692909217179093555190815291925063ffffffff8616917f1d9f30260051d51d70339da239ea7b080021adcaabfa71c9b0ea339a20cf9a25910160405180910390a29695505050505050565b6080545f9063ffffffff168082036121f357505f919050565b5f816001600160401b0381111561220c5761220c6145e7565b604051908082528060200260200182016040528015612235578160200160208202803683370190505b5090505f5b828110156122925760815f612250836001614e5d565b63ffffffff1663ffffffff1681526020019081526020015f206005015482828151811061227f5761227f614e70565b602090810291909101015260010161223a565b505f60205b8360011461244f575f6122ab600286614e84565b6122b6600287614e4a565b6122c09190614e5d565b90505f816001600160401b038111156122db576122db6145e7565b604051908082528060200260200182016040528015612304578160200160208202803683370190505b5090505f5b8281101561241f5761231c600184614e97565b811480156123345750612330600288614e84565b6001145b156123925761236f86612348836002614b44565b8151811061235857612358614e70565b6020026020010151865f9182526020526040902090565b82828151811061238157612381614e70565b602002602001018181525050612417565b6123f8866123a1836002614b44565b815181106123b1576123b1614e70565b6020026020010151878360026123c79190614b44565b6123d2906001614e5d565b815181106123e2576123e2614e70565b60200260200101515f9182526020526040902090565b82828151811061240a5761240a614e70565b6020026020010181815250505b600101612309565b5080945081955061243984855f9182526020526040902090565b93508261244581614eaa565b9350505050612297565b5f835f8151811061246257612462614e70565b602002602001015190505f5f90505b82811015612496575f9182526020849052604080832085845292209350600101612471565b5095945050505050565b7fac75d24dbb35ea80e25fab167da4dea46c1915260426570db84f184891f5f5906124ca816130ec565b306001600160a01b038916036124f35760405163325c055b60e21b815260040160405180910390fd5b607e80545f9190829061250b9063ffffffff16614c41565b91906101000a81548163ffffffff021916908363ffffffff160217905590506001600281111561253d5761253d61420e565b86600281111561254f5761254f61420e565b03612578578415612573576040516363d722e760e01b815260040160405180910390fd5b612632565b600286600281111561258c5761258c61420e565b036125e2576001600160a01b0388161515806125b057506001600160401b03871615155b806125ba57508415155b806125c457508215155b15612573576040516363d722e760e01b815260040160405180910390fd5b5f8660028111156125f5576125f561420e565b03612619578215612573576040516363d722e760e01b815260040160405180910390fd5b6040516363d722e760e01b815260040160405180910390fd5b6040518060e001604052808a6001600160a01b03168152602001896001600160a01b03168152602001886001600160401b0316815260200187600281111561267c5761267c61420e565b81525f602080830182905260408084018a9052606093840188905263ffffffff86168352607f825291829020845181546001600160a01b039182166001600160a01b031990911617825591850151600182018054948701516001600160401b0316600160a01b026001600160e01b031990951691909316179290921780825592840151919260ff60e01b1916600160e01b83600281111561271f5761271f61420e565b02179055506080820151600182018054911515600160e81b0260ff60e81b1990921691909117905560a0820151600282015560c09091015160039091015560405163ffffffff8216907f9eaf2ecbddb14889c9e141a63175c55ac25e0cd7cdea312cdfbd0397976b383a906127a1908c908c908c908c908c908c908c90614ebf565b60405180910390a2505050505050505050565b7f66156603fe29d13f97c6f3e3dff4ef71919f9aa61c555be0182d954e94221aac6127de816130ec565b6127e984848461392d565b50505050565b7f8cf807f6970720f8e2c208c7c5037595982c7bd9ed93c380d09df743d0dcc3fb612819816130ec565b683635c9adc5dea000008211806128335750633b9aca0082105b1561285157604051638586952560e01b815260040160405180910390fd5b60868290556040518281527ffb383653f53ee079978d0c9aff7aeff04a10166ce244cca9c9f9d8d96bed45b29060200160405180910390a15050565b5f828152603460205260409020600101546128a7816130ec565b610d0a838361353d565b7f62ba6ba2ffed8cfe316b583325ea41ac6e7ba9e5864d2bc6fabba7ac26d2f0f46128db816130ec565b6087805467ffffffffffffffff1916426001600160401b031617905560408051636de0b4bb60e11b815290517f00000000000000000000000000000000000000000000000000000000000000006001600160a01b03169163dbc16976916004808301925f92919082900301818387803b158015612956575f5ffd5b505af1158015612968573d5f5f3e3d5ffd5b50505050612974613c6e565b50565b63ffffffff86165f908152608160205260409020606090611497908890888888888861362b565b336001600160a01b0316826001600160a01b031663f851a4406040518163ffffffff1660e01b8152600401602060405180830381865afa1580156129e4573d5f5f3e3d5ffd5b505050506040513d601f19601f82011682018060405250810190612a089190614c07565b6001600160a01b031614612a2f5760405163696072e960e01b815260040160405180910390fd5b6001600160a01b0382165f9081526082602090815260408083205463ffffffff1683526081909152902060068101546001600160401b03808216600160401b9092041614612a905760405163664316a560e11b815260040160405180910390fd5b600781015463ffffffff8316600160401b9091046001600160401b031610612acb57604051633e37e23360e01b815260040160405180910390fd5b63ffffffff82165f908152607f6020526040902060010154600160e01b900460ff166002811115612afe57612afe61420e565b6007820154600160801b900460ff166002811115612b1e57612b1e61420e565b14612b3c57604051635aa0d5f160e11b815260040160405180910390fd5b604080515f815260208101909152610d0a908490849061392d565b7f3dfe277d2a2c04b75fb2eb3743fa00005ae3678a20c299e65fdf4df76517f68e612b81816130ec565b6001600160401b0386165f9081526083602052604090205463ffffffff1615612bbd576040516337c8fe0960e11b815260040160405180910390fd5b63ffffffff6001600160401b0387161115612beb57604051634c753f5760e01b815260040160405180910390fd5b6001600160a01b0389165f9081526082602052604090205463ffffffff1615612c2757604051630d409b9360e41b815260040160405180910390fd5b6001600160a01b038916301480612c4657506001600160a01b0389163b155b15612c645760405163325c055b60e21b815260040160405180910390fd5b608080545f91908290612c7c9063ffffffff16614c41565b91906101000a81548163ffffffff021916908363ffffffff160217905590508060835f896001600160401b03166001600160401b031681526020019081526020015f205f6101000a81548163ffffffff021916908363ffffffff1602179055508060825f8c6001600160a01b03166001600160a01b031681526020019081526020015f205f6101000a81548163ffffffff021916908363ffffffff1602179055505f60815f8363ffffffff1663ffffffff1681526020019081526020015f2090508a815f015f6101000a8154816001600160a01b0302191690836001600160a01b03160217905550888160010160146101000a8154816001600160401b0302191690836001600160401b0316021790555089816001015f6101000a8154816001600160a01b0302191690836001600160a01b0316021790555087815f0160146101000a8154816001600160401b0302191690836001600160401b03160217905550858160070160106101000a81548160ff02191690836002811115612e0357612e0361420e565b02179055506001866002811115612e1c57612e1c61420e565b03612e65576009810185905560088101849055600581018790556001600160a01b038a163b5f03612e605760405163043103a360e21b815260040160405180910390fd5b612f3f565b6002866002811115612e7957612e7961420e565b03612ed8576001600160a01b038a16151580612e9d57506001600160401b03891615155b80612ea757508415155b15612ec557604051636fc5557f60e01b815260040160405180910390fd5b6008810184905560058101879055612f3f565b84151580612ee557508315155b15612f0357604051636fc5557f60e01b815260040160405180910390fd5b5f80805260028201602052604081208890556001600160a01b038b163b9003612f3f5760405163043103a360e21b815260040160405180910390fd5b8163ffffffff167f4da47f6e9bbd9ef91887183a576aaebcf1b9bb7d2a567b33b075044c6d36082e8a8d8b8a5f8b8b604051612f819796959493929190614f25565b60405180910390a25050505050505050505050565b612ffa60408051610180810182525f80825260208201819052918101829052606081018290526080810182905260a0810182905260c0810182905260e081018290526101008101829052610120810182905261014081018290529061016082015290565b63ffffffff82165f9081526081602090815260409182902080546001600160a01b038082168652600160a01b918290046001600160401b03908116948701949094526001830154908116948601949094529092048116606084015260058201546080840152600682015480821660a0850152600160401b808204831660c0860152600160801b808304841660e0870152600160c01b909204831661010086015260078401548084166101208701529081049092166101408501526101608401910460ff1660028111156130cf576130cf61420e565b908160028111156130e2576130e261420e565b8152505050919050565b6129748133613cc5565b5f5f61311489600601546001600160401b03600160401b9091041690565b60078a01549091506001600160401b0390811690891610156131495760405163ead1340b60e01b815260040160405180910390fd5b6001600160401b0388165f90815260028a016020526040902054915081613183576040516324cbdcc360e11b815260040160405180910390fd5b806001600160401b0316886001600160401b031611156131b657604051630f2b74f160e11b815260040160405180910390fd5b806001600160401b0316876001600160401b0316116131e85760405163b9b18f5760e01b815260040160405180910390fd5b5f6131f78a8a8a8a878b61382a565b90505f7f30644e72e131a029b85045b68181585d2833e84879b9709143e1f593f000000160028360405161322b9190614f80565b602060405180830381855afa158015613246573d5f5f3e3d5ffd5b5050506040513d601f19601f820116820180604052508101906132699190614b5b565b6132739190614e84565b60018c0154604080516020810182528381529051634890ed4560e11b81529293506001600160a01b0390911691639121da8a916132b591899190600401614f96565b602060405180830381865afa1580156132d0573d5f5f3e3d5ffd5b505050506040513d601f19601f820116820180604052508101906132f49190614fd2565b613311576040516309bde33960e01b815260040160405180910390fd5b5f61331c848b614c22565b905061336f87826001600160401b0316613334611f0b565b61333e9190614b44565b6001600160a01b037f0000000000000000000000000000000000000000000000000000000000000000169190613d07565b80608460088282829054906101000a90046001600160401b03166133939190614b25565b82546101009290920a6001600160401b038181021990931691831602179091556084805467ffffffffffffffff60801b1916600160801b428416021790558d546040516332c2d15360e01b8152918d166004830152602482018b90523360448301526001600160a01b031691506332c2d153906064015f604051808303815f87803b158015613420575f5ffd5b505af1158015613432573d5f5f3e3d5ffd5b50505050505050505050505050505050565b7f00000000000000000000000000000000000000000000000000000000000000006001600160a01b0316632072f6c56040518163ffffffff1660e01b81526004015f604051808303815f87803b15801561349c575f5ffd5b505af11580156134ae573d5f5f3e3d5ffd5b50505050610ce4613d6e565b5f8281526034602090815260408083206001600160a01b038516845290915290205460ff16610d42575f8281526034602090815260408083206001600160a01b0385168085529252808320805460ff1916600117905551339285917f2f8788117e7eff1d82e926ec794901d17c78024a50270940304540a733656f0d9190a45050565b5f8281526034602090815260408083206001600160a01b038516845290915290205460ff1615610d42575f8281526034602090815260408083206001600160a01b0385168085529252808320805460ff1916905551339285917ff6391f5c32d9c69d2a47ea670b442974b53935d1edc7fd64eb21e047a839171b9190a45050565b7f9b779b17422d0df92223018b32b4d1fa46e071723d6817e2486d003becc55f005c156135fe57604051633ee5aeb560e01b815260040160405180910390fd5b610ce460017f9b779b17422d0df92223018b32b4d1fa46e071723d6817e2486d003becc55f005b90613dc9565b606060026007880154600160801b900460ff16600281111561364f5761364f61420e565b0361372a578654604051631a957d9b60e21b81525f916001600160a01b031690636a55f66c906136859087908790600401614bf4565b602060405180830381865afa1580156136a0573d5f5f3e3d5ffd5b505050506040513d601f19601f820116820180604052508101906136c49190614b5b565b600589015460088a0154604080516020810193909352820152606081018990526001600160e01b031960e08c901b1660808201526084810182905260a4810188905260c4810187905290915060e401604051602081830303815290604052915050611497565b865460408051632b47b7cd60e21b815290515f926001600160a01b03169163ad1edf349160048083019260209291908290030181865afa158015613770573d5f5f3e3d5ffd5b505050506040513d601f19601f820116820180604052508101906137949190614b5b565b600589015460088a0154604080516020810193909352820152606081018990526001600160e01b031960e08c901b1660808201526084810182905260a4810188905260c4810187905290915060e401604051602081830303815290604052915050979650505050505050565b610ce45f7f9b779b17422d0df92223018b32b4d1fa46e071723d6817e2486d003becc55f00613625565b6001600160401b038086165f818152600389016020526040808220549388168252902054606092911580159061385e575081155b1561387c5760405163340c614f60e11b815260040160405180910390fd5b8061389a576040516366385b5160e01b815260040160405180910390fd5b6138a384613dd0565b6138c0576040516305dae44f60e21b815260040160405180910390fd5b3385838a8c5f0160149054906101000a90046001600160401b03168d60010160149054906101000a90046001600160401b031689878d8f6040516020016139109a99989796959493929190614ff1565b604051602081830303815290604052925050509695505050505050565b63ffffffff8216158061394b5750607e5463ffffffff908116908316115b1561396957604051637512e5cb60e01b815260040160405180910390fd5b6001600160a01b0383165f9081526082602052604081205463ffffffff16908190036139a8576040516374a086a360e01b815260040160405180910390fd5b63ffffffff8181165f908152608160205260409020600781015490918516600160401b9091046001600160401b0316036139f557604051634f61d51960e01b815260040160405180910390fd5b63ffffffff84165f908152607f602052604090206001810154600160e81b900460ff1615613a3657604051633b8d3d9960e01b815260040160405180910390fd5b60026001820154600160e01b900460ff166002811115613a5857613a5861420e565b14158015613aa457506001810154600160e01b900460ff166002811115613a8157613a8161420e565b6007830154600160801b900460ff166002811115613aa157613aa161420e565b14155b15613ac257604051635aa0d5f160e11b815260040160405180910390fd5b6001808201805491840180546001600160a01b031981166001600160a01b03909416938417825582546001600160401b03600160a01b9182900416026001600160e01b03199091169093179290921790915560038201546009840155600783018054600160401b63ffffffff8916026fffffffffffffffff000000000000000019821681178355925460ff600160e01b909104169260ff60801b191670ffffffffffffffffff00000000000000001990911617600160801b836002811115613b8c57613b8c61420e565b02179055505f613b9b84610a04565b60078401805467ffffffffffffffff19166001600160401b038316179055825460405163278f794360e11b81529192506001600160a01b0389811692634f1ef28692613bed92169089906004016150a5565b5f604051808303815f87803b158015613c04575f5ffd5b505af1158015613c16573d5f5f3e3d5ffd5b50506040805163ffffffff8a811682526001600160401b0386166020830152881693507ff585e04c05d396901170247783d3e5f0ee9c1df23072985b50af089f5e48b19d92500160405180910390a250505050505050565b606f5460ff16613c9157604051635386698160e01b815260040160405180910390fd5b606f805460ff191690556040517f1e5e34eea33501aecf2ebec9fe0e884a40804275ea7fe10b2ba084c8374308b3905f90a1565b5f8281526034602090815260408083206001600160a01b038516845290915290205460ff16610d4257604051637615be1f60e11b815260040160405180910390fd5b604080516001600160a01b038416602482015260448082018490528251808303909101815260649091019091526020810180517bffffffffffffffffffffffffffffffffffffffffffffffffffffffff1663a9059cbb60e01b179052610d0a908490613e55565b606f5460ff1615613d9257604051630bc011ff60e21b815260040160405180910390fd5b606f805460ff191660011790556040517f2261efe5aef6fedc1fd1550b25facc9181745623049c7901287030b9ad1a5497905f90a1565b80825d5050565b5f67ffffffff000000016001600160401b038316108015613e05575067ffffffff00000001604083901c6001600160401b0316105b8015613e25575067ffffffff00000001608083901c6001600160401b0316105b8015613e3c575067ffffffff0000000160c083901c105b15613e4957506001919050565b505f919050565b919050565b5f613ea9826040518060400160405280602081526020017f5361666545524332303a206c6f772d6c6576656c2063616c6c206661696c6564815250856001600160a01b0316613f269092919063ffffffff16565b805190915015610d0a5780806020019051810190613ec79190614fd2565b610d0a5760405162461bcd60e51b815260206004820152602a60248201527f5361666545524332303a204552433230206f7065726174696f6e20646964206e6044820152691bdd081cdd58d8d9595960b21b6064820152608401611530565b6060613f3484845f85613f3c565b949350505050565b606082471015613f9d5760405162461bcd60e51b815260206004820152602660248201527f416464726573733a20696e73756666696369656e742062616c616e636520666f6044820152651c8818d85b1b60d21b6064820152608401611530565b5f5f866001600160a01b03168587604051613fb89190614f80565b5f6040518083038185875af1925050503d805f8114613ff2576040519150601f19603f3d011682016040523d82523d5f602084013e613ff7565b606091505b509150915061149787838387606083156140715782515f0361406a576001600160a01b0385163b61406a5760405162461bcd60e51b815260206004820152601d60248201527f416464726573733a2063616c6c20746f206e6f6e2d636f6e74726163740000006044820152606401611530565b5081613f34565b613f3483838151156140865781518083602001fd5b8060405162461bcd60e51b815260040161153091906145a0565b6108b0806150c783390190565b803563ffffffff81168114613e50575f5ffd5b5f602082840312156140d0575f5ffd5b6140d9826140ad565b9392505050565b80356001600160401b0381168114613e50575f5ffd5b6001600160a01b0381168114612974575f5ffd5b5f5f5f5f5f5f5f5f6103e0898b031215614122575f5ffd5b61412b896140ad565b975061413960208a016140e0565b965061414760408a016140e0565b955061415560608a016140e0565b94506080890135935060a0890135925060c0890135614173816140f6565b91506103e089018a1015614185575f5ffd5b60e0890190509295985092959890939650565b5f602082840312156141a8575f5ffd5b5035919050565b5f5f604083850312156141c0575f5ffd5b6141c9836140ad565b91506141d7602084016140e0565b90509250929050565b5f5f604083850312156141f1575f5ffd5b823591506020830135614203816140f6565b809150509250929050565b634e487b7160e01b5f52602160045260245ffd5b6003811061423e57634e487b7160e01b5f52602160045260245ffd5b9052565b6001600160a01b038881168252871660208201526001600160401b038616604082015260e081016142766060830187614222565b931515608082015260a081019290925260c090910152949350505050565b5f5f83601f8401126142a4575f5ffd5b5081356001600160401b038111156142ba575f5ffd5b6020830191508360208285010111156142d1575f5ffd5b9250929050565b5f5f5f5f5f5f5f5f60c0898b0312156142ef575f5ffd5b6142f8896140ad565b975061430660208a016140ad565b9650604089013595506060890135945060808901356001600160401b0381111561432e575f5ffd5b61433a8b828c01614294565b90955093505060a08901356001600160401b03811115614358575f5ffd5b6143648b828c01614294565b999c989b5096995094979396929594505050565b6001600160a01b038d811682526001600160401b038d81166020840152908c1660408301528a81166060830152608082018a905288811660a0830152871660c082015261018081016001600160401b03871660e08301526001600160401b0386166101008301526143ed610120830186614222565b61014082019390935261016001529a9950505050505050505050565b81516001600160a01b031681526101808101602083015161443560208401826001600160401b03169052565b50604083015161445060408401826001600160a01b03169052565b50606083015161446b60608401826001600160401b03169052565b506080830151608083015260a083015161449060a08401826001600160401b03169052565b5060c08301516144ab60c08401826001600160401b03169052565b5060e08301516144c660e08401826001600160401b03169052565b506101008301516144e36101008401826001600160401b03169052565b506101208301516144f8610120840182614222565b5061014083015161014083015261016083015161016083015292915050565b5f5f5f5f5f5f60c0878903121561452c575f5ffd5b614535876140ad565b9550614543602088016140e0565b9450614551604088016140e0565b959894975094956060810135955060808101359460a0909101359350915050565b5f81518084528060208401602086015e5f602082860101526020601f19601f83011685010191505092915050565b602081525f6140d96020830184614572565b5f602082840312156145c2575f5ffd5b6140d9826140e0565b5f5f604083850312156145dc575f5ffd5b82356141c9816140f6565b634e487b7160e01b5f52604160045260245ffd5b604051601f8201601f191681016001600160401b0381118282101715614623576146236145e7565b604052919050565b5f6001600160401b03821115614643576146436145e7565b50601f01601f191660200190565b5f61466361465e8461462b565b6145fb565b9050828152838383011115614676575f5ffd5b828260208301375f602084830101529392505050565b5f82601f83011261469b575f5ffd5b6140d983833560208501614651565b5f5f5f606084860312156146bc575f5ffd5b6146c5846140ad565b92506146d3602085016140e0565b915060408401356001600160401b038111156146ed575f5ffd5b6146f98682870161468c565b9150509250925092565b5f5f60408385031215614714575f5ffd5b61471d836140e0565b946020939093013593505050565b803560038110613e50575f5ffd5b5f5f5f5f5f5f5f60e0888a03121561474f575f5ffd5b873561475a816140f6565b9650602088013561476a816140f6565b9550614778604089016140e0565b94506147866060890161472b565b93506080880135925060a08801356001600160401b038111156147a7575f5ffd5b8801601f81018a136147b7575f5ffd5b6147c68a823560208401614651565b979a969950949793969295929450505060c09091013590565b5f5f5f606084860312156147f1575f5ffd5b83356147fc816140f6565b92506146d3602085016140ad565b5f6020828403121561481a575f5ffd5b81356140d9816140f6565b5f5f5f5f5f5f60a0878903121561483a575f5ffd5b614843876140ad565b955060208701359450604087013593506060870135925060808701356001600160401b03811115614872575f5ffd5b61487e89828a01614294565b979a9699509497509295939492505050565b5f5f604083850312156148a1575f5ffd5b82356148ac816140f6565b91506141d7602084016140ad565b6001600160a01b038d811682526001600160401b038d81166020840152908c1660408301528a81166060830152608082018a905288811660a0830152871660c082015261018081016001600160401b03871660e08301526001600160401b0386166101008301526001600160401b0385166101208301526001600160401b03841661014083015261494f610160830184614222565b9d9c50505050505050505050505050565b5f5f5f5f5f5f5f5f610100898b031215614978575f5ffd5b8835614983816140f6565b97506020890135614993816140f6565b96506149a160408a016140e0565b95506149af60608a016140e0565b9450608089013593506149c460a08a0161472b565b979a969950949793969295929450505060c08201359160e0013590565b81516001600160a01b0316815261018081016020830151614a0d60208401826001600160401b03169052565b506040830151614a2860408401826001600160a01b03169052565b506060830151614a4360608401826001600160401b03169052565b506080830151608083015260a0830151614a6860a08401826001600160401b03169052565b5060c0830151614a8360c08401826001600160401b03169052565b5060e0830151614a9e60e08401826001600160401b03169052565b50610100830151614abb6101008401826001600160401b03169052565b50610120830151614ad86101208401826001600160401b03169052565b50610140830151614af56101408401826001600160401b03169052565b50610160830151614b0a610160840182614222565b5092915050565b634e487b7160e01b5f52601160045260245ffd5b6001600160401b038181168382160190811115610a2d57610a2d614b11565b8082028115828204841417610a2d57610a2d614b11565b5f60208284031215614b6b575f5ffd5b5051919050565b81835281816020850137505f828201602090810191909152601f909101601f19169091010190565b604081525f614bac6040830186614572565b8281036020840152614bbf818587614b72565b9695505050505050565b848152606060208201525f614be16060830186614572565b8281036040840152611497818587614b72565b602081525f613f34602083018486614b72565b5f60208284031215614c17575f5ffd5b81516140d9816140f6565b6001600160401b038281168282160390811115610a2d57610a2d614b11565b5f63ffffffff821663ffffffff8103614c5c57614c5c614b11565b60010192915050565b6001600160a01b03841681526001600160a01b0383166020820152606060408201525f614c956060830184614572565b95945050505050565b63ffffffff861681526001600160a01b03851660208201526001600160401b038416604082015260ff8316606082015260a060808201525f61149760a0830184614572565b5f82601f830112614cf2575f5ffd5b8151614d0061465e8261462b565b818152846020838601011115614d14575f5ffd5b8160208501602083015e5f918101602001919091529392505050565b5f5f5f5f5f60a08688031215614d44575f5ffd5b8551614d4f816140f6565b6020870151909550614d60816140f6565b6040870151909450614d71816140f6565b60608701519093506001600160401b03811115614d8c575f5ffd5b614d9888828901614ce3565b92505060808601516001600160401b03811115614db3575f5ffd5b614dbf88828901614ce3565b9150509295509295909350565b6001600160a01b03871681526001600160a01b038616602082015263ffffffff851660408201526001600160a01b038416606082015260c060808201525f614e1760c0830185614572565b82810360a0840152614e298185614572565b9998505050505050505050565b634e487b7160e01b5f52601260045260245ffd5b5f82614e5857614e58614e36565b500490565b80820180821115610a2d57610a2d614b11565b634e487b7160e01b5f52603260045260245ffd5b5f82614e9257614e92614e36565b500690565b81810381811115610a2d57610a2d614b11565b5f81614eb857614eb8614b11565b505f190190565b6001600160a01b03881681526001600160a01b03871660208201526001600160401b0386166040820152614ef66060820186614222565b83608082015260e060a08201525f614f1160e0830185614572565b90508260c083015298975050505050505050565b6001600160401b0388811682526001600160a01b03881660208301528616604082015260e08101614f596060830187614222565b6001600160401b03851660808301528360a08301528260c083015298975050505050505050565b5f82518060208501845e5f920191825250919050565b61032081016103008483376103008201835f5b6001811015614fc8578151835260209283019290910190600101614fa9565b5050509392505050565b5f60208284031215614fe2575f5ffd5b815180151581146140d9575f5ffd5b6bffffffffffffffffffffffff198b60601b1681528960148201528860348201526001600160401b0360c01b8860c01b1660548201526001600160401b0360c01b8760c01b16605c8201526001600160401b0360c01b8660c01b16606482015284606c82015283608c8201528260ac82015261509460cc82018360c01b7fffffffffffffffff000000000000000000000000000000000000000000000000169052565b60d4019a9950505050505050505050565b6001600160a01b0383168152604060208201525f613f34604083018461457256fe60a06040526040516108b03803806108b083398101604081905261002291610327565b828161002e8282610056565b50506001600160a01b03821660805261004e61004960805190565b6100b4565b50505061040e565b61005f82610121565b6040516001600160a01b038316907fbc7cd75a20ee27fd9adebab32041f755214dbc6bffa90cc0225b39da2e5c2d3b905f90a28051156100a8576100a3828261019f565b505050565b6100b0610212565b5050565b7f7e644d79422f17c01e4894b5f4f588d331ebfa28653d42ae832dc59e38c9798f6100f35f5160206108905f395f51905f52546001600160a01b031690565b604080516001600160a01b03928316815291841660208301520160405180910390a161011e81610233565b50565b806001600160a01b03163b5f0361015b57604051634c9c8ce360e01b81526001600160a01b03821660048201526024015b60405180910390fd5b807f360894a13ba1a3210667c828492db98dca3e2076cc3735a920a3ca505d382bbc5b80546001600160a01b0319166001600160a01b039290921691909117905550565b60605f5f846001600160a01b0316846040516101bb91906103f8565b5f60405180830381855af49150503d805f81146101f3576040519150601f19603f3d011682016040523d82523d5f602084013e6101f8565b606091505b509092509050610209858383610270565b95945050505050565b34156102315760405163b398979f60e01b815260040160405180910390fd5b565b6001600160a01b03811661025c57604051633173bdd160e11b81525f6004820152602401610152565b805f5160206108905f395f51905f5261017e565b60608261028557610280826102cf565b6102c8565b815115801561029c57506001600160a01b0384163b155b156102c557604051639996b31560e01b81526001600160a01b0385166004820152602401610152565b50805b9392505050565b8051156102df5780518082602001fd5b604051630a12f52160e11b815260040160405180910390fd5b80516001600160a01b038116811461030e575f5ffd5b919050565b634e487b7160e01b5f52604160045260245ffd5b5f5f5f60608486031215610339575f5ffd5b610342846102f8565b9250610350602085016102f8565b60408501519092506001600160401b0381111561036b575f5ffd5b8401601f8101861361037b575f5ffd5b80516001600160401b0381111561039457610394610313565b604051601f8201601f19908116603f011681016001600160401b03811182821017156103c2576103c2610313565b6040528181528282016020018810156103d9575f5ffd5b8160208401602083015e5f602083830101528093505050509250925092565b5f82518060208501845e5f920191825250919050565b60805161046b6104255f395f6010015261046b5ff3fe608060405261000c61000e565b005b7f00000000000000000000000000000000000000000000000000000000000000006001600160a01b03163303610081575f357fffffffff000000000000000000000000000000000000000000000000000000001663278f794360e11b1461007957610077610085565b565b610077610095565b6100775b6100776100906100c3565b6100fa565b5f806100a43660048184610313565b8101906100b1919061034e565b915091506100bf8282610118565b5050565b5f6100f57f360894a13ba1a3210667c828492db98dca3e2076cc3735a920a3ca505d382bbc546001600160a01b031690565b905090565b365f5f375f5f365f845af43d5f5f3e808015610114573d5ff35b3d5ffd5b61012182610172565b6040516001600160a01b038316907fbc7cd75a20ee27fd9adebab32041f755214dbc6bffa90cc0225b39da2e5c2d3b905f90a280511561016a5761016582826101fa565b505050565b6100bf61026c565b806001600160a01b03163b5f036101ac57604051634c9c8ce360e01b81526001600160a01b03821660048201526024015b60405180910390fd5b7f360894a13ba1a3210667c828492db98dca3e2076cc3735a920a3ca505d382bbc805473ffffffffffffffffffffffffffffffffffffffff19166001600160a01b0392909216919091179055565b60605f5f846001600160a01b031684604051610216919061041f565b5f60405180830381855af49150503d805f811461024e576040519150601f19603f3d011682016040523d82523d5f602084013e610253565b606091505b509150915061026385838361028b565b95945050505050565b34156100775760405163b398979f60e01b815260040160405180910390fd5b6060826102a05761029b826102ea565b6102e3565b81511580156102b757506001600160a01b0384163b155b156102e057604051639996b31560e01b81526001600160a01b03851660048201526024016101a3565b50805b9392505050565b8051156102fa5780518082602001fd5b604051630a12f52160e11b815260040160405180910390fd5b5f5f85851115610321575f5ffd5b8386111561032d575f5ffd5b5050820193919092039150565b634e487b7160e01b5f52604160045260245ffd5b5f5f6040838503121561035f575f5ffd5b82356001600160a01b0381168114610375575f5ffd5b9150602083013567ffffffffffffffff811115610390575f5ffd5b8301601f810185136103a0575f5ffd5b803567ffffffffffffffff8111156103ba576103ba61033a565b604051601f8201601f19908116603f0116810167ffffffffffffffff811182821017156103e9576103e961033a565b604052818152828201602001871015610400575f5ffd5b816020840160208301375f602083830101528093505050509250929050565b5f82518060208501845e5f92019182525091905056fea2646970667358221220f0c40b8d0bc55a45013a71ee3fd7264ce873fcc561d04a41ba1f24adbcef958c64736f6c634300081c0033b53127684a568b3173ae13b9f8a6016e243e63b6e8ee1178d6a717850b5d6103a26469706673582212200f2e29222427a47b67e75ffdb560133467e9a5cb7f8adebab72c17cd012d21b164736f6c634300081c0033",
  "linkReferences": {},
  "deployedLinkReferences": {}
}