{
  "_format": "hh-sol-artifact-1",
  "contractName": "PolygonZkEVM",
  "sourceName": "contracts/PolygonZkEVM.sol",
  "abi": [
    {
      "inputs": [
        {
          "internalType": "contract IPolygonZkEVMGlobalExitRoot",
          "name": "_globalExitRootManager",
          "type": "address"
        },
        {
          "internalType": "contract IERC20Upgradeable",
          "name": "_matic",
          "type": "address"
        },
        {
          "internalType": "contract IVerifierRollup",
          "name": "_rollupVerifier",
          "type": "address"
        },
        {
          "internalType": "contract IPolygonZkEVMBridge",
          "name": "_bridgeAddress",
          "type": "address"
        },
        {
          "internalType": "uint64",
          "name": "_chainID",
          "type": "uint64"
        },
        {
          "internalType": "uint64",
          "name": "_forkID",
          "type": "uint64"
        }
      ],
      "stateMutability": "nonpayable",
      "type": "constructor"
    },
    {
      "inputs": [],
      "name": "BatchAlreadyVerified",
      "type": "error"
    },
    {
      "inputs": [],
      "name": "BatchNotSequencedOrNotSequenceEnd",
      "type": "error"
    },
    {
      "inputs": [],
      "name": "ExceedMaxVerifyBatches",
      "type": "error"
    },
    {
      "inputs": [],
      "name": "FinalNumBatchBelowLastVerifiedBatch",
      "type": "error"
    },
    {
      "inputs": [],
      "name": "FinalNumBatchDoesNotMatchPendingState",
      "type": "error"
    },
    {
      "inputs": [],
      "name": "FinalPendingStateNumInvalid",
      "type": "error"
    },
    {
      "inputs": [],
      "name": "ForceBatchNotAllowed",
      "type": "error"
    },
    {
      "inputs": [],
      "name": "ForceBatchTimeoutNotExpired",
      "type": "error"
    },
    {
      "inputs": [],
      "name": "ForceBatchesAlreadyActive",
      "type": "error"
    },
    {
      "inputs": [],
      "name": "ForceBatchesOverflow",
      "type": "error"
    },
    {
      "inputs": [],
      "name": "ForcedDataDoesNotMatch",
      "type": "error"
    },
    {
      "inputs": [],
      "name": "GlobalExitRootNotExist",
      "type": "error"
    },
    {
      "inputs": [],
      "name": "HaltTimeoutNotExpired",
      "type": "error"
    },
    {
      "inputs": [],
      "name": "InitNumBatchAboveLastVerifiedBatch",
      "type": "error"
    },
    {
      "inputs": [],
      "name": "InitNumBatchDoesNotMatchPendingState",
      "type": "error"
    },
    {
      "inputs": [],
      "name": "InvalidProof",
      "type": "error"
    },
    {
      "inputs": [],
      "name": "InvalidRangeBatchTimeTarget",
      "type": "error"
    },
    {
      "inputs": [],
      "name": "InvalidRangeForceBatchTimeout",
      "type": "error"
    },
    {
      "inputs": [],
      "name": "InvalidRangeMultiplierBatchFee",
      "type": "error"
    },
    {
      "inputs": [],
      "name": "NewAccInputHashDoesNotExist",
      "type": "error"
    },
    {
      "inputs": [],
      "name": "NewPendingStateTimeoutMustBeLower",
      "type": "error"
    },
    {
      "inputs": [],
      "name": "NewStateRootNotInsidePrime",
      "type": "error"
    },
    {
      "inputs": [],
      "name": "NewTrustedAggregatorTimeoutMustBeLower",
      "type": "error"
    },
    {
      "inputs": [],
      "name": "NotEnoughMaticAmount",
      "type": "error"
    },
    {
      "inputs": [],
      "name": "OldAccInputHashDoesNotExist",
      "type": "error"
    },
    {
      "inputs": [],
      "name": "OldStateRootDoesNotExist",
      "type": "error"
    },
    {
      "inputs": [],
      "name": "OnlyAdmin",
      "type": "error"
    },
    {
      "inputs": [],
      "name": "OnlyEmergencyState",
      "type": "error"
    },
    {
      "inputs": [],
      "name": "OnlyNotEmergencyState",
      "type": "error"
    },
    {
      "inputs": [],
      "name": "OnlyPendingAdmin",
      "type": "error"
    },
    {
      "inputs": [],
      "name": "OnlyTrustedAggregator",
      "type": "error"
    },
    {
      "inputs": [],
      "name": "OnlyTrustedSequencer",
      "type": "error"
    },
    {
      "inputs": [],
      "name": "PendingStateDoesNotExist",
      "type": "error"
    },
    {
      "inputs": [],
      "name": "PendingStateInvalid",
      "type": "error"
    },
    {
      "inputs": [],
      "name": "PendingStateNotConsolidable",
      "type": "error"
    },
    {
      "inputs": [],
      "name": "PendingStateTimeoutExceedHaltAggregationTimeout",
      "type": "error"
    },
    {
      "inputs": [],
      "name": "SequenceZeroBatches",
      "type": "error"
    },
    {
      "inputs": [],
      "name": "SequencedTimestampBelowForcedTimestamp",
      "type": "error"
    },
    {
      "inputs": [],
      "name": "SequencedTimestampInvalid",
      "type": "error"
    },
    {
      "inputs": [],
      "name": "StoredRootMustBeDifferentThanNewRoot",
      "type": "error"
    },
    {
      "inputs": [],
      "name": "TransactionsLengthAboveMax",
      "type": "error"
    },
    {
      "inputs": [],
      "name": "TrustedAggregatorTimeoutExceedHaltAggregationTimeout",
      "type": "error"
    },
    {
      "inputs": [],
      "name": "TrustedAggregatorTimeoutNotExpired",
      "type": "error"
    },
    {
      "anonymous": false,
      "inputs": [
        {
          "indexed": false,
          "internalType": "address",
          "name": "newAdmin",
          "type": "address"
        }
      ],
      "name": "AcceptAdminRole",
      "type": "event"
    },
    {
      "anonymous": false,
      "inputs": [],
      "name": "ActivateForceBatches",
      "type": "event"
    },
    {
      "anonymous": false,
      "inputs": [
        {
          "indexed": true,
          "internalType": "uint64",
          "name": "numBatch",
          "type": "uint64"
        },
        {
          "indexed": false,
          "internalType": "bytes32",
          "name": "stateRoot",
          "type": "bytes32"
        },
        {
          "indexed": true,
          "internalType": "uint64",
          "name": "pendingStateNum",
          "type": "uint64"
        }
      ],
      "name": "ConsolidatePendingState",
      "type": "event"
    },
    {
      "anonymous": false,
      "inputs": [],
      "name": "EmergencyStateActivated",
      "type": "event"
    },
    {
      "anonymous": false,
      "inputs": [],
      "name": "EmergencyStateDeactivated",
      "type": "event"
    },
    {
      "anonymous": false,
      "inputs": [
        {
          "indexed": true,
          "internalType": "uint64",
          "name": "forceBatchNum",
          "type": "uint64"
        },
        {
          "indexed": false,
          "internalType": "bytes32",
          "name": "lastGlobalExitRoot",
          "type": "bytes32"
        },
        {
          "indexed": false,
          "internalType": "address",
          "name": "sequencer",
          "type": "address"
        },
        {
          "indexed": false,
          "internalType": "bytes",
          "name": "transactions",
          "type": "bytes"
        }
      ],
      "name": "ForceBatch",
      "type": "event"
    },
    {
      "anonymous": false,
      "inputs": [
        {
          "indexed": false,
          "internalType": "uint8",
          "name": "version",
          "type": "uint8"
        }
      ],
      "name": "Initialized",
      "type": "event"
    },
    {
      "anonymous": false,
      "inputs": [
        {
          "indexed": true,
          "internalType": "uint64",
          "name": "numBatch",
          "type": "uint64"
        },
        {
          "indexed": false,
          "internalType": "bytes32",
          "name": "stateRoot",
          "type": "bytes32"
        },
        {
          "indexed": true,
          "internalType": "address",
          "name": "aggregator",
          "type": "address"
        }
      ],
      "name": "OverridePendingState",
      "type": "event"
    },
    {
      "anonymous": false,
      "inputs": [
        {
          "indexed": true,
          "internalType": "address",
          "name": "previousOwner",
          "type": "address"
        },
        {
          "indexed": true,
          "internalType": "address",
          "name": "newOwner",
          "type": "address"
        }
      ],
      "name": "OwnershipTransferred",
      "type": "event"
    },
    {
      "anonymous": false,
      "inputs": [
        {
          "indexed": false,
          "internalType": "bytes32",
          "name": "storedStateRoot",
          "type": "bytes32"
        },
        {
          "indexed": false,
          "internalType": "bytes32",
          "name": "provedStateRoot",
          "type": "bytes32"
        }
      ],
      "name": "ProveNonDeterministicPendingState",
      "type": "event"
    },
    {
      "anonymous": false,
      "inputs": [
        {
          "indexed": true,
          "internalType": "uint64",
          "name": "numBatch",
          "type": "uint64"
        }
      ],
      "name": "SequenceBatches",
      "type": "event"
    },
    {
      "anonymous": false,
      "inputs": [
        {
          "indexed": true,
          "internalType": "uint64",
          "name": "numBatch",
          "type": "uint64"
        }
      ],
      "name": "SequenceForceBatches",
      "type": "event"
    },
    {
      "anonymous": false,
      "inputs": [
        {
          "indexed": false,
          "internalType": "uint64",
          "name": "newforceBatchTimeout",
          "type": "uint64"
        }
      ],
      "name": "SetForceBatchTimeout",
      "type": "event"
    },
    {
      "anonymous": false,
      "inputs": [
        {
          "indexed": false,
          "internalType": "uint16",
          "name": "newMultiplierBatchFee",
          "type": "uint16"
        }
      ],
      "name": "SetMultiplierBatchFee",
      "type": "event"
    },
    {
      "anonymous": false,
      "inputs": [
        {
          "indexed": false,
          "internalType": "uint64",
          "name": "newPendingStateTimeout",
          "type": "uint64"
        }
      ],
      "name": "SetPendingStateTimeout",
      "type": "event"
    },
    {
      "anonymous": false,
      "inputs": [
        {
          "indexed": false,
          "internalType": "address",
          "name": "newTrustedAggregator",
          "type": "address"
        }
      ],
      "name": "SetTrustedAggregator",
      "type": "event"
    },
    {
      "anonymous": false,
      "inputs": [
        {
          "indexed": false,
          "internalType": "uint64",
          "name": "newTrustedAggregatorTimeout",
          "type": "uint64"
        }
      ],
      "name": "SetTrustedAggregatorTimeout",
      "type": "event"
    },
    {
      "anonymous": false,
      "inputs": [
        {
          "indexed": false,
          "internalType": "address",
          "name": "newTrustedSequencer",
          "type": "address"
        }
      ],
      "name": "SetTrustedSequencer",
      "type": "event"
    },
    {
      "anonymous": false,
      "inputs": [
        {
          "indexed": false,
          "internalType": "string",
          "name": "newTrustedSequencerURL",
          "type": "string"
        }
      ],
      "name": "SetTrustedSequencerURL",
      "type": "event"
    },
    {
      "anonymous": false,
      "inputs": [
        {
          "indexed": false,
          "internalType": "uint64",
          "name": "newVerifyBatchTimeTarget",
          "type": "uint64"
        }
      ],
      "name": "SetVerifyBatchTimeTarget",
      "type": "event"
    },
    {
      "anonymous": false,
      "inputs": [
        {
          "indexed": false,
          "internalType": "address",
          "name": "newPendingAdmin",
          "type": "address"
        }
      ],
      "name": "TransferAdminRole",
      "type": "event"
    },
    {
      "anonymous": false,
      "inputs": [
        {
          "indexed": false,
          "internalType": "uint64",
          "name": "numBatch",
          "type": "uint64"
        },
        {
          "indexed": false,
          "internalType": "uint64",
          "name": "forkID",
          "type": "uint64"
        },
        {
          "indexed": false,
          "internalType": "string",
          "name": "version",
          "type": "string"
        }
      ],
      "name": "UpdateZkEVMVersion",
      "type": "event"
    },
    {
      "anonymous": false,
      "inputs": [
        {
          "indexed": true,
          "internalType": "uint64",
          "name": "numBatch",
          "type": "uint64"
        },
        {
          "indexed": false,
          "internalType": "bytes32",
          "name": "stateRoot",
          "type": "bytes32"
        },
        {
          "indexed": true,
          "internalType": "address",
          "name": "aggregator",
          "type": "address"
        }
      ],
      "name": "VerifyBatches",
      "type": "event"
    },
    {
      "anonymous": false,
      "inputs": [
        {
          "indexed": true,
          "internalType": "uint64",
          "name": "numBatch",
          "type": "uint64"
        },
        {
          "indexed": false,
          "internalType": "bytes32",
          "name": "stateRoot",
          "type": "bytes32"
        },
        {
          "indexed": true,
          "internalType": "address",
          "name": "aggregator",
          "type": "address"
        }
      ],
      "name": "VerifyBatchesTrustedAggregator",
      "type": "event"
    },
    {
      "inputs": [],
      "name": "acceptAdminRole",
      "outputs": [],
      "stateMutability": "nonpayable",
      "type": "function"
    },
    {
      "inputs": [
        {
          "internalType": "uint64",
          "name": "sequencedBatchNum",
          "type": "uint64"
        }
      ],
      "name": "activateEmergencyState",
      "outputs": [],
      "stateMutability": "nonpayable",
      "type": "function"
    },
    {
      "inputs": [],
      "name": "activateForceBatches",
      "outputs": [],
      "stateMutability": "nonpayable",
      "type": "function"
    },
    {
      "inputs": [],
      "name": "admin",
      "outputs": [
        {
          "internalType": "address",
          "name": "",
          "type": "address"
        }
      ],
      "stateMutability": "view",
      "type": "function"
    },
    {
      "inputs": [],
      "name": "batchFee",
      "outputs": [
        {
          "internalType": "uint256",
          "name": "",
          "type": "uint256"
        }
      ],
      "stateMutability": "view",
      "type": "function"
    },
    {
      "inputs": [
        {
          "internalType": "uint64",
          "name": "",
          "type": "uint64"
        }
      ],
      "name": "batchNumToStateRoot",
      "outputs": [
        {
          "internalType": "bytes32",
          "name": "",
          "type": "bytes32"
        }
      ],
      "stateMutability": "view",
      "type": "function"
    },
    {
      "inputs": [],
      "name": "bridgeAddress",
      "outputs": [
        {
          "internalType": "contract IPolygonZkEVMBridge",
          "name": "",
          "type": "address"
        }
      ],
      "stateMutability": "view",
      "type": "function"
    },
    {
      "inputs": [],
      "name": "calculateRewardPerBatch",
      "outputs": [
        {
          "internalType": "uint256",
          "name": "",
          "type": "uint256"
        }
      ],
      "stateMutability": "view",
      "type": "function"
    },
    {
      "inputs": [],
      "name": "chainID",
      "outputs": [
        {
          "internalType": "uint64",
          "name": "",
          "type": "uint64"
        }
      ],
      "stateMutability": "view",
      "type": "function"
    },
    {
      "inputs": [
        {
          "internalType": "uint256",
          "name": "newStateRoot",
          "type": "uint256"
        }
      ],
      "name": "checkStateRootInsidePrime",
      "outputs": [
        {
          "internalType": "bool",
          "name": "",
          "type": "bool"
        }
      ],
      "stateMutability": "pure",
      "type": "function"
    },
    {
      "inputs": [
        {
          "internalType": "uint64",
          "name": "pendingStateNum",
          "type": "uint64"
        }
      ],
      "name": "consolidatePendingState",
      "outputs": [],
      "stateMutability": "nonpayable",
      "type": "function"
    },
    {
      "inputs": [],
      "name": "deactivateEmergencyState",
      "outputs": [],
      "stateMutability": "nonpayable",
      "type": "function"
    },
    {
      "inputs": [
        {
          "internalType": "bytes",
          "name": "transactions",
          "type": "bytes"
        },
        {
          "internalType": "uint256",
          "name": "maticAmount",
          "type": "uint256"
        }
      ],
      "name": "forceBatch",
      "outputs": [],
      "stateMutability": "nonpayable",
      "type": "function"
    },
    {
      "inputs": [],
      "name": "forceBatchTimeout",
      "outputs": [
        {
          "internalType": "uint64",
          "name": "",
          "type": "uint64"
        }
      ],
      "stateMutability": "view",
      "type": "function"
    },
    {
      "inputs": [
        {
          "internalType": "uint64",
          "name": "",
          "type": "uint64"
        }
      ],
      "name": "forcedBatches",
      "outputs": [
        {
          "internalType": "bytes32",
          "name": "",
          "type": "bytes32"
        }
      ],
      "stateMutability": "view",
      "type": "function"
    },
    {
      "inputs": [],
      "name": "forkID",
      "outputs": [
        {
          "internalType": "uint64",
          "name": "",
          "type": "uint64"
        }
      ],
      "stateMutability": "view",
      "type": "function"
    },
    {
      "inputs": [],
      "name": "getForcedBatchFee",
      "outputs": [
        {
          "internalType": "uint256",
          "name": "",
          "type": "uint256"
        }
      ],
      "stateMutability": "view",
      "type": "function"
    },
    {
      "inputs": [
        {
          "internalType": "uint64",
          "name": "initNumBatch",
          "type": "uint64"
        },
        {
          "internalType": "uint64",
          "name": "finalNewBatch",
          "type": "uint64"
        },
        {
          "internalType": "bytes32",
          "name": "newLocalExitRoot",
          "type": "bytes32"
        },
        {
          "internalType": "bytes32",
          "name": "oldStateRoot",
          "type": "bytes32"
        },
        {
          "internalType": "bytes32",
          "name": "newStateRoot",
          "type": "bytes32"
        }
      ],
      "name": "getInputSnarkBytes",
      "outputs": [
        {
          "internalType": "bytes",
          "name": "",
          "type": "bytes"
        }
      ],
      "stateMutability": "view",
      "type": "function"
    },
    {
      "inputs": [],
      "name": "getLastVerifiedBatch",
      "outputs": [
        {
          "internalType": "uint64",
          "name": "",
          "type": "uint64"
        }
      ],
      "stateMutability": "view",
      "type": "function"
    },
    {
      "inputs": [],
      "name": "globalExitRootManager",
      "outputs": [
        {
          "internalType": "contract IPolygonZkEVMGlobalExitRoot",
          "name": "",
          "type": "address"
        }
      ],
      "stateMutability": "view",
      "type": "function"
    },
    {
      "inputs": [
        {
          "components": [
            {
              "internalType": "address",
              "name": "admin",
              "type": "address"
            },
            {
              "internalType": "address",
              "name": "trustedSequencer",
              "type": "address"
            },
            {
              "internalType": "uint64",
              "name": "pendingStateTimeout",
              "type": "uint64"
            },
            {
              "internalType": "address",
              "name": "trustedAggregator",
              "type": "address"
            },
            {
              "internalType": "uint64",
              "name": "trustedAggregatorTimeout",
              "type": "uint64"
            }
          ],
          "internalType": "struct PolygonZkEVM.InitializePackedParameters",
          "name": "initializePackedParameters",
          "type": "tuple"
        },
        {
          "internalType": "bytes32",
          "name": "genesisRoot",
          "type": "bytes32"
        },
        {
          "internalType": "string",
          "name": "_trustedSequencerURL",
          "type": "string"
        },
        {
          "internalType": "string",
          "name": "_networkName",
          "type": "string"
        },
        {
          "internalType": "string",
          "name": "_version",
          "type": "string"
        }
      ],
      "name": "initialize",
      "outputs": [],
      "stateMutability": "nonpayable",
      "type": "function"
    },
    {
      "inputs": [],
      "name": "isEmergencyState",
      "outputs": [
        {
          "internalType": "bool",
          "name": "",
          "type": "bool"
        }
      ],
      "stateMutability": "view",
      "type": "function"
    },
    {
      "inputs": [],
      "name": "isForcedBatchDisallowed",
      "outputs": [
        {
          "internalType": "bool",
          "name": "",
          "type": "bool"
        }
      ],
      "stateMutability": "view",
      "type": "function"
    },
    {
      "inputs": [
        {
          "internalType": "uint64",
          "name": "pendingStateNum",
          "type": "uint64"
        }
      ],
      "name": "isPendingStateConsolidable",
      "outputs": [
        {
          "internalType": "bool",
          "name": "",
          "type": "bool"
        }
      ],
      "stateMutability": "view",
      "type": "function"
    },
    {
      "inputs": [],
      "name": "lastBatchSequenced",
      "outputs": [
        {
          "internalType": "uint64",
          "name": "",
          "type": "uint64"
        }
      ],
      "stateMutability": "view",
      "type": "function"
    },
    {
      "inputs": [],
      "name": "lastForceBatch",
      "outputs": [
        {
          "internalType": "uint64",
          "name": "",
          "type": "uint64"
        }
      ],
      "stateMutability": "view",
      "type": "function"
    },
    {
      "inputs": [],
      "name": "lastForceBatchSequenced",
      "outputs": [
        {
          "internalType": "uint64",
          "name": "",
          "type": "uint64"
        }
      ],
      "stateMutability": "view",
      "type": "function"
    },
    {
      "inputs": [],
      "name": "lastPendingState",
      "outputs": [
        {
          "internalType": "uint64",
          "name": "",
          "type": "uint64"
        }
      ],
      "stateMutability": "view",
      "type": "function"
    },
    {
      "inputs": [],
      "name": "lastPendingStateConsolidated",
      "outputs": [
        {
          "internalType": "uint64",
          "name": "",
          "type": "uint64"
        }
      ],
      "stateMutability": "view",
      "type": "function"
    },
    {
      "inputs": [],
      "name": "lastTimestamp",
      "outputs": [
        {
          "internalType": "uint64",
          "name": "",
          "type": "uint64"
        }
      ],
      "stateMutability": "view",
      "type": "function"
    },
    {
      "inputs": [],
      "name": "lastVerifiedBatch",
      "outputs": [
        {
          "internalType": "uint64",
          "name": "",
          "type": "uint64"
        }
      ],
      "stateMutability": "view",
      "type": "function"
    },
    {
      "inputs": [],
      "name": "matic",
      "outputs": [
        {
          "internalType": "contract IERC20Upgradeable",
          "name": "",
          "type": "address"
        }
      ],
      "stateMutability": "view",
      "type": "function"
    },
    {
      "inputs": [],
      "name": "multiplierBatchFee",
      "outputs": [
        {
          "internalType": "uint16",
          "name": "",
          "type": "uint16"
        }
      ],
      "stateMutability": "view",
      "type": "function"
    },
    {
      "inputs": [],
      "name": "networkName",
      "outputs": [
        {
          "internalType": "string",
          "name": "",
          "type": "string"
        }
      ],
      "stateMutability": "view",
      "type": "function"
    },
    {
      "inputs": [
        {
          "internalType": "uint64",
          "name": "initPendingStateNum",
          "type": "uint64"
        },
        {
          "internalType": "uint64",
          "name": "finalPendingStateNum",
          "type": "uint64"
        },
        {
          "internalType": "uint64",
          "name": "initNumBatch",
          "type": "uint64"
        },
        {
          "internalType": "uint64",
          "name": "finalNewBatch",
          "type": "uint64"
        },
        {
          "internalType": "bytes32",
          "name": "newLocalExitRoot",
          "type": "bytes32"
        },
        {
          "internalType": "bytes32",
          "name": "newStateRoot",
          "type": "bytes32"
        },
        {
          "internalType": "bytes32[24]",
          "name": "proof",
          "type": "bytes32[24]"
        }
      ],
      "name": "overridePendingState",
      "outputs": [],
      "stateMutability": "nonpayable",
      "type": "function"
    },
    {
      "inputs": [],
      "name": "owner",
      "outputs": [
        {
          "internalType": "address",
          "name": "",
          "type": "address"
        }
      ],
      "stateMutability": "view",
      "type": "function"
    },
    {
      "inputs": [],
      "name": "pendingAdmin",
      "outputs": [
        {
          "internalType": "address",
          "name": "",
          "type": "address"
        }
      ],
      "stateMutability": "view",
      "type": "function"
    },
    {
      "inputs": [],
      "name": "pendingStateTimeout",
      "outputs": [
        {
          "internalType": "uint64",
          "name": "",
          "type": "uint64"
        }
      ],
      "stateMutability": "view",
      "type": "function"
    },
    {
      "inputs": [
        {
          "internalType": "uint256",
          "name": "",
          "type": "uint256"
        }
      ],
      "name": "pendingStateTransitions",
      "outputs": [
        {
          "internalType": "uint64",
          "name": "timestamp",
          "type": "uint64"
        },
        {
          "internalType": "uint64",
          "name": "lastVerifiedBatch",
          "type": "uint64"
        },
        {
          "internalType": "bytes32",
          "name": "exitRoot",
          "type": "bytes32"
        },
        {
          "internalType": "bytes32",
          "name": "stateRoot",
          "type": "bytes32"
        }
      ],
      "stateMutability": "view",
      "type": "function"
    },
    {
      "inputs": [
        {
          "internalType": "uint64",
          "name": "initPendingStateNum",
          "type": "uint64"
        },
        {
          "internalType": "uint64",
          "name": "finalPendingStateNum",
          "type": "uint64"
        },
        {
          "internalType": "uint64",
          "name": "initNumBatch",
          "type": "uint64"
        },
        {
          "internalType": "uint64",
          "name": "finalNewBatch",
          "type": "uint64"
        },
        {
          "internalType": "bytes32",
          "name": "newLocalExitRoot",
          "type": "bytes32"
        },
        {
          "internalType": "bytes32",
          "name": "newStateRoot",
          "type": "bytes32"
        },
        {
          "internalType": "bytes32[24]",
          "name": "proof",
          "type": "bytes32[24]"
        }
      ],
      "name": "proveNonDeterministicPendingState",
      "outputs": [],
      "stateMutability": "nonpayable",
      "type": "function"
    },
    {
      "inputs": [],
      "name": "renounceOwnership",
      "outputs": [],
      "stateMutability": "nonpayable",
      "type": "function"
    },
    {
      "inputs": [],
      "name": "rollupVerifier",
      "outputs": [
        {
          "internalType": "contract IVerifierRollup",
          "name": "",
          "type": "address"
        }
      ],
      "stateMutability": "view",
      "type": "function"
    },
    {
      "inputs": [
        {
          "components": [
            {
              "internalType": "bytes",
              "name": "transactions",
              "type": "bytes"
            },
            {
              "internalType": "bytes32",
              "name": "globalExitRoot",
              "type": "bytes32"
            },
            {
              "internalType": "uint64",
              "name": "timestamp",
              "type": "uint64"
            },
            {
              "internalType": "uint64",
              "name": "minForcedTimestamp",
              "type": "uint64"
            }
          ],
          "internalType": "struct PolygonZkEVM.BatchData[]",
          "name": "batches",
          "type": "tuple[]"
        },
        {
          "internalType": "address",
          "name": "l2Coinbase",
          "type": "address"
        }
      ],
      "name": "sequenceBatches",
      "outputs": [],
      "stateMutability": "nonpayable",
      "type": "function"
    },
    {
      "inputs": [
        {
          "components": [
            {
              "internalType": "bytes",
              "name": "transactions",
              "type": "bytes"
            },
            {
              "internalType": "bytes32",
              "name": "globalExitRoot",
              "type": "bytes32"
            },
            {
              "internalType": "uint64",
              "name": "minForcedTimestamp",
              "type": "uint64"
            }
          ],
          "internalType": "struct PolygonZkEVM.ForcedBatchData[]",
          "name": "batches",
          "type": "tuple[]"
        }
      ],
      "name": "sequenceForceBatches",
      "outputs": [],
      "stateMutability": "nonpayable",
      "type": "function"
    },
    {
      "inputs": [
        {
          "internalType": "uint64",
          "name": "",
          "type": "uint64"
        }
      ],
      "name": "sequencedBatches",
      "outputs": [
        {
          "internalType": "bytes32",
          "name": "accInputHash",
          "type": "bytes32"
        },
        {
          "internalType": "uint64",
          "name": "sequencedTimestamp",
          "type": "uint64"
        },
        {
          "internalType": "uint64",
          "name": "previousLastBatchSequenced",
          "type": "uint64"
        }
      ],
      "stateMutability": "view",
      "type": "function"
    },
    {
      "inputs": [
        {
          "internalType": "uint64",
          "name": "newforceBatchTimeout",
          "type": "uint64"
        }
      ],
      "name": "setForceBatchTimeout",
      "outputs": [],
      "stateMutability": "nonpayable",
      "type": "function"
    },
    {
      "inputs": [
        {
          "internalType": "uint16",
          "name": "newMultiplierBatchFee",
          "type": "uint16"
        }
      ],
      "name": "setMultiplierBatchFee",
      "outputs": [],
      "stateMutability": "nonpayable",
      "type": "function"
    },
    {
      "inputs": [
        {
          "internalType": "uint64",
          "name": "newPendingStateTimeout",
          "type": "uint64"
        }
      ],
      "name": "setPendingStateTimeout",
      "outputs": [],
      "stateMutability": "nonpayable",
      "type": "function"
    },
    {
      "inputs": [
        {
          "internalType": "address",
          "name": "newTrustedAggregator",
          "type": "address"
        }
      ],
      "name": "setTrustedAggregator",
      "outputs": [],
      "stateMutability": "nonpayable",
      "type": "function"
    },
    {
      "inputs": [
        {
          "internalType": "uint64",
          "name": "newTrustedAggregatorTimeout",
          "type": "uint64"
        }
      ],
      "name": "setTrustedAggregatorTimeout",
      "outputs": [],
      "stateMutability": "nonpayable",
      "type": "function"
    },
    {
      "inputs": [
        {
          "internalType": "address",
          "name": "newTrustedSequencer",
          "type": "address"
        }
      ],
      "name": "setTrustedSequencer",
      "outputs": [],
      "stateMutability": "nonpayable",
      "type": "function"
    },
    {
      "inputs": [
        {
          "internalType": "string",
          "name": "newTrustedSequencerURL",
          "type": "string"
        }
      ],
      "name": "setTrustedSequencerURL",
      "outputs": [],
      "stateMutability": "nonpayable",
      "type": "function"
    },
    {
      "inputs": [
        {
          "internalType": "uint64",
          "name": "newVerifyBatchTimeTarget",
          "type": "uint64"
        }
      ],
      "name": "setVerifyBatchTimeTarget",
      "outputs": [],
      "stateMutability": "nonpayable",
      "type": "function"
    },
    {
      "inputs": [
        {
          "internalType": "address",
          "name": "newPendingAdmin",
          "type": "address"
        }
      ],
      "name": "transferAdminRole",
      "outputs": [],
      "stateMutability": "nonpayable",
      "type": "function"
    },
    {
      "inputs": [
        {
          "internalType": "address",
          "name": "newOwner",
          "type": "address"
        }
      ],
      "name": "transferOwnership",
      "outputs": [],
      "stateMutability": "nonpayable",
      "type": "function"
    },
    {
      "inputs": [],
      "name": "trustedAggregator",
      "outputs": [
        {
          "internalType": "address",
          "name": "",
          "type": "address"
        }
      ],
      "stateMutability": "view",
      "type": "function"
    },
    {
      "inputs": [],
      "name": "trustedAggregatorTimeout",
      "outputs": [
        {
          "internalType": "uint64",
          "name": "",
          "type": "uint64"
        }
      ],
      "stateMutability": "view",
      "type": "function"
    },
    {
      "inputs": [],
      "name": "trustedSequencer",
      "outputs": [
        {
          "internalType": "address",
          "name": "",
          "type": "address"
        }
      ],
      "stateMutability": "view",
      "type": "function"
    },
    {
      "inputs": [],
      "name": "trustedSequencerURL",
      "outputs": [
        {
          "internalType": "string",
          "name": "",
          "type": "string"
        }
      ],
      "stateMutability": "view",
      "type": "function"
    },
    {
      "inputs": [],
      "name": "verifyBatchTimeTarget",
      "outputs": [
        {
          "internalType": "uint64",
          "name": "",
          "type": "uint64"
        }
      ],
      "stateMutability": "view",
      "type": "function"
    },
    {
      "inputs": [
        {
          "internalType": "uint64",
          "name": "pendingStateNum",
          "type": "uint64"
        },
        {
          "internalType": "uint64",
          "name": "initNumBatch",
          "type": "uint64"
        },
        {
          "internalType": "uint64",
          "name": "finalNewBatch",
          "type": "uint64"
        },
        {
          "internalType": "bytes32",
          "name": "newLocalExitRoot",
          "type": "bytes32"
        },
        {
          "internalType": "bytes32",
          "name": "newStateRoot",
          "type": "bytes32"
        },
        {
          "internalType": "bytes32[24]",
          "name": "proof",
          "type": "bytes32[24]"
        }
      ],
      "name": "verifyBatches",
      "outputs": [],
      "stateMutability": "nonpayable",
      "type": "function"
    },
    {
      "inputs": [
        {
          "internalType": "uint64",
          "name": "pendingStateNum",
          "type": "uint64"
        },
        {
          "internalType": "uint64",
          "name": "initNumBatch",
          "type": "uint64"
        },
        {
          "internalType": "uint64",
          "name": "finalNewBatch",
          "type": "uint64"
        },
        {
          "internalType": "bytes32",
          "name": "newLocalExitRoot",
          "type": "bytes32"
        },
        {
          "internalType": "bytes32",
          "name": "newStateRoot",
          "type": "bytes32"
        },
        {
          "internalType": "bytes32[24]",
          "name": "proof",
          "type": "bytes32[24]"
        }
      ],
      "name": "verifyBatchesTrustedAggregator",
      "outputs": [],
      "stateMutability": "nonpayable",
      "type": "function"
    }
  ],
  "bytecode": "0x610140604052348015610010575f5ffd5b50604051615fb8380380615fb883398101604081905261002f9161009a565b6001600160a01b0395861660c05293851660805291841660a05290921660e0526001600160401b03918216610100521661012052610115565b6001600160a01b038116811461007c575f5ffd5b50565b80516001600160401b0381168114610095575f5ffd5b919050565b5f5f5f5f5f5f60c087890312156100af575f5ffd5b86516100ba81610068565b60208801519096506100cb81610068565b60408801519095506100dc81610068565b60608801519094506100ed81610068565b92506100fb6080880161007f565b915061010960a0880161007f565b90509295509295509295565b60805160a05160c05160e0516101005161012051615dde6101da5f395f818161068201528181610d6201526130bc01525f81816107ee0152610d4101525f81816107b401528181611cff015281816137420152614b9401525f818161095901528181610ece01528181611099015281816118f6015281816120cd01528181613923015261466c01525f8181610a0601528181613fd5015261442301525f81816108a901528181611ccd015281816125b2015281816138f801526140c10152615dde5ff3fe608060405234801561000f575f5ffd5b50600436106103a9575f3560e01c8063841b24d7116101ea578063c754c7ed11610114578063e7a7ed02116100a9578063f14916d611610079578063f14916d614610a68578063f2fde38b14610a7b578063f851a44014610a8e578063f8b823e414610aae575f5ffd5b8063e7a7ed02146109d1578063e8bf92ed14610a01578063eaeb077b14610a28578063ed6b010414610a3b575f5ffd5b8063d2e129f9116100e4578063d2e129f91461097b578063d8d1091b1461098e578063d939b315146109a1578063dbc16976146109c9575f5ffd5b8063c754c7ed146108e6578063c89e42df14610912578063cfa8ed4714610925578063d02103ca14610954575f5ffd5b8063a3c573eb1161018a578063b4d63f581161015a578063b4d63f581461083e578063b6b0b097146108a4578063ba58ae39146108cb578063c0ed84e0146108de575f5ffd5b8063a3c573eb146107af578063ada8f919146107d6578063adc879e9146107e9578063afd23cbe14610810575f5ffd5b806399f5634e116101c557806399f5634e1461076e5780639aa972a3146107765780639c9f3dfe14610789578063a066215c1461079c575f5ffd5b8063841b24d7146107185780638c3d7301146107485780638da5cb5b14610750575f5ffd5b80634a1a89a7116102d6578063621dd4111161026b5780637215541a1161023b5780637215541a146106565780637fcb365314610669578063831c7ead1461067d578063837a4738146106a4575f5ffd5b8063621dd411146106095780636b8616ce1461061c5780636ff512cc1461063b578063715018a61461064e575f5ffd5b8063542028d5116102a6578063542028d5146105de5780635e9145c9146105e65780635ec91958146105f95780636046916914610601575f5ffd5b80634a1a89a71461056b5780634a910e6a1461058b5780634e4877061461059e5780635392c5e0146105b1575f5ffd5b8063298789831161034c578063394218e91161031c578063394218e9146104fc578063423fa8561461050f578063456052671461052f578063458c047714610557575f5ffd5b806329878983146104975780632b0006fa146104c35780632c1f816a146104d6578063383b3be8146104e9575f5ffd5b80631816b7e5116103875780631816b7e51461041657806319d8ac611461042b578063220d78991461043f5780632678224714610452575f5ffd5b80630a0d9fbe146103ad578063107bf28c146103e457806315064c96146103f9575b5f5ffd5b606f546103c690610100900467ffffffffffffffff1681565b60405167ffffffffffffffff90911681526020015b60405180910390f35b6103ec610ab7565b6040516103db919061518f565b606f546104069060ff1681565b60405190151581526020016103db565b6104296104243660046151a8565b610b43565b005b6073546103c69067ffffffffffffffff1681565b6103ec61044d3660046151e0565b610c5b565b607b546104729073ffffffffffffffffffffffffffffffffffffffff1681565b60405173ffffffffffffffffffffffffffffffffffffffff90911681526020016103db565b6074546104729068010000000000000000900473ffffffffffffffffffffffffffffffffffffffff1681565b6104296104d1366004615240565b610dba565b6104296104e43660046152a4565b610f84565b6104066104f7366004615319565b61118c565b61042961050a366004615319565b6111e1565b6073546103c69068010000000000000000900467ffffffffffffffff1681565b6073546103c690700100000000000000000000000000000000900467ffffffffffffffff1681565b6079546103c69067ffffffffffffffff1681565b6079546103c69068010000000000000000900467ffffffffffffffff1681565b610429610599366004615319565b611365565b6104296105ac366004615319565b611418565b6105d06105bf366004615319565b60756020525f908152604090205481565b6040519081526020016103db565b6103ec61159c565b6104296105f436600461539d565b6115a9565b610429611db8565b6105d0611eb7565b610429610617366004615240565b611ecc565b6105d061062a366004615319565b60716020525f908152604090205481565b6104296106493660046153ed565b61224a565b61042961231f565b610429610664366004615319565b612332565b6074546103c69067ffffffffffffffff1681565b6103c67f000000000000000000000000000000000000000000000000000000000000000081565b6106ec6106b2366004615406565b60786020525f908152604090208054600182015460029092015467ffffffffffffffff808316936801000000000000000090930416919084565b6040805167ffffffffffffffff95861681529490931660208501529183015260608201526080016103db565b6079546103c6907801000000000000000000000000000000000000000000000000900467ffffffffffffffff1681565b61042961249f565b60335473ffffffffffffffffffffffffffffffffffffffff16610472565b6105d061256b565b6104296107843660046152a4565b6126be565b610429610797366004615319565b61276e565b6104296107aa366004615319565b6128ea565b6104727f000000000000000000000000000000000000000000000000000000000000000081565b6104296107e43660046153ed565b6129f0565b6103c67f000000000000000000000000000000000000000000000000000000000000000081565b606f5461082b906901000000000000000000900461ffff1681565b60405161ffff90911681526020016103db565b61087e61084c366004615319565b60726020525f90815260409020805460019091015467ffffffffffffffff808216916801000000000000000090041683565b6040805193845267ffffffffffffffff92831660208501529116908201526060016103db565b6104727f000000000000000000000000000000000000000000000000000000000000000081565b6104066108d9366004615406565b612ab4565b6103c6612b3c565b607b546103c69074010000000000000000000000000000000000000000900467ffffffffffffffff1681565b6104296109203660046154f9565b612b8f565b606f54610472906b010000000000000000000000900473ffffffffffffffffffffffffffffffffffffffff1681565b6104727f000000000000000000000000000000000000000000000000000000000000000081565b610429610989366004615569565b612c1c565b61042961099c366004615620565b61315f565b6079546103c690700100000000000000000000000000000000900467ffffffffffffffff1681565b6104296136ef565b6073546103c6907801000000000000000000000000000000000000000000000000900467ffffffffffffffff1681565b6104727f000000000000000000000000000000000000000000000000000000000000000081565b610429610a3636600461565f565b6137c3565b607b54610406907c0100000000000000000000000000000000000000000000000000000000900460ff1681565b610429610a763660046153ed565b613bb3565b610429610a893660046153ed565b613c85565b607a546104729073ffffffffffffffffffffffffffffffffffffffff1681565b6105d060705481565b60778054610ac4906156a7565b80601f0160208091040260200160405190810160405280929190818152602001828054610af0906156a7565b8015610b3b5780601f10610b1257610100808354040283529160200191610b3b565b820191905f5260205f20905b815481529060010190602001808311610b1e57829003601f168201915b505050505081565b607a5473ffffffffffffffffffffffffffffffffffffffff163314610b94576040517f4755657900000000000000000000000000000000000000000000000000000000815260040160405180910390fd5b6103e88161ffff161080610bad57506103ff8161ffff16115b15610be4576040517f4c2533c800000000000000000000000000000000000000000000000000000000815260040160405180910390fd5b606f80547fffffffffffffffffffffffffffffffffffffffffff0000ffffffffffffffffff16690100000000000000000061ffff8416908102919091179091556040519081527f7019933d795eba185c180209e8ae8bffbaa25bcef293364687702c31f4d302c5906020015b60405180910390a150565b67ffffffffffffffff8086165f818152607260205260408082205493881682529020546060929115801590610c8e575081155b15610cc5576040517f6818c29e00000000000000000000000000000000000000000000000000000000815260040160405180910390fd5b80610cfc576040517f66385b5100000000000000000000000000000000000000000000000000000000815260040160405180910390fd5b610d0584612ab4565b610d3b576040517f176b913c00000000000000000000000000000000000000000000000000000000815260040160405180910390fd5b3385838a7f00000000000000000000000000000000000000000000000000000000000000007f000000000000000000000000000000000000000000000000000000000000000089878d8f604051602001610d9e9a999897969594939291906156f8565b6040516020818303038152906040529250505095945050505050565b60745468010000000000000000900473ffffffffffffffffffffffffffffffffffffffff163314610e17576040517fbbcbbc0500000000000000000000000000000000000000000000000000000000815260040160405180910390fd5b610e25868686868686613d39565b607480547fffffffffffffffffffffffffffffffffffffffffffffffff00000000000000001667ffffffffffffffff8681169182179092555f9081526075602052604090208390556079541615610e9f57607980547fffffffffffffffffffffffffffffffff000000000000000000000000000000001690555b6040517f33d6247d000000000000000000000000000000000000000000000000000000008152600481018490527f000000000000000000000000000000000000000000000000000000000000000073ffffffffffffffffffffffffffffffffffffffff16906333d6247d906024015f604051808303815f87803b158015610f24575f5ffd5b505af1158015610f36573d5f5f3e3d5ffd5b505060405184815233925067ffffffffffffffff871691507fcb339b570a7f0b25afa7333371ff11192092a0aeace12b671f4c212f2815c6fe906020015b60405180910390a3505050505050565b60745468010000000000000000900473ffffffffffffffffffffffffffffffffffffffff163314610fe1576040517fbbcbbc0500000000000000000000000000000000000000000000000000000000815260040160405180910390fd5b610ff0878787878787876140f4565b607480547fffffffffffffffffffffffffffffffffffffffffffffffff00000000000000001667ffffffffffffffff8681169182179092555f908152607560205260409020839055607954161561106a57607980547fffffffffffffffffffffffffffffffff000000000000000000000000000000001690555b6040517f33d6247d000000000000000000000000000000000000000000000000000000008152600481018490527f000000000000000000000000000000000000000000000000000000000000000073ffffffffffffffffffffffffffffffffffffffff16906333d6247d906024015f604051808303815f87803b1580156110ef575f5ffd5b505af1158015611101573d5f5f3e3d5ffd5b50506079805477ffffffffffffffffffffffffffffffffffffffffffffffff167a093a800000000000000000000000000000000000000000000000001790555050604051828152339067ffffffffffffffff8616907fcc1b5520188bf1dd3e63f98164b577c4d75c11a619ddea692112f0d1aec4cf729060200160405180910390a350505050505050565b60795467ffffffffffffffff8281165f90815260786020526040812054909242926111cf927001000000000000000000000000000000009092048116911661582e565b67ffffffffffffffff16111592915050565b607a5473ffffffffffffffffffffffffffffffffffffffff163314611232576040517f4755657900000000000000000000000000000000000000000000000000000000815260040160405180910390fd5b62093a8067ffffffffffffffff82161115611279576040517f1d06e87900000000000000000000000000000000000000000000000000000000815260040160405180910390fd5b606f5460ff166112e85760795467ffffffffffffffff78010000000000000000000000000000000000000000000000009091048116908216106112e8576040517f401636df00000000000000000000000000000000000000000000000000000000815260040160405180910390fd5b6079805477ffffffffffffffffffffffffffffffffffffffffffffffff16780100000000000000000000000000000000000000000000000067ffffffffffffffff8416908102919091179091556040519081527f1f4fa24c2e4bad19a7f3ec5c5485f70d46c798461c2e684f55bbd0fc661373a190602001610c50565b60745468010000000000000000900473ffffffffffffffffffffffffffffffffffffffff16331461140c57606f5460ff16156113cd576040517f2f0047fc00000000000000000000000000000000000000000000000000000000815260040160405180910390fd5b6113d68161118c565b61140c576040517f0ce9e4a200000000000000000000000000000000000000000000000000000000815260040160405180910390fd5b61141581614523565b50565b607a5473ffffffffffffffffffffffffffffffffffffffff163314611469576040517f4755657900000000000000000000000000000000000000000000000000000000815260040160405180910390fd5b62093a8067ffffffffffffffff821611156114b0576040517ff5e37f2f00000000000000000000000000000000000000000000000000000000815260040160405180910390fd5b606f5460ff1661151b57607b5467ffffffffffffffff7401000000000000000000000000000000000000000090910481169082161061151b576040517ff5e37f2f00000000000000000000000000000000000000000000000000000000815260040160405180910390fd5b607b80547fffffffff0000000000000000ffffffffffffffffffffffffffffffffffffffff167401000000000000000000000000000000000000000067ffffffffffffffff8416908102919091179091556040519081527fa7eb6cb8a613eb4e8bddc1ac3d61ec6cf10898760f0b187bcca794c6ca6fa40b90602001610c50565b60768054610ac4906156a7565b606f5460ff16156115e6576040517f2f0047fc00000000000000000000000000000000000000000000000000000000815260040160405180910390fd5b606f546b010000000000000000000000900473ffffffffffffffffffffffffffffffffffffffff163314611646576040517f11e7be1500000000000000000000000000000000000000000000000000000000815260040160405180910390fd5b815f819003611681576040517fcb591a5f00000000000000000000000000000000000000000000000000000000815260040160405180910390fd5b6103e88111156116bd576040517fb59f753a00000000000000000000000000000000000000000000000000000000815260040160405180910390fd5b60735467ffffffffffffffff68010000000000000000820481165f81815260726020526040812054838516949293700100000000000000000000000000000000909304909216919082905b86811015611b1b575f8a8a838181106117235761172361584e565b9050602002810190611735919061587b565b61173e906158b7565b8051805160209091012060608201519192509067ffffffffffffffff16156118b3578561176a81615944565b9650505f81836020015184606001516040516020016117c193929190928352602083019190915260c01b7fffffffffffffffff00000000000000000000000000000000000000000000000016604082015260480190565b604080517fffffffffffffffffffffffffffffffffffffffffffffffffffffffffffffffe0818403018152918152815160209283012067ffffffffffffffff8a165f90815260719093529120549091508114611849576040517fce3d755e00000000000000000000000000000000000000000000000000000000815260040160405180910390fd5b67ffffffffffffffff8088165f9081526071602052604080822091909155606085015190850151908216911610156118ad576040517f7f7ab87200000000000000000000000000000000000000000000000000000000815260040160405180910390fd5b506119ed565b602082015115801590611977575060208201516040517f257b363200000000000000000000000000000000000000000000000000000000815260048101919091527f000000000000000000000000000000000000000000000000000000000000000073ffffffffffffffffffffffffffffffffffffffff169063257b3632906024016020604051808303815f875af1158015611951573d5f5f3e3d5ffd5b505050506040513d601f19601f820116820180604052508101906119759190615970565b155b156119ae576040517f73bd668d00000000000000000000000000000000000000000000000000000000815260040160405180910390fd5b8151516201d4c010156119ed576040517fa29a6c7c00000000000000000000000000000000000000000000000000000000815260040160405180910390fd5b8767ffffffffffffffff16826040015167ffffffffffffffff161080611a20575042826040015167ffffffffffffffff16115b15611a57576040517fea82791600000000000000000000000000000000000000000000000000000000815260040160405180910390fd5b602082810151604080850151815193840189905290830184905260608084019290925260c01b7fffffffffffffffff0000000000000000000000000000000000000000000000001660808301528b901b7fffffffffffffffffffffffffffffffffffffffff000000000000000000000000166088820152609c01604080517fffffffffffffffffffffffffffffffffffffffffffffffffffffffffffffffe08184030181529181528151602090920191909120920151975090935050600101611708565b50611b26868561582e565b60735490945067ffffffffffffffff780100000000000000000000000000000000000000000000000090910481169084161115611b8f576040517fc630a00d00000000000000000000000000000000000000000000000000000000815260040160405180910390fd5b5f611b9a8285615987565b611bae9067ffffffffffffffff16886159a7565b604080516060810182528581524267ffffffffffffffff908116602080840191825260738054680100000000000000009081900485168688019081528d86165f8181526072909552979093209551865592516001909501805492519585167fffffffffffffffffffffffffffffffff000000000000000000000000000000009384161795851684029590951790945583548c8416911617930292909217905590915082811690851614611ca357607380547fffffffffffffffff0000000000000000ffffffffffffffffffffffffffffffff1670010000000000000000000000000000000067ffffffffffffffff8716021790555b611cf5333083607054611cb691906159ba565b73ffffffffffffffffffffffffffffffffffffffff7f000000000000000000000000000000000000000000000000000000000000000016929190614730565b611cfd614812565b7f000000000000000000000000000000000000000000000000000000000000000073ffffffffffffffffffffffffffffffffffffffff166379e2cf976040518163ffffffff1660e01b81526004015f604051808303815f87803b158015611d62575f5ffd5b505af1158015611d74573d5f5f3e3d5ffd5b505060405167ffffffffffffffff881692507f303446e6a8cb73c83dff421c0b1d5e5ce0719dab1bff13660fc254e58cc17fce91505f90a250505050505050505050565b607a5473ffffffffffffffffffffffffffffffffffffffff163314611e09576040517f4755657900000000000000000000000000000000000000000000000000000000815260040160405180910390fd5b607b547c0100000000000000000000000000000000000000000000000000000000900460ff16611e65576040517ff6ba91a100000000000000000000000000000000000000000000000000000000815260040160405180910390fd5b607b80547fffffff00ffffffffffffffffffffffffffffffffffffffffffffffffffffffff1690556040517f854dd6ce5a1445c4c54388b21cffd11cf5bba1b9e763aec48ce3da75d617412f905f90a1565b5f6070546064611ec791906159ba565b905090565b606f5460ff1615611f09576040517f2f0047fc00000000000000000000000000000000000000000000000000000000815260040160405180910390fd5b60795467ffffffffffffffff8581165f908152607260205260409020600101544292611f559278010000000000000000000000000000000000000000000000009091048116911661582e565b67ffffffffffffffff161115611f97576040517f8a0704d300000000000000000000000000000000000000000000000000000000815260040160405180910390fd5b6103e8611fa48686615987565b67ffffffffffffffff161115611fe6576040517fb59f753a00000000000000000000000000000000000000000000000000000000815260040160405180910390fd5b611ff4868686868686613d39565b611ffd846148c1565b607954700100000000000000000000000000000000900467ffffffffffffffff165f0361213e57607480547fffffffffffffffffffffffffffffffffffffffffffffffff00000000000000001667ffffffffffffffff8681169182179092555f908152607560205260409020839055607954161561209e57607980547fffffffffffffffffffffffffffffffff000000000000000000000000000000001690555b6040517f33d6247d000000000000000000000000000000000000000000000000000000008152600481018490527f000000000000000000000000000000000000000000000000000000000000000073ffffffffffffffffffffffffffffffffffffffff16906333d6247d906024015f604051808303815f87803b158015612123575f5ffd5b505af1158015612135573d5f5f3e3d5ffd5b5050505061220c565b612146614812565b6079805467ffffffffffffffff16905f61215f83615944565b825467ffffffffffffffff9182166101009390930a92830292820219169190911790915560408051608081018252428316815287831660208083019182528284018981526060840189815260795487165f908152607890935294909120925183549251861668010000000000000000027fffffffffffffffffffffffffffffffff000000000000000000000000000000009093169516949094171781559151600183015551600290910155505b604051828152339067ffffffffffffffff8616907f9c72852172521097ba7e1482e6b44b351323df0155f97f4ea18fcec28e1f596690602001610f74565b607a5473ffffffffffffffffffffffffffffffffffffffff16331461229b576040517f4755657900000000000000000000000000000000000000000000000000000000815260040160405180910390fd5b606f80547fff0000000000000000000000000000000000000000ffffffffffffffffffffff166b01000000000000000000000073ffffffffffffffffffffffffffffffffffffffff8416908102919091179091556040519081527ff54144f9611984021529f814a1cb6a41e22c58351510a0d9f7e822618abb9cc090602001610c50565b612327614a9b565b6123305f614b1c565b565b60335473ffffffffffffffffffffffffffffffffffffffff163314612497575f61235a612b3c565b90508067ffffffffffffffff168267ffffffffffffffff16116123a9576040517f812a372d00000000000000000000000000000000000000000000000000000000815260040160405180910390fd5b60735467ffffffffffffffff68010000000000000000909104811690831611806123ee575067ffffffffffffffff8083165f9081526072602052604090206001015416155b15612425576040517f98c5c01400000000000000000000000000000000000000000000000000000000815260040160405180910390fd5b67ffffffffffffffff8083165f9081526072602052604090206001015442916124539162093a80911661582e565b67ffffffffffffffff161115612495576040517fd257555a00000000000000000000000000000000000000000000000000000000815260040160405180910390fd5b505b611415614b92565b607b5473ffffffffffffffffffffffffffffffffffffffff1633146124f0576040517fd1ec4b2300000000000000000000000000000000000000000000000000000000815260040160405180910390fd5b607b54607a80547fffffffffffffffffffffffff00000000000000000000000000000000000000001673ffffffffffffffffffffffffffffffffffffffff90921691821790556040519081527f056dc487bbf0795d0bbb1b4f0af523a855503cff740bfb4d5475f7a90c091e8e9060200160405180910390a1565b6040517f70a082310000000000000000000000000000000000000000000000000000000081523060048201525f90819073ffffffffffffffffffffffffffffffffffffffff7f000000000000000000000000000000000000000000000000000000000000000016906370a0823190602401602060405180830381865afa1580156125f7573d5f5f3e3d5ffd5b505050506040513d601f19601f8201168201806040525081019061261b9190615970565b90505f612626612b3c565b60735467ffffffffffffffff68010000000000000000820481169161267e9170010000000000000000000000000000000082048116917801000000000000000000000000000000000000000000000000900416615987565b612688919061582e565b6126929190615987565b67ffffffffffffffff169050805f036126ad575f9250505090565b6126b781836159fe565b9250505090565b606f5460ff16156126fb576040517f2f0047fc00000000000000000000000000000000000000000000000000000000815260040160405180910390fd5b61270a878787878787876140f4565b67ffffffffffffffff84165f908152607560209081526040918290205482519081529081018490527f1f44c21118c4603cfb4e1b621dbcfa2b73efcececee2b99b620b2953d33a7010910160405180910390a1612765614b92565b50505050505050565b607a5473ffffffffffffffffffffffffffffffffffffffff1633146127bf576040517f4755657900000000000000000000000000000000000000000000000000000000815260040160405180910390fd5b62093a8067ffffffffffffffff82161115612806576040517fcc96507000000000000000000000000000000000000000000000000000000000815260040160405180910390fd5b606f5460ff1661286d5760795467ffffffffffffffff70010000000000000000000000000000000090910481169082161061286d576040517f48a05a9000000000000000000000000000000000000000000000000000000000815260040160405180910390fd5b607980547fffffffffffffffff0000000000000000ffffffffffffffffffffffffffffffff1670010000000000000000000000000000000067ffffffffffffffff8416908102919091179091556040519081527fc4121f4e22c69632ebb7cf1f462be0511dc034f999b52013eddfb24aab765c7590602001610c50565b607a5473ffffffffffffffffffffffffffffffffffffffff16331461293b576040517f4755657900000000000000000000000000000000000000000000000000000000815260040160405180910390fd5b620151808167ffffffffffffffff161115612982576040517fe067dfe800000000000000000000000000000000000000000000000000000000815260040160405180910390fd5b606f80547fffffffffffffffffffffffffffffffffffffffffffffff0000000000000000ff1661010067ffffffffffffffff8416908102919091179091556040519081527f1b023231a1ab6b5d93992f168fb44498e1a7e64cef58daff6f1c216de6a68c2890602001610c50565b607a5473ffffffffffffffffffffffffffffffffffffffff163314612a41576040517f4755657900000000000000000000000000000000000000000000000000000000815260040160405180910390fd5b607b80547fffffffffffffffffffffffff00000000000000000000000000000000000000001673ffffffffffffffffffffffffffffffffffffffff83169081179091556040519081527fa5b56b7906fd0a20e3f35120dd8343db1e12e037a6c90111c7e42885e82a1ce690602001610c50565b5f67ffffffff0000000167ffffffffffffffff8316108015612aeb575067ffffffff00000001604083901c67ffffffffffffffff16105b8015612b0c575067ffffffff00000001608083901c67ffffffffffffffff16105b8015612b23575067ffffffff0000000160c083901c105b15612b3057506001919050565b505f919050565b919050565b6079545f9067ffffffffffffffff1615612b7e575060795467ffffffffffffffff9081165f908152607860205260409020546801000000000000000090041690565b5060745467ffffffffffffffff1690565b607a5473ffffffffffffffffffffffffffffffffffffffff163314612be0576040517f4755657900000000000000000000000000000000000000000000000000000000815260040160405180910390fd5b6076612bec8282615a55565b507f6b8f723a4c7a5335cafae8a598a0aa0301be1387c037dccc085b62add6448b2081604051610c50919061518f565b5f54610100900460ff1615808015612c3a57505f54600160ff909116105b80612c535750303b158015612c5357505f5460ff166001145b612ce4576040517f08c379a000000000000000000000000000000000000000000000000000000000815260206004820152602e60248201527f496e697469616c697a61626c653a20636f6e747261637420697320616c72656160448201527f647920696e697469616c697a656400000000000000000000000000000000000060648201526084015b60405180910390fd5b5f80547fffffffffffffffffffffffffffffffffffffffffffffffffffffffffffffff001660011790558015612d40575f80547fffffffffffffffffffffffffffffffffffffffffffffffffffffffffffff00ff166101001790555b612d4d60208801886153ed565b607a80547fffffffffffffffffffffffff00000000000000000000000000000000000000001673ffffffffffffffffffffffffffffffffffffffff92909216919091179055612da260408801602089016153ed565b606f805473ffffffffffffffffffffffffffffffffffffffff929092166b010000000000000000000000027fff0000000000000000000000000000000000000000ffffffffffffffffffffff909216919091179055612e0760808801606089016153ed565b6074805473ffffffffffffffffffffffffffffffffffffffff9290921668010000000000000000027fffffffff0000000000000000000000000000000000000000ffffffffffffffff9092169190911790555f805260756020527ff9e3fbf150b7a0077118526f473c53cb4734f166167e2c6213e3567dd390b4ad8690556076612e918682615a55565b506077612e9e8582615a55565b5062093a80612eb36060890160408a01615319565b67ffffffffffffffff161115612ef5576040517fcc96507000000000000000000000000000000000000000000000000000000000815260040160405180910390fd5b612f056060880160408901615319565b6079805467ffffffffffffffff92909216700100000000000000000000000000000000027fffffffffffffffff0000000000000000ffffffffffffffffffffffffffffffff90921691909117905562093a80612f6760a0890160808a01615319565b67ffffffffffffffff161115612fa9576040517f1d06e87900000000000000000000000000000000000000000000000000000000815260040160405180910390fd5b612fb960a0880160808901615319565b6079805477ffffffffffffffffffffffffffffffffffffffffffffffff16780100000000000000000000000000000000000000000000000067ffffffffffffffff939093169290920291909117905567016345785d8a0000607055606f80547fffffffffffffffffffffffffffffffffffffffffff00000000000000000000ff166a03ea000000000000070800179055607b80547fffffff000000000000000000ffffffffffffffffffffffffffffffffffffffff167c0100000000000697800000000000000000000000000000000000000000179055613098614c15565b7fed7be53c9f1a96a481223b15568a5b1a475e01a74b347d6ca187c8bf0c078cd65f7f000000000000000000000000000000000000000000000000000000000000000085856040516130ed9493929190615bb3565b60405180910390a18015612765575f80547fffffffffffffffffffffffffffffffffffffffffffffffffffffffffffff00ff169055604051600181527f7f26b83ff96e1f2b6a682f133852f6798a09c465da95921460cefb38474024989060200160405180910390a150505050505050565b607b547c0100000000000000000000000000000000000000000000000000000000900460ff16156131bc576040517f24eff8c300000000000000000000000000000000000000000000000000000000815260040160405180910390fd5b606f5460ff16156131f9576040517f2f0047fc00000000000000000000000000000000000000000000000000000000815260040160405180910390fd5b805f819003613234576040517fcb591a5f00000000000000000000000000000000000000000000000000000000815260040160405180910390fd5b6103e8811115613270576040517fb59f753a00000000000000000000000000000000000000000000000000000000815260040160405180910390fd5b60735467ffffffffffffffff780100000000000000000000000000000000000000000000000082048116916132bb918491700100000000000000000000000000000000900416615bf0565b11156132f3576040517fc630a00d00000000000000000000000000000000000000000000000000000000815260040160405180910390fd5b60735467ffffffffffffffff68010000000000000000820481165f8181526072602052604081205491937001000000000000000000000000000000009004909216915b8481101561358d575f8787838181106133515761335161584e565b90506020028101906133639190615c03565b61336c90615c35565b90508361337881615944565b825180516020918201208185015160408087015190519499509194505f936133d99386939101928352602083019190915260c01b7fffffffffffffffff00000000000000000000000000000000000000000000000016604082015260480190565b604080517fffffffffffffffffffffffffffffffffffffffffffffffffffffffffffffffe0818403018152918152815160209283012067ffffffffffffffff89165f90815260719093529120549091508114613461576040517fce3d755e00000000000000000000000000000000000000000000000000000000815260040160405180910390fd5b67ffffffffffffffff86165f908152607160205260408120556134856001896159a7565b84036134f45742607b60149054906101000a900467ffffffffffffffff1684604001516134b2919061582e565b67ffffffffffffffff1611156134f4576040517fc44a082100000000000000000000000000000000000000000000000000000000815260040160405180910390fd5b506020918201516040805180850196909652858101929092526060808601919091524260c01b7fffffffffffffffff00000000000000000000000000000000000000000000000016608086015233901b7fffffffffffffffffffffffffffffffffffffffff0000000000000000000000001660888501528051808503607c018152609c9094019052825192019190912090600101613336565b50613598848461582e565b6073805467ffffffffffffffff4281167fffffffffffffffffffffffffffffffffffffffffffffffff00000000000000009092168217808455604080516060810182528781526020808201958652680100000000000000009384900485168284019081528589165f818152607290935284832093518455965160019390930180549151871686027fffffffffffffffffffffffffffffffff0000000000000000000000000000000090921693871693909317179091558554938916700100000000000000000000000000000000027fffffffffffffffff0000000000000000ffffffffffffffffffffffffffffffff938602939093167fffffffffffffffff00000000000000000000000000000000ffffffffffffffff90941693909317919091179093559151929550917f648a61dd2438f072f5a1960939abd30f37aea80d2e94c9792ad142d3e0a490a49190a2505050505050565b607a5473ffffffffffffffffffffffffffffffffffffffff163314613740576040517f4755657900000000000000000000000000000000000000000000000000000000815260040160405180910390fd5b7f000000000000000000000000000000000000000000000000000000000000000073ffffffffffffffffffffffffffffffffffffffff1663dbc169766040518163ffffffff1660e01b81526004015f604051808303815f87803b1580156137a5575f5ffd5b505af11580156137b7573d5f5f3e3d5ffd5b50505050612330614cb4565b607b547c0100000000000000000000000000000000000000000000000000000000900460ff1615613820576040517f24eff8c300000000000000000000000000000000000000000000000000000000815260040160405180910390fd5b606f5460ff161561385d576040517f2f0047fc00000000000000000000000000000000000000000000000000000000815260040160405180910390fd5b5f613866611eb7565b9050818111156138a2576040517f4732fdb500000000000000000000000000000000000000000000000000000000815260040160405180910390fd5b6113888311156138de576040517fa29a6c7c00000000000000000000000000000000000000000000000000000000815260040160405180910390fd5b61392073ffffffffffffffffffffffffffffffffffffffff7f000000000000000000000000000000000000000000000000000000000000000016333084614730565b5f7f000000000000000000000000000000000000000000000000000000000000000073ffffffffffffffffffffffffffffffffffffffff16633ed691ef6040518163ffffffff1660e01b8152600401602060405180830381865afa15801561398a573d5f5f3e3d5ffd5b505050506040513d601f19601f820116820180604052508101906139ae9190615970565b60738054919250780100000000000000000000000000000000000000000000000090910467ffffffffffffffff169060186139e883615944565b91906101000a81548167ffffffffffffffff021916908367ffffffffffffffff160217905550508484604051613a1f929190615cb1565b60408051918290038220602083015281018290527fffffffffffffffff0000000000000000000000000000000000000000000000004260c01b166060820152606801604080518083037fffffffffffffffffffffffffffffffffffffffffffffffffffffffffffffffe001815291815281516020928301206073547801000000000000000000000000000000000000000000000000900467ffffffffffffffff165f9081526071909352912055323303613b4d576073546040805183815233602082015260609181018290525f91810191909152780100000000000000000000000000000000000000000000000090910467ffffffffffffffff16907ff94bb37db835f1ab585ee00041849a09b12cd081d77fa15ca070757619cbc9319060800160405180910390a2613bac565b607360189054906101000a900467ffffffffffffffff1667ffffffffffffffff167ff94bb37db835f1ab585ee00041849a09b12cd081d77fa15ca070757619cbc93182338888604051613ba39493929190615cc0565b60405180910390a25b5050505050565b607a5473ffffffffffffffffffffffffffffffffffffffff163314613c04576040517f4755657900000000000000000000000000000000000000000000000000000000815260040160405180910390fd5b607480547fffffffff0000000000000000000000000000000000000000ffffffffffffffff166801000000000000000073ffffffffffffffffffffffffffffffffffffffff8416908102919091179091556040519081527f61f8fec29495a3078e9271456f05fb0707fd4e41f7661865f80fc437d06681ca90602001610c50565b613c8d614a9b565b73ffffffffffffffffffffffffffffffffffffffff8116613d30576040517f08c379a000000000000000000000000000000000000000000000000000000000815260206004820152602660248201527f4f776e61626c653a206e6577206f776e657220697320746865207a65726f206160448201527f64647265737300000000000000000000000000000000000000000000000000006064820152608401612cdb565b61141581614b1c565b5f5f613d43612b3c565b905067ffffffffffffffff881615613e125760795467ffffffffffffffff9081169089161115613d9f576040517fbb14c20500000000000000000000000000000000000000000000000000000000815260040160405180910390fd5b67ffffffffffffffff8089165f908152607860205260409020600281015481549094509091898116680100000000000000009092041614613e0c576040517f2bd2e3e700000000000000000000000000000000000000000000000000000000815260040160405180910390fd5b50613eb2565b67ffffffffffffffff87165f90815260756020526040902054915081613e64576040517f4997b98600000000000000000000000000000000000000000000000000000000815260040160405180910390fd5b8067ffffffffffffffff168767ffffffffffffffff161115613eb2576040517f1e56e9e200000000000000000000000000000000000000000000000000000000815260040160405180910390fd5b8067ffffffffffffffff168667ffffffffffffffff1611613eff576040517fb9b18f5700000000000000000000000000000000000000000000000000000000815260040160405180910390fd5b5f613f0d8888888689610c5b565b90505f7f30644e72e131a029b85045b68181585d2833e84879b9709143e1f593f0000001600283604051613f419190615cf5565b602060405180830381855afa158015613f5c573d5f5f3e3d5ffd5b5050506040513d601f19601f82011682018060405250810190613f7f9190615970565b613f899190615d0b565b6040805160208101825282815290517f9121da8a00000000000000000000000000000000000000000000000000000000815291925073ffffffffffffffffffffffffffffffffffffffff7f00000000000000000000000000000000000000000000000000000000000000001691639121da8a9161400b91899190600401615d1e565b602060405180830381865afa158015614026573d5f5f3e3d5ffd5b505050506040513d601f19601f8201168201806040525081019061404a9190615d5a565b614080576040517f09bde33900000000000000000000000000000000000000000000000000000000815260040160405180910390fd5b6140e83361408e858b615987565b67ffffffffffffffff166140a061256b565b6140aa91906159ba565b73ffffffffffffffffffffffffffffffffffffffff7f0000000000000000000000000000000000000000000000000000000000000000169190614d42565b50505050505050505050565b5f67ffffffffffffffff8816156141c05760795467ffffffffffffffff908116908916111561414f576040517fbb14c20500000000000000000000000000000000000000000000000000000000815260040160405180910390fd5b5067ffffffffffffffff8088165f9081526078602052604090206002810154815490928881166801000000000000000090920416146141ba576040517f2bd2e3e700000000000000000000000000000000000000000000000000000000815260040160405180910390fd5b5061425b565b5067ffffffffffffffff85165f9081526075602052604090205480614211576040517f4997b98600000000000000000000000000000000000000000000000000000000815260040160405180910390fd5b60745467ffffffffffffffff908116908716111561425b576040517f1e56e9e200000000000000000000000000000000000000000000000000000000815260040160405180910390fd5b60795467ffffffffffffffff908116908816118061428d57508767ffffffffffffffff168767ffffffffffffffff1611155b806142b4575060795467ffffffffffffffff68010000000000000000909104811690881611155b156142eb576040517fbfa7079f00000000000000000000000000000000000000000000000000000000815260040160405180910390fd5b67ffffffffffffffff8781165f9081526078602052604090205468010000000000000000900481169086161461434d576040517f32a2a77f00000000000000000000000000000000000000000000000000000000815260040160405180910390fd5b5f61435b8787878588610c5b565b90505f7f30644e72e131a029b85045b68181585d2833e84879b9709143e1f593f000000160028360405161438f9190615cf5565b602060405180830381855afa1580156143aa573d5f5f3e3d5ffd5b5050506040513d601f19601f820116820180604052508101906143cd9190615970565b6143d79190615d0b565b6040805160208101825282815290517f9121da8a00000000000000000000000000000000000000000000000000000000815291925073ffffffffffffffffffffffffffffffffffffffff7f00000000000000000000000000000000000000000000000000000000000000001691639121da8a9161445991889190600401615d1e565b602060405180830381865afa158015614474573d5f5f3e3d5ffd5b505050506040513d601f19601f820116820180604052508101906144989190615d5a565b6144ce576040517f09bde33900000000000000000000000000000000000000000000000000000000815260040160405180910390fd5b67ffffffffffffffff89165f908152607860205260409020600201548590036140e8576040517fa47276bd00000000000000000000000000000000000000000000000000000000815260040160405180910390fd5b60795467ffffffffffffffff68010000000000000000909104811690821611158061455d575060795467ffffffffffffffff908116908216115b15614594576040517fd086b70b00000000000000000000000000000000000000000000000000000000815260040160405180910390fd5b67ffffffffffffffff8181165f81815260786020908152604080832080546074805468010000000000000000928390049098167fffffffffffffffffffffffffffffffffffffffffffffffff000000000000000090981688179055600282015487865260759094529382902092909255607980547fffffffffffffffffffffffffffffffff0000000000000000ffffffffffffffff169390940292909217909255600182015490517f33d6247d00000000000000000000000000000000000000000000000000000000815260048101919091529091907f000000000000000000000000000000000000000000000000000000000000000073ffffffffffffffffffffffffffffffffffffffff16906333d6247d906024015f604051808303815f87803b1580156146c2575f5ffd5b505af11580156146d4573d5f5f3e3d5ffd5b505050508267ffffffffffffffff168167ffffffffffffffff167f328d3c6c0fd6f1be0515e422f2d87e59f25922cbc2233568515a0c4bc3f8510e846002015460405161472391815260200190565b60405180910390a3505050565b60405173ffffffffffffffffffffffffffffffffffffffff8085166024830152831660448201526064810182905261480c9085907f23b872dd00000000000000000000000000000000000000000000000000000000906084015b604080517fffffffffffffffffffffffffffffffffffffffffffffffffffffffffffffffe08184030181529190526020810180517bffffffffffffffffffffffffffffffffffffffffffffffffffffffff167fffffffff0000000000000000000000000000000000000000000000000000000090931692909217909152614d9d565b50505050565b60795467ffffffffffffffff680100000000000000008204811691161115612330576079545f9061485a9068010000000000000000900467ffffffffffffffff16600161582e565b90506148658161118c565b15611415576079545f9060029061488790849067ffffffffffffffff16615987565b6148919190615d79565b61489b908361582e565b90506148a68161118c565b156148b8576148b481614523565b5050565b6148b482614523565b5f6148ca612b3c565b9050815f806148d98484615987565b606f5467ffffffffffffffff91821692505f916148fc91610100900416426159a7565b90505b8467ffffffffffffffff168467ffffffffffffffff16146149865767ffffffffffffffff8085165f908152607260205260409020600181015490911682101561496457600181015468010000000000000000900467ffffffffffffffff169450614980565b61496e8686615987565b67ffffffffffffffff16935050614986565b506148ff565b5f61499184846159a7565b9050838110156149e857808403600c81116149ac57806149af565b600c5b9050806103e80a81606f60099054906101000a900461ffff1661ffff160a60705402816149de576149de6159d1565b0460705550614a57565b838103600c81116149f957806149fc565b600c5b90505f816103e80a82606f60099054906101000a900461ffff1661ffff160a670de0b6b3a76400000281614a3257614a326159d1565b04905080607054670de0b6b3a76400000281614a5057614a506159d1565b0460705550505b683635c9adc5dea000006070541115614a7c57683635c9adc5dea00000607055612765565b633b9aca00607054101561276557633b9aca0060705550505050505050565b60335473ffffffffffffffffffffffffffffffffffffffff163314612330576040517f08c379a000000000000000000000000000000000000000000000000000000000815260206004820181905260248201527f4f776e61626c653a2063616c6c6572206973206e6f7420746865206f776e65726044820152606401612cdb565b6033805473ffffffffffffffffffffffffffffffffffffffff8381167fffffffffffffffffffffffff0000000000000000000000000000000000000000831681179093556040519116919082907f8be0079c531659141344cd1fd0a4f28419497f9722a3daafe3b4186f6b6457e0905f90a35050565b7f000000000000000000000000000000000000000000000000000000000000000073ffffffffffffffffffffffffffffffffffffffff16632072f6c56040518163ffffffff1660e01b81526004015f604051808303815f87803b158015614bf7575f5ffd5b505af1158015614c09573d5f5f3e3d5ffd5b50505050612330614ea8565b5f54610100900460ff16614cab576040517f08c379a000000000000000000000000000000000000000000000000000000000815260206004820152602b60248201527f496e697469616c697a61626c653a20636f6e7472616374206973206e6f74206960448201527f6e697469616c697a696e670000000000000000000000000000000000000000006064820152608401612cdb565b61233033614b1c565b606f5460ff16614cf0576040517f5386698100000000000000000000000000000000000000000000000000000000815260040160405180910390fd5b606f80547fffffffffffffffffffffffffffffffffffffffffffffffffffffffffffffff001690556040517f1e5e34eea33501aecf2ebec9fe0e884a40804275ea7fe10b2ba084c8374308b3905f90a1565b60405173ffffffffffffffffffffffffffffffffffffffff8316602482015260448101829052614d989084907fa9059cbb000000000000000000000000000000000000000000000000000000009060640161478a565b505050565b5f614dfe826040518060400160405280602081526020017f5361666545524332303a206c6f772d6c6576656c2063616c6c206661696c65648152508573ffffffffffffffffffffffffffffffffffffffff16614f3a9092919063ffffffff16565b805190915015614d985780806020019051810190614e1c9190615d5a565b614d98576040517f08c379a000000000000000000000000000000000000000000000000000000000815260206004820152602a60248201527f5361666545524332303a204552433230206f7065726174696f6e20646964206e60448201527f6f742073756363656564000000000000000000000000000000000000000000006064820152608401612cdb565b606f5460ff1615614ee5576040517f2f0047fc00000000000000000000000000000000000000000000000000000000815260040160405180910390fd5b606f80547fffffffffffffffffffffffffffffffffffffffffffffffffffffffffffffff001660011790556040517f2261efe5aef6fedc1fd1550b25facc9181745623049c7901287030b9ad1a5497905f90a1565b6060614f4884845f85614f50565b949350505050565b606082471015614fe2576040517f08c379a000000000000000000000000000000000000000000000000000000000815260206004820152602660248201527f416464726573733a20696e73756666696369656e742062616c616e636520666f60448201527f722063616c6c00000000000000000000000000000000000000000000000000006064820152608401612cdb565b5f5f8673ffffffffffffffffffffffffffffffffffffffff16858760405161500a9190615cf5565b5f6040518083038185875af1925050503d805f8114615044576040519150601f19603f3d011682016040523d82523d5f602084013e615049565b606091505b509150915061505a87838387615065565b979650505050505050565b606083156150fa5782515f036150f35773ffffffffffffffffffffffffffffffffffffffff85163b6150f3576040517f08c379a000000000000000000000000000000000000000000000000000000000815260206004820152601d60248201527f416464726573733a2063616c6c20746f206e6f6e2d636f6e74726163740000006044820152606401612cdb565b5081614f48565b614f48838381511561510f5781518083602001fd5b806040517f08c379a0000000000000000000000000000000000000000000000000000000008152600401612cdb919061518f565b5f81518084528060208401602086015e5f6020828601015260207fffffffffffffffffffffffffffffffffffffffffffffffffffffffffffffffe0601f83011685010191505092915050565b602081525f6151a16020830184615143565b9392505050565b5f602082840312156151b8575f5ffd5b813561ffff811681146151a1575f5ffd5b803567ffffffffffffffff81168114612b37575f5ffd5b5f5f5f5f5f60a086880312156151f4575f5ffd5b6151fd866151c9565b945061520b602087016151c9565b94979496505050506040830135926060810135926080909101359150565b80610300810183101561523a575f5ffd5b92915050565b5f5f5f5f5f5f6103a08789031215615256575f5ffd5b61525f876151c9565b955061526d602088016151c9565b945061527b604088016151c9565b935060608701359250608087013591506152988860a08901615229565b90509295509295509295565b5f5f5f5f5f5f5f6103c0888a0312156152bb575f5ffd5b6152c4886151c9565b96506152d2602089016151c9565b95506152e0604089016151c9565b94506152ee606089016151c9565b93506080880135925060a0880135915061530b8960c08a01615229565b905092959891949750929550565b5f60208284031215615329575f5ffd5b6151a1826151c9565b5f5f83601f840112615342575f5ffd5b50813567ffffffffffffffff811115615359575f5ffd5b6020830191508360208260051b8501011115615373575f5ffd5b9250929050565b803573ffffffffffffffffffffffffffffffffffffffff81168114612b37575f5ffd5b5f5f5f604084860312156153af575f5ffd5b833567ffffffffffffffff8111156153c5575f5ffd5b6153d186828701615332565b90945092506153e490506020850161537a565b90509250925092565b5f602082840312156153fd575f5ffd5b6151a18261537a565b5f60208284031215615416575f5ffd5b5035919050565b7f4e487b71000000000000000000000000000000000000000000000000000000005f52604160045260245ffd5b5f82601f830112615459575f5ffd5b8135602083015f5f67ffffffffffffffff8411156154795761547961541d565b506040517fffffffffffffffffffffffffffffffffffffffffffffffffffffffffffffffe0601f85018116603f0116810181811067ffffffffffffffff821117156154c6576154c661541d565b6040528381529050808284018710156154dd575f5ffd5b838360208301375f602085830101528094505050505092915050565b5f60208284031215615509575f5ffd5b813567ffffffffffffffff81111561551f575f5ffd5b614f488482850161544a565b5f5f83601f84011261553b575f5ffd5b50813567ffffffffffffffff811115615552575f5ffd5b602083019150836020828501011115615373575f5ffd5b5f5f5f5f5f5f868803610120811215615580575f5ffd5b60a081121561558d575f5ffd5b5086955060a0860135945060c086013567ffffffffffffffff8111156155b1575f5ffd5b6155bd89828a0161544a565b94505060e087013567ffffffffffffffff8111156155d9575f5ffd5b6155e589828a0161544a565b93505061010087013567ffffffffffffffff811115615602575f5ffd5b61560e89828a0161552b565b979a9699509497509295939492505050565b5f5f60208385031215615631575f5ffd5b823567ffffffffffffffff811115615647575f5ffd5b61565385828601615332565b90969095509350505050565b5f5f5f60408486031215615671575f5ffd5b833567ffffffffffffffff811115615687575f5ffd5b6156938682870161552b565b909790965060209590950135949350505050565b600181811c908216806156bb57607f821691505b6020821081036156f2577f4e487b71000000000000000000000000000000000000000000000000000000005f52602260045260245ffd5b50919050565b7fffffffffffffffffffffffffffffffffffffffff0000000000000000000000008b60601b1681528960148201528860348201527fffffffffffffffff0000000000000000000000000000000000000000000000008860c01b1660548201527fffffffffffffffff0000000000000000000000000000000000000000000000008760c01b16605c8201527fffffffffffffffff0000000000000000000000000000000000000000000000008660c01b16606482015284606c82015283608c8201528260ac8201526157f060cc82018360c01b7fffffffffffffffff000000000000000000000000000000000000000000000000169052565b60d4019a9950505050505050505050565b7f4e487b71000000000000000000000000000000000000000000000000000000005f52601160045260245ffd5b67ffffffffffffffff818116838216019081111561523a5761523a615801565b7f4e487b71000000000000000000000000000000000000000000000000000000005f52603260045260245ffd5b5f82357fffffffffffffffffffffffffffffffffffffffffffffffffffffffffffffff818336030181126158ad575f5ffd5b9190910192915050565b5f608082360312156158c7575f5ffd5b6040516080810167ffffffffffffffff811182821017156158ea576158ea61541d565b604052823567ffffffffffffffff811115615903575f5ffd5b61590f3682860161544a565b82525060208381013590820152615928604084016151c9565b6040820152615939606084016151c9565b606082015292915050565b5f67ffffffffffffffff821667ffffffffffffffff810361596757615967615801565b60010192915050565b5f60208284031215615980575f5ffd5b5051919050565b67ffffffffffffffff828116828216039081111561523a5761523a615801565b8181038181111561523a5761523a615801565b808202811582820484141761523a5761523a615801565b7f4e487b71000000000000000000000000000000000000000000000000000000005f52601260045260245ffd5b5f82615a0c57615a0c6159d1565b500490565b601f821115614d9857805f5260205f20601f840160051c81016020851015615a365750805b601f840160051c820191505b81811015613bac575f8155600101615a42565b815167ffffffffffffffff811115615a6f57615a6f61541d565b615a8381615a7d84546156a7565b84615a11565b6020601f821160018114615ad4575f8315615a9e5750848201515b7fffffffffffffffffffffffffffffffffffffffffffffffffffffffffffffffff600385901b1c1916600184901b178455613bac565b5f848152602081207fffffffffffffffffffffffffffffffffffffffffffffffffffffffffffffffe08516915b82811015615b215787850151825560209485019460019092019101615b01565b5084821015615b5d57868401517fffffffffffffffffffffffffffffffffffffffffffffffffffffffffffffffff600387901b60f8161c191681555b50505050600190811b01905550565b81835281816020850137505f602082840101525f60207fffffffffffffffffffffffffffffffffffffffffffffffffffffffffffffffe0601f840116840101905092915050565b67ffffffffffffffff8516815267ffffffffffffffff84166020820152606060408201525f615be6606083018486615b6c565b9695505050505050565b8082018082111561523a5761523a615801565b5f82357fffffffffffffffffffffffffffffffffffffffffffffffffffffffffffffffa18336030181126158ad575f5ffd5b5f60608236031215615c45575f5ffd5b6040516060810167ffffffffffffffff81118282101715615c6857615c6861541d565b604052823567ffffffffffffffff811115615c81575f5ffd5b615c8d3682860161544a565b82525060208381013590820152615ca6604084016151c9565b604082015292915050565b818382375f9101908152919050565b84815273ffffffffffffffffffffffffffffffffffffffff84166020820152606060408201525f615be6606083018486615b6c565b5f82518060208501845e5f920191825250919050565b5f82615d1957615d196159d1565b500690565b61032081016103008483376103008201835f5b6001811015615d50578151835260209283019290910190600101615d31565b5050509392505050565b5f60208284031215615d6a575f5ffd5b815180151581146151a1575f5ffd5b5f67ffffffffffffffff831680615d9257615d926159d1565b8067ffffffffffffffff8416049150509291505056fea264697066735822122022e82fb33a1eab8e397f859e3dd10a50c9a5c67bb8f76f27e65368ea06e8316664736f6c634300081c0033",
  "linkReferences": {},
  "deployedLinkReferences": {}
}