{
  "_format": "hh-sol-artifact-1",
  "contractName": "PolygonRollupManager",
  "sourceName": "contracts/v2/PolygonRollupManager.sol",
  "abi": [
    {
      "inputs": [
        {
          "internalType": "contract IPolygonZkEVMGlobalExitRootV2",
          "name": "_globalExitRootManager",
          "type": "address"
        },
        {
          "internalType": "contract IERC20Upgradeable",
          "name": "_pol",
          "type": "address"
        },
        {
          "internalType": "contract IPolygonZkEVMBridge",
          "name": "_bridgeAddress",
          "type": "address"
        },
        {
          "internalType": "contract IAggLayerGateway",
          "name": "_aggLayerGateway",
          "type": "address"
        }
      ],
      "stateMutability": "nonpayable",
      "type": "constructor"
    },
    {
      "inputs": [],
      "name": "AccessControlOnlyCanRenounceRolesForSelf",
      "type": "error"
    },
    {
      "inputs": [],
      "name": "AddressDoNotHaveRequiredRole",
      "type": "error"
    },
    {
      "inputs": [],
      "name": "AggchainDataMustBeZeroForPessimisticVerifierType",
      "type": "error"
    },
    {
      "inputs": [],
      "name": "AllBatchesMustBeVerified",
      "type": "error"
    },
    {
      "inputs": [],
      "name": "AllSequencedMustBeVerified",
      "type": "error"
    },
    {
      "inputs": [],
      "name": "AllzkEVMSequencedBatchesMustBeVerified",
      "type": "error"
    },
    {
      "inputs": [],
      "name": "BatchFeeOutOfRange",
      "type": "error"
    },
    {
      "inputs": [],
      "name": "CannotUpdateWithUnconsolidatedPendingState",
      "type": "error"
    },
    {
      "inputs": [],
      "name": "ChainIDAlreadyExist",
      "type": "error"
    },
    {
      "inputs": [],
      "name": "ChainIDOutOfRange",
      "type": "error"
    },
    {
      "inputs": [],
      "name": "EmptyVerifySequencesData",
      "type": "error"
    },
    {
      "inputs": [],
      "name": "ExceedMaxVerifyBatches",
      "type": "error"
    },
    {
      "inputs": [],
      "name": "FinalNumBatchBelowLastVerifiedBatch",
      "type": "error"
    },
    {
      "inputs": [],
      "name": "FinalNumBatchDoesNotMatchPendingState",
      "type": "error"
    },
    {
      "inputs": [],
      "name": "FinalNumSequenceBelowLastVerifiedSequence",
      "type": "error"
    },
    {
      "inputs": [],
      "name": "FinalNumSequenceDoesNotMatchPendingState",
      "type": "error"
    },
    {
      "inputs": [],
      "name": "FinalPendingStateNumInvalid",
      "type": "error"
    },
    {
      "inputs": [],
      "name": "HaltTimeoutNotExpired",
      "type": "error"
    },
    {
      "inputs": [],
      "name": "InitBatchMustMatchCurrentForkID",
      "type": "error"
    },
    {
      "inputs": [],
      "name": "InitNumBatchAboveLastVerifiedBatch",
      "type": "error"
    },
    {
      "inputs": [],
      "name": "InitNumBatchDoesNotMatchPendingState",
      "type": "error"
    },
    {
      "inputs": [],
      "name": "InitSequenceMustMatchCurrentForkID",
      "type": "error"
    },
    {
      "inputs": [],
      "name": "InitSequenceNumDoesNotMatchPendingState",
      "type": "error"
    },
    {
      "inputs": [],
      "name": "InvalidConstructorInputs",
      "type": "error"
    },
    {
      "inputs": [],
      "name": "InvalidImplementationAddress",
      "type": "error"
    },
    {
      "inputs": [],
      "name": "InvalidInputsForRollupType",
      "type": "error"
    },
    {
      "inputs": [],
      "name": "InvalidNewLocalExitRoot",
      "type": "error"
    },
    {
      "inputs": [],
      "name": "InvalidPessimisticProof",
      "type": "error"
    },
    {
      "inputs": [],
      "name": "InvalidProof",
      "type": "error"
    },
    {
      "inputs": [],
      "name": "InvalidRangeBatchTimeTarget",
      "type": "error"
    },
    {
      "inputs": [],
      "name": "InvalidRangeMultiplierBatchFee",
      "type": "error"
    },
    {
      "inputs": [],
      "name": "InvalidRangeMultiplierZkGasPrice",
      "type": "error"
    },
    {
      "inputs": [],
      "name": "InvalidRangeSequenceTimeTarget",
      "type": "error"
    },
    {
      "inputs": [],
      "name": "InvalidRollup",
      "type": "error"
    },
    {
      "inputs": [],
      "name": "InvalidRollupType",
      "type": "error"
    },
    {
      "inputs": [],
      "name": "InvalidVerifierAddress",
      "type": "error"
    },
    {
      "inputs": [],
      "name": "InvalidVerifierType",
      "type": "error"
    },
    {
      "inputs": [],
      "name": "L1InfoTreeLeafCountInvalid",
      "type": "error"
    },
    {
      "inputs": [],
      "name": "MustSequenceSomeBatch",
      "type": "error"
    },
    {
      "inputs": [],
      "name": "MustSequenceSomeBlob",
      "type": "error"
    },
    {
      "inputs": [],
      "name": "NewAccInputHashDoesNotExist",
      "type": "error"
    },
    {
      "inputs": [],
      "name": "NewPendingStateTimeoutMustBeLower",
      "type": "error"
    },
    {
      "inputs": [],
      "name": "NewRollupTypeMustBePessimisticOrALGateway",
      "type": "error"
    },
    {
      "inputs": [],
      "name": "NewStateRootNotInsidePrime",
      "type": "error"
    },
    {
      "inputs": [],
      "name": "NewTrustedAggregatorTimeoutMustBeLower",
      "type": "error"
    },
    {
      "inputs": [],
      "name": "NotAllowedAddress",
      "type": "error"
    },
    {
      "inputs": [],
      "name": "OldAccInputHashDoesNotExist",
      "type": "error"
    },
    {
      "inputs": [],
      "name": "OldStateRootDoesNotExist",
      "type": "error"
    },
    {
      "inputs": [],
      "name": "OnlyAggchainManager",
      "type": "error"
    },
    {
      "inputs": [],
      "name": "OnlyEmergencyState",
      "type": "error"
    },
    {
      "inputs": [],
      "name": "OnlyNotEmergencyState",
      "type": "error"
    },
    {
      "inputs": [],
      "name": "OnlyRollupAdmin",
      "type": "error"
    },
    {
      "inputs": [],
      "name": "OnlyStateTransitionChains",
      "type": "error"
    },
    {
      "inputs": [],
      "name": "PendingStateDoesNotExist",
      "type": "error"
    },
    {
      "inputs": [],
      "name": "PendingStateInvalid",
      "type": "error"
    },
    {
      "inputs": [],
      "name": "PendingStateNotConsolidable",
      "type": "error"
    },
    {
      "inputs": [],
      "name": "PendingStateNumExist",
      "type": "error"
    },
    {
      "inputs": [],
      "name": "ReentrancyGuardReentrantCall",
      "type": "error"
    },
    {
      "inputs": [],
      "name": "RollbackBatchIsNotEndOfSequence",
      "type": "error"
    },
    {
      "inputs": [],
      "name": "RollbackBatchIsNotValid",
      "type": "error"
    },
    {
      "inputs": [],
      "name": "RollupAddressAlreadyExist",
      "type": "error"
    },
    {
      "inputs": [],
      "name": "RollupIDNotAscendingOrder",
      "type": "error"
    },
    {
      "inputs": [],
      "name": "RollupMustExist",
      "type": "error"
    },
    {
      "inputs": [],
      "name": "RollupTypeDoesNotExist",
      "type": "error"
    },
    {
      "inputs": [],
      "name": "RollupTypeObsolete",
      "type": "error"
    },
    {
      "inputs": [],
      "name": "SenderMustBeRollup",
      "type": "error"
    },
    {
      "inputs": [],
      "name": "StateTransitionChainsNotAllowed",
      "type": "error"
    },
    {
      "inputs": [],
      "name": "StoredRootMustBeDifferentThanNewRoot",
      "type": "error"
    },
    {
      "inputs": [],
      "name": "TrustedAggregatorTimeoutNotExpired",
      "type": "error"
    },
    {
      "inputs": [],
      "name": "UpdateNotCompatible",
      "type": "error"
    },
    {
      "inputs": [],
      "name": "UpdateToOldRollupTypeID",
      "type": "error"
    },
    {
      "inputs": [],
      "name": "UpdateToSameRollupTypeID",
      "type": "error"
    },
    {
      "inputs": [],
      "name": "zkGasPriceOfRange",
      "type": "error"
    },
    {
      "anonymous": false,
      "inputs": [
        {
          "indexed": true,
          "internalType": "uint32",
          "name": "rollupID",
          "type": "uint32"
        },
        {
          "indexed": false,
          "internalType": "uint64",
          "name": "forkID",
          "type": "uint64"
        },
        {
          "indexed": false,
          "internalType": "address",
          "name": "rollupAddress",
          "type": "address"
        },
        {
          "indexed": false,
          "internalType": "uint64",
          "name": "chainID",
          "type": "uint64"
        },
        {
          "indexed": false,
          "internalType": "enum IPolygonRollupManager.VerifierType",
          "name": "rollupVerifierType",
          "type": "uint8"
        },
        {
          "indexed": false,
          "internalType": "uint64",
          "name": "lastVerifiedBatchBeforeUpgrade",
          "type": "uint64"
        },
        {
          "indexed": false,
          "internalType": "bytes32",
          "name": "programVKey",
          "type": "bytes32"
        },
        {
          "indexed": false,
          "internalType": "bytes32",
          "name": "initPessimisticRoot",
          "type": "bytes32"
        }
      ],
      "name": "AddExistingRollup",
      "type": "event"
    },
    {
      "anonymous": false,
      "inputs": [
        {
          "indexed": true,
          "internalType": "uint32",
          "name": "rollupTypeID",
          "type": "uint32"
        },
        {
          "indexed": false,
          "internalType": "address",
          "name": "consensusImplementation",
          "type": "address"
        },
        {
          "indexed": false,
          "internalType": "address",
          "name": "verifier",
          "type": "address"
        },
        {
          "indexed": false,
          "internalType": "uint64",
          "name": "forkID",
          "type": "uint64"
        },
        {
          "indexed": false,
          "internalType": "enum IPolygonRollupManager.VerifierType",
          "name": "rollupVerifierType",
          "type": "uint8"
        },
        {
          "indexed": false,
          "internalType": "bytes32",
          "name": "genesis",
          "type": "bytes32"
        },
        {
          "indexed": false,
          "internalType": "string",
          "name": "description",
          "type": "string"
        },
        {
          "indexed": false,
          "internalType": "bytes32",
          "name": "programVKey",
          "type": "bytes32"
        }
      ],
      "name": "AddNewRollupType",
      "type": "event"
    },
    {
      "anonymous": false,
      "inputs": [
        {
          "indexed": true,
          "internalType": "uint32",
          "name": "rollupID",
          "type": "uint32"
        }
      ],
      "name": "CompletedMigration",
      "type": "event"
    },
    {
      "anonymous": false,
      "inputs": [
        {
          "indexed": true,
          "internalType": "uint32",
          "name": "rollupID",
          "type": "uint32"
        },
        {
          "indexed": false,
          "internalType": "uint32",
          "name": "rollupTypeID",
          "type": "uint32"
        },
        {
          "indexed": false,
          "internalType": "address",
          "name": "rollupAddress",
          "type": "address"
        },
        {
          "indexed": false,
          "internalType": "uint64",
          "name": "chainID",
          "type": "uint64"
        },
        {
          "indexed": false,
          "internalType": "uint8",
          "name": "rollupVerifierType",
          "type": "uint8"
        },
        {
          "indexed": false,
          "internalType": "bytes",
          "name": "initializeBytesAggchain",
          "type": "bytes"
        }
      ],
      "name": "CreateNewAggchain",
      "type": "event"
    },
    {
      "anonymous": false,
      "inputs": [
        {
          "indexed": true,
          "internalType": "uint32",
          "name": "rollupID",
          "type": "uint32"
        },
        {
          "indexed": false,
          "internalType": "uint32",
          "name": "rollupTypeID",
          "type": "uint32"
        },
        {
          "indexed": false,
          "internalType": "address",
          "name": "rollupAddress",
          "type": "address"
        },
        {
          "indexed": false,
          "internalType": "uint64",
          "name": "chainID",
          "type": "uint64"
        },
        {
          "indexed": false,
          "internalType": "address",
          "name": "gasTokenAddress",
          "type": "address"
        }
      ],
      "name": "CreateNewRollup",
      "type": "event"
    },
    {
      "anonymous": false,
      "inputs": [],
      "name": "EmergencyStateActivated",
      "type": "event"
    },
    {
      "anonymous": false,
      "inputs": [],
      "name": "EmergencyStateDeactivated",
      "type": "event"
    },
    {
      "anonymous": false,
      "inputs": [
        {
          "indexed": true,
          "internalType": "uint32",
          "name": "rollupID",
          "type": "uint32"
        },
        {
          "indexed": false,
          "internalType": "uint32",
          "name": "newRollupTypeID",
          "type": "uint32"
        }
      ],
      "name": "InitMigration",
      "type": "event"
    },
    {
      "anonymous": false,
      "inputs": [
        {
          "indexed": false,
          "internalType": "uint8",
          "name": "version",
          "type": "uint8"
        }
      ],
      "name": "Initialized",
      "type": "event"
    },
    {
      "anonymous": false,
      "inputs": [
        {
          "indexed": true,
          "internalType": "uint32",
          "name": "rollupTypeID",
          "type": "uint32"
        }
      ],
      "name": "ObsoleteRollupType",
      "type": "event"
    },
    {
      "anonymous": false,
      "inputs": [
        {
          "indexed": true,
          "internalType": "uint32",
          "name": "rollupID",
          "type": "uint32"
        },
        {
          "indexed": false,
          "internalType": "uint64",
          "name": "lastBatchSequenced",
          "type": "uint64"
        }
      ],
      "name": "OnSequenceBatches",
      "type": "event"
    },
    {
      "anonymous": false,
      "inputs": [
        {
          "indexed": true,
          "internalType": "bytes32",
          "name": "role",
          "type": "bytes32"
        },
        {
          "indexed": true,
          "internalType": "bytes32",
          "name": "previousAdminRole",
          "type": "bytes32"
        },
        {
          "indexed": true,
          "internalType": "bytes32",
          "name": "newAdminRole",
          "type": "bytes32"
        }
      ],
      "name": "RoleAdminChanged",
      "type": "event"
    },
    {
      "anonymous": false,
      "inputs": [
        {
          "indexed": true,
          "internalType": "bytes32",
          "name": "role",
          "type": "bytes32"
        },
        {
          "indexed": true,
          "internalType": "address",
          "name": "account",
          "type": "address"
        },
        {
          "indexed": true,
          "internalType": "address",
          "name": "sender",
          "type": "address"
        }
      ],
      "name": "RoleGranted",
      "type": "event"
    },
    {
      "anonymous": false,
      "inputs": [
        {
          "indexed": true,
          "internalType": "bytes32",
          "name": "role",
          "type": "bytes32"
        },
        {
          "indexed": true,
          "internalType": "address",
          "name": "account",
          "type": "address"
        },
        {
          "indexed": true,
          "internalType": "address",
          "name": "sender",
          "type": "address"
        }
      ],
      "name": "RoleRevoked",
      "type": "event"
    },
    {
      "anonymous": false,
      "inputs": [
        {
          "indexed": true,
          "internalType": "uint32",
          "name": "rollupID",
          "type": "uint32"
        },
        {
          "indexed": true,
          "internalType": "uint64",
          "name": "targetBatch",
          "type": "uint64"
        },
        {
          "indexed": false,
          "internalType": "bytes32",
          "name": "accInputHashToRollback",
          "type": "bytes32"
        }
      ],
      "name": "RollbackBatches",
      "type": "event"
    },
    {
      "anonymous": false,
      "inputs": [
        {
          "indexed": false,
          "internalType": "uint256",
          "name": "newBatchFee",
          "type": "uint256"
        }
      ],
      "name": "SetBatchFee",
      "type": "event"
    },
    {
      "anonymous": false,
      "inputs": [
        {
          "indexed": false,
          "internalType": "address",
          "name": "newTrustedAggregator",
          "type": "address"
        }
      ],
      "name": "SetTrustedAggregator",
      "type": "event"
    },
    {
      "anonymous": false,
      "inputs": [
        {
          "indexed": true,
          "internalType": "uint32",
          "name": "rollupID",
          "type": "uint32"
        },
        {
          "indexed": false,
          "internalType": "uint32",
          "name": "newRollupTypeID",
          "type": "uint32"
        },
        {
          "indexed": false,
          "internalType": "uint64",
          "name": "lastVerifiedBatchBeforeUpgrade",
          "type": "uint64"
        }
      ],
      "name": "UpdateRollup",
      "type": "event"
    },
    {
      "anonymous": false,
      "inputs": [
        {
          "indexed": false,
          "internalType": "string",
          "name": "rollupManagerVersion",
          "type": "string"
        }
      ],
      "name": "UpdateRollupManagerVersion",
      "type": "event"
    },
    {
      "anonymous": false,
      "inputs": [
        {
          "indexed": true,
          "internalType": "uint32",
          "name": "rollupID",
          "type": "uint32"
        },
        {
          "indexed": false,
          "internalType": "uint64",
          "name": "numBatch",
          "type": "uint64"
        },
        {
          "indexed": false,
          "internalType": "bytes32",
          "name": "stateRoot",
          "type": "bytes32"
        },
        {
          "indexed": false,
          "internalType": "bytes32",
          "name": "exitRoot",
          "type": "bytes32"
        },
        {
          "indexed": true,
          "internalType": "address",
          "name": "aggregator",
          "type": "address"
        }
      ],
      "name": "VerifyBatchesTrustedAggregator",
      "type": "event"
    },
    {
      "anonymous": false,
      "inputs": [
        {
          "indexed": true,
          "internalType": "uint32",
          "name": "rollupID",
          "type": "uint32"
        },
        {
          "indexed": false,
          "internalType": "bytes32",
          "name": "prevPessimisticRoot",
          "type": "bytes32"
        },
        {
          "indexed": false,
          "internalType": "bytes32",
          "name": "newPessimisticRoot",
          "type": "bytes32"
        },
        {
          "indexed": false,
          "internalType": "bytes32",
          "name": "prevLocalExitRoot",
          "type": "bytes32"
        },
        {
          "indexed": false,
          "internalType": "bytes32",
          "name": "newLocalExitRoot",
          "type": "bytes32"
        },
        {
          "indexed": false,
          "internalType": "bytes32",
          "name": "l1InfoRoot",
          "type": "bytes32"
        },
        {
          "indexed": true,
          "internalType": "address",
          "name": "trustedAggregator",
          "type": "address"
        }
      ],
      "name": "VerifyPessimisticStateTransition",
      "type": "event"
    },
    {
      "inputs": [],
      "name": "DEFAULT_ADMIN_ROLE",
      "outputs": [
        {
          "internalType": "bytes32",
          "name": "",
          "type": "bytes32"
        }
      ],
      "stateMutability": "view",
      "type": "function"
    },
    {
      "inputs": [],
      "name": "ROLLUP_MANAGER_VERSION",
      "outputs": [
        {
          "internalType": "string",
          "name": "",
          "type": "string"
        }
      ],
      "stateMutability": "view",
      "type": "function"
    },
    {
      "inputs": [],
      "name": "activateEmergencyState",
      "outputs": [],
      "stateMutability": "nonpayable",
      "type": "function"
    },
    {
      "inputs": [
        {
          "internalType": "address",
          "name": "rollupAddress",
          "type": "address"
        },
        {
          "internalType": "address",
          "name": "verifier",
          "type": "address"
        },
        {
          "internalType": "uint64",
          "name": "forkID",
          "type": "uint64"
        },
        {
          "internalType": "uint64",
          "name": "chainID",
          "type": "uint64"
        },
        {
          "internalType": "bytes32",
          "name": "initRoot",
          "type": "bytes32"
        },
        {
          "internalType": "enum IPolygonRollupManager.VerifierType",
          "name": "rollupVerifierType",
          "type": "uint8"
        },
        {
          "internalType": "bytes32",
          "name": "programVKey",
          "type": "bytes32"
        },
        {
          "internalType": "bytes32",
          "name": "initPessimisticRoot",
          "type": "bytes32"
        }
      ],
      "name": "addExistingRollup",
      "outputs": [],
      "stateMutability": "nonpayable",
      "type": "function"
    },
    {
      "inputs": [
        {
          "internalType": "address",
          "name": "consensusImplementation",
          "type": "address"
        },
        {
          "internalType": "address",
          "name": "verifier",
          "type": "address"
        },
        {
          "internalType": "uint64",
          "name": "forkID",
          "type": "uint64"
        },
        {
          "internalType": "enum IPolygonRollupManager.VerifierType",
          "name": "rollupVerifierType",
          "type": "uint8"
        },
        {
          "internalType": "bytes32",
          "name": "genesis",
          "type": "bytes32"
        },
        {
          "internalType": "string",
          "name": "description",
          "type": "string"
        },
        {
          "internalType": "bytes32",
          "name": "programVKey",
          "type": "bytes32"
        }
      ],
      "name": "addNewRollupType",
      "outputs": [],
      "stateMutability": "nonpayable",
      "type": "function"
    },
    {
      "inputs": [],
      "name": "aggLayerGateway",
      "outputs": [
        {
          "internalType": "contract IAggLayerGateway",
          "name": "",
          "type": "address"
        }
      ],
      "stateMutability": "view",
      "type": "function"
    },
    {
      "inputs": [
        {
          "internalType": "uint32",
          "name": "rollupTypeID",
          "type": "uint32"
        },
        {
          "internalType": "uint64",
          "name": "chainID",
          "type": "uint64"
        },
        {
          "internalType": "bytes",
          "name": "initializeBytesAggchain",
          "type": "bytes"
        }
      ],
      "name": "attachAggchainToAL",
      "outputs": [],
      "stateMutability": "nonpayable",
      "type": "function"
    },
    {
      "inputs": [],
      "name": "bridgeAddress",
      "outputs": [
        {
          "internalType": "contract IPolygonZkEVMBridge",
          "name": "",
          "type": "address"
        }
      ],
      "stateMutability": "view",
      "type": "function"
    },
    {
      "inputs": [],
      "name": "calculateRewardPerBatch",
      "outputs": [
        {
          "internalType": "uint256",
          "name": "",
          "type": "uint256"
        }
      ],
      "stateMutability": "view",
      "type": "function"
    },
    {
      "inputs": [
        {
          "internalType": "uint64",
          "name": "chainID",
          "type": "uint64"
        }
      ],
      "name": "chainIDToRollupID",
      "outputs": [
        {
          "internalType": "uint32",
          "name": "rollupID",
          "type": "uint32"
        }
      ],
      "stateMutability": "view",
      "type": "function"
    },
    {
      "inputs": [],
      "name": "deactivateEmergencyState",
      "outputs": [],
      "stateMutability": "nonpayable",
      "type": "function"
    },
    {
      "inputs": [],
      "name": "getBatchFee",
      "outputs": [
        {
          "internalType": "uint256",
          "name": "",
          "type": "uint256"
        }
      ],
      "stateMutability": "view",
      "type": "function"
    },
    {
      "inputs": [],
      "name": "getForcedBatchFee",
      "outputs": [
        {
          "internalType": "uint256",
          "name": "",
          "type": "uint256"
        }
      ],
      "stateMutability": "view",
      "type": "function"
    },
    {
      "inputs": [
        {
          "internalType": "uint32",
          "name": "rollupID",
          "type": "uint32"
        },
        {
          "internalType": "bytes32",
          "name": "l1InfoTreeRoot",
          "type": "bytes32"
        },
        {
          "internalType": "bytes32",
          "name": "newLocalExitRoot",
          "type": "bytes32"
        },
        {
          "internalType": "bytes32",
          "name": "newPessimisticRoot",
          "type": "bytes32"
        },
        {
          "internalType": "bytes",
          "name": "aggchainData",
          "type": "bytes"
        }
      ],
      "name": "getInputPessimisticBytes",
      "outputs": [
        {
          "internalType": "bytes",
          "name": "",
          "type": "bytes"
        }
      ],
      "stateMutability": "view",
      "type": "function"
    },
    {
      "inputs": [
        {
          "internalType": "uint32",
          "name": "rollupID",
          "type": "uint32"
        },
        {
          "internalType": "uint64",
          "name": "initNumBatch",
          "type": "uint64"
        },
        {
          "internalType": "uint64",
          "name": "finalNewBatch",
          "type": "uint64"
        },
        {
          "internalType": "bytes32",
          "name": "newLocalExitRoot",
          "type": "bytes32"
        },
        {
          "internalType": "bytes32",
          "name": "oldStateRoot",
          "type": "bytes32"
        },
        {
          "internalType": "bytes32",
          "name": "newStateRoot",
          "type": "bytes32"
        }
      ],
      "name": "getInputSnarkBytes",
      "outputs": [
        {
          "internalType": "bytes",
          "name": "",
          "type": "bytes"
        }
      ],
      "stateMutability": "view",
      "type": "function"
    },
    {
      "inputs": [
        {
          "internalType": "uint32",
          "name": "rollupID",
          "type": "uint32"
        }
      ],
      "name": "getLastVerifiedBatch",
      "outputs": [
        {
          "internalType": "uint64",
          "name": "",
          "type": "uint64"
        }
      ],
      "stateMutability": "view",
      "type": "function"
    },
    {
      "inputs": [
        {
          "internalType": "bytes32",
          "name": "role",
          "type": "bytes32"
        }
      ],
      "name": "getRoleAdmin",
      "outputs": [
        {
          "internalType": "bytes32",
          "name": "",
          "type": "bytes32"
        }
      ],
      "stateMutability": "view",
      "type": "function"
    },
    {
      "inputs": [
        {
          "internalType": "uint32",
          "name": "rollupID",
          "type": "uint32"
        },
        {
          "internalType": "uint64",
          "name": "batchNum",
          "type": "uint64"
        }
      ],
      "name": "getRollupBatchNumToStateRoot",
      "outputs": [
        {
          "internalType": "bytes32",
          "name": "",
          "type": "bytes32"
        }
      ],
      "stateMutability": "view",
      "type": "function"
    },
    {
      "inputs": [],
      "name": "getRollupExitRoot",
      "outputs": [
        {
          "internalType": "bytes32",
          "name": "",
          "type": "bytes32"
        }
      ],
      "stateMutability": "view",
      "type": "function"
    },
    {
      "inputs": [
        {
          "internalType": "uint32",
          "name": "rollupID",
          "type": "uint32"
        },
        {
          "internalType": "uint64",
          "name": "batchNum",
          "type": "uint64"
        }
      ],
      "name": "getRollupSequencedBatches",
      "outputs": [
        {
          "components": [
            {
              "internalType": "bytes32",
              "name": "accInputHash",
              "type": "bytes32"
            },
            {
              "internalType": "uint64",
              "name": "sequencedTimestamp",
              "type": "uint64"
            },
            {
              "internalType": "uint64",
              "name": "previousLastBatchSequenced",
              "type": "uint64"
            }
          ],
          "internalType": "struct LegacyZKEVMStateVariables.SequencedBatchData",
          "name": "",
          "type": "tuple"
        }
      ],
      "stateMutability": "view",
      "type": "function"
    },
    {
      "inputs": [],
      "name": "globalExitRootManager",
      "outputs": [
        {
          "internalType": "contract IPolygonZkEVMGlobalExitRootV2",
          "name": "",
          "type": "address"
        }
      ],
      "stateMutability": "view",
      "type": "function"
    },
    {
      "inputs": [
        {
          "internalType": "bytes32",
          "name": "role",
          "type": "bytes32"
        },
        {
          "internalType": "address",
          "name": "account",
          "type": "address"
        }
      ],
      "name": "grantRole",
      "outputs": [],
      "stateMutability": "nonpayable",
      "type": "function"
    },
    {
      "inputs": [
        {
          "internalType": "bytes32",
          "name": "role",
          "type": "bytes32"
        },
        {
          "internalType": "address",
          "name": "account",
          "type": "address"
        }
      ],
      "name": "hasRole",
      "outputs": [
        {
          "internalType": "bool",
          "name": "",
          "type": "bool"
        }
      ],
      "stateMutability": "view",
      "type": "function"
    },
    {
      "inputs": [
        {
          "internalType": "uint32",
          "name": "rollupID",
          "type": "uint32"
        },
        {
          "internalType": "uint32",
          "name": "newRollupTypeID",
          "type": "uint32"
        },
        {
          "internalType": "bytes",
          "name": "upgradeData",
          "type": "bytes"
        }
      ],
      "name": "initMigration",
      "outputs": [],
      "stateMutability": "nonpayable",
      "type": "function"
    },
    {
      "inputs": [],
      "name": "initialize",
      "outputs": [],
      "stateMutability": "nonpayable",
      "type": "function"
    },
    {
      "inputs": [],
      "name": "isEmergencyState",
      "outputs": [
        {
          "internalType": "bool",
          "name": "",
          "type": "bool"
        }
      ],
      "stateMutability": "view",
      "type": "function"
    },
    {
      "inputs": [
        {
          "internalType": "uint32",
          "name": "rollupID",
          "type": "uint32"
        }
      ],
      "name": "isRollupMigrating",
      "outputs": [
        {
          "internalType": "bool",
          "name": "",
          "type": "bool"
        }
      ],
      "stateMutability": "view",
      "type": "function"
    },
    {
      "inputs": [],
      "name": "lastAggregationTimestamp",
      "outputs": [
        {
          "internalType": "uint64",
          "name": "",
          "type": "uint64"
        }
      ],
      "stateMutability": "view",
      "type": "function"
    },
    {
      "inputs": [],
      "name": "lastDeactivatedEmergencyStateTimestamp",
      "outputs": [
        {
          "internalType": "uint64",
          "name": "",
          "type": "uint64"
        }
      ],
      "stateMutability": "view",
      "type": "function"
    },
    {
      "inputs": [
        {
          "internalType": "uint32",
          "name": "rollupTypeID",
          "type": "uint32"
        }
      ],
      "name": "obsoleteRollupType",
      "outputs": [],
      "stateMutability": "nonpayable",
      "type": "function"
    },
    {
      "inputs": [
        {
          "internalType": "uint64",
          "name": "newSequencedBatches",
          "type": "uint64"
        },
        {
          "internalType": "bytes32",
          "name": "newAccInputHash",
          "type": "bytes32"
        }
      ],
      "name": "onSequenceBatches",
      "outputs": [
        {
          "internalType": "uint64",
          "name": "",
          "type": "uint64"
        }
      ],
      "stateMutability": "nonpayable",
      "type": "function"
    },
    {
      "inputs": [],
      "name": "pol",
      "outputs": [
        {
          "internalType": "contract IERC20Upgradeable",
          "name": "",
          "type": "address"
        }
      ],
      "stateMutability": "view",
      "type": "function"
    },
    {
      "inputs": [
        {
          "internalType": "bytes32",
          "name": "role",
          "type": "bytes32"
        },
        {
          "internalType": "address",
          "name": "account",
          "type": "address"
        }
      ],
      "name": "renounceRole",
      "outputs": [],
      "stateMutability": "nonpayable",
      "type": "function"
    },
    {
      "inputs": [
        {
          "internalType": "bytes32",
          "name": "role",
          "type": "bytes32"
        },
        {
          "internalType": "address",
          "name": "account",
          "type": "address"
        }
      ],
      "name": "revokeRole",
      "outputs": [],
      "stateMutability": "nonpayable",
      "type": "function"
    },
    {
      "inputs": [
        {
          "internalType": "contract IPolygonRollupBase",
          "name": "rollupContract",
          "type": "address"
        },
        {
          "internalType": "uint64",
          "name": "targetBatch",
          "type": "uint64"
        }
      ],
      "name": "rollbackBatches",
      "outputs": [],
      "stateMutability": "nonpayable",
      "type": "function"
    },
    {
      "inputs": [
        {
          "internalType": "address",
          "name": "rollupAddress",
          "type": "address"
        }
      ],
      "name": "rollupAddressToID",
      "outputs": [
        {
          "internalType": "uint32",
          "name": "rollupID",
          "type": "uint32"
        }
      ],
      "stateMutability": "view",
      "type": "function"
    },
    {
      "inputs": [],
      "name": "rollupCount",
      "outputs": [
        {
          "internalType": "uint32",
          "name": "",
          "type": "uint32"
        }
      ],
      "stateMutability": "view",
      "type": "function"
    },
    {
      "inputs": [
        {
          "internalType": "uint32",
          "name": "rollupID",
          "type": "uint32"
        }
      ],
      "name": "rollupIDToRollupData",
      "outputs": [
        {
          "components": [
            {
              "internalType": "address",
              "name": "rollupContract",
              "type": "address"
            },
            {
              "internalType": "uint64",
              "name": "chainID",
              "type": "uint64"
            },
            {
              "internalType": "address",
              "name": "verifier",
              "type": "address"
            },
            {
              "internalType": "uint64",
              "name": "forkID",
              "type": "uint64"
            },
            {
              "internalType": "bytes32",
              "name": "lastLocalExitRoot",
              "type": "bytes32"
            },
            {
              "internalType": "uint64",
              "name": "lastBatchSequenced",
              "type": "uint64"
            },
            {
              "internalType": "uint64",
              "name": "lastVerifiedBatch",
              "type": "uint64"
            },
            {
              "internalType": "uint64",
              "name": "_legacyLastPendingState",
              "type": "uint64"
            },
            {
              "internalType": "uint64",
              "name": "_legacyLastPendingStateConsolidated",
              "type": "uint64"
            },
            {
              "internalType": "uint64",
              "name": "lastVerifiedBatchBeforeUpgrade",
              "type": "uint64"
            },
            {
              "internalType": "uint64",
              "name": "rollupTypeID",
              "type": "uint64"
            },
            {
              "internalType": "enum IPolygonRollupManager.VerifierType",
              "name": "rollupVerifierType",
              "type": "uint8"
            }
          ],
          "internalType": "struct PolygonRollupManager.RollupDataReturn",
          "name": "rollupData",
          "type": "tuple"
        }
      ],
      "stateMutability": "view",
      "type": "function"
    },
    {
      "inputs": [
        {
          "internalType": "uint32",
          "name": "rollupID",
          "type": "uint32"
        }
      ],
      "name": "rollupIDToRollupDataDeserialized",
      "outputs": [
        {
          "internalType": "address",
          "name": "rollupContract",
          "type": "address"
        },
        {
          "internalType": "uint64",
          "name": "chainID",
          "type": "uint64"
        },
        {
          "internalType": "address",
          "name": "verifier",
          "type": "address"
        },
        {
          "internalType": "uint64",
          "name": "forkID",
          "type": "uint64"
        },
        {
          "internalType": "bytes32",
          "name": "lastLocalExitRoot",
          "type": "bytes32"
        },
        {
          "internalType": "uint64",
          "name": "lastBatchSequenced",
          "type": "uint64"
        },
        {
          "internalType": "uint64",
          "name": "lastVerifiedBatch",
          "type": "uint64"
        },
        {
          "internalType": "uint64",
          "name": "legacyLastPendingState",
          "type": "uint64"
        },
        {
          "internalType": "uint64",
          "name": "legacyLastPendingStateConsolidated",
          "type": "uint64"
        },
        {
          "internalType": "uint64",
          "name": "lastVerifiedBatchBeforeUpgrade",
          "type": "uint64"
        },
        {
          "internalType": "uint64",
          "name": "rollupTypeID",
          "type": "uint64"
        },
        {
          "internalType": "enum IPolygonRollupManager.VerifierType",
          "name": "rollupVerifierType",
          "type": "uint8"
        }
      ],
      "stateMutability": "view",
      "type": "function"
    },
    {
      "inputs": [
        {
          "internalType": "uint32",
          "name": "rollupID",
          "type": "uint32"
        }
      ],
      "name": "rollupIDToRollupDataV2",
      "outputs": [
        {
          "components": [
            {
              "internalType": "address",
              "name": "rollupContract",
              "type": "address"
            },
            {
              "internalType": "uint64",
              "name": "chainID",
              "type": "uint64"
            },
            {
              "internalType": "address",
              "name": "verifier",
              "type": "address"
            },
            {
              "internalType": "uint64",
              "name": "forkID",
              "type": "uint64"
            },
            {
              "internalType": "bytes32",
              "name": "lastLocalExitRoot",
              "type": "bytes32"
            },
            {
              "internalType": "uint64",
              "name": "lastBatchSequenced",
              "type": "uint64"
            },
            {
              "internalType": "uint64",
              "name": "lastVerifiedBatch",
              "type": "uint64"
            },
            {
              "internalType": "uint64",
              "name": "lastVerifiedBatchBeforeUpgrade",
              "type": "uint64"
            },
            {
              "internalType": "uint64",
              "name": "rollupTypeID",
              "type": "uint64"
            },
            {
              "internalType": "enum IPolygonRollupManager.VerifierType",
              "name": "rollupVerifierType",
              "type": "uint8"
            },
            {
              "internalType": "bytes32",
              "name": "lastPessimisticRoot",
              "type": "bytes32"
            },
            {
              "internalType": "bytes32",
              "name": "programVKey",
              "type": "bytes32"
            }
          ],
          "internalType": "struct PolygonRollupManager.RollupDataReturnV2",
          "name": "rollupData",
          "type": "tuple"
        }
      ],
      "stateMutability": "view",
      "type": "function"
    },
    {
      "inputs": [
        {
          "internalType": "uint32",
          "name": "rollupID",
          "type": "uint32"
        }
      ],
      "name": "rollupIDToRollupDataV2Deserialized",
      "outputs": [
        {
          "internalType": "address",
          "name": "rollupContract",
          "type": "address"
        },
        {
          "internalType": "uint64",
          "name": "chainID",
          "type": "uint64"
        },
        {
          "internalType": "address",
          "name": "verifier",
          "type": "address"
        },
        {
          "internalType": "uint64",
          "name": "forkID",
          "type": "uint64"
        },
        {
          "internalType": "bytes32",
          "name": "lastLocalExitRoot",
          "type": "bytes32"
        },
        {
          "internalType": "uint64",
          "name": "lastBatchSequenced",
          "type": "uint64"
        },
        {
          "internalType": "uint64",
          "name": "lastVerifiedBatch",
          "type": "uint64"
        },
        {
          "internalType": "uint64",
          "name": "lastVerifiedBatchBeforeUpgrade",
          "type": "uint64"
        },
        {
          "internalType": "uint64",
          "name": "rollupTypeID",
          "type": "uint64"
        },
        {
          "internalType": "enum IPolygonRollupManager.VerifierType",
          "name": "rollupVerifierType",
          "type": "uint8"
        },
        {
          "internalType": "bytes32",
          "name": "lastPessimisticRoot",
          "type": "bytes32"
        },
        {
          "internalType": "bytes32",
          "name": "programVKey",
          "type": "bytes32"
        }
      ],
      "stateMutability": "view",
      "type": "function"
    },
    {
      "inputs": [],
      "name": "rollupTypeCount",
      "outputs": [
        {
          "internalType": "uint32",
          "name": "",
          "type": "uint32"
        }
      ],
      "stateMutability": "view",
      "type": "function"
    },
    {
      "inputs": [
        {
          "internalType": "uint32",
          "name": "rollupTypeID",
          "type": "uint32"
        }
      ],
      "name": "rollupTypeMap",
      "outputs": [
        {
          "internalType": "address",
          "name": "consensusImplementation",
          "type": "address"
        },
        {
          "internalType": "address",
          "name": "verifier",
          "type": "address"
        },
        {
          "internalType": "uint64",
          "name": "forkID",
          "type": "uint64"
        },
        {
          "internalType": "enum IPolygonRollupManager.VerifierType",
          "name": "rollupVerifierType",
          "type": "uint8"
        },
        {
          "internalType": "bool",
          "name": "obsolete",
          "type": "bool"
        },
        {
          "internalType": "bytes32",
          "name": "genesis",
          "type": "bytes32"
        },
        {
          "internalType": "bytes32",
          "name": "programVKey",
          "type": "bytes32"
        }
      ],
      "stateMutability": "view",
      "type": "function"
    },
    {
      "inputs": [
        {
          "internalType": "uint256",
          "name": "newBatchFee",
          "type": "uint256"
        }
      ],
      "name": "setBatchFee",
      "outputs": [],
      "stateMutability": "nonpayable",
      "type": "function"
    },
    {
      "inputs": [],
      "name": "totalSequencedBatches",
      "outputs": [
        {
          "internalType": "uint64",
          "name": "",
          "type": "uint64"
        }
      ],
      "stateMutability": "view",
      "type": "function"
    },
    {
      "inputs": [],
      "name": "totalVerifiedBatches",
      "outputs": [
        {
          "internalType": "uint64",
          "name": "",
          "type": "uint64"
        }
      ],
      "stateMutability": "view",
      "type": "function"
    },
    {
      "inputs": [
        {
          "internalType": "contract ITransparentUpgradeableProxy",
          "name": "rollupContract",
          "type": "address"
        },
        {
          "internalType": "uint32",
          "name": "newRollupTypeID",
          "type": "uint32"
        },
        {
          "internalType": "bytes",
          "name": "upgradeData",
          "type": "bytes"
        }
      ],
      "name": "updateRollup",
      "outputs": [],
      "stateMutability": "nonpayable",
      "type": "function"
    },
    {
      "inputs": [
        {
          "internalType": "contract ITransparentUpgradeableProxy",
          "name": "rollupContract",
          "type": "address"
        },
        {
          "internalType": "uint32",
          "name": "newRollupTypeID",
          "type": "uint32"
        }
      ],
      "name": "updateRollupByRollupAdmin",
      "outputs": [],
      "stateMutability": "nonpayable",
      "type": "function"
    },
    {
      "inputs": [
        {
          "internalType": "uint32",
          "name": "rollupID",
          "type": "uint32"
        },
        {
          "internalType": "uint64",
          "name": "pendingStateNum",
          "type": "uint64"
        },
        {
          "internalType": "uint64",
          "name": "initNumBatch",
          "type": "uint64"
        },
        {
          "internalType": "uint64",
          "name": "finalNewBatch",
          "type": "uint64"
        },
        {
          "internalType": "bytes32",
          "name": "newLocalExitRoot",
          "type": "bytes32"
        },
        {
          "internalType": "bytes32",
          "name": "newStateRoot",
          "type": "bytes32"
        },
        {
          "internalType": "address",
          "name": "beneficiary",
          "type": "address"
        },
        {
          "internalType": "bytes32[24]",
          "name": "proof",
          "type": "bytes32[24]"
        }
      ],
      "name": "verifyBatchesTrustedAggregator",
      "outputs": [],
      "stateMutability": "nonpayable",
      "type": "function"
    },
    {
      "inputs": [
        {
          "internalType": "uint32",
          "name": "rollupID",
          "type": "uint32"
        },
        {
          "internalType": "uint32",
          "name": "l1InfoTreeLeafCount",
          "type": "uint32"
        },
        {
          "internalType": "bytes32",
          "name": "newLocalExitRoot",
          "type": "bytes32"
        },
        {
          "internalType": "bytes32",
          "name": "newPessimisticRoot",
          "type": "bytes32"
        },
        {
          "internalType": "bytes",
          "name": "proof",
          "type": "bytes"
        },
        {
          "internalType": "bytes",
          "name": "aggchainData",
          "type": "bytes"
        }
      ],
      "name": "verifyPessimisticTrustedAggregator",
      "outputs": [],
      "stateMutability": "nonpayable",
      "type": "function"
    },
    {
      "inputs": [],
      "name": "version",
      "outputs": [
        {
          "internalType": "string",
          "name": "",
          "type": "string"
        }
      ],
      "stateMutability": "pure",
      "type": "function"
    }
  ],
  "bytecode": "0x610100604052348015610010575f5ffd5b50604051615f39380380615f3983398101604081905261002f91610192565b6001600160a01b038416158061004c57506001600160a01b038316155b8061005e57506001600160a01b038216155b8061007057506001600160a01b038116155b1561008e576040516342eda64b60e11b815260040160405180910390fd5b6001600160a01b0380851660805283811660c05282811660a052811660e0526100b56100be565b505050506101ee565b5f54610100900460ff16156101295760405162461bcd60e51b815260206004820152602760248201527f496e697469616c697a61626c653a20636f6e747261637420697320696e697469604482015266616c697a696e6760c81b606482015260840160405180910390fd5b5f5460ff9081161015610179575f805460ff191660ff9081179091556040519081527f7f26b83ff96e1f2b6a682f133852f6798a09c465da95921460cefb38474024989060200160405180910390a15b565b6001600160a01b038116811461018f575f5ffd5b50565b5f5f5f5f608085870312156101a5575f5ffd5b84516101b08161017b565b60208601519094506101c18161017b565b60408601519093506101d28161017b565b60608601519092506101e38161017b565b939692955090935050565b60805160a05160c05160e051615ce06102595f395f818161075f0152610f9d01525f81816108a501528181611f12015261374901525f818161072b015281816129d3015261384701525f81816107eb01528181610af801528181610e0601526110aa0152615ce05ff3fe608060405234801561000f575f5ffd5b50600436106102b8575f3560e01c806391d1485411610177578063d5073f6f116100d5578063dfdb8c5e1161008f578063dfdb8c5e1461088d578063e46761c4146108a0578063e4f3d8f9146108c7578063e764a37314610977578063e80e50301461098a578063f4e926751461099d578063f9c4c2ae146109ad575f5ffd5b8063d5073f6f1461080d578063d547741f14610820578063d890581214610833578063dbc1697614610858578063dd0464b914610860578063dde0ff7714610873575f5ffd5b8063a3c573eb11610131578063a3c573eb14610726578063ab0475cf1461075a578063abcb519814610781578063c1acbc3414610794578063c4c928c2146107ae578063ceee281d146107c1578063d02103ca146107e6575f5ffd5b806391d14854146106d657806397d289a3146106e957806399f5634e146106fc5780639a908e7314610704578063a217fddf14610717578063a2967d991461071e575f5ffd5b8063477fa2701161022457806370603909116101de57806370603909146105a25780637222020f1461065057806374d9c244146106635780637975fcfe146106835780637fb6e76a146106965780638129fc1c146106bb5780638fd88cc2146106c3575f5ffd5b8063477fa2701461049957806354fd4d50146104a157806355a71ee0146104cc578063604691691461050c57806365c0504d146105145780636c7668771461058f575f5ffd5b8063248a9ca311610275578063248a9ca31461035e578063252801691461038e5780632f2ff15d1461043e57806330c27dde1461045157806336568abe146104645780633a7094bd14610477575f5ffd5b8063066ec012146102bc57806311f6b287146102ec5780631489ed10146102ff57806315064c96146103145780631796a1ae146103315780632072f6c514610356575b5f5ffd5b6084546102cf906001600160401b031681565b6040516001600160401b0390911681526020015b60405180910390f35b6102cf6102fa36600461433a565b6109cd565b61031261030d366004614384565b6109fc565b005b606f546103219060ff1681565b60405190151581526020016102e3565b607e546103419063ffffffff1681565b60405163ffffffff90911681526020016102e3565b610312610bd8565b61038061036c366004614412565b5f9081526034602052604090206001015490565b6040519081526020016102e3565b61040b61039c366004614429565b60408051606080820183525f808352602080840182905292840181905263ffffffff959095168552608182528285206001600160401b03948516865260030182529382902082519485018352805485526001015480841691850191909152600160401b90049091169082015290565b60408051825181526020808401516001600160401b039081169183019190915292820151909216908201526060016102e3565b61031261044c36600461445a565b610ca3565b6087546102cf906001600160401b031681565b61031261047236600461445a565b610ccc565b61032161048536600461433a565b60886020525f908152604090205460ff1681565b608654610380565b604080518082019091526006815265076312e302e360d41b60208201525b6040516102e391906144b6565b6103806104da366004614429565b63ffffffff82165f9081526081602090815260408083206001600160401b038516845260020190915290205492915050565b610380610d03565b61057c61052236600461433a565b607f6020525f908152604090208054600182015460028301546003909301546001600160a01b0392831693928216926001600160401b03600160a01b8404169260ff600160e01b8204811693600160e81b90920416919087565b6040516102e397969594939291906144fc565b61031261059d366004614592565b610d18565b6106386105b036600461433a565b63ffffffff165f9081526081602052604090208054600182015460058301546006840154600785015460088601546009909601546001600160a01b0380871698600160a01b978890046001600160401b03908116999288169890970487169680861695600160401b908190048216958281169591810490921693600160801b90920460ff1692565b6040516102e39c9b9a99989796959493929190614632565b61031261065e36600461433a565b6112a5565b61067661067136600461433a565b611396565b6040516102e391906146c3565b6104bf6106913660046147d1565b6114e5565b6103416106a436600461482c565b60836020525f908152604090205463ffffffff1681565b610312611515565b6103126106d1366004614845565b611644565b6103216106e436600461445a565b6119b2565b6103126106f7366004614924565b6119dc565b610380611f0e565b6102cf61071236600461497d565b611fea565b6103805f81565b6103806121d7565b61074d7f000000000000000000000000000000000000000000000000000000000000000081565b6040516102e391906149a5565b61074d7f000000000000000000000000000000000000000000000000000000000000000081565b61031261078f3660046149c7565b61249d565b6084546102cf90600160801b90046001600160401b031681565b6103126107bc366004614a6d565b6127b1565b6103416107cf366004614a98565b60826020525f908152604090205463ffffffff1681565b61074d7f000000000000000000000000000000000000000000000000000000000000000081565b61031261081b366004614412565b6128b9565b61031261082e36600461445a565b612957565b6104bf60405180604001604052806006815260200165076312e302e360d41b81525081565b61031261297b565b6104bf61086e366004614ab3565b612a41565b6084546102cf90600160401b90046001600160401b031681565b61031261089b366004614b1e565b612a68565b61074d7f000000000000000000000000000000000000000000000000000000000000000081565b61095f6108d536600461433a565b63ffffffff165f90815260816020526040902080546001820154600583015460068401546007909401546001600160a01b0380851696600160a01b958690046001600160401b03908116979286169690950485169480831693600160401b808504831694600160801b808204851695600160c01b9092048516948085169493840416920460ff1690565b6040516102e39c9b9a99989796959493929190614b48565b610312610985366004614bee565b612dec565b610312610998366004614c09565b612f58565b6080546103419063ffffffff1681565b6109c06109bb36600461433a565b613397565b6040516102e39190614c8a565b63ffffffff81165f90815260816020526040812060060154600160401b90046001600160401b03165b92915050565b7f084e94f375e9d647f87f5b2ceffba1e062c70f6009fdbcf80291e803b5c9edd4610a26816134ed565b6001600160401b03881615610a4e5760405163306dfc5760e11b815260040160405180910390fd5b63ffffffff89165f908152608160205260408120906007820154600160801b900460ff166002811115610a8357610a836144c8565b14610aa1576040516390db0d0760e01b815260040160405180910390fd5b610ab0818989898989896134f7565b60068101805467ffffffffffffffff60401b1916600160401b6001600160401b038a16908102919091179091555f9081526002820160205260409020859055600581018690557f00000000000000000000000000000000000000000000000000000000000000006001600160a01b03166333d6247d610b2d6121d7565b6040518263ffffffff1660e01b8152600401610b4b91815260200190565b5f604051808303815f87803b158015610b62575f5ffd5b505af1158015610b74573d5f5f3e3d5ffd5b5050604080516001600160401b038b1681526020810189905290810189905233925063ffffffff8d1691507fd1ec3a1216f08b6eff72e169ceb548b782db18a6614852618d86bb19f3f9b0d39060600160405180910390a350505050505050505050565b610c027f141f8f32ce6198eee741f695cec728bfd32d289f1acf73621fb303581000545e336119b2565b610c9957608454600160801b90046001600160401b03161580610c4e57506084544290610c439062093a8090600160801b90046001600160401b0316614dce565b6001600160401b0316115b80610c7b57506087544290610c709062093a80906001600160401b0316614dce565b6001600160401b0316115b15610c995760405163692baaad60e11b815260040160405180910390fd5b610ca1613845565b565b5f82815260346020526040902060010154610cbd816134ed565b610cc783836138bb565b505050565b6001600160a01b0381163314610cf557604051630b4ad1cd60e31b815260040160405180910390fd5b610cff8282613923565b5050565b5f6086546064610d139190614ded565b905090565b7f084e94f375e9d647f87f5b2ceffba1e062c70f6009fdbcf80291e803b5c9edd4610d42816134ed565b610d4a613989565b63ffffffff89165f908152608160205260408120906007820154600160801b900460ff166002811115610d7f57610d7f6144c8565b03610d9d57604051635b6602b760e01b815260040160405180910390fd5b60016007820154600160801b900460ff166002811115610dbf57610dbf6144c8565b148015610dcb57508215155b15610de957604051630ded782d60e01b815260040160405180910390fd5b60405163ef4eeb3560e01b815263ffffffff8a1660048201525f907f00000000000000000000000000000000000000000000000000000000000000006001600160a01b03169063ef4eeb3590602401602060405180830381865afa158015610e53573d5f5f3e3d5ffd5b505050506040513d601f19601f82011682018060405250810190610e779190614e04565b905080610e975760405163a60721e160e01b815260040160405180910390fd5b63ffffffff8b165f9081526088602052604090205460ff1615610f4d57600582015480610ee157507f27ae5ba08d7291c96c8cbddcc148bf48a6d68c7974b94356f53754ef6171d7575b898114610f01576040516306c6486360e11b815260040160405180910390fd5b5f6005840181905563ffffffff8d1680825260886020526040808320805460ff191690555190917f6f5e400d25cb6bdafe9f941c2ed83a700da8e0da29dfe15ad4b7ed56e6dd151e91a2505b5f610f5d8c84848d8d8b8b6139d0565b905060026007840154600160801b900460ff166002811115610f8157610f816144c8565b036110075760405163a48fd37760e01b81526001600160a01b037f0000000000000000000000000000000000000000000000000000000000000000169063a48fd37790610fd69084908c908c90600401614e43565b5f6040518083038186803b158015610fec575f5ffd5b505afa158015610ffe573d5f5f3e3d5ffd5b5050505061106f565b6001830154600984015460405163020a49e360e51b81526001600160a01b03909216916341493c60916110429185908d908d90600401614e72565b5f6040518083038186803b158015611058575f5ffd5b505afa15801561106a573d5f5f3e3d5ffd5b505050505b6084805467ffffffffffffffff60801b1916600160801b426001600160401b031602179055600583018054908b9055600884018054908b90557f00000000000000000000000000000000000000000000000000000000000000006001600160a01b03166333d6247d6110df6121d7565b6040518263ffffffff1660e01b81526004016110fd91815260200190565b5f604051808303815f87803b158015611114575f5ffd5b505af1158015611126573d5f5f3e3d5ffd5b505050505f8c9050336001600160a01b03168f63ffffffff167fd1ec3a1216f08b6eff72e169ceb548b782db18a6614852618d86bb19f3f9b0d35f5f5f1b85604051611190939291906001600160401b039390931683526020830191909152604082015260600190565b60405180910390a3336001600160a01b03168f63ffffffff167fdf47e7dbf79874ec576f516c40bc1483f7c8ddf4b45bfd4baff4650f1229a711848f87868b6040516111fe959493929190948552602085019390935260408401919091526060830152608082015260a00190565b60405180910390a360026007870154600160801b900460ff166002811115611228576112286144c8565b0361128c578554604051639ee4afa360e01b81526001600160a01b0390911690639ee4afa39061125e908c908c90600401614e9d565b5f604051808303815f87803b158015611275575f5ffd5b505af1158015611287573d5f5f3e3d5ffd5b505050505b50505050505061129a613b53565b505050505050505050565b7fab66e11c4f712cd06ab11bf9339b48bef39e12d4a22eeef71d2860a0c90482bd6112cf816134ed565b63ffffffff821615806112ed5750607e5463ffffffff908116908316115b1561130b57604051637512e5cb60e01b815260040160405180910390fd5b63ffffffff82165f908152607f602052604090206001810154600160e81b900460ff161561134c57604051633b8d3d9960e01b815260040160405180910390fd5b60018101805460ff60e81b1916600160e81b17905560405163ffffffff8416907f4710d2ee567ef1ed6eb2f651dde4589524bcf7cebc62147a99b281cc836e7e44905f90a2505050565b6113f960408051610180810182525f80825260208201819052918101829052606081018290526080810182905260a0810182905260c0810182905260e0810182905261010081018290529061012082019081526020015f81526020015f81525090565b63ffffffff82165f9081526081602090815260409182902080546001600160a01b0380821686526001600160401b03600160a01b928390048116948701949094526001830154908116948601949094529092048116606084015260058201546080840152600682015480821660a0850152600160401b90819004821660c0850152600783015480831660e086015290810490911661010084015261012083019060ff600160801b9091041660028111156114b5576114b56144c8565b908160028111156114c8576114c86144c8565b905250600881015461014083015260090154610160820152919050565b63ffffffff86165f90815260816020526040902060609061150a908787878787613b6a565b979650505050505050565b5f54600590610100900460ff1615801561153557505f5460ff8083169116105b61159d5760405162461bcd60e51b815260206004820152602e60248201527f496e697469616c697a61626c653a20636f6e747261637420697320616c72656160448201526d191e481a5b9a5d1a585b1a5e995960921b60648201526084015b60405180910390fd5b5f805461ffff191660ff8316176101001790556040805180820182526006815265076312e302e360d41b602082015290517f50cadc0c001f05dd4b81db1e92b98d77e718fd2f103fb7b77293e867d329a4c2916115f9916144b6565b60405180910390a15f805461ff001916905560405160ff821681527f7f26b83ff96e1f2b6a682f133852f6798a09c465da95921460cefb38474024989060200160405180910390a150565b61164c613989565b6116635f516020615c6b5f395f51905f52336119b2565b1580156116e15750336001600160a01b0316826001600160a01b031663f851a4406040518163ffffffff1660e01b8152600401602060405180830381865afa1580156116b1573d5f5f3e3d5ffd5b505050506040513d601f19601f820116820180604052508101906116d59190614eb0565b6001600160a01b031614155b156116ff57604051630d03687f60e11b815260040160405180910390fd5b6001600160a01b0382165f9081526082602052604081205463ffffffff169081900361173e576040516374a086a360e01b815260040160405180910390fd5b63ffffffff81165f908152608160205260408120906007820154600160801b900460ff166002811115611773576117736144c8565b14611791576040516390db0d0760e01b815260040160405180910390fd5b60068101546001600160401b03908116908416811115806117c9575060068201546001600160401b03600160401b9091048116908516105b156117e75760405163cb23ebdf60e01b815260040160405180910390fd5b805b846001600160401b0316816001600160401b03161461187f576001600160401b038082165f908152600385016020526040902060010154600160401b9004811690861681101561184c57604051639753965f60e01b815260040160405180910390fd5b6001600160401b039091165f908152600384016020526040812090815560010180546001600160801b03191690556117e9565b60068301805467ffffffffffffffff19166001600160401b0387161790556118a78583614ecb565b608480545f906118c19084906001600160401b0316614ecb565b82546101009290920a6001600160401b0381810219909316918316021790915586165f8181526003860160205260409081902054905163334d6f6760e11b8152600481019290925260248201526001600160a01b038816915063669adece906044015f604051808303815f87803b15801561193a575f5ffd5b505af115801561194c573d5f5f3e3d5ffd5b505050506001600160401b0385165f81815260038501602090815260409182902054915191825263ffffffff8716917f80a6d395a55aed8126079cb8247f0a6848b1440ca2cdca3b4386f250c3529402910160405180910390a350505050610cff613b53565b5f9182526034602090815260408084206001600160a01b0393909316845291905290205460ff1690565b7fa0fab074aba36a6fa69f1a83ee86e5abfb8433966eb57efb13dc2fc2f24ddd08611a06816134ed565b63ffffffff84161580611a245750607e5463ffffffff908116908516115b15611a4257604051637512e5cb60e01b815260040160405180910390fd5b63ffffffff84165f908152607f602052604090206001810154600160e81b900460ff1615611a8357604051633b8d3d9960e01b815260040160405180910390fd5b63ffffffff6001600160401b0385161115611ab157604051634c753f5760e01b815260040160405180910390fd5b6001600160401b0384165f9081526083602052604090205463ffffffff1615611aed576040516337c8fe0960e11b815260040160405180910390fd5b608080545f91908290611b059063ffffffff16614eea565b825463ffffffff8281166101009490940a93840293021916919091179091558254604080515f80825260208201928390529394506001600160a01b03909216913091611b509061431a565b611b5c93929190614f0e565b604051809103905ff080158015611b75573d5f5f3e3d5ffd5b506001600160401b0387165f818152608360209081526040808320805463ffffffff1990811663ffffffff8a81169182179093556001600160a01b038816808752608286528487208054909316821790925585526081909352922080546001600160e01b031916909117600160a01b90930292909217825560078201805467ffffffffffffffff60401b198116928c16600160401b02928317825560018801549495509293600160e01b900460ff1692909168ffffffffffffffffff60401b1990911660ff60801b1990911617600160801b836002811115611c5957611c596144c8565b021790555060026001850154600160e01b900460ff166002811115611c8057611c806144c8565b03611daf578263ffffffff167f144e3f9b5c63682a3bb7e9ad31e99c043890d3d540cd79dcebc3b5bdfba94c9b89848a88600101601c9054906101000a900460ff166002811115611cd357611cd36144c8565b8b604051611ce5959493929190614f42565b60405180910390a28263ffffffff167f194c983456df6701c6a50830b90fe80e72b823411d0d524970c9590dc277a64189848a6001600160a01b03604051611d309493929190614f89565b60405180910390a25f86806020019051810190611d4d9190614eb0565b60405163b3a326f760e01b81529091506001600160a01b0384169063b3a326f790611d7c9084906004016149a5565b5f604051808303815f87803b158015611d93575f5ffd5b505af1158015611da5573d5f5f3e3d5ffd5b5050505050611f04565b60018481018054918301805467ffffffffffffffff60a01b198116600160a01b948590046001600160401b0316909402938417825591546001600160a01b03166001600160e01b03199092166001600160a01b0319909316929092171790556002808501545f808052918301602090815260408320919091556003860154600984015587518291829182918291611e4d91908d018101908d0161500e565b945094509450945094508763ffffffff167f194c983456df6701c6a50830b90fe80e72b823411d0d524970c9590dc277a6418e898f87604051611e939493929190614f89565b60405180910390a2604051633892b81160e11b81526001600160a01b03881690637125702290611ed190889088908d908990899089906004016150aa565b5f604051808303815f87803b158015611ee8575f5ffd5b505af1158015611efa573d5f5f3e3d5ffd5b5050505050505050505b5050505050505050565b5f5f7f00000000000000000000000000000000000000000000000000000000000000006001600160a01b03166370a08231306040518263ffffffff1660e01b8152600401611f5c91906149a5565b602060405180830381865afa158015611f77573d5f5f3e3d5ffd5b505050506040513d601f19601f82011682018060405250810190611f9b9190614e04565b6084549091505f90611fbf906001600160401b03600160401b820481169116614ecb565b6001600160401b03169050805f03611fd9575f9250505090565b611fe3818361511c565b9250505090565b606f545f9060ff161561201057604051630bc011ff60e21b815260040160405180910390fd5b335f9081526082602052604081205463ffffffff1690819003612046576040516371653c1560e01b815260040160405180910390fd5b836001600160401b03165f0361206f57604051632590ccf960e01b815260040160405180910390fd5b63ffffffff81165f908152608160205260408120906007820154600160801b900460ff1660028111156120a4576120a46144c8565b146120c2576040516390db0d0760e01b815260040160405180910390fd5b608480548691905f906120df9084906001600160401b0316614dce565b82546101009290920a6001600160401b0381810219909316918316021790915560068301541690505f6121128783614dce565b6006840180546001600160401b0383811667ffffffffffffffff199092168217909255604080516060810182528a815242841660208083019182528886168385019081525f86815260038c018352859020935184559151600193909301805492518716600160401b026001600160801b03199093169390961692909217179093555190815291925063ffffffff8616917f1d9f30260051d51d70339da239ea7b080021adcaabfa71c9b0ea339a20cf9a25910160405180910390a29695505050505050565b6080545f9063ffffffff168082036121f057505f919050565b5f816001600160401b0381111561220957612209614861565b604051908082528060200260200182016040528015612232578160200160208202803683370190505b5090505f5b8281101561228f5760815f61224d83600161512f565b63ffffffff1663ffffffff1681526020019081526020015f206005015482828151811061227c5761227c615142565b6020908102919091010152600101612237565b505f60205b8360011461244c575f6122a8600286615156565b6122b360028761511c565b6122bd919061512f565b90505f816001600160401b038111156122d8576122d8614861565b604051908082528060200260200182016040528015612301578160200160208202803683370190505b5090505f5b8281101561241c57612319600184615169565b81148015612331575061232d600288615156565b6001145b1561238f5761236c86612345836002614ded565b8151811061235557612355615142565b6020026020010151865f9182526020526040902090565b82828151811061237e5761237e615142565b602002602001018181525050612414565b6123f58661239e836002614ded565b815181106123ae576123ae615142565b6020026020010151878360026123c49190614ded565b6123cf90600161512f565b815181106123df576123df615142565b60200260200101515f9182526020526040902090565b82828151811061240757612407615142565b6020026020010181815250505b600101612306565b5080945081955061243684855f9182526020526040902090565b9350826124428161517c565b9350505050612294565b5f835f8151811061245f5761245f615142565b602002602001015190505f5f90505b82811015612493575f918252602084905260408083208584529220935060010161246e565b5095945050505050565b7fac75d24dbb35ea80e25fab167da4dea46c1915260426570db84f184891f5f5906124c7816134ed565b306001600160a01b038916036124f05760405163325c055b60e21b815260040160405180910390fd5b607e80545f919082906125089063ffffffff16614eea565b91906101000a81548163ffffffff021916908363ffffffff160217905590506001600281111561253a5761253a6144c8565b86600281111561254c5761254c6144c8565b03612575578415612570576040516363d722e760e01b815260040160405180910390fd5b61262f565b6002866002811115612589576125896144c8565b036125df576001600160a01b0388161515806125ad57506001600160401b03871615155b806125b757508415155b806125c157508215155b15612570576040516363d722e760e01b815260040160405180910390fd5b5f8660028111156125f2576125f26144c8565b03612616578215612570576040516363d722e760e01b815260040160405180910390fd5b6040516363d722e760e01b815260040160405180910390fd5b6040518060e001604052808a6001600160a01b03168152602001896001600160a01b03168152602001886001600160401b03168152602001876002811115612679576126796144c8565b81525f602080830182905260408084018a9052606093840188905263ffffffff86168352607f825291829020845181546001600160a01b039182166001600160a01b031990911617825591850151600182018054948701516001600160401b0316600160a01b026001600160e01b031990951691909316179290921780825592840151919260ff60e01b1916600160e01b83600281111561271c5761271c6144c8565b02179055506080820151600182018054911515600160e81b0260ff60e81b1990921691909117905560a0820151600282015560c09091015160039091015560405163ffffffff8216907f9eaf2ecbddb14889c9e141a63175c55ac25e0cd7cdea312cdfbd0397976b383a9061279e908c908c908c908c908c908c908c90615191565b60405180910390a2505050505050505050565b5f516020615c6b5f395f51905f526127c8816134ed565b6001600160a01b0384165f9081526082602090815260408083205463ffffffff168084526081909252909120600263ffffffff86165f908152607f6020526040902060010154600160e01b900460ff166002811115612829576128296144c8565b14158015612888575063ffffffff85165f908152607f6020526040902060010154600160e01b900460ff166002811115612865576128656144c8565b6007820154600160801b900460ff166002811115612885576128856144c8565b14155b156128a657604051635aa0d5f160e11b815260040160405180910390fd5b6128b1868686613c6d565b505050505050565b7f8cf807f6970720f8e2c208c7c5037595982c7bd9ed93c380d09df743d0dcc3fb6128e3816134ed565b683635c9adc5dea000008211806128fd5750633b9aca0082105b1561291b57604051638586952560e01b815260040160405180910390fd5b60868290556040518281527ffb383653f53ee079978d0c9aff7aeff04a10166ce244cca9c9f9d8d96bed45b29060200160405180910390a15050565b5f82815260346020526040902060010154612971816134ed565b610cc78383613923565b7f62ba6ba2ffed8cfe316b583325ea41ac6e7ba9e5864d2bc6fabba7ac26d2f0f46129a5816134ed565b6087805467ffffffffffffffff1916426001600160401b031617905560408051636de0b4bb60e11b815290517f00000000000000000000000000000000000000000000000000000000000000006001600160a01b03169163dbc16976916004808301925f92919082900301818387803b158015612a20575f5ffd5b505af1158015612a32573d5f5f3e3d5ffd5b50505050612a3e613f18565b50565b63ffffffff86165f90815260816020526040902060609061150a90889088888888886139d0565b6001600160a01b0382165f9081526082602090815260408083205463ffffffff1683526081909152902060026007820154600160801b900460ff166002811115612ab457612ab46144c8565b03612c5d57336001600160a01b0316836001600160a01b0316637388c4366040518163ffffffff1660e01b8152600401602060405180830381865afa158015612aff573d5f5f3e3d5ffd5b505050506040513d601f19601f82011682018060405250810190612b239190614eb0565b6001600160a01b031614612b4a5760405163660a7ce560e01b815260040160405180910390fd5b63ffffffff82165f908152607f6020908152604091829020548251636e7fbce960e01b815292516001600160a01b0390911692636e7fbce99260048083019391928290030181865afa158015612ba2573d5f5f3e3d5ffd5b505050506040513d601f19601f82011682018060405250810190612bc691906151f0565b6001600160f01b031916836001600160a01b0316636e7fbce96040518163ffffffff1660e01b8152600401602060405180830381865afa158015612c0c573d5f5f3e3d5ffd5b505050506040513d601f19601f82011682018060405250810190612c3091906151f0565b6001600160f01b03191614612c5857604051635aa0d5f160e11b815260040160405180910390fd5b612d25565b336001600160a01b0316836001600160a01b031663f851a4406040518163ffffffff1660e01b8152600401602060405180830381865afa158015612ca3573d5f5f3e3d5ffd5b505050506040513d601f19601f82011682018060405250810190612cc79190614eb0565b6001600160a01b031614612cee5760405163696072e960e01b815260040160405180910390fd5b60068101546001600160401b03808216600160401b9092041614612d255760405163664316a560e11b815260040160405180910390fd5b600781015463ffffffff8316600160401b9091046001600160401b031610612d6057604051633e37e23360e01b815260040160405180910390fd5b63ffffffff82165f908152607f6020526040902060010154600160e01b900460ff166002811115612d9357612d936144c8565b6007820154600160801b900460ff166002811115612db357612db36144c8565b14612dd157604051635aa0d5f160e11b815260040160405180910390fd5b604080515f815260208101909152610cc79084908490613c6d565b5f516020615c6b5f395f51905f52612e03816134ed565b63ffffffff84165f908152608160205260408120906007820154600160801b900460ff166002811115612e3857612e386144c8565b14612e56576040516390db0d0760e01b815260040160405180910390fd5b60068101546001600160401b03808216600160401b9092041614612e8d5760405163664316a560e11b815260040160405180910390fd5b5f63ffffffff85165f908152607f6020526040902060010154600160e01b900460ff166002811115612ec157612ec16144c8565b03612edf576040516301ea4e5b60e01b815260040160405180910390fd5b63ffffffff85165f908152608860205260409020805460ff191660011790558054612f14906001600160a01b03168585613c6d565b60405163ffffffff85811682528616907f3fb14e3ae056c8bb24b0f03d618f2aada703672121f643107dac4783669a9de99060200160405180910390a25050505050565b7f3dfe277d2a2c04b75fb2eb3743fa00005ae3678a20c299e65fdf4df76517f68e612f82816134ed565b6001600160401b0386165f9081526083602052604090205463ffffffff1615612fbe576040516337c8fe0960e11b815260040160405180910390fd5b63ffffffff6001600160401b0387161115612fec57604051634c753f5760e01b815260040160405180910390fd5b6001600160a01b0389165f9081526082602052604090205463ffffffff161561302857604051630d409b9360e41b815260040160405180910390fd5b6001600160a01b03891630148061304757506001600160a01b0389163b155b156130655760405163325c055b60e21b815260040160405180910390fd5b608080545f9190829061307d9063ffffffff16614eea565b91906101000a81548163ffffffff021916908363ffffffff160217905590508060835f896001600160401b03166001600160401b031681526020019081526020015f205f6101000a81548163ffffffff021916908363ffffffff1602179055508060825f8c6001600160a01b03166001600160a01b031681526020019081526020015f205f6101000a81548163ffffffff021916908363ffffffff1602179055505f60815f8363ffffffff1663ffffffff1681526020019081526020015f2090508a815f015f6101000a8154816001600160a01b0302191690836001600160a01b03160217905550888160010160146101000a8154816001600160401b0302191690836001600160401b0316021790555089816001015f6101000a8154816001600160a01b0302191690836001600160a01b0316021790555087815f0160146101000a8154816001600160401b0302191690836001600160401b03160217905550858160070160106101000a81548160ff02191690836002811115613204576132046144c8565b0217905550600186600281111561321d5761321d6144c8565b03613266576009810185905560088101849055600581018790556001600160a01b038a163b5f036132615760405163043103a360e21b815260040160405180910390fd5b613340565b600286600281111561327a5761327a6144c8565b036132d9576001600160a01b038a1615158061329e57506001600160401b03891615155b806132a857508415155b156132c657604051636fc5557f60e01b815260040160405180910390fd5b6008810184905560058101879055613340565b841515806132e657508315155b1561330457604051636fc5557f60e01b815260040160405180910390fd5b5f80805260028201602052604081208890556001600160a01b038b163b90036133405760405163043103a360e21b815260040160405180910390fd5b8163ffffffff167f4da47f6e9bbd9ef91887183a576aaebcf1b9bb7d2a567b33b075044c6d36082e8a8d8b8a5f8b8b6040516133829796959493929190615217565b60405180910390a25050505050505050505050565b6133fb60408051610180810182525f80825260208201819052918101829052606081018290526080810182905260a0810182905260c0810182905260e081018290526101008101829052610120810182905261014081018290529061016082015290565b63ffffffff82165f9081526081602090815260409182902080546001600160a01b038082168652600160a01b918290046001600160401b03908116948701949094526001830154908116948601949094529092048116606084015260058201546080840152600682015480821660a0850152600160401b808204831660c0860152600160801b808304841660e0870152600160c01b909204831661010086015260078401548084166101208701529081049092166101408501526101608401910460ff1660028111156134d0576134d06144c8565b908160028111156134e3576134e36144c8565b8152505050919050565b612a3e8133613f6f565b5f5f61351589600601546001600160401b03600160401b9091041690565b60078a01549091506001600160401b03908116908916101561354a5760405163ead1340b60e01b815260040160405180910390fd5b6001600160401b0388165f90815260028a016020526040902054915081613584576040516324cbdcc360e11b815260040160405180910390fd5b806001600160401b0316886001600160401b031611156135b757604051630f2b74f160e11b815260040160405180910390fd5b806001600160401b0316876001600160401b0316116135e95760405163b9b18f5760e01b815260040160405180910390fd5b5f6135f88a8a8a8a878b613b6a565b90505f7f30644e72e131a029b85045b68181585d2833e84879b9709143e1f593f000000160028360405161362c9190615272565b602060405180830381855afa158015613647573d5f5f3e3d5ffd5b5050506040513d601f19601f8201168201806040525081019061366a9190614e04565b6136749190615156565b60018c0154604080516020810182528381529051634890ed4560e11b81529293506001600160a01b0390911691639121da8a916136b691899190600401615288565b602060405180830381865afa1580156136d1573d5f5f3e3d5ffd5b505050506040513d601f19601f820116820180604052508101906136f591906152c4565b613712576040516309bde33960e01b815260040160405180910390fd5b5f61371d848b614ecb565b905061377087826001600160401b0316613735611f0e565b61373f9190614ded565b6001600160a01b037f0000000000000000000000000000000000000000000000000000000000000000169190613f96565b80608460088282829054906101000a90046001600160401b03166137949190614dce565b82546101009290920a6001600160401b038181021990931691831602179091556084805467ffffffffffffffff60801b1916600160801b428416021790558d546040516332c2d15360e01b8152918d166004830152602482018b90523360448301526001600160a01b031691506332c2d153906064015f604051808303815f87803b158015613821575f5ffd5b505af1158015613833573d5f5f3e3d5ffd5b50505050505050505050505050505050565b7f00000000000000000000000000000000000000000000000000000000000000006001600160a01b0316632072f6c56040518163ffffffff1660e01b81526004015f604051808303815f87803b15801561389d575f5ffd5b505af11580156138af573d5f5f3e3d5ffd5b50505050610ca1613fe8565b6138c582826119b2565b610cff575f8281526034602090815260408083206001600160a01b0385168085529252808320805460ff1916600117905551339285917f2f8788117e7eff1d82e926ec794901d17c78024a50270940304540a733656f0d9190a45050565b61392d82826119b2565b15610cff575f8281526034602090815260408083206001600160a01b0385168085529252808320805460ff1916905551339285917ff6391f5c32d9c69d2a47ea670b442974b53935d1edc7fd64eb21e047a839171b9190a45050565b5f516020615c8b5f395f51905f525c156139b657604051633ee5aeb560e01b815260040160405180910390fd5b610ca160015f516020615c8b5f395f51905f525b90614043565b606060026007880154600160801b900460ff1660028111156139f4576139f46144c8565b03613aa6578654604051631a957d9b60e21b81525f916001600160a01b031690636a55f66c90613a2a9087908790600401614e9d565b602060405180830381865afa158015613a45573d5f5f3e3d5ffd5b505050506040513d601f19601f82011682018060405250810190613a699190614e04565b600589015460088a0154604051929350613a8f928a908d9086908c908c906020016152e3565b60405160208183030381529060405291505061150a565b865460408051632b47b7cd60e21b815290515f926001600160a01b03169163ad1edf349160048083019260209291908290030181865afa158015613aec573d5f5f3e3d5ffd5b505050506040513d601f19601f82011682018060405250810190613b109190614e04565b600589015460088a0154604051929350613b36928a908d9086908c908c906020016152e3565b604051602081830303815290604052915050979650505050505050565b610ca15f5f516020615c8b5f395f51905f526139ca565b6001600160401b038086165f8181526003890160205260408082205493881682529020546060929115801590613b9e575081155b15613bbc5760405163340c614f60e11b815260040160405180910390fd5b80613bda576040516366385b5160e01b815260040160405180910390fd5b613be38461404a565b613c00576040516305dae44f60e21b815260040160405180910390fd5b3385838a8c5f0160149054906101000a90046001600160401b03168d60010160149054906101000a90046001600160401b031689878d8f604051602001613c509a99989796959493929190615320565b604051602081830303815290604052925050509695505050505050565b63ffffffff82161580613c8b5750607e5463ffffffff908116908316115b15613ca957604051637512e5cb60e01b815260040160405180910390fd5b6001600160a01b0383165f9081526082602052604081205463ffffffff1690819003613ce8576040516374a086a360e01b815260040160405180910390fd5b63ffffffff8181165f908152608160205260409020600781015490918516600160401b9091046001600160401b031603613d3557604051634f61d51960e01b815260040160405180910390fd5b63ffffffff84165f908152607f602052604090206001810154600160e81b900460ff1615613d7657604051633b8d3d9960e01b815260040160405180910390fd5b6001808201805491840180546001600160a01b031981166001600160a01b03909416938417825582546001600160401b03600160a01b9182900416026001600160e01b03199091169093179290921790915560038201546009840155600783018054600160401b63ffffffff89160267ffffffffffffffff60401b19821681178355925460ff600160e01b909104169260ff60801b191668ffffffffffffffffff60401b1990911617600160801b836002811115613e3657613e366144c8565b02179055505f613e45846109cd565b60078401805467ffffffffffffffff19166001600160401b038316179055825460405163278f794360e11b81529192506001600160a01b0389811692634f1ef28692613e9792169089906004016153bc565b5f604051808303815f87803b158015613eae575f5ffd5b505af1158015613ec0573d5f5f3e3d5ffd5b50506040805163ffffffff8a811682526001600160401b0386166020830152881693507ff585e04c05d396901170247783d3e5f0ee9c1df23072985b50af089f5e48b19d92500160405180910390a250505050505050565b606f5460ff16613f3b57604051635386698160e01b815260040160405180910390fd5b606f805460ff191690556040517f1e5e34eea33501aecf2ebec9fe0e884a40804275ea7fe10b2ba084c8374308b3905f90a1565b613f7982826119b2565b610cff57604051637615be1f60e11b815260040160405180910390fd5b604080516001600160a01b038416602482015260448082018490528251808303909101815260649091019091526020810180516001600160e01b031663a9059cbb60e01b179052610cc79084906140cf565b606f5460ff161561400c57604051630bc011ff60e21b815260040160405180910390fd5b606f805460ff191660011790556040517f2261efe5aef6fedc1fd1550b25facc9181745623049c7901287030b9ad1a5497905f90a1565b80825d5050565b5f67ffffffff000000016001600160401b03831610801561407f575067ffffffff00000001604083901c6001600160401b0316105b801561409f575067ffffffff00000001608083901c6001600160401b0316105b80156140b6575067ffffffff0000000160c083901c105b156140c357506001919050565b505f919050565b919050565b5f614123826040518060400160405280602081526020017f5361666545524332303a206c6f772d6c6576656c2063616c6c206661696c6564815250856001600160a01b03166141a09092919063ffffffff16565b805190915015610cc7578080602001905181019061414191906152c4565b610cc75760405162461bcd60e51b815260206004820152602a60248201527f5361666545524332303a204552433230206f7065726174696f6e20646964206e6044820152691bdd081cdd58d8d9595960b21b6064820152608401611594565b60606141ae84845f856141b6565b949350505050565b6060824710156142175760405162461bcd60e51b815260206004820152602660248201527f416464726573733a20696e73756666696369656e742062616c616e636520666f6044820152651c8818d85b1b60d21b6064820152608401611594565b5f5f866001600160a01b031685876040516142329190615272565b5f6040518083038185875af1925050503d805f811461426c576040519150601f19603f3d011682016040523d82523d5f602084013e614271565b606091505b509150915061150a87838387606083156142eb5782515f036142e4576001600160a01b0385163b6142e45760405162461bcd60e51b815260206004820152601d60248201527f416464726573733a2063616c6c20746f206e6f6e2d636f6e74726163740000006044820152606401611594565b50816141ae565b6141ae83838151156143005781518083602001fd5b8060405162461bcd60e51b815260040161159491906144b6565b61088b806153e083390190565b803563ffffffff811681146140ca575f5ffd5b5f6020828403121561434a575f5ffd5b61435382614327565b9392505050565b80356001600160401b03811681146140ca575f5ffd5b6001600160a01b0381168114612a3e575f5ffd5b5f5f5f5f5f5f5f5f6103e0898b03121561439c575f5ffd5b6143a589614327565b97506143b360208a0161435a565b96506143c160408a0161435a565b95506143cf60608a0161435a565b94506080890135935060a0890135925060c08901356143ed81614370565b91506103e089018a10156143ff575f5ffd5b60e0890190509295985092959890939650565b5f60208284031215614422575f5ffd5b5035919050565b5f5f6040838503121561443a575f5ffd5b61444383614327565b91506144516020840161435a565b90509250929050565b5f5f6040838503121561446b575f5ffd5b82359150602083013561447d81614370565b809150509250929050565b5f81518084528060208401602086015e5f602082860101526020601f19601f83011685010191505092915050565b602081525f6143536020830184614488565b634e487b7160e01b5f52602160045260245ffd5b600381106144f857634e487b7160e01b5f52602160045260245ffd5b9052565b6001600160a01b038881168252871660208201526001600160401b038616604082015260e0810161453060608301876144dc565b931515608082015260a081019290925260c090910152949350505050565b5f5f83601f84011261455e575f5ffd5b5081356001600160401b03811115614574575f5ffd5b60208301915083602082850101111561458b575f5ffd5b9250929050565b5f5f5f5f5f5f5f5f60c0898b0312156145a9575f5ffd5b6145b289614327565b97506145c060208a01614327565b9650604089013595506060890135945060808901356001600160401b038111156145e8575f5ffd5b6145f48b828c0161454e565b90955093505060a08901356001600160401b03811115614612575f5ffd5b61461e8b828c0161454e565b999c989b5096995094979396929594505050565b6001600160a01b038d811682526001600160401b038d81166020840152908c1660408301528a81166060830152608082018a905288811660a0830152871660c082015261018081016001600160401b03871660e08301526001600160401b0386166101008301526146a76101208301866144dc565b61014082019390935261016001529a9950505050505050505050565b81516001600160a01b03168152610180810160208301516146ef60208401826001600160401b03169052565b50604083015161470a60408401826001600160a01b03169052565b50606083015161472560608401826001600160401b03169052565b506080830151608083015260a083015161474a60a08401826001600160401b03169052565b5060c083015161476560c08401826001600160401b03169052565b5060e083015161478060e08401826001600160401b03169052565b5061010083015161479d6101008401826001600160401b03169052565b506101208301516147b26101208401826144dc565b5061014083015161014083015261016083015161016083015292915050565b5f5f5f5f5f5f60c087890312156147e6575f5ffd5b6147ef87614327565b95506147fd6020880161435a565b945061480b6040880161435a565b959894975094956060810135955060808101359460a0909101359350915050565b5f6020828403121561483c575f5ffd5b6143538261435a565b5f5f60408385031215614856575f5ffd5b823561444381614370565b634e487b7160e01b5f52604160045260245ffd5b604051601f8201601f191681016001600160401b038111828210171561489d5761489d614861565b604052919050565b5f6001600160401b038211156148bd576148bd614861565b50601f01601f191660200190565b5f6148dd6148d8846148a5565b614875565b90508281528383830111156148f0575f5ffd5b828260208301375f602084830101529392505050565b5f82601f830112614915575f5ffd5b614353838335602085016148cb565b5f5f5f60608486031215614936575f5ffd5b61493f84614327565b925061494d6020850161435a565b915060408401356001600160401b03811115614967575f5ffd5b61497386828701614906565b9150509250925092565b5f5f6040838503121561498e575f5ffd5b6149978361435a565b946020939093013593505050565b6001600160a01b0391909116815260200190565b8035600381106140ca575f5ffd5b5f5f5f5f5f5f5f60e0888a0312156149dd575f5ffd5b87356149e881614370565b965060208801356149f881614370565b9550614a066040890161435a565b9450614a14606089016149b9565b93506080880135925060a08801356001600160401b03811115614a35575f5ffd5b8801601f81018a13614a45575f5ffd5b614a548a8235602084016148cb565b979a969950949793969295929450505060c09091013590565b5f5f5f60608486031215614a7f575f5ffd5b8335614a8a81614370565b925061494d60208501614327565b5f60208284031215614aa8575f5ffd5b813561435381614370565b5f5f5f5f5f5f60a08789031215614ac8575f5ffd5b614ad187614327565b955060208701359450604087013593506060870135925060808701356001600160401b03811115614b00575f5ffd5b614b0c89828a0161454e565b979a9699509497509295939492505050565b5f5f60408385031215614b2f575f5ffd5b8235614b3a81614370565b915061445160208401614327565b6001600160a01b038d811682526001600160401b038d81166020840152908c1660408301528a81166060830152608082018a905288811660a0830152871660c082015261018081016001600160401b03871660e08301526001600160401b0386166101008301526001600160401b0385166101208301526001600160401b038416610140830152614bdd6101608301846144dc565b9d9c50505050505050505050505050565b5f5f5f60608486031215614c00575f5ffd5b614a8a84614327565b5f5f5f5f5f5f5f5f610100898b031215614c21575f5ffd5b8835614c2c81614370565b97506020890135614c3c81614370565b9650614c4a60408a0161435a565b9550614c5860608a0161435a565b945060808901359350614c6d60a08a016149b9565b979a969950949793969295929450505060c08201359160e0013590565b81516001600160a01b0316815261018081016020830151614cb660208401826001600160401b03169052565b506040830151614cd160408401826001600160a01b03169052565b506060830151614cec60608401826001600160401b03169052565b506080830151608083015260a0830151614d1160a08401826001600160401b03169052565b5060c0830151614d2c60c08401826001600160401b03169052565b5060e0830151614d4760e08401826001600160401b03169052565b50610100830151614d646101008401826001600160401b03169052565b50610120830151614d816101208401826001600160401b03169052565b50610140830151614d9e6101408401826001600160401b03169052565b50610160830151614db36101608401826144dc565b5092915050565b634e487b7160e01b5f52601160045260245ffd5b6001600160401b0381811683821601908111156109f6576109f6614dba565b80820281158282048414176109f6576109f6614dba565b5f60208284031215614e14575f5ffd5b5051919050565b81835281816020850137505f828201602090810191909152601f909101601f19169091010190565b604081525f614e556040830186614488565b8281036020840152614e68818587614e1b565b9695505050505050565b848152606060208201525f614e8a6060830186614488565b828103604084015261150a818587614e1b565b602081525f6141ae602083018486614e1b565b5f60208284031215614ec0575f5ffd5b815161435381614370565b6001600160401b0382811682821603908111156109f6576109f6614dba565b5f63ffffffff821663ffffffff8103614f0557614f05614dba565b60010192915050565b6001600160a01b038481168252831660208201526060604082018190525f90614f3990830184614488565b95945050505050565b63ffffffff861681526001600160a01b03851660208201526001600160401b038416604082015260ff8316606082015260a0608082018190525f9061150a90830184614488565b63ffffffff9490941684526001600160a01b0392831660208501526001600160401b0391909116604084015216606082015260800190565b5f82601f830112614fd0575f5ffd5b8151614fde6148d8826148a5565b818152846020838601011115614ff2575f5ffd5b8160208501602083015e5f918101602001919091529392505050565b5f5f5f5f5f60a08688031215615022575f5ffd5b855161502d81614370565b602087015190955061503e81614370565b604087015190945061504f81614370565b60608701519093506001600160401b0381111561506a575f5ffd5b61507688828901614fc1565b92505060808601516001600160401b03811115615091575f5ffd5b61509d88828901614fc1565b9150509295509295909350565b6001600160a01b038781168252868116602083015263ffffffff861660408301528416606082015260c0608082018190525f906150e990830185614488565b82810360a08401526150fb8185614488565b9998505050505050505050565b634e487b7160e01b5f52601260045260245ffd5b5f8261512a5761512a615108565b500490565b808201808211156109f6576109f6614dba565b634e487b7160e01b5f52603260045260245ffd5b5f8261516457615164615108565b500690565b818103818111156109f6576109f6614dba565b5f8161518a5761518a614dba565b505f190190565b6001600160a01b038881168252871660208201526001600160401b03861660408201526151c160608201866144dc565b83608082015260e060a08201525f6151dc60e0830185614488565b90508260c083015298975050505050505050565b5f60208284031215615200575f5ffd5b81516001600160f01b031981168114614353575f5ffd5b6001600160401b0388811682526001600160a01b03881660208301528616604082015260e0810161524b60608301876144dc565b6001600160401b03851660808301528360a08301528260c083015298975050505050505050565b5f82518060208501845e5f920191825250919050565b61032081016103008483376103008201835f5b60018110156152ba57815183526020928301929091019060010161529b565b5050509392505050565b5f602082840312156152d4575f5ffd5b81518015158114614353575f5ffd5b9687526020870195909552604086019390935260e09190911b6001600160e01b03191660608501526064840152608483015260a482015260c40190565b6bffffffffffffffffffffffff198b60601b1681528960148201528860348201526001600160401b0360c01b8860c01b1660548201526001600160401b0360c01b8760c01b16605c8201526001600160401b0360c01b8660c01b16606482015284606c82015283608c8201528260ac8201526153ab60cc82018360c01b6001600160c01b0319169052565b60d4019a9950505050505050505050565b6001600160a01b03831681526040602082018190525f906141ae9083018461448856fe60a060405260405161088b38038061088b83398101604081905261002291610327565b828161002e8282610056565b50506001600160a01b03821660805261004e61004960805190565b6100b4565b50505061040e565b61005f82610121565b6040516001600160a01b038316907fbc7cd75a20ee27fd9adebab32041f755214dbc6bffa90cc0225b39da2e5c2d3b905f90a28051156100a8576100a3828261019f565b505050565b6100b0610212565b5050565b7f7e644d79422f17c01e4894b5f4f588d331ebfa28653d42ae832dc59e38c9798f6100f35f51602061086b5f395f51905f52546001600160a01b031690565b604080516001600160a01b03928316815291841660208301520160405180910390a161011e81610233565b50565b806001600160a01b03163b5f0361015b57604051634c9c8ce360e01b81526001600160a01b03821660048201526024015b60405180910390fd5b807f360894a13ba1a3210667c828492db98dca3e2076cc3735a920a3ca505d382bbc5b80546001600160a01b0319166001600160a01b039290921691909117905550565b60605f5f846001600160a01b0316846040516101bb91906103f8565b5f60405180830381855af49150503d805f81146101f3576040519150601f19603f3d011682016040523d82523d5f602084013e6101f8565b606091505b509092509050610209858383610270565b95945050505050565b34156102315760405163b398979f60e01b815260040160405180910390fd5b565b6001600160a01b03811661025c57604051633173bdd160e11b81525f6004820152602401610152565b805f51602061086b5f395f51905f5261017e565b60608261028557610280826102cf565b6102c8565b815115801561029c57506001600160a01b0384163b155b156102c557604051639996b31560e01b81526001600160a01b0385166004820152602401610152565b50805b9392505050565b8051156102df5780518082602001fd5b604051630a12f52160e11b815260040160405180910390fd5b80516001600160a01b038116811461030e575f5ffd5b919050565b634e487b7160e01b5f52604160045260245ffd5b5f5f5f60608486031215610339575f5ffd5b610342846102f8565b9250610350602085016102f8565b60408501519092506001600160401b0381111561036b575f5ffd5b8401601f8101861361037b575f5ffd5b80516001600160401b0381111561039457610394610313565b604051601f8201601f19908116603f011681016001600160401b03811182821017156103c2576103c2610313565b6040528181528282016020018810156103d9575f5ffd5b8160208401602083015e5f602083830101528093505050509250925092565b5f82518060208501845e5f920191825250919050565b6080516104466104255f395f601001526104465ff3fe608060405261000c61000e565b005b7f00000000000000000000000000000000000000000000000000000000000000006001600160a01b03163303610069575f356001600160e01b03191663278f794360e11b146100615761005f61006d565b565b61005f61007d565b61005f5b61005f6100786100ab565b6100e2565b5f8061008c36600481846102ee565b8101906100999190610329565b915091506100a78282610100565b5050565b5f6100dd7f360894a13ba1a3210667c828492db98dca3e2076cc3735a920a3ca505d382bbc546001600160a01b031690565b905090565b365f5f375f5f365f845af43d5f5f3e8080156100fc573d5ff35b3d5ffd5b6101098261015a565b6040516001600160a01b038316907fbc7cd75a20ee27fd9adebab32041f755214dbc6bffa90cc0225b39da2e5c2d3b905f90a28051156101525761014d82826101d5565b505050565b6100a7610247565b806001600160a01b03163b5f0361019457604051634c9c8ce360e01b81526001600160a01b03821660048201526024015b60405180910390fd5b7f360894a13ba1a3210667c828492db98dca3e2076cc3735a920a3ca505d382bbc80546001600160a01b0319166001600160a01b0392909216919091179055565b60605f5f846001600160a01b0316846040516101f191906103fa565b5f60405180830381855af49150503d805f8114610229576040519150601f19603f3d011682016040523d82523d5f602084013e61022e565b606091505b509150915061023e858383610266565b95945050505050565b341561005f5760405163b398979f60e01b815260040160405180910390fd5b60608261027b57610276826102c5565b6102be565b815115801561029257506001600160a01b0384163b155b156102bb57604051639996b31560e01b81526001600160a01b038516600482015260240161018b565b50805b9392505050565b8051156102d55780518082602001fd5b604051630a12f52160e11b815260040160405180910390fd5b5f5f858511156102fc575f5ffd5b83861115610308575f5ffd5b5050820193919092039150565b634e487b7160e01b5f52604160045260245ffd5b5f5f6040838503121561033a575f5ffd5b82356001600160a01b0381168114610350575f5ffd5b9150602083013567ffffffffffffffff81111561036b575f5ffd5b8301601f8101851361037b575f5ffd5b803567ffffffffffffffff81111561039557610395610315565b604051601f8201601f19908116603f0116810167ffffffffffffffff811182821017156103c4576103c4610315565b6040528181528282016020018710156103db575f5ffd5b816020840160208301375f602083830101528093505050509250929050565b5f82518060208501845e5f92019182525091905056fea2646970667358221220feaf4b46b8ab9968f0c64da39e84fea5f82745ccc735417771c87125c48cd4a364736f6c634300081c0033b53127684a568b3173ae13b9f8a6016e243e63b6e8ee1178d6a717850b5d610366156603fe29d13f97c6f3e3dff4ef71919f9aa61c555be0182d954e94221aac9b779b17422d0df92223018b32b4d1fa46e071723d6817e2486d003becc55f00a26469706673582212205fe201b208e6ac7c0c61a44f65add48767bf3672e0db63b26ecd38a5ae95319664736f6c634300081c0033",
  "linkReferences": {},
  "deployedLinkReferences": {}
}