{
  "_format": "hh-sol-artifact-1",
  "contractName": "PolygonZkEVMGlobalExitRootV2",
  "sourceName": "contracts/v2/PolygonZkEVMGlobalExitRootV2.sol",
  "abi": [
    {
      "inputs": [
        {
          "internalType": "address",
          "name": "_rollupManager",
          "type": "address"
        },
        {
          "internalType": "address",
          "name": "_bridgeAddress",
          "type": "address"
        }
      ],
      "stateMutability": "nonpayable",
      "type": "constructor"
    },
    {
      "inputs": [],
      "name": "GlobalExitRootAlreadySet",
      "type": "error"
    },
    {
      "inputs": [],
      "name": "GlobalExitRootNotFound",
      "type": "error"
    },
    {
      "inputs": [],
      "name": "InvalidZeroAddress",
      "type": "error"
    },
    {
      "inputs": [],
      "name": "MerkleTreeFull",
      "type": "error"
    },
    {
      "inputs": [],
      "name": "NewDepositCountExceedsMax",
      "type": "error"
    },
    {
      "inputs": [],
      "name": "NonZeroValueForUnusedFrontier",
      "type": "error"
    },
    {
      "inputs": [],
      "name": "OnlyAllowedContracts",
      "type": "error"
    },
    {
      "inputs": [],
      "name": "OnlyGlobalExitRootRemover",
      "type": "error"
    },
    {
      "inputs": [],
      "name": "OnlyGlobalExitRootUpdater",
      "type": "error"
    },
    {
      "inputs": [],
      "name": "OnlyPendingGlobalExitRootRemover",
      "type": "error"
    },
    {
      "inputs": [],
      "name": "OnlyPendingGlobalExitRootUpdater",
      "type": "error"
    },
    {
      "inputs": [],
      "name": "SubtreeFrontierMismatch",
      "type": "error"
    },
    {
      "anonymous": false,
      "inputs": [
        {
          "indexed": false,
          "internalType": "uint32",
          "name": "leafCount",
          "type": "uint32"
        },
        {
          "indexed": false,
          "internalType": "bytes32",
          "name": "currentL1InfoRoot",
          "type": "bytes32"
        }
      ],
      "name": "InitL1InfoRootMap",
      "type": "event"
    },
    {
      "anonymous": false,
      "inputs": [
        {
          "indexed": false,
          "internalType": "uint8",
          "name": "version",
          "type": "uint8"
        }
      ],
      "name": "Initialized",
      "type": "event"
    },
    {
      "anonymous": false,
      "inputs": [
        {
          "indexed": true,
          "internalType": "bytes32",
          "name": "mainnetExitRoot",
          "type": "bytes32"
        },
        {
          "indexed": true,
          "internalType": "bytes32",
          "name": "rollupExitRoot",
          "type": "bytes32"
        }
      ],
      "name": "UpdateL1InfoTree",
      "type": "event"
    },
    {
      "anonymous": false,
      "inputs": [
        {
          "indexed": false,
          "internalType": "bytes32",
          "name": "currentL1InfoRoot",
          "type": "bytes32"
        },
        {
          "indexed": true,
          "internalType": "uint32",
          "name": "leafCount",
          "type": "uint32"
        },
        {
          "indexed": false,
          "internalType": "uint256",
          "name": "blockhash",
          "type": "uint256"
        },
        {
          "indexed": false,
          "internalType": "uint64",
          "name": "minTimestamp",
          "type": "uint64"
        }
      ],
      "name": "UpdateL1InfoTreeV2",
      "type": "event"
    },
    {
      "inputs": [],
      "name": "GER_VERSION",
      "outputs": [
        {
          "internalType": "string",
          "name": "",
          "type": "string"
        }
      ],
      "stateMutability": "view",
      "type": "function"
    },
    {
      "inputs": [],
      "name": "bridgeAddress",
      "outputs": [
        {
          "internalType": "address",
          "name": "",
          "type": "address"
        }
      ],
      "stateMutability": "view",
      "type": "function"
    },
    {
      "inputs": [
        {
          "internalType": "bytes32",
          "name": "leafHash",
          "type": "bytes32"
        },
        {
          "internalType": "bytes32[32]",
          "name": "smtProof",
          "type": "bytes32[32]"
        },
        {
          "internalType": "uint32",
          "name": "index",
          "type": "uint32"
        }
      ],
      "name": "calculateRoot",
      "outputs": [
        {
          "internalType": "bytes32",
          "name": "",
          "type": "bytes32"
        }
      ],
      "stateMutability": "pure",
      "type": "function"
    },
    {
      "inputs": [],
      "name": "depositCount",
      "outputs": [
        {
          "internalType": "uint256",
          "name": "",
          "type": "uint256"
        }
      ],
      "stateMutability": "view",
      "type": "function"
    },
    {
      "inputs": [],
      "name": "getLastGlobalExitRoot",
      "outputs": [
        {
          "internalType": "bytes32",
          "name": "",
          "type": "bytes32"
        }
      ],
      "stateMutability": "view",
      "type": "function"
    },
    {
      "inputs": [
        {
          "internalType": "bytes32",
          "name": "newGlobalExitRoot",
          "type": "bytes32"
        },
        {
          "internalType": "uint256",
          "name": "lastBlockHash",
          "type": "uint256"
        },
        {
          "internalType": "uint64",
          "name": "timestamp",
          "type": "uint64"
        }
      ],
      "name": "getLeafValue",
      "outputs": [
        {
          "internalType": "bytes32",
          "name": "",
          "type": "bytes32"
        }
      ],
      "stateMutability": "pure",
      "type": "function"
    },
    {
      "inputs": [],
      "name": "getRoot",
      "outputs": [
        {
          "internalType": "bytes32",
          "name": "",
          "type": "bytes32"
        }
      ],
      "stateMutability": "view",
      "type": "function"
    },
    {
      "inputs": [
        {
          "internalType": "bytes32",
          "name": "",
          "type": "bytes32"
        }
      ],
      "name": "globalExitRootMap",
      "outputs": [
        {
          "internalType": "uint256",
          "name": "",
          "type": "uint256"
        }
      ],
      "stateMutability": "view",
      "type": "function"
    },
    {
      "inputs": [],
      "name": "initialize",
      "outputs": [],
      "stateMutability": "nonpayable",
      "type": "function"
    },
    {
      "inputs": [
        {
          "internalType": "uint32",
          "name": "leafCount",
          "type": "uint32"
        }
      ],
      "name": "l1InfoRootMap",
      "outputs": [
        {
          "internalType": "bytes32",
          "name": "l1InfoRoot",
          "type": "bytes32"
        }
      ],
      "stateMutability": "view",
      "type": "function"
    },
    {
      "inputs": [],
      "name": "lastMainnetExitRoot",
      "outputs": [
        {
          "internalType": "bytes32",
          "name": "",
          "type": "bytes32"
        }
      ],
      "stateMutability": "view",
      "type": "function"
    },
    {
      "inputs": [],
      "name": "lastRollupExitRoot",
      "outputs": [
        {
          "internalType": "bytes32",
          "name": "",
          "type": "bytes32"
        }
      ],
      "stateMutability": "view",
      "type": "function"
    },
    {
      "inputs": [],
      "name": "rollupManager",
      "outputs": [
        {
          "internalType": "address",
          "name": "",
          "type": "address"
        }
      ],
      "stateMutability": "view",
      "type": "function"
    },
    {
      "inputs": [
        {
          "internalType": "bytes32",
          "name": "newRoot",
          "type": "bytes32"
        }
      ],
      "name": "updateExitRoot",
      "outputs": [],
      "stateMutability": "nonpayable",
      "type": "function"
    },
    {
      "inputs": [
        {
          "internalType": "bytes32",
          "name": "leafHash",
          "type": "bytes32"
        },
        {
          "internalType": "bytes32[32]",
          "name": "smtProof",
          "type": "bytes32[32]"
        },
        {
          "internalType": "uint32",
          "name": "index",
          "type": "uint32"
        },
        {
          "internalType": "bytes32",
          "name": "root",
          "type": "bytes32"
        }
      ],
      "name": "verifyMerkleProof",
      "outputs": [
        {
          "internalType": "bool",
          "name": "",
          "type": "bool"
        }
      ],
      "stateMutability": "pure",
      "type": "function"
    },
    {
      "inputs": [],
      "name": "version",
      "outputs": [
        {
          "internalType": "string",
          "name": "",
          "type": "string"
        }
      ],
      "stateMutability": "pure",
      "type": "function"
    }
  ],
  "bytecode": "0x60c060405234801561000f575f5ffd5b50604051610ea4380380610ea483398101604081905261002e9161012b565b6001600160a01b0380831660a0528116608052610049610050565b505061015c565b602e54610100900460ff16156100bc5760405162461bcd60e51b815260206004820152602760248201527f496e697469616c697a61626c653a20636f6e747261637420697320696e697469604482015266616c697a696e6760c81b606482015260840160405180910390fd5b602e5460ff908116101561010e57602e805460ff191660ff9081179091556040519081527f7f26b83ff96e1f2b6a682f133852f6798a09c465da95921460cefb38474024989060200160405180910390a15b565b80516001600160a01b0381168114610126575f5ffd5b919050565b5f5f6040838503121561013c575f5ffd5b61014583610110565b915061015360208401610110565b90509250929050565b60805160a051610d1961018b5f395f81816101b6015261038f01525f81816102c601526103430152610d195ff3fe608060405234801561000f575f5ffd5b50600436106100fb575f3560e01c806354fd4d501161009357806383f244031161006357806383f24403146102ae578063a3c573eb146102c1578063ef4eeb35146102e8578063fb57083414610307575f5ffd5b806354fd4d50146101fd5780635ca1e165146102365780635d8105011461023e5780638129fc1c146102a6575f5ffd5b8063319cf735116100ce578063319cf7351461018b57806333d6247d146101945780633ed691ef146101a957806349b7b802146101b1575f5ffd5b806301fd9044146100ff5780630f1426191461011a578063257b3632146101635780632dfdf0b514610182575b5f5ffd5b6101075f5481565b6040519081526020015b60405180910390f35b6101566040518060400160405280600681526020017f76312e302e30000000000000000000000000000000000000000000000000000081525081565b6040516101119190610977565b6101076101713660046109ca565b60026020525f908152604090205481565b61010760235481565b61010760015481565b6101a76101a23660046109ca565b61032a565b005b610107610550565b6101d87f000000000000000000000000000000000000000000000000000000000000000081565b60405173ffffffffffffffffffffffffffffffffffffffff9091168152602001610111565b60408051808201909152600681527f76312e302e3000000000000000000000000000000000000000000000000000006020820152610156565b610107610563565b61010761024c3660046109e1565b604080516020808201959095528082019390935260c09190911b7fffffffffffffffff0000000000000000000000000000000000000000000000001660608301528051604881840301815260689092019052805191012090565b6101a761056c565b6101076102bc366004610a4c565b610760565b6101d87f000000000000000000000000000000000000000000000000000000000000000081565b6101076102f6366004610a88565b602f6020525f908152604090205481565b61031a610315366004610aa1565b6107ed565b6040519015158152602001610111565b5f8073ffffffffffffffffffffffffffffffffffffffff7f000000000000000000000000000000000000000000000000000000000000000016330361037857505060018190555f54816103f7565b73ffffffffffffffffffffffffffffffffffffffff7f00000000000000000000000000000000000000000000000000000000000000001633036103c55750505f81905560015481906103f7565b6040517fb49365dd00000000000000000000000000000000000000000000000000000000815260040160405180910390fd5b5f6104028284610804565b5f818152600260205260408120549192500361054a57425f610425600143610b13565b5f8481526002602090815260409182902092409283905581518082018790528083018490527fffffffffffffffff00000000000000000000000000000000000000000000000060c087901b16606082015282518082036048018152606890910190925281519101209091506104999061081b565b5f6104a2610563565b60235463ffffffff165f908152602f602052604080822083905551919250879187917fda61aa7823fcd807e37b95aabcbe17f03a6f3efd514176444dae191d27fd66b391a360235463ffffffff167faf6c6cd7790e0180a4d22eb8ed846e55846f54ed10e5946db19972b5a0813a5982848660405161053e93929190928352602083019190915267ffffffffffffffff16604082015260600190565b60405180910390a25050505b50505050565b5f61055e6001545f54610804565b905090565b5f61055e6108f8565b602e54610100900460ff161580801561058c5750602e54600160ff909116105b806105a65750303b1580156105a65750602e5460ff166001145b610636576040517f08c379a000000000000000000000000000000000000000000000000000000000815260206004820152602e60248201527f496e697469616c697a61626c653a20636f6e747261637420697320616c72656160448201527f647920696e697469616c697a6564000000000000000000000000000000000000606482015260840160405180910390fd5b602e80547fffffffffffffffffffffffffffffffffffffffffffffffffffffffffffffff00166001179055801561069457602e80547fffffffffffffffffffffffffffffffffffffffffffffffffffffffffffff00ff166101001790555b5f61069d610563565b6023805463ffffffff9081165f908152602f602090815260409182902085905592548151921682529181018390529192507f11f50c71891002839c2637ce302087160298255a87f1ea60d40e8db081383fad910160405180910390a150801561075d57602e80547fffffffffffffffffffffffffffffffffffffffffffffffffffffffffffff00ff169055604051600181527f7f26b83ff96e1f2b6a682f133852f6798a09c465da95921460cefb38474024989060200160405180910390a15b50565b5f83815b60208110156107e457600163ffffffff8516821c811690036107b0576107a985826020811061079557610795610b26565b6020020135835f9182526020526040902090565b91506107dc565b6107d9828683602081106107c6576107c6610b26565b60200201355f9182526020526040902090565b91505b600101610764565b50949350505050565b5f816107fa868686610760565b1495945050505050565b5f8281526020829052604081205b90505b92915050565b80600161082a60206002610c74565b6108349190610b13565b6023541061086e576040517fef5ccf6600000000000000000000000000000000000000000000000000000000815260040160405180910390fd5b5f60235f815461087d90610c7f565b918290555090505f5b60208110156108ea578082901c6001166001036108b95782600382602081106108b1576108b1610b26565b015550505050565b6108e0600382602081106108cf576108cf610b26565b0154845f9182526020526040902090565b9250600101610886565b506108f3610cb6565b505050565b6023545f90819081805b602081101561096e578083901c600116600103610947576109406003826020811061092f5761092f610b26565b0154855f9182526020526040902090565b9350610957565b5f84815260208390526040902093505b5f8281526020839052604090209150600101610902565b50919392505050565b602081525f82518060208401528060208501604085015e5f6040828501015260407fffffffffffffffffffffffffffffffffffffffffffffffffffffffffffffffe0601f83011684010191505092915050565b5f602082840312156109da575f5ffd5b5035919050565b5f5f5f606084860312156109f3575f5ffd5b8335925060208401359150604084013567ffffffffffffffff81168114610a18575f5ffd5b809150509250925092565b806104008101831015610815575f5ffd5b803563ffffffff81168114610a47575f5ffd5b919050565b5f5f5f6104408486031215610a5f575f5ffd5b83359250610a708560208601610a23565b9150610a7f6104208501610a34565b90509250925092565b5f60208284031215610a98575f5ffd5b61081282610a34565b5f5f5f5f6104608587031215610ab5575f5ffd5b84359350610ac68660208701610a23565b9250610ad56104208601610a34565b939692955092936104400135925050565b7f4e487b71000000000000000000000000000000000000000000000000000000005f52601160045260245ffd5b8181038181111561081557610815610ae6565b7f4e487b71000000000000000000000000000000000000000000000000000000005f52603260045260245ffd5b6001815b6001841115610b8e57808504811115610b7257610b72610ae6565b6001841615610b8057908102905b60019390931c928002610b57565b935093915050565b5f82610ba457506001610815565b81610bb057505f610815565b8160018114610bc65760028114610bd057610bec565b6001915050610815565b60ff841115610be157610be1610ae6565b50506001821b610815565b5060208310610133831016604e8410600b8410161715610c0f575081810a610815565b610c3a7fffffffffffffffffffffffffffffffffffffffffffffffffffffffffffffffff8484610b53565b807fffffffffffffffffffffffffffffffffffffffffffffffffffffffffffffffff04821115610c6c57610c6c610ae6565b029392505050565b5f6108128383610b96565b5f7fffffffffffffffffffffffffffffffffffffffffffffffffffffffffffffffff8203610caf57610caf610ae6565b5060010190565b7f4e487b71000000000000000000000000000000000000000000000000000000005f52600160045260245ffdfea2646970667358221220d3dee12c6bacca6bbf8805b9d98a4f100208c9e6ec56f73d3d9609e54e8e289c64736f6c634300081c0033",
  "linkReferences": {},
  "deployedLinkReferences": {}
}