{
  "_format": "hh-sol-artifact-1",
  "contractName": "PolygonZkEVMGlobalExitRootV2",
  "sourceName": "contracts/v2/PolygonZkEVMGlobalExitRootV2.sol",
  "abi": [
    {
      "inputs": [
        {
          "internalType": "address",
          "name": "_rollupManager",
          "type": "address"
        },
        {
          "internalType": "address",
          "name": "_bridgeAddress",
          "type": "address"
        }
      ],
      "stateMutability": "nonpayable",
      "type": "constructor"
    },
    {
      "inputs": [],
      "name": "GlobalExitRootAlreadySet",
      "type": "error"
    },
    {
      "inputs": [],
      "name": "GlobalExitRootNotFound",
      "type": "error"
    },
    {
      "inputs": [],
      "name": "InvalidZeroAddress",
      "type": "error"
    },
    {
      "inputs": [],
      "name": "MerkleTreeFull",
      "type": "error"
    },
    {
      "inputs": [],
      "name": "OnlyAllowedContracts",
      "type": "error"
    },
    {
      "inputs": [],
      "name": "OnlyGlobalExitRootRemover",
      "type": "error"
    },
    {
      "inputs": [],
      "name": "OnlyGlobalExitRootUpdater",
      "type": "error"
    },
    {
      "inputs": [],
      "name": "OnlyPendingGlobalExitRootRemover",
      "type": "error"
    },
    {
      "inputs": [],
      "name": "OnlyPendingGlobalExitRootUpdater",
      "type": "error"
    },
    {
      "anonymous": false,
      "inputs": [
        {
          "indexed": false,
          "internalType": "uint32",
          "name": "leafCount",
          "type": "uint32"
        },
        {
          "indexed": false,
          "internalType": "bytes32",
          "name": "currentL1InfoRoot",
          "type": "bytes32"
        }
      ],
      "name": "InitL1InfoRootMap",
      "type": "event"
    },
    {
      "anonymous": false,
      "inputs": [
        {
          "indexed": false,
          "internalType": "uint8",
          "name": "version",
          "type": "uint8"
        }
      ],
      "name": "Initialized",
      "type": "event"
    },
    {
      "anonymous": false,
      "inputs": [
        {
          "indexed": true,
          "internalType": "bytes32",
          "name": "mainnetExitRoot",
          "type": "bytes32"
        },
        {
          "indexed": true,
          "internalType": "bytes32",
          "name": "rollupExitRoot",
          "type": "bytes32"
        }
      ],
      "name": "UpdateL1InfoTree",
      "type": "event"
    },
    {
      "anonymous": false,
      "inputs": [
        {
          "indexed": false,
          "internalType": "bytes32",
          "name": "currentL1InfoRoot",
          "type": "bytes32"
        },
        {
          "indexed": true,
          "internalType": "uint32",
          "name": "leafCount",
          "type": "uint32"
        },
        {
          "indexed": false,
          "internalType": "uint256",
          "name": "blockhash",
          "type": "uint256"
        },
        {
          "indexed": false,
          "internalType": "uint64",
          "name": "minTimestamp",
          "type": "uint64"
        }
      ],
      "name": "UpdateL1InfoTreeV2",
      "type": "event"
    },
    {
      "inputs": [],
      "name": "GER_VERSION",
      "outputs": [
        {
          "internalType": "string",
          "name": "",
          "type": "string"
        }
      ],
      "stateMutability": "view",
      "type": "function"
    },
    {
      "inputs": [],
      "name": "bridgeAddress",
      "outputs": [
        {
          "internalType": "address",
          "name": "",
          "type": "address"
        }
      ],
      "stateMutability": "view",
      "type": "function"
    },
    {
      "inputs": [
        {
          "internalType": "bytes32",
          "name": "leafHash",
          "type": "bytes32"
        },
        {
          "internalType": "bytes32[32]",
          "name": "smtProof",
          "type": "bytes32[32]"
        },
        {
          "internalType": "uint32",
          "name": "index",
          "type": "uint32"
        }
      ],
      "name": "calculateRoot",
      "outputs": [
        {
          "internalType": "bytes32",
          "name": "",
          "type": "bytes32"
        }
      ],
      "stateMutability": "pure",
      "type": "function"
    },
    {
      "inputs": [],
      "name": "depositCount",
      "outputs": [
        {
          "internalType": "uint256",
          "name": "",
          "type": "uint256"
        }
      ],
      "stateMutability": "view",
      "type": "function"
    },
    {
      "inputs": [],
      "name": "getLastGlobalExitRoot",
      "outputs": [
        {
          "internalType": "bytes32",
          "name": "",
          "type": "bytes32"
        }
      ],
      "stateMutability": "view",
      "type": "function"
    },
    {
      "inputs": [
        {
          "internalType": "bytes32",
          "name": "newGlobalExitRoot",
          "type": "bytes32"
        },
        {
          "internalType": "uint256",
          "name": "lastBlockHash",
          "type": "uint256"
        },
        {
          "internalType": "uint64",
          "name": "timestamp",
          "type": "uint64"
        }
      ],
      "name": "getLeafValue",
      "outputs": [
        {
          "internalType": "bytes32",
          "name": "",
          "type": "bytes32"
        }
      ],
      "stateMutability": "pure",
      "type": "function"
    },
    {
      "inputs": [],
      "name": "getRoot",
      "outputs": [
        {
          "internalType": "bytes32",
          "name": "",
          "type": "bytes32"
        }
      ],
      "stateMutability": "view",
      "type": "function"
    },
    {
      "inputs": [
        {
          "internalType": "bytes32",
          "name": "",
          "type": "bytes32"
        }
      ],
      "name": "globalExitRootMap",
      "outputs": [
        {
          "internalType": "uint256",
          "name": "",
          "type": "uint256"
        }
      ],
      "stateMutability": "view",
      "type": "function"
    },
    {
      "inputs": [],
      "name": "initialize",
      "outputs": [],
      "stateMutability": "nonpayable",
      "type": "function"
    },
    {
      "inputs": [
        {
          "internalType": "uint32",
          "name": "leafCount",
          "type": "uint32"
        }
      ],
      "name": "l1InfoRootMap",
      "outputs": [
        {
          "internalType": "bytes32",
          "name": "l1InfoRoot",
          "type": "bytes32"
        }
      ],
      "stateMutability": "view",
      "type": "function"
    },
    {
      "inputs": [],
      "name": "lastMainnetExitRoot",
      "outputs": [
        {
          "internalType": "bytes32",
          "name": "",
          "type": "bytes32"
        }
      ],
      "stateMutability": "view",
      "type": "function"
    },
    {
      "inputs": [],
      "name": "lastRollupExitRoot",
      "outputs": [
        {
          "internalType": "bytes32",
          "name": "",
          "type": "bytes32"
        }
      ],
      "stateMutability": "view",
      "type": "function"
    },
    {
      "inputs": [],
      "name": "rollupManager",
      "outputs": [
        {
          "internalType": "address",
          "name": "",
          "type": "address"
        }
      ],
      "stateMutability": "view",
      "type": "function"
    },
    {
      "inputs": [
        {
          "internalType": "bytes32",
          "name": "newRoot",
          "type": "bytes32"
        }
      ],
      "name": "updateExitRoot",
      "outputs": [],
      "stateMutability": "nonpayable",
      "type": "function"
    },
    {
      "inputs": [
        {
          "internalType": "bytes32",
          "name": "leafHash",
          "type": "bytes32"
        },
        {
          "internalType": "bytes32[32]",
          "name": "smtProof",
          "type": "bytes32[32]"
        },
        {
          "internalType": "uint32",
          "name": "index",
          "type": "uint32"
        },
        {
          "internalType": "bytes32",
          "name": "root",
          "type": "bytes32"
        }
      ],
      "name": "verifyMerkleProof",
      "outputs": [
        {
          "internalType": "bool",
          "name": "",
          "type": "bool"
        }
      ],
      "stateMutability": "pure",
      "type": "function"
    }
  ],
  "bytecode": "0x60c060405234801561000f575f5ffd5b50604051610e60380380610e6083398101604081905261002e9161012b565b6001600160a01b0380831660a0528116608052610049610050565b505061015c565b602e54610100900460ff16156100bc5760405162461bcd60e51b815260206004820152602760248201527f496e697469616c697a61626c653a20636f6e747261637420697320696e697469604482015266616c697a696e6760c81b606482015260840160405180910390fd5b602e5460ff908116101561010e57602e805460ff191660ff9081179091556040519081527f7f26b83ff96e1f2b6a682f133852f6798a09c465da95921460cefb38474024989060200160405180910390a15b565b80516001600160a01b0381168114610126575f5ffd5b919050565b5f5f6040838503121561013c575f5ffd5b61014583610110565b915061015360208401610110565b90509250929050565b60805160a051610cd561018b5f395f81816101ab015261034b01525f818161028201526102ff0152610cd55ff3fe608060405234801561000f575f5ffd5b50600436106100f0575f3560e01c806349b7b8021161009357806383f244031161006357806383f244031461026a578063a3c573eb1461027d578063ef4eeb35146102a4578063fb570834146102c3575f5ffd5b806349b7b802146101a65780635ca1e165146101f25780635d810501146101fa5780638129fc1c14610262575f5ffd5b80632dfdf0b5116100ce5780632dfdf0b514610177578063319cf7351461018057806333d6247d146101895780633ed691ef1461019e575f5ffd5b806301fd9044146100f45780630f1426191461010f578063257b363214610158575b5f5ffd5b6100fc5f5481565b6040519081526020015b60405180910390f35b61014b6040518060400160405280600981526020017f616c2d76302e332e30000000000000000000000000000000000000000000000081525081565b6040516101069190610933565b6100fc610166366004610986565b60026020525f908152604090205481565b6100fc60235481565b6100fc60015481565b61019c610197366004610986565b6102e6565b005b6100fc61050c565b6101cd7f000000000000000000000000000000000000000000000000000000000000000081565b60405173ffffffffffffffffffffffffffffffffffffffff9091168152602001610106565b6100fc61051f565b6100fc61020836600461099d565b604080516020808201959095528082019390935260c09190911b7fffffffffffffffff0000000000000000000000000000000000000000000000001660608301528051604881840301815260689092019052805191012090565b61019c610528565b6100fc610278366004610a08565b61071c565b6101cd7f000000000000000000000000000000000000000000000000000000000000000081565b6100fc6102b2366004610a44565b602f6020525f908152604090205481565b6102d66102d1366004610a5d565b6107a9565b6040519015158152602001610106565b5f8073ffffffffffffffffffffffffffffffffffffffff7f000000000000000000000000000000000000000000000000000000000000000016330361033457505060018190555f54816103b3565b73ffffffffffffffffffffffffffffffffffffffff7f00000000000000000000000000000000000000000000000000000000000000001633036103815750505f81905560015481906103b3565b6040517fb49365dd00000000000000000000000000000000000000000000000000000000815260040160405180910390fd5b5f6103be82846107c0565b5f818152600260205260408120549192500361050657425f6103e1600143610acf565b5f8481526002602090815260409182902092409283905581518082018790528083018490527fffffffffffffffff00000000000000000000000000000000000000000000000060c087901b1660608201528251808203604801815260689091019092528151910120909150610455906107d7565b5f61045e61051f565b60235463ffffffff165f908152602f602052604080822083905551919250879187917fda61aa7823fcd807e37b95aabcbe17f03a6f3efd514176444dae191d27fd66b391a360235463ffffffff167faf6c6cd7790e0180a4d22eb8ed846e55846f54ed10e5946db19972b5a0813a598284866040516104fa93929190928352602083019190915267ffffffffffffffff16604082015260600190565b60405180910390a25050505b50505050565b5f61051a6001545f546107c0565b905090565b5f61051a6108b4565b602e54610100900460ff16158080156105485750602e54600160ff909116105b806105625750303b1580156105625750602e5460ff166001145b6105f2576040517f08c379a000000000000000000000000000000000000000000000000000000000815260206004820152602e60248201527f496e697469616c697a61626c653a20636f6e747261637420697320616c72656160448201527f647920696e697469616c697a6564000000000000000000000000000000000000606482015260840160405180910390fd5b602e80547fffffffffffffffffffffffffffffffffffffffffffffffffffffffffffffff00166001179055801561065057602e80547fffffffffffffffffffffffffffffffffffffffffffffffffffffffffffff00ff166101001790555b5f61065961051f565b6023805463ffffffff9081165f908152602f602090815260409182902085905592548151921682529181018390529192507f11f50c71891002839c2637ce302087160298255a87f1ea60d40e8db081383fad910160405180910390a150801561071957602e80547fffffffffffffffffffffffffffffffffffffffffffffffffffffffffffff00ff169055604051600181527f7f26b83ff96e1f2b6a682f133852f6798a09c465da95921460cefb38474024989060200160405180910390a15b50565b5f83815b60208110156107a057600163ffffffff8516821c8116900361076c5761076585826020811061075157610751610ae2565b6020020135835f9182526020526040902090565b9150610798565b6107958286836020811061078257610782610ae2565b60200201355f9182526020526040902090565b91505b600101610720565b50949350505050565b5f816107b686868661071c565b1495945050505050565b5f8281526020829052604081205b90505b92915050565b8060016107e660206002610c30565b6107f09190610acf565b6023541061082a576040517fef5ccf6600000000000000000000000000000000000000000000000000000000815260040160405180910390fd5b5f60235f815461083990610c3b565b918290555090505f5b60208110156108a6578082901c60011660010361087557826003826020811061086d5761086d610ae2565b015550505050565b61089c6003826020811061088b5761088b610ae2565b0154845f9182526020526040902090565b9250600101610842565b506108af610c72565b505050565b6023545f90819081805b602081101561092a578083901c600116600103610903576108fc600382602081106108eb576108eb610ae2565b0154855f9182526020526040902090565b9350610913565b5f84815260208390526040902093505b5f82815260208390526040902091506001016108be565b50919392505050565b602081525f82518060208401528060208501604085015e5f6040828501015260407fffffffffffffffffffffffffffffffffffffffffffffffffffffffffffffffe0601f83011684010191505092915050565b5f60208284031215610996575f5ffd5b5035919050565b5f5f5f606084860312156109af575f5ffd5b8335925060208401359150604084013567ffffffffffffffff811681146109d4575f5ffd5b809150509250925092565b8061040081018310156107d1575f5ffd5b803563ffffffff81168114610a03575f5ffd5b919050565b5f5f5f6104408486031215610a1b575f5ffd5b83359250610a2c85602086016109df565b9150610a3b61042085016109f0565b90509250925092565b5f60208284031215610a54575f5ffd5b6107ce826109f0565b5f5f5f5f6104608587031215610a71575f5ffd5b84359350610a8286602087016109df565b9250610a9161042086016109f0565b939692955092936104400135925050565b7f4e487b71000000000000000000000000000000000000000000000000000000005f52601160045260245ffd5b818103818111156107d1576107d1610aa2565b7f4e487b71000000000000000000000000000000000000000000000000000000005f52603260045260245ffd5b6001815b6001841115610b4a57808504811115610b2e57610b2e610aa2565b6001841615610b3c57908102905b60019390931c928002610b13565b935093915050565b5f82610b60575060016107d1565b81610b6c57505f6107d1565b8160018114610b825760028114610b8c57610ba8565b60019150506107d1565b60ff841115610b9d57610b9d610aa2565b50506001821b6107d1565b5060208310610133831016604e8410600b8410161715610bcb575081810a6107d1565b610bf67fffffffffffffffffffffffffffffffffffffffffffffffffffffffffffffffff8484610b0f565b807fffffffffffffffffffffffffffffffffffffffffffffffffffffffffffffffff04821115610c2857610c28610aa2565b029392505050565b5f6107ce8383610b52565b5f7fffffffffffffffffffffffffffffffffffffffffffffffffffffffffffffffff8203610c6b57610c6b610aa2565b5060010190565b7f4e487b71000000000000000000000000000000000000000000000000000000005f52600160045260245ffdfea264697066735822122091445bf87f32a3f7e0a124631aa0bf488810726db74eba6b320b5893518b07b464736f6c634300081c0033",
  "linkReferences": {},
  "deployedLinkReferences": {}
}